{"abi":[{"anonymous":false,"inputs":[{"indexed":true,"internalType":"address","name":"previousOwner","type":"address"},{"indexed":true,"internalType":"address","name":"newOwner","type":"address"}],"name":"OwnershipTransferred","type":"event"},{"inputs":[],"name":"amountBtcDown","outputs":[{"internalType":"uint256","name":"","type":"uint256"}],"stateMutability":"view","type":"function"},{"inputs":[],"name":"amountBtcUp","outputs":[{"internalType":"uint256","name":"","type":"uint256"}],"stateMutability":"view","type":"function"},{"inputs":[],"name":"collateralBtcDown","outputs":[{"internalType":"uint256","name":"","type":"uint256"}],"stateMutability":"view","type":"function"},{"inputs":[],"name":"collateralBtcUp","outputs":[{"internalType":"uint256","name":"","type":"uint256"}],"stateMutability":"view","type":"function"},{"inputs":[],"name":"getBtcDownPrice","outputs":[{"internalType":"uint256","name":"","type":"uint256"}],"stateMutability":"view","type":"function"},{"inputs":[],"name":"getBtcPrice","outputs":[{"internalType":"uint256","name":"","type":"uint256"}],"stateMutability":"view","type":"function"},{"inputs":[],"name":"getBtcUpPrice","outputs":[{"internalType":"uint256","name":"","type":"uint256"}],"stateMutability":"view","type":"function"},{"inputs":[],"name":"getBtcdownBalance","outputs":[{"internalType":"uint256","name":"","type":"uint256"}],"stateMutability":"view","type":"function"},{"inputs":[],"name":"getBtcupBalance","outputs":[{"internalType":"uint256","name":"","type":"uint256"}],"stateMutability":"view","type":"function"},{"inputs":[{"internalType":"uint256","name":"amountUsdc","type":"uint256"}],"name":"initializePool","outputs":[],"stateMutability":"nonpayable","type":"function"},{"inputs":[{"internalType":"uint256","name":"amountUsdc","type":"uint256"}],"name":"issueBtcDown","outputs":[],"stateMutability":"nonpayable","type":"function"},{"inputs":[{"internalType":"uint256","name":"amountUsdc","type":"uint256"}],"name":"issueBtcUp","outputs":[],"stateMutability":"nonpayable","type":"function"},{"inputs":[],"name":"lastBtcPrice","outputs":[{"internalType":"uint256","name":"","type":"uint256"}],"stateMutability":"view","type":"function"},{"inputs":[],"name":"owner","outputs":[{"internalType":"address","name":"","type":"address"}],"stateMutability":"view","type":"function"},{"inputs":[],"name":"poolIsInitialized","outputs":[{"internalType":"bool","name":"","type":"bool"}],"stateMutability":"view","type":"function"},{"inputs":[],"name":"priceBtcDown","outputs":[{"internalType":"uint256","name":"","type":"uint256"}],"stateMutability":"view","type":"function"},{"inputs":[],"name":"priceBtcUp","outputs":[{"internalType":"uint256","name":"","type":"uint256"}],"stateMutability":"view","type":"function"},{"inputs":[],"name":"rebalanceLeveragedTokens","outputs":[],"stateMutability":"nonpayable","type":"function"},{"inputs":[{"internalType":"uint256","name":"amountLeveragedTokens","type":"uint256"}],"name":"redeemBtcDown","outputs":[],"stateMutability":"nonpayable","type":"function"},{"inputs":[{"internalType":"uint256","name":"amountLeveragedTokens","type":"uint256"}],"name":"redeemBtcUp","outputs":[],"stateMutability":"nonpayable","type":"function"},{"inputs":[],"name":"renounceOwnership","outputs":[],"stateMutability":"nonpayable","type":"function"},{"inputs":[{"internalType":"address","name":"newOwner","type":"address"}],"name":"transferOwnership","outputs":[],"stateMutability":"nonpayable","type":"function"}],"bytecode":"6080604052620f42406001819055600255600060038190556004819055600581905560068190556007556008805474b7a4f3e9097c08da09517b5ab877f7a917224ede006001600160a81b0319909116179055600980546001600160a01b031916736135b13325bfc4b00278b4abc5e20bbce2d6580e17905534801561008457600080fd5b5061009561009061009a565b61009e565b6100ee565b3390565b600080546001600160a01b038381166001600160a01b0319831681178455604051919092169283917f8be0079c531659141344cd1fd0a4f28419497f9722a3daafe3b4186f6b6457e09190a35050565b61320a806100fd6000396000f3fe60806040523480156200001157600080fd5b50600436106200015f5760003560e01c8063b75cbe0b11620000c9578063f0156e8a1162000087578063f0156e8a1462000261578063f06847d6146200026b578063f2fde38b1462000275578063f4352c57146200028c578063f530c04a1462000296578063feae67b014620002ad576200015f565b8063b75cbe0b1462000215578063c46d4f09146200021f578063c7e3b1241462000236578063d1ee539d1462000240578063dde7be2c1462000257576200015f565b80636e5d661511620001235780636e5d661514620001ae578063715018a614620001ba57806381c2b29b14620001c45780638da5cb5b14620001ce57806398881bc914620001e7578063a14274e814620001fe576200015f565b806234b9cc14620001645780630c3e5343146200018657806314d7c6d21462000190578063157d0129146200019a5780633a3610bc14620001a4575b600080fd5b6200016e620002c6565b6040516200017d9190620010b5565b60405180910390f35b6200016e620002cc565b6200016e620002d2565b6200016e620002d8565b6200016e62000364565b620001b8620003f5565b005b620001b862000497565b6200016e620004f4565b620001d862000536565b6040516200017d919062000f70565b620001b8620001f836600462000eea565b62000545565b620001b86200020f36600462000eea565b62000696565b6200016e62000806565b620001b86200023036600462000eea565b6200080c565b6200016e62000979565b620001b86200025136600462000eea565b620009ac565b6200016e62000aa6565b6200016e62000aac565b6200016e62000ab2565b620001b86200028636600462000e9f565b62000ae7565b6200016e62000b64565b620001b8620002a736600462000eea565b62000b6a565b620002b762000c62565b6040516200017d919062000fc1565b60055481565b60025481565b60045481565b600a546040516370a0823160e01b81526000916001600160a01b0316906370a08231906200030b90339060040162000f70565b60206040518083038186803b1580156200032457600080fd5b505afa15801562000339573d6000803e3d6000fd5b505050506040513d601f19601f820116820180604052508101906200035f919062000f03565b905090565b60095460408051633fabe5a360e21b815290516000926001600160a01b0316918391839163feaf968c9160048083019260a0929190829003018186803b158015620003ae57600080fd5b505afa158015620003c3573d6000803e3d6000fd5b505050506040513d601f19601f82011682018060405250810190620003e9919062000f1c565b50919550505050505090565b60006200040162000364565b905060006003541180156200041857506000600454115b15620004925760006200042b8262000c6b565b905060006200043a8362000cb2565b13156200046b5760035462000450908262000cd2565b60035560045462000462908262000ce7565b60045562000490565b6003546200047a908262000ce7565b6003556004546200048c908262000cd2565b6004555b505b600755565b620004a162000cf5565b6001600160a01b0316620004b462000536565b6001600160a01b031614620004e65760405162461bcd60e51b8152600401620004dd9062001049565b60405180910390fd5b620004f2600062000cf9565b565b60006006546000146200052f576200052960065462000522620f424060045462000d4990919063ffffffff16565b9062000d57565b6200035f565b5060025490565b6000546001600160a01b031690565b6200054f62000cf5565b6001600160a01b03166200056262000536565b6001600160a01b0316146200058b5760405162461bcd60e51b8152600401620004dd9062001049565b60085460ff1615620005b15760405162461bcd60e51b8152600401620004dd9062001012565b30604051620005c09062000e68565b620005cc919062000f70565b604051809103906000f080158015620005e9573d6000803e3d6000fd5b50600a80546001600160a01b0319166001600160a01b039290921691909117905560405130906200061a9062000e76565b62000626919062000f70565b604051809103906000f08015801562000643573d6000803e3d6000fd5b50600b80546001600160a01b0319166001600160a01b039290921691909117905562000675620002a782600262000d57565b620006866200023082600262000d57565b506008805460ff19166001179055565b620006a0620003f5565b600b54604051630852cd8d60e31b81526001600160a01b03909116906342966c6890620006d2908490600401620010b5565b600060405180830381600087803b158015620006ed57600080fd5b505af115801562000702573d6000803e3d6000fd5b5050505062000710620004f4565b60028190556000906200072f90620f4240906200052290859062000d49565b60065490915062000741908362000ce7565b60065560045462000753908262000ce7565b600490815560085460405163a9059cbb60e01b81526101009091046001600160a01b031691829163a9059cbb916200079091339187910162000fa8565b602060405180830381600087803b158015620007ab57600080fd5b505af1158015620007c0573d6000803e3d6000fd5b505050506040513d601f19601f82011682018060405250810190620007e6919062000ec8565b6200080157634e487b7160e01b600052600160045260246000fd5b505050565b60065481565b62000816620003f5565b62000820620004f4565b60028190556000906200083c906200052284620f424062000d49565b600b5460405163140e25ad60e31b81529192506001600160a01b03169063a0712d68906200086f908490600401620010b5565b600060405180830381600087803b1580156200088a57600080fd5b505af11580156200089f573d6000803e3d6000fd5b5050600654620008b3925090508262000cd2565b600655600454620008c5908362000cd2565b60049081556008546040516323b872dd60e01b81526101009091046001600160a01b03169182916323b872dd9162000904913391309189910162000f84565b602060405180830381600087803b1580156200091f57600080fd5b505af115801562000934573d6000803e3d6000fd5b505050506040513d601f19601f820116820180604052508101906200095a919062000ec8565b620008015760405162461bcd60e51b8152600401620004dd906200107e565b600b546040516370a0823160e01b81526000916001600160a01b0316906370a08231906200030b90339060040162000f70565b620009b6620003f5565b600a54604051630852cd8d60e31b81526001600160a01b03909116906342966c6890620009e8908490600401620010b5565b600060405180830381600087803b15801562000a0357600080fd5b505af115801562000a18573d6000803e3d6000fd5b5050505062000a2662000ab2565b600181905560009062000a4590620f4240906200052290859062000d49565b60055490915062000a57908362000ce7565b60055560035462000a69908262000ce7565b60035560085460405163a9059cbb60e01b81526101009091046001600160a01b031690819063a9059cbb9062000790903390869060040162000fa8565b60035481565b60015481565b600060055460001462000ae0576200052960055462000522620f424060035462000d4990919063ffffffff16565b5060015490565b62000af162000cf5565b6001600160a01b031662000b0462000536565b6001600160a01b03161462000b2d5760405162461bcd60e51b8152600401620004dd9062001049565b6001600160a01b03811662000b565760405162461bcd60e51b8152600401620004dd9062000fcc565b62000b618162000cf9565b50565b60075481565b62000b74620003f5565b62000b7e62000ab2565b600181905560009062000b9a906200052284620f424062000d49565b600a5460405163140e25ad60e31b81529192506001600160a01b03169063a0712d689062000bcd908490600401620010b5565b600060405180830381600087803b15801562000be857600080fd5b505af115801562000bfd573d6000803e3d6000fd5b505060055462000c11925090508262000cd2565b60055560035462000c23908362000cd2565b6003556008546040516323b872dd60e01b81526101009091046001600160a01b03169081906323b872dd90620009049033903090889060040162000f84565b60085460ff1681565b60008062000c798362000d65565b905062000ca9620f42406200052262000c928462000dcf565b62000ca260035460045462000e4f565b9062000d49565b9150505b919050565b600060075482111562000cc85750600162000cad565b5060001962000cad565b600062000ce08284620010be565b9392505050565b600062000ce0828462001254565b3390565b600080546001600160a01b038381166001600160a01b0319831681178455604051919092169283917f8be0079c531659141344cd1fd0a4f28419497f9722a3daafe3b4186f6b6457e09190a35050565b600062000ce0828462001232565b600062000ce08284620010d9565b600060075482111562000da85762000da0620f424062000d9960075462000522620f42408762000d4990919063ffffffff16565b9062000ce7565b905062000cad565b62000da0620f424062000d998462000522620f424060075462000d4990919063ffffffff16565b60008062000ddf83600362001232565b620f424062000df060028662001147565b62000dfc9190620010d9565b62000e0990600962001232565b62000e159190620010be565b62000e2490620f4240620010be565b905064e8d4a5100062000e388282620010d9565b62000e4790620f424062001254565b949350505050565b60008183111562000e61578162000ce0565b5090919050565b610fa6806200128583390190565b610faa806200222b83390190565b805169ffffffffffffffffffff8116811462000cad57600080fd5b60006020828403121562000eb1578081fd5b81356001600160a01b038116811462000ce0578182fd5b60006020828403121562000eda578081fd5b8151801515811462000ce0578182fd5b60006020828403121562000efc578081fd5b5035919050565b60006020828403121562000f15578081fd5b5051919050565b600080600080600060a0868803121562000f34578081fd5b62000f3f8662000e84565b945060208601519350604086015192506060860151915062000f646080870162000e84565b90509295509295909350565b6001600160a01b0391909116815260200190565b6001600160a01b039384168152919092166020820152604081019190915260600190565b6001600160a01b03929092168252602082015260400190565b901515815260200190565b60208082526026908201527f4f776e61626c653a206e6577206f776e657220697320746865207a65726f206160408201526564647265737360d01b606082015260800190565b6020808252601f908201527f54686520706f6f6c2077617320616c726561647920696e697469617465642e00604082015260600190565b6020808252818101527f4f776e61626c653a2063616c6c6572206973206e6f7420746865206f776e6572604082015260600190565b6020808252601b908201527f596f7520646f6e2774206861766520656e6f75676820555344432e0000000000604082015260600190565b90815260200190565b60008219821115620010d457620010d46200126e565b500190565b600082620010f557634e487b7160e01b81526012600452602481fd5b500490565b80825b60018086116200110e57506200113e565b8187048211156200112357620011236200126e565b808616156200113157918102915b9490941c938002620010fd565b94509492505050565b600062000ce060001960ff851684600082620011665750600162000ce0565b81620011755750600062000ce0565b81600181146200118e57600281146200119957620011cd565b600191505062000ce0565b60ff841115620011ad57620011ad6200126e565b6001841b915084821115620011c657620011c66200126e565b5062000ce0565b5060208310610133831016604e8410600b841016171562001205575081810a83811115620011ff57620011ff6200126e565b62000ce0565b620012148484846001620010fa565b8086048211156200122957620012296200126e565b02949350505050565b60008160001904831182151516156200124f576200124f6200126e565b500290565b6000828210156200126957620012696200126e565b500390565b634e487b7160e01b600052601160045260246000fdfe60806040523480156200001157600080fd5b5060405162000fa638038062000fa6833981016040819052620000349162000169565b604080518082018252600a8152690426974636f696e2055760b41b602080830191825283518085019094526005845264042544355560dc1b9084015281519192916200008391600391620000c3565b50805162000099906004906020840190620000c3565b5050600580546001600160a01b0319166001600160a01b03939093169290921790915550620001d6565b828054620000d19062000199565b90600052602060002090601f016020900481019282620000f5576000855562000140565b82601f106200011057805160ff191683800117855562000140565b8280016001018555821562000140579182015b828111156200014057825182559160200191906001019062000123565b506200014e92915062000152565b5090565b5b808211156200014e576000815560010162000153565b6000602082840312156200017b578081fd5b81516001600160a01b038116811462000192578182fd5b9392505050565b600281046001821680620001ae57607f821691505b60208210811415620001d057634e487b7160e01b600052602260045260246000fd5b50919050565b610dc080620001e66000396000f3fe608060405234801561001057600080fd5b50600436106100ea5760003560e01c806370a082311161008c578063a0712d6811610066578063a0712d68146101c0578063a457c2d7146101d3578063a9059cbb146101e6578063dd62ed3e146101f9576100ea565b806370a082311461019257806379cc6790146101a557806395d89b41146101b8576100ea565b806323b872dd116100c857806323b872dd14610142578063313ce56714610155578063395093511461016a57806342966c681461017d576100ea565b806306fdde03146100ef578063095ea7b31461010d57806318160ddd1461012d575b600080fd5b6100f761020c565b60405161010491906109c1565b60405180910390f35b61012061011b366004610975565b61029e565b60405161010491906109b6565b6101356102bb565b6040516101049190610cf3565b61012061015036600461093a565b6102c1565b61015d61035a565b6040516101049190610cfc565b610120610178366004610975565b61035f565b61019061018b36600461099e565b6103b3565b005b6101356101a03660046108e7565b6103d7565b6101906101b3366004610975565b6103f6565b6100f7610449565b6101906101ce36600461099e565b610458565b6101206101e1366004610975565b610479565b6101206101f4366004610975565b6104f2565b610135610207366004610908565b610506565b60606003805461021b90610d39565b80601f016020809104026020016040519081016040528092919081815260200182805461024790610d39565b80156102945780601f1061026957610100808354040283529160200191610294565b820191906000526020600020905b81548152906001019060200180831161027757829003601f168201915b5050505050905090565b60006102b26102ab610531565b8484610535565b50600192915050565b60025490565b60006102ce8484846105e9565b6001600160a01b0384166000908152600160205260408120816102ef610531565b6001600160a01b03166001600160a01b031681526020019081526020016000205490508281101561033b5760405162461bcd60e51b815260040161033290610b21565b60405180910390fd5b61034f85610347610531565b858403610535565b506001949350505050565b600690565b60006102b261036c610531565b84846001600061037a610531565b6001600160a01b03908116825260208083019390935260409182016000908120918b16815292529020546103ae9190610d0a565b610535565b6005546001600160a01b031633146103ca57600080fd5b6103d432826103f6565b50565b6001600160a01b0381166000908152602081905260409020545b919050565b600061040483610207610531565b9050818110156104265760405162461bcd60e51b815260040161033290610b69565b61043a83610432610531565b848403610535565b6104448383610713565b505050565b60606004805461021b90610d39565b6005546001600160a01b0316331461046f57600080fd5b6103d43282610804565b60008060016000610488610531565b6001600160a01b03908116825260208083019390935260409182016000908120918816815292529020549050828110156104d45760405162461bcd60e51b815260040161033290610c77565b6104e86104df610531565b85858403610535565b5060019392505050565b60006102b26104ff610531565b84846105e9565b6001600160a01b03918216600090815260016020908152604080832093909416825291909152205490565b3390565b6001600160a01b03831661055b5760405162461bcd60e51b815260040161033290610c33565b6001600160a01b0382166105815760405162461bcd60e51b815260040161033290610a99565b6001600160a01b0380841660008181526001602090815260408083209487168084529490915290819020849055517f8c5be1e5ebec7d5bd14f71427d1e84f3dd0314c0f7b2291e5b200ac8c7c3b925906105dc908590610cf3565b60405180910390a3505050565b6001600160a01b03831661060f5760405162461bcd60e51b815260040161033290610bee565b6001600160a01b0382166106355760405162461bcd60e51b815260040161033290610a14565b610640838383610444565b6001600160a01b038316600090815260208190526040902054818110156106795760405162461bcd60e51b815260040161033290610adb565b6001600160a01b038085166000908152602081905260408082208585039055918516815290812080548492906106b0908490610d0a565b92505081905550826001600160a01b0316846001600160a01b03167fddf252ad1be2c89b69c2b068fc378daa952ba7f163c4a11628f55a4df523b3ef846040516106fa9190610cf3565b60405180910390a361070d848484610444565b50505050565b6001600160a01b0382166107395760405162461bcd60e51b815260040161033290610bad565b61074582600083610444565b6001600160a01b0382166000908152602081905260409020548181101561077e5760405162461bcd60e51b815260040161033290610a57565b6001600160a01b03831660009081526020819052604081208383039055600280548492906107ad908490610d22565b90915550506040516000906001600160a01b038516907fddf252ad1be2c89b69c2b068fc378daa952ba7f163c4a11628f55a4df523b3ef906107f0908690610cf3565b60405180910390a361044483600084610444565b6001600160a01b03821661082a5760405162461bcd60e51b815260040161033290610cbc565b61083660008383610444565b80600260008282546108489190610d0a565b90915550506001600160a01b03821660009081526020819052604081208054839290610875908490610d0a565b90915550506040516001600160a01b038316906000907fddf252ad1be2c89b69c2b068fc378daa952ba7f163c4a11628f55a4df523b3ef906108b8908590610cf3565b60405180910390a36108cc60008383610444565b5050565b80356001600160a01b03811681146103f157600080fd5b6000602082840312156108f8578081fd5b610901826108d0565b9392505050565b6000806040838503121561091a578081fd5b610923836108d0565b9150610931602084016108d0565b90509250929050565b60008060006060848603121561094e578081fd5b610957846108d0565b9250610965602085016108d0565b9150604084013590509250925092565b60008060408385031215610987578182fd5b610990836108d0565b946020939093013593505050565b6000602082840312156109af578081fd5b5035919050565b901515815260200190565b6000602080835283518082850152825b818110156109ed578581018301518582016040015282016109d1565b818111156109fe5783604083870101525b50601f01601f1916929092016040019392505050565b60208082526023908201527f45524332303a207472616e7366657220746f20746865207a65726f206164647260408201526265737360e81b606082015260800190565b60208082526022908201527f45524332303a206275726e20616d6f756e7420657863656564732062616c616e604082015261636560f01b606082015260800190565b60208082526022908201527f45524332303a20617070726f766520746f20746865207a65726f206164647265604082015261737360f01b606082015260800190565b60208082526026908201527f45524332303a207472616e7366657220616d6f756e7420657863656564732062604082015265616c616e636560d01b606082015260800190565b60208082526028908201527f45524332303a207472616e7366657220616d6f756e74206578636565647320616040820152676c6c6f77616e636560c01b606082015260800190565b60208082526024908201527f45524332303a206275726e20616d6f756e74206578636565647320616c6c6f77604082015263616e636560e01b606082015260800190565b60208082526021908201527f45524332303a206275726e2066726f6d20746865207a65726f206164647265736040820152607360f81b606082015260800190565b60208082526025908201527f45524332303a207472616e736665722066726f6d20746865207a65726f206164604082015264647265737360d81b606082015260800190565b60208082526024908201527f45524332303a20617070726f76652066726f6d20746865207a65726f206164646040820152637265737360e01b606082015260800190565b60208082526025908201527f45524332303a2064656372656173656420616c6c6f77616e63652062656c6f77604082015264207a65726f60d81b606082015260800190565b6020808252601f908201527f45524332303a206d696e7420746f20746865207a65726f206164647265737300604082015260600190565b90815260200190565b60ff91909116815260200190565b60008219821115610d1d57610d1d610d74565b500190565b600082821015610d3457610d34610d74565b500390565b600281046001821680610d4d57607f821691505b60208210811415610d6e57634e487b7160e01b600052602260045260246000fd5b50919050565b634e487b7160e01b600052601160045260246000fdfea26469706673582212204b56f0cf37d0c33c8e1f8790574f12511ae6d7a93357d34f6358125da763b44c64736f6c6343000800003360806040523480156200001157600080fd5b5060405162000faa38038062000faa83398101604081905262000034916200016d565b604080518082018252600c81526b2134ba31b7b4b7102237bbb760a11b602080830191825283518085019094526007845266212a21a227aba760c91b9084015281519192916200008791600391620000c7565b5080516200009d906004906020840190620000c7565b5050600580546001600160a01b0319166001600160a01b03939093169290921790915550620001da565b828054620000d5906200019d565b90600052602060002090601f016020900481019282620000f9576000855562000144565b82601f106200011457805160ff191683800117855562000144565b8280016001018555821562000144579182015b828111156200014457825182559160200191906001019062000127565b506200015292915062000156565b5090565b5b8082111562000152576000815560010162000157565b6000602082840312156200017f578081fd5b81516001600160a01b038116811462000196578182fd5b9392505050565b600281046001821680620001b257607f821691505b60208210811415620001d457634e487b7160e01b600052602260045260246000fd5b50919050565b610dc080620001ea6000396000f3fe608060405234801561001057600080fd5b50600436106100ea5760003560e01c806370a082311161008c578063a0712d6811610066578063a0712d68146101c0578063a457c2d7146101d3578063a9059cbb146101e6578063dd62ed3e146101f9576100ea565b806370a082311461019257806379cc6790146101a557806395d89b41146101b8576100ea565b806323b872dd116100c857806323b872dd14610142578063313ce56714610155578063395093511461016a57806342966c681461017d576100ea565b806306fdde03146100ef578063095ea7b31461010d57806318160ddd1461012d575b600080fd5b6100f761020c565b60405161010491906109c1565b60405180910390f35b61012061011b366004610975565b61029e565b60405161010491906109b6565b6101356102bb565b6040516101049190610cf3565b61012061015036600461093a565b6102c1565b61015d61035a565b6040516101049190610cfc565b610120610178366004610975565b61035f565b61019061018b36600461099e565b6103b3565b005b6101356101a03660046108e7565b6103d7565b6101906101b3366004610975565b6103f6565b6100f7610449565b6101906101ce36600461099e565b610458565b6101206101e1366004610975565b610479565b6101206101f4366004610975565b6104f2565b610135610207366004610908565b610506565b60606003805461021b90610d39565b80601f016020809104026020016040519081016040528092919081815260200182805461024790610d39565b80156102945780601f1061026957610100808354040283529160200191610294565b820191906000526020600020905b81548152906001019060200180831161027757829003601f168201915b5050505050905090565b60006102b26102ab610531565b8484610535565b50600192915050565b60025490565b60006102ce8484846105e9565b6001600160a01b0384166000908152600160205260408120816102ef610531565b6001600160a01b03166001600160a01b031681526020019081526020016000205490508281101561033b5760405162461bcd60e51b815260040161033290610b21565b60405180910390fd5b61034f85610347610531565b858403610535565b506001949350505050565b600690565b60006102b261036c610531565b84846001600061037a610531565b6001600160a01b03908116825260208083019390935260409182016000908120918b16815292529020546103ae9190610d0a565b610535565b6005546001600160a01b031633146103ca57600080fd5b6103d432826103f6565b50565b6001600160a01b0381166000908152602081905260409020545b919050565b600061040483610207610531565b9050818110156104265760405162461bcd60e51b815260040161033290610b69565b61043a83610432610531565b848403610535565b6104448383610713565b505050565b60606004805461021b90610d39565b6005546001600160a01b0316331461046f57600080fd5b6103d43282610804565b60008060016000610488610531565b6001600160a01b03908116825260208083019390935260409182016000908120918816815292529020549050828110156104d45760405162461bcd60e51b815260040161033290610c77565b6104e86104df610531565b85858403610535565b5060019392505050565b60006102b26104ff610531565b84846105e9565b6001600160a01b03918216600090815260016020908152604080832093909416825291909152205490565b3390565b6001600160a01b03831661055b5760405162461bcd60e51b815260040161033290610c33565b6001600160a01b0382166105815760405162461bcd60e51b815260040161033290610a99565b6001600160a01b0380841660008181526001602090815260408083209487168084529490915290819020849055517f8c5be1e5ebec7d5bd14f71427d1e84f3dd0314c0f7b2291e5b200ac8c7c3b925906105dc908590610cf3565b60405180910390a3505050565b6001600160a01b03831661060f5760405162461bcd60e51b815260040161033290610bee565b6001600160a01b0382166106355760405162461bcd60e51b815260040161033290610a14565b610640838383610444565b6001600160a01b038316600090815260208190526040902054818110156106795760405162461bcd60e51b815260040161033290610adb565b6001600160a01b038085166000908152602081905260408082208585039055918516815290812080548492906106b0908490610d0a565b92505081905550826001600160a01b0316846001600160a01b03167fddf252ad1be2c89b69c2b068fc378daa952ba7f163c4a11628f55a4df523b3ef846040516106fa9190610cf3565b60405180910390a361070d848484610444565b50505050565b6001600160a01b0382166107395760405162461bcd60e51b815260040161033290610bad565b61074582600083610444565b6001600160a01b0382166000908152602081905260409020548181101561077e5760405162461bcd60e51b815260040161033290610a57565b6001600160a01b03831660009081526020819052604081208383039055600280548492906107ad908490610d22565b90915550506040516000906001600160a01b038516907fddf252ad1be2c89b69c2b068fc378daa952ba7f163c4a11628f55a4df523b3ef906107f0908690610cf3565b60405180910390a361044483600084610444565b6001600160a01b03821661082a5760405162461bcd60e51b815260040161033290610cbc565b61083660008383610444565b80600260008282546108489190610d0a565b90915550506001600160a01b03821660009081526020819052604081208054839290610875908490610d0a565b90915550506040516001600160a01b038316906000907fddf252ad1be2c89b69c2b068fc378daa952ba7f163c4a11628f55a4df523b3ef906108b8908590610cf3565b60405180910390a36108cc60008383610444565b5050565b80356001600160a01b03811681146103f157600080fd5b6000602082840312156108f8578081fd5b610901826108d0565b9392505050565b6000806040838503121561091a578081fd5b610923836108d0565b9150610931602084016108d0565b90509250929050565b60008060006060848603121561094e578081fd5b610957846108d0565b9250610965602085016108d0565b9150604084013590509250925092565b60008060408385031215610987578182fd5b610990836108d0565b946020939093013593505050565b6000602082840312156109af578081fd5b5035919050565b901515815260200190565b6000602080835283518082850152825b818110156109ed578581018301518582016040015282016109d1565b818111156109fe5783604083870101525b50601f01601f1916929092016040019392505050565b60208082526023908201527f45524332303a207472616e7366657220746f20746865207a65726f206164647260408201526265737360e81b606082015260800190565b60208082526022908201527f45524332303a206275726e20616d6f756e7420657863656564732062616c616e604082015261636560f01b606082015260800190565b60208082526022908201527f45524332303a20617070726f766520746f20746865207a65726f206164647265604082015261737360f01b606082015260800190565b60208082526026908201527f45524332303a207472616e7366657220616d6f756e7420657863656564732062604082015265616c616e636560d01b606082015260800190565b60208082526028908201527f45524332303a207472616e7366657220616d6f756e74206578636565647320616040820152676c6c6f77616e636560c01b606082015260800190565b60208082526024908201527f45524332303a206275726e20616d6f756e74206578636565647320616c6c6f77604082015263616e636560e01b606082015260800190565b60208082526021908201527f45524332303a206275726e2066726f6d20746865207a65726f206164647265736040820152607360f81b606082015260800190565b60208082526025908201527f45524332303a207472616e736665722066726f6d20746865207a65726f206164604082015264647265737360d81b606082015260800190565b60208082526024908201527f45524332303a20617070726f76652066726f6d20746865207a65726f206164646040820152637265737360e01b606082015260800190565b60208082526025908201527f45524332303a2064656372656173656420616c6c6f77616e63652062656c6f77604082015264207a65726f60d81b606082015260800190565b6020808252601f908201527f45524332303a206d696e7420746f20746865207a65726f206164647265737300604082015260600190565b90815260200190565b60ff91909116815260200190565b60008219821115610d1d57610d1d610d74565b500190565b600082821015610d3457610d34610d74565b500390565b600281046001821680610d4d57607f821691505b60208210811415610d6e57634e487b7160e01b600052602260045260246000fd5b50919050565b634e487b7160e01b600052601160045260246000fdfea26469706673582212204e1c6d573572959203575a7ef9e80d49a5273f50819d26ad7285e1265cc9eec664736f6c63430008000033a26469706673582212206eb16b4aa67d309939f62d43371989c51808787b63d8e50fccb32c3795026bf764736f6c63430008000033","bytecodeSha1":"5fbd8aa674de23e45d2fa104ad158ca577257bff","compiler":{"evm_version":"istanbul","optimizer":{"enabled":true,"runs":200},"version":"0.8.0+commit.c7dfd78e"},"contractName":"LeveragedTrading","language":"Solidity","natspec":{"kind":"dev","methods":{"owner()":{"details":"Returns the address of the current owner."},"renounceOwnership()":{"details":"Leaves the contract without owner. It will not be possible to call `onlyOwner` functions anymore. Can only be called by the current owner. NOTE: Renouncing ownership will leave the contract without an owner, thereby removing any functionality that is only available to the owner."},"transferOwnership(address)":{"details":"Transfers ownership of the contract to a new account (`newOwner`). Can only be called by the current owner."}},"version":1},"opcodes":"PUSH1 0x80 PUSH1 0x40 MSTORE CALLVALUE DUP1 ISZERO PUSH3 0x11 JUMPI PUSH1 0x0 DUP1 REVERT JUMPDEST POP PUSH1 0x4 CALLDATASIZE LT PUSH3 0x15F JUMPI PUSH1 0x0 CALLDATALOAD PUSH1 0xE0 SHR DUP1 PUSH4 0xB75CBE0B GT PUSH3 0xC9 JUMPI DUP1 PUSH4 0xF0156E8A GT PUSH3 0x87 JUMPI DUP1 PUSH4 0xF0156E8A EQ PUSH3 0x261 JUMPI DUP1 PUSH4 0xF06847D6 EQ PUSH3 0x26B JUMPI DUP1 PUSH4 0xF2FDE38B EQ PUSH3 0x275 JUMPI DUP1 PUSH4 0xF4352C57 EQ PUSH3 0x28C JUMPI DUP1 PUSH4 0xF530C04A EQ PUSH3 0x296 JUMPI DUP1 PUSH4 0xFEAE67B0 EQ PUSH3 0x2AD JUMPI PUSH3 0x15F JUMP JUMPDEST DUP1 PUSH4 0xB75CBE0B EQ PUSH3 0x215 JUMPI DUP1 PUSH4 0xC46D4F09 EQ PUSH3 0x21F JUMPI DUP1 PUSH4 0xC7E3B124 EQ PUSH3 0x236 JUMPI DUP1 PUSH4 0xD1EE539D EQ PUSH3 0x240 JUMPI DUP1 PUSH4 0xDDE7BE2C EQ PUSH3 0x257 JUMPI PUSH3 0x15F JUMP JUMPDEST DUP1 PUSH4 0x6E5D6615 GT PUSH3 0x123 JUMPI DUP1 PUSH4 0x6E5D6615 EQ PUSH3 0x1AE JUMPI DUP1 PUSH4 0x715018A6 EQ PUSH3 0x1BA JUMPI DUP1 PUSH4 0x81C2B29B EQ PUSH3 0x1C4 JUMPI DUP1 PUSH4 0x8DA5CB5B EQ PUSH3 0x1CE JUMPI DUP1 PUSH4 0x98881BC9 EQ PUSH3 0x1E7 JUMPI DUP1 PUSH4 0xA14274E8 EQ PUSH3 0x1FE JUMPI PUSH3 0x15F JUMP JUMPDEST DUP1 PUSH3 0x34B9CC EQ PUSH3 0x164 JUMPI DUP1 PUSH4 0xC3E5343 EQ PUSH3 0x186 JUMPI DUP1 PUSH4 0x14D7C6D2 EQ PUSH3 0x190 JUMPI DUP1 PUSH4 0x157D0129 EQ PUSH3 0x19A JUMPI DUP1 PUSH4 0x3A3610BC EQ PUSH3 0x1A4 JUMPI JUMPDEST PUSH1 0x0 DUP1 REVERT JUMPDEST PUSH3 0x16E PUSH3 0x2C6 JUMP JUMPDEST PUSH1 0x40 MLOAD PUSH3 0x17D SWAP2 SWAP1 PUSH3 0x10B5 JUMP JUMPDEST PUSH1 0x40 MLOAD DUP1 SWAP2 SUB SWAP1 RETURN JUMPDEST PUSH3 0x16E PUSH3 0x2CC JUMP JUMPDEST PUSH3 0x16E PUSH3 0x2D2 JUMP JUMPDEST PUSH3 0x16E PUSH3 0x2D8 JUMP JUMPDEST PUSH3 0x16E PUSH3 0x364 JUMP JUMPDEST PUSH3 0x1B8 PUSH3 0x3F5 JUMP JUMPDEST STOP JUMPDEST PUSH3 0x1B8 PUSH3 0x497 JUMP JUMPDEST PUSH3 0x16E PUSH3 0x4F4 JUMP JUMPDEST PUSH3 0x1D8 PUSH3 0x536 JUMP JUMPDEST PUSH1 0x40 MLOAD PUSH3 0x17D SWAP2 SWAP1 PUSH3 0xF70 JUMP JUMPDEST PUSH3 0x1B8 PUSH3 0x1F8 CALLDATASIZE PUSH1 0x4 PUSH3 0xEEA JUMP JUMPDEST PUSH3 0x545 JUMP JUMPDEST PUSH3 0x1B8 PUSH3 0x20F CALLDATASIZE PUSH1 0x4 PUSH3 0xEEA JUMP JUMPDEST PUSH3 0x696 JUMP JUMPDEST PUSH3 0x16E PUSH3 0x806 JUMP JUMPDEST PUSH3 0x1B8 PUSH3 0x230 CALLDATASIZE PUSH1 0x4 PUSH3 0xEEA JUMP JUMPDEST PUSH3 0x80C JUMP JUMPDEST PUSH3 0x16E PUSH3 0x979 JUMP JUMPDEST PUSH3 0x1B8 PUSH3 0x251 CALLDATASIZE PUSH1 0x4 PUSH3 0xEEA JUMP JUMPDEST PUSH3 0x9AC JUMP JUMPDEST PUSH3 0x16E PUSH3 0xAA6 JUMP JUMPDEST PUSH3 0x16E PUSH3 0xAAC JUMP JUMPDEST PUSH3 0x16E PUSH3 0xAB2 JUMP JUMPDEST PUSH3 0x1B8 PUSH3 0x286 CALLDATASIZE PUSH1 0x4 PUSH3 0xE9F JUMP JUMPDEST PUSH3 0xAE7 JUMP JUMPDEST PUSH3 0x16E PUSH3 0xB64 JUMP JUMPDEST PUSH3 0x1B8 PUSH3 0x2A7 CALLDATASIZE PUSH1 0x4 PUSH3 0xEEA JUMP JUMPDEST PUSH3 0xB6A JUMP JUMPDEST PUSH3 0x2B7 PUSH3 0xC62 JUMP JUMPDEST PUSH1 0x40 MLOAD PUSH3 0x17D SWAP2 SWAP1 PUSH3 0xFC1 JUMP JUMPDEST PUSH1 0x5 SLOAD DUP2 JUMP JUMPDEST PUSH1 0x2 SLOAD DUP2 JUMP JUMPDEST PUSH1 0x4 SLOAD DUP2 JUMP JUMPDEST PUSH1 0xA SLOAD PUSH1 0x40 MLOAD PUSH4 0x70A08231 PUSH1 0xE0 SHL DUP2 MSTORE PUSH1 0x0 SWAP2 PUSH1 0x1 PUSH1 0x1 PUSH1 0xA0 SHL SUB AND SWAP1 PUSH4 0x70A08231 SWAP1 PUSH3 0x30B SWAP1 CALLER SWAP1 PUSH1 0x4 ADD PUSH3 0xF70 JUMP JUMPDEST PUSH1 0x20 PUSH1 0x40 MLOAD DUP1 DUP4 SUB DUP2 DUP7 DUP1 EXTCODESIZE ISZERO DUP1 ISZERO PUSH3 0x324 JUMPI PUSH1 0x0 DUP1 REVERT JUMPDEST POP GAS STATICCALL ISZERO DUP1 ISZERO PUSH3 0x339 JUMPI RETURNDATASIZE PUSH1 0x0 DUP1 RETURNDATACOPY RETURNDATASIZE PUSH1 0x0 REVERT JUMPDEST POP POP POP POP PUSH1 0x40 MLOAD RETURNDATASIZE PUSH1 0x1F NOT PUSH1 0x1F DUP3 ADD AND DUP3 ADD DUP1 PUSH1 0x40 MSTORE POP DUP2 ADD SWAP1 PUSH3 0x35F SWAP2 SWAP1 PUSH3 0xF03 JUMP JUMPDEST SWAP1 POP SWAP1 JUMP JUMPDEST PUSH1 0x9 SLOAD PUSH1 0x40 DUP1 MLOAD PUSH4 0x3FABE5A3 PUSH1 0xE2 SHL DUP2 MSTORE SWAP1 MLOAD PUSH1 0x0 SWAP3 PUSH1 0x1 PUSH1 0x1 PUSH1 0xA0 SHL SUB AND SWAP2 DUP4 SWAP2 DUP4 SWAP2 PUSH4 0xFEAF968C SWAP2 PUSH1 0x4 DUP1 DUP4 ADD SWAP3 PUSH1 0xA0 SWAP3 SWAP2 SWAP1 DUP3 SWAP1 SUB ADD DUP2 DUP7 DUP1 EXTCODESIZE ISZERO DUP1 ISZERO PUSH3 0x3AE JUMPI PUSH1 0x0 DUP1 REVERT JUMPDEST POP GAS STATICCALL ISZERO DUP1 ISZERO PUSH3 0x3C3 JUMPI RETURNDATASIZE PUSH1 0x0 DUP1 RETURNDATACOPY RETURNDATASIZE PUSH1 0x0 REVERT JUMPDEST POP POP POP POP PUSH1 0x40 MLOAD RETURNDATASIZE PUSH1 0x1F NOT PUSH1 0x1F DUP3 ADD AND DUP3 ADD DUP1 PUSH1 0x40 MSTORE POP DUP2 ADD SWAP1 PUSH3 0x3E9 SWAP2 SWAP1 PUSH3 0xF1C JUMP JUMPDEST POP SWAP2 SWAP6 POP POP POP POP POP POP SWAP1 JUMP JUMPDEST PUSH1 0x0 PUSH3 0x401 PUSH3 0x364 JUMP JUMPDEST SWAP1 POP PUSH1 0x0 PUSH1 0x3 SLOAD GT DUP1 ISZERO PUSH3 0x418 JUMPI POP PUSH1 0x0 PUSH1 0x4 SLOAD GT JUMPDEST ISZERO PUSH3 0x492 JUMPI PUSH1 0x0 PUSH3 0x42B DUP3 PUSH3 0xC6B JUMP JUMPDEST SWAP1 POP PUSH1 0x0 PUSH3 0x43A DUP4 PUSH3 0xCB2 JUMP JUMPDEST SGT ISZERO PUSH3 0x46B JUMPI PUSH1 0x3 SLOAD PUSH3 0x450 SWAP1 DUP3 PUSH3 0xCD2 JUMP JUMPDEST PUSH1 0x3 SSTORE PUSH1 0x4 SLOAD PUSH3 0x462 SWAP1 DUP3 PUSH3 0xCE7 JUMP JUMPDEST PUSH1 0x4 SSTORE PUSH3 0x490 JUMP JUMPDEST PUSH1 0x3 SLOAD PUSH3 0x47A SWAP1 DUP3 PUSH3 0xCE7 JUMP JUMPDEST PUSH1 0x3 SSTORE PUSH1 0x4 SLOAD PUSH3 0x48C SWAP1 DUP3 PUSH3 0xCD2 JUMP JUMPDEST PUSH1 0x4 SSTORE JUMPDEST POP JUMPDEST PUSH1 0x7 SSTORE JUMP JUMPDEST PUSH3 0x4A1 PUSH3 0xCF5 JUMP JUMPDEST PUSH1 0x1 PUSH1 0x1 PUSH1 0xA0 SHL SUB AND PUSH3 0x4B4 PUSH3 0x536 JUMP JUMPDEST PUSH1 0x1 PUSH1 0x1 PUSH1 0xA0 SHL SUB AND EQ PUSH3 0x4E6 JUMPI PUSH1 0x40 MLOAD PUSH3 0x461BCD PUSH1 0xE5 SHL DUP2 MSTORE PUSH1 0x4 ADD PUSH3 0x4DD SWAP1 PUSH3 0x1049 JUMP JUMPDEST PUSH1 0x40 MLOAD DUP1 SWAP2 SUB SWAP1 REVERT JUMPDEST PUSH3 0x4F2 PUSH1 0x0 PUSH3 0xCF9 JUMP JUMPDEST JUMP JUMPDEST PUSH1 0x0 PUSH1 0x6 SLOAD PUSH1 0x0 EQ PUSH3 0x52F JUMPI PUSH3 0x529 PUSH1 0x6 SLOAD PUSH3 0x522 PUSH3 0xF4240 PUSH1 0x4 SLOAD PUSH3 0xD49 SWAP1 SWAP2 SWAP1 PUSH4 0xFFFFFFFF AND JUMP JUMPDEST SWAP1 PUSH3 0xD57 JUMP JUMPDEST PUSH3 0x35F JUMP JUMPDEST POP PUSH1 0x2 SLOAD SWAP1 JUMP JUMPDEST PUSH1 0x0 SLOAD PUSH1 0x1 PUSH1 0x1 PUSH1 0xA0 SHL SUB AND SWAP1 JUMP JUMPDEST PUSH3 0x54F PUSH3 0xCF5 JUMP JUMPDEST PUSH1 0x1 PUSH1 0x1 PUSH1 0xA0 SHL SUB AND PUSH3 0x562 PUSH3 0x536 JUMP JUMPDEST PUSH1 0x1 PUSH1 0x1 PUSH1 0xA0 SHL SUB AND EQ PUSH3 0x58B JUMPI PUSH1 0x40 MLOAD PUSH3 0x461BCD PUSH1 0xE5 SHL DUP2 MSTORE PUSH1 0x4 ADD PUSH3 0x4DD SWAP1 PUSH3 0x1049 JUMP JUMPDEST PUSH1 0x8 SLOAD PUSH1 0xFF AND ISZERO PUSH3 0x5B1 JUMPI PUSH1 0x40 MLOAD PUSH3 0x461BCD PUSH1 0xE5 SHL DUP2 MSTORE PUSH1 0x4 ADD PUSH3 0x4DD SWAP1 PUSH3 0x1012 JUMP JUMPDEST ADDRESS PUSH1 0x40 MLOAD PUSH3 0x5C0 SWAP1 PUSH3 0xE68 JUMP JUMPDEST PUSH3 0x5CC SWAP2 SWAP1 PUSH3 0xF70 JUMP JUMPDEST PUSH1 0x40 MLOAD DUP1 SWAP2 SUB SWAP1 PUSH1 0x0 CREATE DUP1 ISZERO DUP1 ISZERO PUSH3 0x5E9 JUMPI RETURNDATASIZE PUSH1 0x0 DUP1 RETURNDATACOPY RETURNDATASIZE PUSH1 0x0 REVERT JUMPDEST POP PUSH1 0xA DUP1 SLOAD PUSH1 0x1 PUSH1 0x1 PUSH1 0xA0 SHL SUB NOT AND PUSH1 0x1 PUSH1 0x1 PUSH1 0xA0 SHL SUB SWAP3 SWAP1 SWAP3 AND SWAP2 SWAP1 SWAP2 OR SWAP1 SSTORE PUSH1 0x40 MLOAD ADDRESS SWAP1 PUSH3 0x61A SWAP1 PUSH3 0xE76 JUMP JUMPDEST PUSH3 0x626 SWAP2 SWAP1 PUSH3 0xF70 JUMP JUMPDEST PUSH1 0x40 MLOAD DUP1 SWAP2 SUB SWAP1 PUSH1 0x0 CREATE DUP1 ISZERO DUP1 ISZERO PUSH3 0x643 JUMPI RETURNDATASIZE PUSH1 0x0 DUP1 RETURNDATACOPY RETURNDATASIZE PUSH1 0x0 REVERT JUMPDEST POP PUSH1 0xB DUP1 SLOAD PUSH1 0x1 PUSH1 0x1 PUSH1 0xA0 SHL SUB NOT AND PUSH1 0x1 PUSH1 0x1 PUSH1 0xA0 SHL SUB SWAP3 SWAP1 SWAP3 AND SWAP2 SWAP1 SWAP2 OR SWAP1 SSTORE PUSH3 0x675 PUSH3 0x2A7 DUP3 PUSH1 0x2 PUSH3 0xD57 JUMP JUMPDEST PUSH3 0x686 PUSH3 0x230 DUP3 PUSH1 0x2 PUSH3 0xD57 JUMP JUMPDEST POP PUSH1 0x8 DUP1 SLOAD PUSH1 0xFF NOT AND PUSH1 0x1 OR SWAP1 SSTORE JUMP JUMPDEST PUSH3 0x6A0 PUSH3 0x3F5 JUMP JUMPDEST PUSH1 0xB SLOAD PUSH1 0x40 MLOAD PUSH4 0x852CD8D PUSH1 0xE3 SHL DUP2 MSTORE PUSH1 0x1 PUSH1 0x1 PUSH1 0xA0 SHL SUB SWAP1 SWAP2 AND SWAP1 PUSH4 0x42966C68 SWAP1 PUSH3 0x6D2 SWAP1 DUP5 SWAP1 PUSH1 0x4 ADD PUSH3 0x10B5 JUMP JUMPDEST PUSH1 0x0 PUSH1 0x40 MLOAD DUP1 DUP4 SUB DUP2 PUSH1 0x0 DUP8 DUP1 EXTCODESIZE ISZERO DUP1 ISZERO PUSH3 0x6ED JUMPI PUSH1 0x0 DUP1 REVERT JUMPDEST POP GAS CALL ISZERO DUP1 ISZERO PUSH3 0x702 JUMPI RETURNDATASIZE PUSH1 0x0 DUP1 RETURNDATACOPY RETURNDATASIZE PUSH1 0x0 REVERT JUMPDEST POP POP POP POP PUSH3 0x710 PUSH3 0x4F4 JUMP JUMPDEST PUSH1 0x2 DUP2 SWAP1 SSTORE PUSH1 0x0 SWAP1 PUSH3 0x72F SWAP1 PUSH3 0xF4240 SWAP1 PUSH3 0x522 SWAP1 DUP6 SWAP1 PUSH3 0xD49 JUMP JUMPDEST PUSH1 0x6 SLOAD SWAP1 SWAP2 POP PUSH3 0x741 SWAP1 DUP4 PUSH3 0xCE7 JUMP JUMPDEST PUSH1 0x6 SSTORE PUSH1 0x4 SLOAD PUSH3 0x753 SWAP1 DUP3 PUSH3 0xCE7 JUMP JUMPDEST PUSH1 0x4 SWAP1 DUP2 SSTORE PUSH1 0x8 SLOAD PUSH1 0x40 MLOAD PUSH4 0xA9059CBB PUSH1 0xE0 SHL DUP2 MSTORE PUSH2 0x100 SWAP1 SWAP2 DIV PUSH1 0x1 PUSH1 0x1 PUSH1 0xA0 SHL SUB AND SWAP2 DUP3 SWAP2 PUSH4 0xA9059CBB SWAP2 PUSH3 0x790 SWAP2 CALLER SWAP2 DUP8 SWAP2 ADD PUSH3 0xFA8 JUMP JUMPDEST PUSH1 0x20 PUSH1 0x40 MLOAD DUP1 DUP4 SUB DUP2 PUSH1 0x0 DUP8 DUP1 EXTCODESIZE ISZERO DUP1 ISZERO PUSH3 0x7AB JUMPI PUSH1 0x0 DUP1 REVERT JUMPDEST POP GAS CALL ISZERO DUP1 ISZERO PUSH3 0x7C0 JUMPI RETURNDATASIZE PUSH1 0x0 DUP1 RETURNDATACOPY RETURNDATASIZE PUSH1 0x0 REVERT JUMPDEST POP POP POP POP PUSH1 0x40 MLOAD RETURNDATASIZE PUSH1 0x1F NOT PUSH1 0x1F DUP3 ADD AND DUP3 ADD DUP1 PUSH1 0x40 MSTORE POP DUP2 ADD SWAP1 PUSH3 0x7E6 SWAP2 SWAP1 PUSH3 0xEC8 JUMP JUMPDEST PUSH3 0x801 JUMPI PUSH4 0x4E487B71 PUSH1 0xE0 SHL PUSH1 0x0 MSTORE PUSH1 0x1 PUSH1 0x4 MSTORE PUSH1 0x24 PUSH1 0x0 REVERT JUMPDEST POP POP POP JUMP JUMPDEST PUSH1 0x6 SLOAD DUP2 JUMP JUMPDEST PUSH3 0x816 PUSH3 0x3F5 JUMP JUMPDEST PUSH3 0x820 PUSH3 0x4F4 JUMP JUMPDEST PUSH1 0x2 DUP2 SWAP1 SSTORE PUSH1 0x0 SWAP1 PUSH3 0x83C SWAP1 PUSH3 0x522 DUP5 PUSH3 0xF4240 PUSH3 0xD49 JUMP JUMPDEST PUSH1 0xB SLOAD PUSH1 0x40 MLOAD PUSH4 0x140E25AD PUSH1 0xE3 SHL DUP2 MSTORE SWAP2 SWAP3 POP PUSH1 0x1 PUSH1 0x1 PUSH1 0xA0 SHL SUB AND SWAP1 PUSH4 0xA0712D68 SWAP1 PUSH3 0x86F SWAP1 DUP5 SWAP1 PUSH1 0x4 ADD PUSH3 0x10B5 JUMP JUMPDEST PUSH1 0x0 PUSH1 0x40 MLOAD DUP1 DUP4 SUB DUP2 PUSH1 0x0 DUP8 DUP1 EXTCODESIZE ISZERO DUP1 ISZERO PUSH3 0x88A JUMPI PUSH1 0x0 DUP1 REVERT JUMPDEST POP GAS CALL ISZERO DUP1 ISZERO PUSH3 0x89F JUMPI RETURNDATASIZE PUSH1 0x0 DUP1 RETURNDATACOPY RETURNDATASIZE PUSH1 0x0 REVERT JUMPDEST POP POP PUSH1 0x6 SLOAD PUSH3 0x8B3 SWAP3 POP SWAP1 POP DUP3 PUSH3 0xCD2 JUMP JUMPDEST PUSH1 0x6 SSTORE PUSH1 0x4 SLOAD PUSH3 0x8C5 SWAP1 DUP4 PUSH3 0xCD2 JUMP JUMPDEST PUSH1 0x4 SWAP1 DUP2 SSTORE PUSH1 0x8 SLOAD PUSH1 0x40 MLOAD PUSH4 0x23B872DD PUSH1 0xE0 SHL DUP2 MSTORE PUSH2 0x100 SWAP1 SWAP2 DIV PUSH1 0x1 PUSH1 0x1 PUSH1 0xA0 SHL SUB AND SWAP2 DUP3 SWAP2 PUSH4 0x23B872DD SWAP2 PUSH3 0x904 SWAP2 CALLER SWAP2 ADDRESS SWAP2 DUP10 SWAP2 ADD PUSH3 0xF84 JUMP JUMPDEST PUSH1 0x20 PUSH1 0x40 MLOAD DUP1 DUP4 SUB DUP2 PUSH1 0x0 DUP8 DUP1 EXTCODESIZE ISZERO DUP1 ISZERO PUSH3 0x91F JUMPI PUSH1 0x0 DUP1 REVERT JUMPDEST POP GAS CALL ISZERO DUP1 ISZERO PUSH3 0x934 JUMPI RETURNDATASIZE PUSH1 0x0 DUP1 RETURNDATACOPY RETURNDATASIZE PUSH1 0x0 REVERT JUMPDEST POP POP POP POP PUSH1 0x40 MLOAD RETURNDATASIZE PUSH1 0x1F NOT PUSH1 0x1F DUP3 ADD AND DUP3 ADD DUP1 PUSH1 0x40 MSTORE POP DUP2 ADD SWAP1 PUSH3 0x95A SWAP2 SWAP1 PUSH3 0xEC8 JUMP JUMPDEST PUSH3 0x801 JUMPI PUSH1 0x40 MLOAD PUSH3 0x461BCD PUSH1 0xE5 SHL DUP2 MSTORE PUSH1 0x4 ADD PUSH3 0x4DD SWAP1 PUSH3 0x107E JUMP JUMPDEST PUSH1 0xB SLOAD PUSH1 0x40 MLOAD PUSH4 0x70A08231 PUSH1 0xE0 SHL DUP2 MSTORE PUSH1 0x0 SWAP2 PUSH1 0x1 PUSH1 0x1 PUSH1 0xA0 SHL SUB AND SWAP1 PUSH4 0x70A08231 SWAP1 PUSH3 0x30B SWAP1 CALLER SWAP1 PUSH1 0x4 ADD PUSH3 0xF70 JUMP JUMPDEST PUSH3 0x9B6 PUSH3 0x3F5 JUMP JUMPDEST PUSH1 0xA SLOAD PUSH1 0x40 MLOAD PUSH4 0x852CD8D PUSH1 0xE3 SHL DUP2 MSTORE PUSH1 0x1 PUSH1 0x1 PUSH1 0xA0 SHL SUB SWAP1 SWAP2 AND SWAP1 PUSH4 0x42966C68 SWAP1 PUSH3 0x9E8 SWAP1 DUP5 SWAP1 PUSH1 0x4 ADD PUSH3 0x10B5 JUMP JUMPDEST PUSH1 0x0 PUSH1 0x40 MLOAD DUP1 DUP4 SUB DUP2 PUSH1 0x0 DUP8 DUP1 EXTCODESIZE ISZERO DUP1 ISZERO PUSH3 0xA03 JUMPI PUSH1 0x0 DUP1 REVERT JUMPDEST POP GAS CALL ISZERO DUP1 ISZERO PUSH3 0xA18 JUMPI RETURNDATASIZE PUSH1 0x0 DUP1 RETURNDATACOPY RETURNDATASIZE PUSH1 0x0 REVERT JUMPDEST POP POP POP POP PUSH3 0xA26 PUSH3 0xAB2 JUMP JUMPDEST PUSH1 0x1 DUP2 SWAP1 SSTORE PUSH1 0x0 SWAP1 PUSH3 0xA45 SWAP1 PUSH3 0xF4240 SWAP1 PUSH3 0x522 SWAP1 DUP6 SWAP1 PUSH3 0xD49 JUMP JUMPDEST PUSH1 0x5 SLOAD SWAP1 SWAP2 POP PUSH3 0xA57 SWAP1 DUP4 PUSH3 0xCE7 JUMP JUMPDEST PUSH1 0x5 SSTORE PUSH1 0x3 SLOAD PUSH3 0xA69 SWAP1 DUP3 PUSH3 0xCE7 JUMP JUMPDEST PUSH1 0x3 SSTORE PUSH1 0x8 SLOAD PUSH1 0x40 MLOAD PUSH4 0xA9059CBB PUSH1 0xE0 SHL DUP2 MSTORE PUSH2 0x100 SWAP1 SWAP2 DIV PUSH1 0x1 PUSH1 0x1 PUSH1 0xA0 SHL SUB AND SWAP1 DUP2 SWAP1 PUSH4 0xA9059CBB SWAP1 PUSH3 0x790 SWAP1 CALLER SWAP1 DUP7 SWAP1 PUSH1 0x4 ADD PUSH3 0xFA8 JUMP JUMPDEST PUSH1 0x3 SLOAD DUP2 JUMP JUMPDEST PUSH1 0x1 SLOAD DUP2 JUMP JUMPDEST PUSH1 0x0 PUSH1 0x5 SLOAD PUSH1 0x0 EQ PUSH3 0xAE0 JUMPI PUSH3 0x529 PUSH1 0x5 SLOAD PUSH3 0x522 PUSH3 0xF4240 PUSH1 0x3 SLOAD PUSH3 0xD49 SWAP1 SWAP2 SWAP1 PUSH4 0xFFFFFFFF AND JUMP JUMPDEST POP PUSH1 0x1 SLOAD SWAP1 JUMP JUMPDEST PUSH3 0xAF1 PUSH3 0xCF5 JUMP JUMPDEST PUSH1 0x1 PUSH1 0x1 PUSH1 0xA0 SHL SUB AND PUSH3 0xB04 PUSH3 0x536 JUMP JUMPDEST PUSH1 0x1 PUSH1 0x1 PUSH1 0xA0 SHL SUB AND EQ PUSH3 0xB2D JUMPI PUSH1 0x40 MLOAD PUSH3 0x461BCD PUSH1 0xE5 SHL DUP2 MSTORE PUSH1 0x4 ADD PUSH3 0x4DD SWAP1 PUSH3 0x1049 JUMP JUMPDEST PUSH1 0x1 PUSH1 0x1 PUSH1 0xA0 SHL SUB DUP2 AND PUSH3 0xB56 JUMPI PUSH1 0x40 MLOAD PUSH3 0x461BCD PUSH1 0xE5 SHL DUP2 MSTORE PUSH1 0x4 ADD PUSH3 0x4DD SWAP1 PUSH3 0xFCC JUMP JUMPDEST PUSH3 0xB61 DUP2 PUSH3 0xCF9 JUMP JUMPDEST POP JUMP JUMPDEST PUSH1 0x7 SLOAD DUP2 JUMP JUMPDEST PUSH3 0xB74 PUSH3 0x3F5 JUMP JUMPDEST PUSH3 0xB7E PUSH3 0xAB2 JUMP JUMPDEST PUSH1 0x1 DUP2 SWAP1 SSTORE PUSH1 0x0 SWAP1 PUSH3 0xB9A SWAP1 PUSH3 0x522 DUP5 PUSH3 0xF4240 PUSH3 0xD49 JUMP JUMPDEST PUSH1 0xA SLOAD PUSH1 0x40 MLOAD PUSH4 0x140E25AD PUSH1 0xE3 SHL DUP2 MSTORE SWAP2 SWAP3 POP PUSH1 0x1 PUSH1 0x1 PUSH1 0xA0 SHL SUB AND SWAP1 PUSH4 0xA0712D68 SWAP1 PUSH3 0xBCD SWAP1 DUP5 SWAP1 PUSH1 0x4 ADD PUSH3 0x10B5 JUMP JUMPDEST PUSH1 0x0 PUSH1 0x40 MLOAD DUP1 DUP4 SUB DUP2 PUSH1 0x0 DUP8 DUP1 EXTCODESIZE ISZERO DUP1 ISZERO PUSH3 0xBE8 JUMPI PUSH1 0x0 DUP1 REVERT JUMPDEST POP GAS CALL ISZERO DUP1 ISZERO PUSH3 0xBFD JUMPI RETURNDATASIZE PUSH1 0x0 DUP1 RETURNDATACOPY RETURNDATASIZE PUSH1 0x0 REVERT JUMPDEST POP POP PUSH1 0x5 SLOAD PUSH3 0xC11 SWAP3 POP SWAP1 POP DUP3 PUSH3 0xCD2 JUMP JUMPDEST PUSH1 0x5 SSTORE PUSH1 0x3 SLOAD PUSH3 0xC23 SWAP1 DUP4 PUSH3 0xCD2 JUMP JUMPDEST PUSH1 0x3 SSTORE PUSH1 0x8 SLOAD PUSH1 0x40 MLOAD PUSH4 0x23B872DD PUSH1 0xE0 SHL DUP2 MSTORE PUSH2 0x100 SWAP1 SWAP2 DIV PUSH1 0x1 PUSH1 0x1 PUSH1 0xA0 SHL SUB AND SWAP1 DUP2 SWAP1 PUSH4 0x23B872DD SWAP1 PUSH3 0x904 SWAP1 CALLER SWAP1 ADDRESS SWAP1 DUP9 SWAP1 PUSH1 0x4 ADD PUSH3 0xF84 JUMP JUMPDEST PUSH1 0x8 SLOAD PUSH1 0xFF AND DUP2 JUMP JUMPDEST PUSH1 0x0 DUP1 PUSH3 0xC79 DUP4 PUSH3 0xD65 JUMP JUMPDEST SWAP1 POP PUSH3 0xCA9 PUSH3 0xF4240 PUSH3 0x522 PUSH3 0xC92 DUP5 PUSH3 0xDCF JUMP JUMPDEST PUSH3 0xCA2 PUSH1 0x3 SLOAD PUSH1 0x4 SLOAD PUSH3 0xE4F JUMP JUMPDEST SWAP1 PUSH3 0xD49 JUMP JUMPDEST SWAP2 POP POP JUMPDEST SWAP2 SWAP1 POP JUMP JUMPDEST PUSH1 0x0 PUSH1 0x7 SLOAD DUP3 GT ISZERO PUSH3 0xCC8 JUMPI POP PUSH1 0x1 PUSH3 0xCAD JUMP JUMPDEST POP PUSH1 0x0 NOT PUSH3 0xCAD JUMP JUMPDEST PUSH1 0x0 PUSH3 0xCE0 DUP3 DUP5 PUSH3 0x10BE JUMP JUMPDEST SWAP4 SWAP3 POP POP POP JUMP JUMPDEST PUSH1 0x0 PUSH3 0xCE0 DUP3 DUP5 PUSH3 0x1254 JUMP JUMPDEST CALLER SWAP1 JUMP JUMPDEST PUSH1 0x0 DUP1 SLOAD PUSH1 0x1 PUSH1 0x1 PUSH1 0xA0 SHL SUB DUP4 DUP2 AND PUSH1 0x1 PUSH1 0x1 PUSH1 0xA0 SHL SUB NOT DUP4 AND DUP2 OR DUP5 SSTORE PUSH1 0x40 MLOAD SWAP2 SWAP1 SWAP3 AND SWAP3 DUP4 SWAP2 PUSH32 0x8BE0079C531659141344CD1FD0A4F28419497F9722A3DAAFE3B4186F6B6457E0 SWAP2 SWAP1 LOG3 POP POP JUMP JUMPDEST PUSH1 0x0 PUSH3 0xCE0 DUP3 DUP5 PUSH3 0x1232 JUMP JUMPDEST PUSH1 0x0 PUSH3 0xCE0 DUP3 DUP5 PUSH3 0x10D9 JUMP JUMPDEST PUSH1 0x0 PUSH1 0x7 SLOAD DUP3 GT ISZERO PUSH3 0xDA8 JUMPI PUSH3 0xDA0 PUSH3 0xF4240 PUSH3 0xD99 PUSH1 0x7 SLOAD PUSH3 0x522 PUSH3 0xF4240 DUP8 PUSH3 0xD49 SWAP1 SWAP2 SWAP1 PUSH4 0xFFFFFFFF AND JUMP JUMPDEST SWAP1 PUSH3 0xCE7 JUMP JUMPDEST SWAP1 POP PUSH3 0xCAD JUMP JUMPDEST PUSH3 0xDA0 PUSH3 0xF4240 PUSH3 0xD99 DUP5 PUSH3 0x522 PUSH3 0xF4240 PUSH1 0x7 SLOAD PUSH3 0xD49 SWAP1 SWAP2 SWAP1 PUSH4 0xFFFFFFFF AND JUMP JUMPDEST PUSH1 0x0 DUP1 PUSH3 0xDDF DUP4 PUSH1 0x3 PUSH3 0x1232 JUMP JUMPDEST PUSH3 0xF4240 PUSH3 0xDF0 PUSH1 0x2 DUP7 PUSH3 0x1147 JUMP JUMPDEST PUSH3 0xDFC SWAP2 SWAP1 PUSH3 0x10D9 JUMP JUMPDEST PUSH3 0xE09 SWAP1 PUSH1 0x9 PUSH3 0x1232 JUMP JUMPDEST PUSH3 0xE15 SWAP2 SWAP1 PUSH3 0x10BE JUMP JUMPDEST PUSH3 0xE24 SWAP1 PUSH3 0xF4240 PUSH3 0x10BE JUMP JUMPDEST SWAP1 POP PUSH5 0xE8D4A51000 PUSH3 0xE38 DUP3 DUP3 PUSH3 0x10D9 JUMP JUMPDEST PUSH3 0xE47 SWAP1 PUSH3 0xF4240 PUSH3 0x1254 JUMP JUMPDEST SWAP5 SWAP4 POP POP POP POP JUMP JUMPDEST PUSH1 0x0 DUP2 DUP4 GT ISZERO PUSH3 0xE61 JUMPI DUP2 PUSH3 0xCE0 JUMP JUMPDEST POP SWAP1 SWAP2 SWAP1 POP JUMP JUMPDEST PUSH2 0xFA6 DUP1 PUSH3 0x1285 DUP4 CODECOPY ADD SWAP1 JUMP JUMPDEST PUSH2 0xFAA DUP1 PUSH3 0x222B DUP4 CODECOPY ADD SWAP1 JUMP JUMPDEST DUP1 MLOAD PUSH10 0xFFFFFFFFFFFFFFFFFFFF DUP2 AND DUP2 EQ PUSH3 0xCAD JUMPI PUSH1 0x0 DUP1 REVERT JUMPDEST PUSH1 0x0 PUSH1 0x20 DUP3 DUP5 SUB SLT ISZERO PUSH3 0xEB1 JUMPI DUP1 DUP2 REVERT JUMPDEST DUP2 CALLDATALOAD PUSH1 0x1 PUSH1 0x1 PUSH1 0xA0 SHL SUB DUP2 AND DUP2 EQ PUSH3 0xCE0 JUMPI DUP2 DUP3 REVERT JUMPDEST PUSH1 0x0 PUSH1 0x20 DUP3 DUP5 SUB SLT ISZERO PUSH3 0xEDA JUMPI DUP1 DUP2 REVERT JUMPDEST DUP2 MLOAD DUP1 ISZERO ISZERO DUP2 EQ PUSH3 0xCE0 JUMPI DUP2 DUP3 REVERT JUMPDEST PUSH1 0x0 PUSH1 0x20 DUP3 DUP5 SUB SLT ISZERO PUSH3 0xEFC JUMPI DUP1 DUP2 REVERT JUMPDEST POP CALLDATALOAD SWAP2 SWAP1 POP JUMP JUMPDEST PUSH1 0x0 PUSH1 0x20 DUP3 DUP5 SUB SLT ISZERO PUSH3 0xF15 JUMPI DUP1 DUP2 REVERT JUMPDEST POP MLOAD SWAP2 SWAP1 POP JUMP JUMPDEST PUSH1 0x0 DUP1 PUSH1 0x0 DUP1 PUSH1 0x0 PUSH1 0xA0 DUP7 DUP9 SUB SLT ISZERO PUSH3 0xF34 JUMPI DUP1 DUP2 REVERT JUMPDEST PUSH3 0xF3F DUP7 PUSH3 0xE84 JUMP JUMPDEST SWAP5 POP PUSH1 0x20 DUP7 ADD MLOAD SWAP4 POP PUSH1 0x40 DUP7 ADD MLOAD SWAP3 POP PUSH1 0x60 DUP7 ADD MLOAD SWAP2 POP PUSH3 0xF64 PUSH1 0x80 DUP8 ADD PUSH3 0xE84 JUMP JUMPDEST SWAP1 POP SWAP3 SWAP6 POP SWAP3 SWAP6 SWAP1 SWAP4 POP JUMP JUMPDEST PUSH1 0x1 PUSH1 0x1 PUSH1 0xA0 SHL SUB SWAP2 SWAP1 SWAP2 AND DUP2 MSTORE PUSH1 0x20 ADD SWAP1 JUMP JUMPDEST PUSH1 0x1 PUSH1 0x1 PUSH1 0xA0 SHL SUB SWAP4 DUP5 AND DUP2 MSTORE SWAP2 SWAP1 SWAP3 AND PUSH1 0x20 DUP3 ADD MSTORE PUSH1 0x40 DUP2 ADD SWAP2 SWAP1 SWAP2 MSTORE PUSH1 0x60 ADD SWAP1 JUMP JUMPDEST PUSH1 0x1 PUSH1 0x1 PUSH1 0xA0 SHL SUB SWAP3 SWAP1 SWAP3 AND DUP3 MSTORE PUSH1 0x20 DUP3 ADD MSTORE PUSH1 0x40 ADD SWAP1 JUMP JUMPDEST SWAP1 ISZERO ISZERO DUP2 MSTORE PUSH1 0x20 ADD SWAP1 JUMP JUMPDEST PUSH1 0x20 DUP1 DUP3 MSTORE PUSH1 0x26 SWAP1 DUP3 ADD MSTORE PUSH32 0x4F776E61626C653A206E6577206F776E657220697320746865207A65726F2061 PUSH1 0x40 DUP3 ADD MSTORE PUSH6 0x646472657373 PUSH1 0xD0 SHL PUSH1 0x60 DUP3 ADD MSTORE PUSH1 0x80 ADD SWAP1 JUMP JUMPDEST PUSH1 0x20 DUP1 DUP3 MSTORE PUSH1 0x1F SWAP1 DUP3 ADD MSTORE PUSH32 0x54686520706F6F6C2077617320616C726561647920696E697469617465642E00 PUSH1 0x40 DUP3 ADD MSTORE PUSH1 0x60 ADD SWAP1 JUMP JUMPDEST PUSH1 0x20 DUP1 DUP3 MSTORE DUP2 DUP2 ADD MSTORE PUSH32 0x4F776E61626C653A2063616C6C6572206973206E6F7420746865206F776E6572 PUSH1 0x40 DUP3 ADD MSTORE PUSH1 0x60 ADD SWAP1 JUMP JUMPDEST PUSH1 0x20 DUP1 DUP3 MSTORE PUSH1 0x1B SWAP1 DUP3 ADD MSTORE PUSH32 0x596F7520646F6E2774206861766520656E6F75676820555344432E0000000000 PUSH1 0x40 DUP3 ADD MSTORE PUSH1 0x60 ADD SWAP1 JUMP JUMPDEST SWAP1 DUP2 MSTORE PUSH1 0x20 ADD SWAP1 JUMP JUMPDEST PUSH1 0x0 DUP3 NOT DUP3 GT ISZERO PUSH3 0x10D4 JUMPI PUSH3 0x10D4 PUSH3 0x126E JUMP JUMPDEST POP ADD SWAP1 JUMP JUMPDEST PUSH1 0x0 DUP3 PUSH3 0x10F5 JUMPI PUSH4 0x4E487B71 PUSH1 0xE0 SHL DUP2 MSTORE PUSH1 0x12 PUSH1 0x4 MSTORE PUSH1 0x24 DUP2 REVERT JUMPDEST POP DIV SWAP1 JUMP JUMPDEST DUP1 DUP3 JUMPDEST PUSH1 0x1 DUP1 DUP7 GT PUSH3 0x110E JUMPI POP PUSH3 0x113E JUMP JUMPDEST DUP2 DUP8 DIV DUP3 GT ISZERO PUSH3 0x1123 JUMPI PUSH3 0x1123 PUSH3 0x126E JUMP JUMPDEST DUP1 DUP7 AND ISZERO PUSH3 0x1131 JUMPI SWAP2 DUP2 MUL SWAP2 JUMPDEST SWAP5 SWAP1 SWAP5 SHR SWAP4 DUP1 MUL PUSH3 0x10FD JUMP JUMPDEST SWAP5 POP SWAP5 SWAP3 POP POP POP JUMP JUMPDEST PUSH1 0x0 PUSH3 0xCE0 PUSH1 0x0 NOT PUSH1 0xFF DUP6 AND DUP5 PUSH1 0x0 DUP3 PUSH3 0x1166 JUMPI POP PUSH1 0x1 PUSH3 0xCE0 JUMP JUMPDEST DUP2 PUSH3 0x1175 JUMPI POP PUSH1 0x0 PUSH3 0xCE0 JUMP JUMPDEST DUP2 PUSH1 0x1 DUP2 EQ PUSH3 0x118E JUMPI PUSH1 0x2 DUP2 EQ PUSH3 0x1199 JUMPI PUSH3 0x11CD JUMP JUMPDEST PUSH1 0x1 SWAP2 POP POP PUSH3 0xCE0 JUMP JUMPDEST PUSH1 0xFF DUP5 GT ISZERO PUSH3 0x11AD JUMPI PUSH3 0x11AD PUSH3 0x126E JUMP JUMPDEST PUSH1 0x1 DUP5 SHL SWAP2 POP DUP5 DUP3 GT ISZERO PUSH3 0x11C6 JUMPI PUSH3 0x11C6 PUSH3 0x126E JUMP JUMPDEST POP PUSH3 0xCE0 JUMP JUMPDEST POP PUSH1 0x20 DUP4 LT PUSH2 0x133 DUP4 LT AND PUSH1 0x4E DUP5 LT PUSH1 0xB DUP5 LT AND OR ISZERO PUSH3 0x1205 JUMPI POP DUP2 DUP2 EXP DUP4 DUP2 GT ISZERO PUSH3 0x11FF JUMPI PUSH3 0x11FF PUSH3 0x126E JUMP JUMPDEST PUSH3 0xCE0 JUMP JUMPDEST PUSH3 0x1214 DUP5 DUP5 DUP5 PUSH1 0x1 PUSH3 0x10FA JUMP JUMPDEST DUP1 DUP7 DIV DUP3 GT ISZERO PUSH3 0x1229 JUMPI PUSH3 0x1229 PUSH3 0x126E JUMP JUMPDEST MUL SWAP5 SWAP4 POP POP POP POP JUMP JUMPDEST PUSH1 0x0 DUP2 PUSH1 0x0 NOT DIV DUP4 GT DUP3 ISZERO ISZERO AND ISZERO PUSH3 0x124F JUMPI PUSH3 0x124F PUSH3 0x126E JUMP JUMPDEST POP MUL SWAP1 JUMP JUMPDEST PUSH1 0x0 DUP3 DUP3 LT ISZERO PUSH3 0x1269 JUMPI PUSH3 0x1269 PUSH3 0x126E JUMP JUMPDEST POP SUB SWAP1 JUMP JUMPDEST PUSH4 0x4E487B71 PUSH1 0xE0 SHL PUSH1 0x0 MSTORE PUSH1 0x11 PUSH1 0x4 MSTORE PUSH1 0x24 PUSH1 0x0 REVERT INVALID PUSH1 0x80 PUSH1 0x40 MSTORE CALLVALUE DUP1 ISZERO PUSH3 0x11 JUMPI PUSH1 0x0 DUP1 REVERT JUMPDEST POP PUSH1 0x40 MLOAD PUSH3 0xFA6 CODESIZE SUB DUP1 PUSH3 0xFA6 DUP4 CODECOPY DUP2 ADD PUSH1 0x40 DUP2 SWAP1 MSTORE PUSH3 0x34 SWAP2 PUSH3 0x169 JUMP JUMPDEST PUSH1 0x40 DUP1 MLOAD DUP1 DUP3 ADD DUP3 MSTORE PUSH1 0xA DUP2 MSTORE PUSH10 0x426974636F696E20557 PUSH1 0xB4 SHL PUSH1 0x20 DUP1 DUP4 ADD SWAP2 DUP3 MSTORE DUP4 MLOAD DUP1 DUP6 ADD SWAP1 SWAP5 MSTORE PUSH1 0x5 DUP5 MSTORE PUSH5 0x425443555 PUSH1 0xDC SHL SWAP1 DUP5 ADD MSTORE DUP2 MLOAD SWAP2 SWAP3 SWAP2 PUSH3 0x83 SWAP2 PUSH1 0x3 SWAP2 PUSH3 0xC3 JUMP JUMPDEST POP DUP1 MLOAD PUSH3 0x99 SWAP1 PUSH1 0x4 SWAP1 PUSH1 0x20 DUP5 ADD SWAP1 PUSH3 0xC3 JUMP JUMPDEST POP POP PUSH1 0x5 DUP1 SLOAD PUSH1 0x1 PUSH1 0x1 PUSH1 0xA0 SHL SUB NOT AND PUSH1 0x1 PUSH1 0x1 PUSH1 0xA0 SHL SUB SWAP4 SWAP1 SWAP4 AND SWAP3 SWAP1 SWAP3 OR SWAP1 SWAP2 SSTORE POP PUSH3 0x1D6 JUMP JUMPDEST DUP3 DUP1 SLOAD PUSH3 0xD1 SWAP1 PUSH3 0x199 JUMP JUMPDEST SWAP1 PUSH1 0x0 MSTORE PUSH1 0x20 PUSH1 0x0 KECCAK256 SWAP1 PUSH1 0x1F ADD PUSH1 0x20 SWAP1 DIV DUP2 ADD SWAP3 DUP3 PUSH3 0xF5 JUMPI PUSH1 0x0 DUP6 SSTORE PUSH3 0x140 JUMP JUMPDEST DUP3 PUSH1 0x1F LT PUSH3 0x110 JUMPI DUP1 MLOAD PUSH1 0xFF NOT AND DUP4 DUP1 ADD OR DUP6 SSTORE PUSH3 0x140 JUMP JUMPDEST DUP3 DUP1 ADD PUSH1 0x1 ADD DUP6 SSTORE DUP3 ISZERO PUSH3 0x140 JUMPI SWAP2 DUP3 ADD JUMPDEST DUP3 DUP2 GT ISZERO PUSH3 0x140 JUMPI DUP3 MLOAD DUP3 SSTORE SWAP2 PUSH1 0x20 ADD SWAP2 SWAP1 PUSH1 0x1 ADD SWAP1 PUSH3 0x123 JUMP JUMPDEST POP PUSH3 0x14E SWAP3 SWAP2 POP PUSH3 0x152 JUMP JUMPDEST POP SWAP1 JUMP JUMPDEST JUMPDEST DUP1 DUP3 GT ISZERO PUSH3 0x14E JUMPI PUSH1 0x0 DUP2 SSTORE PUSH1 0x1 ADD PUSH3 0x153 JUMP JUMPDEST PUSH1 0x0 PUSH1 0x20 DUP3 DUP5 SUB SLT ISZERO PUSH3 0x17B JUMPI DUP1 DUP2 REVERT JUMPDEST DUP2 MLOAD PUSH1 0x1 PUSH1 0x1 PUSH1 0xA0 SHL SUB DUP2 AND DUP2 EQ PUSH3 0x192 JUMPI DUP2 DUP3 REVERT JUMPDEST SWAP4 SWAP3 POP POP POP JUMP JUMPDEST PUSH1 0x2 DUP2 DIV PUSH1 0x1 DUP3 AND DUP1 PUSH3 0x1AE JUMPI PUSH1 0x7F DUP3 AND SWAP2 POP JUMPDEST PUSH1 0x20 DUP3 LT DUP2 EQ ISZERO PUSH3 0x1D0 JUMPI PUSH4 0x4E487B71 PUSH1 0xE0 SHL PUSH1 0x0 MSTORE PUSH1 0x22 PUSH1 0x4 MSTORE PUSH1 0x24 PUSH1 0x0 REVERT JUMPDEST POP SWAP2 SWAP1 POP JUMP JUMPDEST PUSH2 0xDC0 DUP1 PUSH3 0x1E6 PUSH1 0x0 CODECOPY PUSH1 0x0 RETURN INVALID PUSH1 0x80 PUSH1 0x40 MSTORE CALLVALUE DUP1 ISZERO PUSH2 0x10 JUMPI PUSH1 0x0 DUP1 REVERT JUMPDEST POP PUSH1 0x4 CALLDATASIZE LT PUSH2 0xEA JUMPI PUSH1 0x0 CALLDATALOAD PUSH1 0xE0 SHR DUP1 PUSH4 0x70A08231 GT PUSH2 0x8C JUMPI DUP1 PUSH4 0xA0712D68 GT PUSH2 0x66 JUMPI DUP1 PUSH4 0xA0712D68 EQ PUSH2 0x1C0 JUMPI DUP1 PUSH4 0xA457C2D7 EQ PUSH2 0x1D3 JUMPI DUP1 PUSH4 0xA9059CBB EQ PUSH2 0x1E6 JUMPI DUP1 PUSH4 0xDD62ED3E EQ PUSH2 0x1F9 JUMPI PUSH2 0xEA JUMP JUMPDEST DUP1 PUSH4 0x70A08231 EQ PUSH2 0x192 JUMPI DUP1 PUSH4 0x79CC6790 EQ PUSH2 0x1A5 JUMPI DUP1 PUSH4 0x95D89B41 EQ PUSH2 0x1B8 JUMPI PUSH2 0xEA JUMP JUMPDEST DUP1 PUSH4 0x23B872DD GT PUSH2 0xC8 JUMPI DUP1 PUSH4 0x23B872DD EQ PUSH2 0x142 JUMPI DUP1 PUSH4 0x313CE567 EQ PUSH2 0x155 JUMPI DUP1 PUSH4 0x39509351 EQ PUSH2 0x16A JUMPI DUP1 PUSH4 0x42966C68 EQ PUSH2 0x17D JUMPI PUSH2 0xEA JUMP JUMPDEST DUP1 PUSH4 0x6FDDE03 EQ PUSH2 0xEF JUMPI DUP1 PUSH4 0x95EA7B3 EQ PUSH2 0x10D JUMPI DUP1 PUSH4 0x18160DDD EQ PUSH2 0x12D JUMPI JUMPDEST PUSH1 0x0 DUP1 REVERT JUMPDEST PUSH2 0xF7 PUSH2 0x20C JUMP JUMPDEST PUSH1 0x40 MLOAD PUSH2 0x104 SWAP2 SWAP1 PUSH2 0x9C1 JUMP JUMPDEST PUSH1 0x40 MLOAD DUP1 SWAP2 SUB SWAP1 RETURN JUMPDEST PUSH2 0x120 PUSH2 0x11B CALLDATASIZE PUSH1 0x4 PUSH2 0x975 JUMP JUMPDEST PUSH2 0x29E JUMP JUMPDEST PUSH1 0x40 MLOAD PUSH2 0x104 SWAP2 SWAP1 PUSH2 0x9B6 JUMP JUMPDEST PUSH2 0x135 PUSH2 0x2BB JUMP JUMPDEST PUSH1 0x40 MLOAD PUSH2 0x104 SWAP2 SWAP1 PUSH2 0xCF3 JUMP JUMPDEST PUSH2 0x120 PUSH2 0x150 CALLDATASIZE PUSH1 0x4 PUSH2 0x93A JUMP JUMPDEST PUSH2 0x2C1 JUMP JUMPDEST PUSH2 0x15D PUSH2 0x35A JUMP JUMPDEST PUSH1 0x40 MLOAD PUSH2 0x104 SWAP2 SWAP1 PUSH2 0xCFC JUMP JUMPDEST PUSH2 0x120 PUSH2 0x178 CALLDATASIZE PUSH1 0x4 PUSH2 0x975 JUMP JUMPDEST PUSH2 0x35F JUMP JUMPDEST PUSH2 0x190 PUSH2 0x18B CALLDATASIZE PUSH1 0x4 PUSH2 0x99E JUMP JUMPDEST PUSH2 0x3B3 JUMP JUMPDEST STOP JUMPDEST PUSH2 0x135 PUSH2 0x1A0 CALLDATASIZE PUSH1 0x4 PUSH2 0x8E7 JUMP JUMPDEST PUSH2 0x3D7 JUMP JUMPDEST PUSH2 0x190 PUSH2 0x1B3 CALLDATASIZE PUSH1 0x4 PUSH2 0x975 JUMP JUMPDEST PUSH2 0x3F6 JUMP JUMPDEST PUSH2 0xF7 PUSH2 0x449 JUMP JUMPDEST PUSH2 0x190 PUSH2 0x1CE CALLDATASIZE PUSH1 0x4 PUSH2 0x99E JUMP JUMPDEST PUSH2 0x458 JUMP JUMPDEST PUSH2 0x120 PUSH2 0x1E1 CALLDATASIZE PUSH1 0x4 PUSH2 0x975 JUMP JUMPDEST PUSH2 0x479 JUMP JUMPDEST PUSH2 0x120 PUSH2 0x1F4 CALLDATASIZE PUSH1 0x4 PUSH2 0x975 JUMP JUMPDEST PUSH2 0x4F2 JUMP JUMPDEST PUSH2 0x135 PUSH2 0x207 CALLDATASIZE PUSH1 0x4 PUSH2 0x908 JUMP JUMPDEST PUSH2 0x506 JUMP JUMPDEST PUSH1 0x60 PUSH1 0x3 DUP1 SLOAD PUSH2 0x21B SWAP1 PUSH2 0xD39 JUMP JUMPDEST DUP1 PUSH1 0x1F ADD PUSH1 0x20 DUP1 SWAP2 DIV MUL PUSH1 0x20 ADD PUSH1 0x40 MLOAD SWAP1 DUP2 ADD PUSH1 0x40 MSTORE DUP1 SWAP3 SWAP2 SWAP1 DUP2 DUP2 MSTORE PUSH1 0x20 ADD DUP3 DUP1 SLOAD PUSH2 0x247 SWAP1 PUSH2 0xD39 JUMP JUMPDEST DUP1 ISZERO PUSH2 0x294 JUMPI DUP1 PUSH1 0x1F LT PUSH2 0x269 JUMPI PUSH2 0x100 DUP1 DUP4 SLOAD DIV MUL DUP4 MSTORE SWAP2 PUSH1 0x20 ADD SWAP2 PUSH2 0x294 JUMP JUMPDEST DUP3 ADD SWAP2 SWAP1 PUSH1 0x0 MSTORE PUSH1 0x20 PUSH1 0x0 KECCAK256 SWAP1 JUMPDEST DUP2 SLOAD DUP2 MSTORE SWAP1 PUSH1 0x1 ADD SWAP1 PUSH1 0x20 ADD DUP1 DUP4 GT PUSH2 0x277 JUMPI DUP3 SWAP1 SUB PUSH1 0x1F AND DUP3 ADD SWAP2 JUMPDEST POP POP POP POP POP SWAP1 POP SWAP1 JUMP JUMPDEST PUSH1 0x0 PUSH2 0x2B2 PUSH2 0x2AB PUSH2 0x531 JUMP JUMPDEST DUP5 DUP5 PUSH2 0x535 JUMP JUMPDEST POP PUSH1 0x1 SWAP3 SWAP2 POP POP JUMP JUMPDEST PUSH1 0x2 SLOAD SWAP1 JUMP JUMPDEST PUSH1 0x0 PUSH2 0x2CE DUP5 DUP5 DUP5 PUSH2 0x5E9 JUMP JUMPDEST PUSH1 0x1 PUSH1 0x1 PUSH1 0xA0 SHL SUB DUP5 AND PUSH1 0x0 SWAP1 DUP2 MSTORE PUSH1 0x1 PUSH1 0x20 MSTORE PUSH1 0x40 DUP2 KECCAK256 DUP2 PUSH2 0x2EF PUSH2 0x531 JUMP JUMPDEST PUSH1 0x1 PUSH1 0x1 PUSH1 0xA0 SHL SUB AND PUSH1 0x1 PUSH1 0x1 PUSH1 0xA0 SHL SUB AND DUP2 MSTORE PUSH1 0x20 ADD SWAP1 DUP2 MSTORE PUSH1 0x20 ADD PUSH1 0x0 KECCAK256 SLOAD SWAP1 POP DUP3 DUP2 LT ISZERO PUSH2 0x33B JUMPI PUSH1 0x40 MLOAD PUSH3 0x461BCD PUSH1 0xE5 SHL DUP2 MSTORE PUSH1 0x4 ADD PUSH2 0x332 SWAP1 PUSH2 0xB21 JUMP JUMPDEST PUSH1 0x40 MLOAD DUP1 SWAP2 SUB SWAP1 REVERT JUMPDEST PUSH2 0x34F DUP6 PUSH2 0x347 PUSH2 0x531 JUMP JUMPDEST DUP6 DUP5 SUB PUSH2 0x535 JUMP JUMPDEST POP PUSH1 0x1 SWAP5 SWAP4 POP POP POP POP JUMP JUMPDEST PUSH1 0x6 SWAP1 JUMP JUMPDEST PUSH1 0x0 PUSH2 0x2B2 PUSH2 0x36C PUSH2 0x531 JUMP JUMPDEST DUP5 DUP5 PUSH1 0x1 PUSH1 0x0 PUSH2 0x37A PUSH2 0x531 JUMP JUMPDEST PUSH1 0x1 PUSH1 0x1 PUSH1 0xA0 SHL SUB SWAP1 DUP2 AND DUP3 MSTORE PUSH1 0x20 DUP1 DUP4 ADD SWAP4 SWAP1 SWAP4 MSTORE PUSH1 0x40 SWAP2 DUP3 ADD PUSH1 0x0 SWAP1 DUP2 KECCAK256 SWAP2 DUP12 AND DUP2 MSTORE SWAP3 MSTORE SWAP1 KECCAK256 SLOAD PUSH2 0x3AE SWAP2 SWAP1 PUSH2 0xD0A JUMP JUMPDEST PUSH2 0x535 JUMP JUMPDEST PUSH1 0x5 SLOAD PUSH1 0x1 PUSH1 0x1 PUSH1 0xA0 SHL SUB AND CALLER EQ PUSH2 0x3CA JUMPI PUSH1 0x0 DUP1 REVERT JUMPDEST PUSH2 0x3D4 ORIGIN DUP3 PUSH2 0x3F6 JUMP JUMPDEST POP JUMP JUMPDEST PUSH1 0x1 PUSH1 0x1 PUSH1 0xA0 SHL SUB DUP2 AND PUSH1 0x0 SWAP1 DUP2 MSTORE PUSH1 0x20 DUP2 SWAP1 MSTORE PUSH1 0x40 SWAP1 KECCAK256 SLOAD JUMPDEST SWAP2 SWAP1 POP JUMP JUMPDEST PUSH1 0x0 PUSH2 0x404 DUP4 PUSH2 0x207 PUSH2 0x531 JUMP JUMPDEST SWAP1 POP DUP2 DUP2 LT ISZERO PUSH2 0x426 JUMPI PUSH1 0x40 MLOAD PUSH3 0x461BCD PUSH1 0xE5 SHL DUP2 MSTORE PUSH1 0x4 ADD PUSH2 0x332 SWAP1 PUSH2 0xB69 JUMP JUMPDEST PUSH2 0x43A DUP4 PUSH2 0x432 PUSH2 0x531 JUMP JUMPDEST DUP5 DUP5 SUB PUSH2 0x535 JUMP JUMPDEST PUSH2 0x444 DUP4 DUP4 PUSH2 0x713 JUMP JUMPDEST POP POP POP JUMP JUMPDEST PUSH1 0x60 PUSH1 0x4 DUP1 SLOAD PUSH2 0x21B SWAP1 PUSH2 0xD39 JUMP JUMPDEST PUSH1 0x5 SLOAD PUSH1 0x1 PUSH1 0x1 PUSH1 0xA0 SHL SUB AND CALLER EQ PUSH2 0x46F JUMPI PUSH1 0x0 DUP1 REVERT JUMPDEST PUSH2 0x3D4 ORIGIN DUP3 PUSH2 0x804 JUMP JUMPDEST PUSH1 0x0 DUP1 PUSH1 0x1 PUSH1 0x0 PUSH2 0x488 PUSH2 0x531 JUMP JUMPDEST PUSH1 0x1 PUSH1 0x1 PUSH1 0xA0 SHL SUB SWAP1 DUP2 AND DUP3 MSTORE PUSH1 0x20 DUP1 DUP4 ADD SWAP4 SWAP1 SWAP4 MSTORE PUSH1 0x40 SWAP2 DUP3 ADD PUSH1 0x0 SWAP1 DUP2 KECCAK256 SWAP2 DUP9 AND DUP2 MSTORE SWAP3 MSTORE SWAP1 KECCAK256 SLOAD SWAP1 POP DUP3 DUP2 LT ISZERO PUSH2 0x4D4 JUMPI PUSH1 0x40 MLOAD PUSH3 0x461BCD PUSH1 0xE5 SHL DUP2 MSTORE PUSH1 0x4 ADD PUSH2 0x332 SWAP1 PUSH2 0xC77 JUMP JUMPDEST PUSH2 0x4E8 PUSH2 0x4DF PUSH2 0x531 JUMP JUMPDEST DUP6 DUP6 DUP5 SUB PUSH2 0x535 JUMP JUMPDEST POP PUSH1 0x1 SWAP4 SWAP3 POP POP POP JUMP JUMPDEST PUSH1 0x0 PUSH2 0x2B2 PUSH2 0x4FF PUSH2 0x531 JUMP JUMPDEST DUP5 DUP5 PUSH2 0x5E9 JUMP JUMPDEST PUSH1 0x1 PUSH1 0x1 PUSH1 0xA0 SHL SUB SWAP2 DUP3 AND PUSH1 0x0 SWAP1 DUP2 MSTORE PUSH1 0x1 PUSH1 0x20 SWAP1 DUP2 MSTORE PUSH1 0x40 DUP1 DUP4 KECCAK256 SWAP4 SWAP1 SWAP5 AND DUP3 MSTORE SWAP2 SWAP1 SWAP2 MSTORE KECCAK256 SLOAD SWAP1 JUMP JUMPDEST CALLER SWAP1 JUMP JUMPDEST PUSH1 0x1 PUSH1 0x1 PUSH1 0xA0 SHL SUB DUP4 AND PUSH2 0x55B JUMPI PUSH1 0x40 MLOAD PUSH3 0x461BCD PUSH1 0xE5 SHL DUP2 MSTORE PUSH1 0x4 ADD PUSH2 0x332 SWAP1 PUSH2 0xC33 JUMP JUMPDEST PUSH1 0x1 PUSH1 0x1 PUSH1 0xA0 SHL SUB DUP3 AND PUSH2 0x581 JUMPI PUSH1 0x40 MLOAD PUSH3 0x461BCD PUSH1 0xE5 SHL DUP2 MSTORE PUSH1 0x4 ADD PUSH2 0x332 SWAP1 PUSH2 0xA99 JUMP JUMPDEST PUSH1 0x1 PUSH1 0x1 PUSH1 0xA0 SHL SUB DUP1 DUP5 AND PUSH1 0x0 DUP2 DUP2 MSTORE PUSH1 0x1 PUSH1 0x20 SWAP1 DUP2 MSTORE PUSH1 0x40 DUP1 DUP4 KECCAK256 SWAP5 DUP8 AND DUP1 DUP5 MSTORE SWAP5 SWAP1 SWAP2 MSTORE SWAP1 DUP2 SWAP1 KECCAK256 DUP5 SWAP1 SSTORE MLOAD PUSH32 0x8C5BE1E5EBEC7D5BD14F71427D1E84F3DD0314C0F7B2291E5B200AC8C7C3B925 SWAP1 PUSH2 0x5DC SWAP1 DUP6 SWAP1 PUSH2 0xCF3 JUMP JUMPDEST PUSH1 0x40 MLOAD DUP1 SWAP2 SUB SWAP1 LOG3 POP POP POP JUMP JUMPDEST PUSH1 0x1 PUSH1 0x1 PUSH1 0xA0 SHL SUB DUP4 AND PUSH2 0x60F JUMPI PUSH1 0x40 MLOAD PUSH3 0x461BCD PUSH1 0xE5 SHL DUP2 MSTORE PUSH1 0x4 ADD PUSH2 0x332 SWAP1 PUSH2 0xBEE JUMP JUMPDEST PUSH1 0x1 PUSH1 0x1 PUSH1 0xA0 SHL SUB DUP3 AND PUSH2 0x635 JUMPI PUSH1 0x40 MLOAD PUSH3 0x461BCD PUSH1 0xE5 SHL DUP2 MSTORE PUSH1 0x4 ADD PUSH2 0x332 SWAP1 PUSH2 0xA14 JUMP JUMPDEST PUSH2 0x640 DUP4 DUP4 DUP4 PUSH2 0x444 JUMP JUMPDEST PUSH1 0x1 PUSH1 0x1 PUSH1 0xA0 SHL SUB DUP4 AND PUSH1 0x0 SWAP1 DUP2 MSTORE PUSH1 0x20 DUP2 SWAP1 MSTORE PUSH1 0x40 SWAP1 KECCAK256 SLOAD DUP2 DUP2 LT ISZERO PUSH2 0x679 JUMPI PUSH1 0x40 MLOAD PUSH3 0x461BCD PUSH1 0xE5 SHL DUP2 MSTORE PUSH1 0x4 ADD PUSH2 0x332 SWAP1 PUSH2 0xADB JUMP JUMPDEST PUSH1 0x1 PUSH1 0x1 PUSH1 0xA0 SHL SUB DUP1 DUP6 AND PUSH1 0x0 SWAP1 DUP2 MSTORE PUSH1 0x20 DUP2 SWAP1 MSTORE PUSH1 0x40 DUP1 DUP3 KECCAK256 DUP6 DUP6 SUB SWAP1 SSTORE SWAP2 DUP6 AND DUP2 MSTORE SWAP1 DUP2 KECCAK256 DUP1 SLOAD DUP5 SWAP3 SWAP1 PUSH2 0x6B0 SWAP1 DUP5 SWAP1 PUSH2 0xD0A JUMP JUMPDEST SWAP3 POP POP DUP2 SWAP1 SSTORE POP DUP3 PUSH1 0x1 PUSH1 0x1 PUSH1 0xA0 SHL SUB AND DUP5 PUSH1 0x1 PUSH1 0x1 PUSH1 0xA0 SHL SUB AND PUSH32 0xDDF252AD1BE2C89B69C2B068FC378DAA952BA7F163C4A11628F55A4DF523B3EF DUP5 PUSH1 0x40 MLOAD PUSH2 0x6FA SWAP2 SWAP1 PUSH2 0xCF3 JUMP JUMPDEST PUSH1 0x40 MLOAD DUP1 SWAP2 SUB SWAP1 LOG3 PUSH2 0x70D DUP5 DUP5 DUP5 PUSH2 0x444 JUMP JUMPDEST POP POP POP POP JUMP JUMPDEST PUSH1 0x1 PUSH1 0x1 PUSH1 0xA0 SHL SUB DUP3 AND PUSH2 0x739 JUMPI PUSH1 0x40 MLOAD PUSH3 0x461BCD PUSH1 0xE5 SHL DUP2 MSTORE PUSH1 0x4 ADD PUSH2 0x332 SWAP1 PUSH2 0xBAD JUMP JUMPDEST PUSH2 0x745 DUP3 PUSH1 0x0 DUP4 PUSH2 0x444 JUMP JUMPDEST PUSH1 0x1 PUSH1 0x1 PUSH1 0xA0 SHL SUB DUP3 AND PUSH1 0x0 SWAP1 DUP2 MSTORE PUSH1 0x20 DUP2 SWAP1 MSTORE PUSH1 0x40 SWAP1 KECCAK256 SLOAD DUP2 DUP2 LT ISZERO PUSH2 0x77E JUMPI PUSH1 0x40 MLOAD PUSH3 0x461BCD PUSH1 0xE5 SHL DUP2 MSTORE PUSH1 0x4 ADD PUSH2 0x332 SWAP1 PUSH2 0xA57 JUMP JUMPDEST PUSH1 0x1 PUSH1 0x1 PUSH1 0xA0 SHL SUB DUP4 AND PUSH1 0x0 SWAP1 DUP2 MSTORE PUSH1 0x20 DUP2 SWAP1 MSTORE PUSH1 0x40 DUP2 KECCAK256 DUP4 DUP4 SUB SWAP1 SSTORE PUSH1 0x2 DUP1 SLOAD DUP5 SWAP3 SWAP1 PUSH2 0x7AD SWAP1 DUP5 SWAP1 PUSH2 0xD22 JUMP JUMPDEST SWAP1 SWAP2 SSTORE POP POP PUSH1 0x40 MLOAD PUSH1 0x0 SWAP1 PUSH1 0x1 PUSH1 0x1 PUSH1 0xA0 SHL SUB DUP6 AND SWAP1 PUSH32 0xDDF252AD1BE2C89B69C2B068FC378DAA952BA7F163C4A11628F55A4DF523B3EF SWAP1 PUSH2 0x7F0 SWAP1 DUP7 SWAP1 PUSH2 0xCF3 JUMP JUMPDEST PUSH1 0x40 MLOAD DUP1 SWAP2 SUB SWAP1 LOG3 PUSH2 0x444 DUP4 PUSH1 0x0 DUP5 PUSH2 0x444 JUMP JUMPDEST PUSH1 0x1 PUSH1 0x1 PUSH1 0xA0 SHL SUB DUP3 AND PUSH2 0x82A JUMPI PUSH1 0x40 MLOAD PUSH3 0x461BCD PUSH1 0xE5 SHL DUP2 MSTORE PUSH1 0x4 ADD PUSH2 0x332 SWAP1 PUSH2 0xCBC JUMP JUMPDEST PUSH2 0x836 PUSH1 0x0 DUP4 DUP4 PUSH2 0x444 JUMP JUMPDEST DUP1 PUSH1 0x2 PUSH1 0x0 DUP3 DUP3 SLOAD PUSH2 0x848 SWAP2 SWAP1 PUSH2 0xD0A JUMP JUMPDEST SWAP1 SWAP2 SSTORE POP POP PUSH1 0x1 PUSH1 0x1 PUSH1 0xA0 SHL SUB DUP3 AND PUSH1 0x0 SWAP1 DUP2 MSTORE PUSH1 0x20 DUP2 SWAP1 MSTORE PUSH1 0x40 DUP2 KECCAK256 DUP1 SLOAD DUP4 SWAP3 SWAP1 PUSH2 0x875 SWAP1 DUP5 SWAP1 PUSH2 0xD0A JUMP JUMPDEST SWAP1 SWAP2 SSTORE POP POP PUSH1 0x40 MLOAD PUSH1 0x1 PUSH1 0x1 PUSH1 0xA0 SHL SUB DUP4 AND SWAP1 PUSH1 0x0 SWAP1 PUSH32 0xDDF252AD1BE2C89B69C2B068FC378DAA952BA7F163C4A11628F55A4DF523B3EF SWAP1 PUSH2 0x8B8 SWAP1 DUP6 SWAP1 PUSH2 0xCF3 JUMP JUMPDEST PUSH1 0x40 MLOAD DUP1 SWAP2 SUB SWAP1 LOG3 PUSH2 0x8CC PUSH1 0x0 DUP4 DUP4 PUSH2 0x444 JUMP JUMPDEST POP POP JUMP JUMPDEST DUP1 CALLDATALOAD PUSH1 0x1 PUSH1 0x1 PUSH1 0xA0 SHL SUB DUP2 AND DUP2 EQ PUSH2 0x3F1 JUMPI PUSH1 0x0 DUP1 REVERT JUMPDEST PUSH1 0x0 PUSH1 0x20 DUP3 DUP5 SUB SLT ISZERO PUSH2 0x8F8 JUMPI DUP1 DUP2 REVERT JUMPDEST PUSH2 0x901 DUP3 PUSH2 0x8D0 JUMP JUMPDEST SWAP4 SWAP3 POP POP POP JUMP JUMPDEST PUSH1 0x0 DUP1 PUSH1 0x40 DUP4 DUP6 SUB SLT ISZERO PUSH2 0x91A JUMPI DUP1 DUP2 REVERT JUMPDEST PUSH2 0x923 DUP4 PUSH2 0x8D0 JUMP JUMPDEST SWAP2 POP PUSH2 0x931 PUSH1 0x20 DUP5 ADD PUSH2 0x8D0 JUMP JUMPDEST SWAP1 POP SWAP3 POP SWAP3 SWAP1 POP JUMP JUMPDEST PUSH1 0x0 DUP1 PUSH1 0x0 PUSH1 0x60 DUP5 DUP7 SUB SLT ISZERO PUSH2 0x94E JUMPI DUP1 DUP2 REVERT JUMPDEST PUSH2 0x957 DUP5 PUSH2 0x8D0 JUMP JUMPDEST SWAP3 POP PUSH2 0x965 PUSH1 0x20 DUP6 ADD PUSH2 0x8D0 JUMP JUMPDEST SWAP2 POP PUSH1 0x40 DUP5 ADD CALLDATALOAD SWAP1 POP SWAP3 POP SWAP3 POP SWAP3 JUMP JUMPDEST PUSH1 0x0 DUP1 PUSH1 0x40 DUP4 DUP6 SUB SLT ISZERO PUSH2 0x987 JUMPI DUP2 DUP3 REVERT JUMPDEST PUSH2 0x990 DUP4 PUSH2 0x8D0 JUMP JUMPDEST SWAP5 PUSH1 0x20 SWAP4 SWAP1 SWAP4 ADD CALLDATALOAD SWAP4 POP POP POP JUMP JUMPDEST PUSH1 0x0 PUSH1 0x20 DUP3 DUP5 SUB SLT ISZERO PUSH2 0x9AF JUMPI DUP1 DUP2 REVERT JUMPDEST POP CALLDATALOAD SWAP2 SWAP1 POP JUMP JUMPDEST SWAP1 ISZERO ISZERO DUP2 MSTORE PUSH1 0x20 ADD SWAP1 JUMP JUMPDEST PUSH1 0x0 PUSH1 0x20 DUP1 DUP4 MSTORE DUP4 MLOAD DUP1 DUP3 DUP6 ADD MSTORE DUP3 JUMPDEST DUP2 DUP2 LT ISZERO PUSH2 0x9ED JUMPI DUP6 DUP2 ADD DUP4 ADD MLOAD DUP6 DUP3 ADD PUSH1 0x40 ADD MSTORE DUP3 ADD PUSH2 0x9D1 JUMP JUMPDEST DUP2 DUP2 GT ISZERO PUSH2 0x9FE JUMPI DUP4 PUSH1 0x40 DUP4 DUP8 ADD ADD MSTORE JUMPDEST POP PUSH1 0x1F ADD PUSH1 0x1F NOT AND SWAP3 SWAP1 SWAP3 ADD PUSH1 0x40 ADD SWAP4 SWAP3 POP POP POP JUMP JUMPDEST PUSH1 0x20 DUP1 DUP3 MSTORE PUSH1 0x23 SWAP1 DUP3 ADD MSTORE PUSH32 0x45524332303A207472616E7366657220746F20746865207A65726F2061646472 PUSH1 0x40 DUP3 ADD MSTORE PUSH3 0x657373 PUSH1 0xE8 SHL PUSH1 0x60 DUP3 ADD MSTORE PUSH1 0x80 ADD SWAP1 JUMP JUMPDEST PUSH1 0x20 DUP1 DUP3 MSTORE PUSH1 0x22 SWAP1 DUP3 ADD MSTORE PUSH32 0x45524332303A206275726E20616D6F756E7420657863656564732062616C616E PUSH1 0x40 DUP3 ADD MSTORE PUSH2 0x6365 PUSH1 0xF0 SHL PUSH1 0x60 DUP3 ADD MSTORE PUSH1 0x80 ADD SWAP1 JUMP JUMPDEST PUSH1 0x20 DUP1 DUP3 MSTORE PUSH1 0x22 SWAP1 DUP3 ADD MSTORE PUSH32 0x45524332303A20617070726F766520746F20746865207A65726F206164647265 PUSH1 0x40 DUP3 ADD MSTORE PUSH2 0x7373 PUSH1 0xF0 SHL PUSH1 0x60 DUP3 ADD MSTORE PUSH1 0x80 ADD SWAP1 JUMP JUMPDEST PUSH1 0x20 DUP1 DUP3 MSTORE PUSH1 0x26 SWAP1 DUP3 ADD MSTORE PUSH32 0x45524332303A207472616E7366657220616D6F756E7420657863656564732062 PUSH1 0x40 DUP3 ADD MSTORE PUSH6 0x616C616E6365 PUSH1 0xD0 SHL PUSH1 0x60 DUP3 ADD MSTORE PUSH1 0x80 ADD SWAP1 JUMP JUMPDEST PUSH1 0x20 DUP1 DUP3 MSTORE PUSH1 0x28 SWAP1 DUP3 ADD MSTORE PUSH32 0x45524332303A207472616E7366657220616D6F756E7420657863656564732061 PUSH1 0x40 DUP3 ADD MSTORE PUSH8 0x6C6C6F77616E6365 PUSH1 0xC0 SHL PUSH1 0x60 DUP3 ADD MSTORE PUSH1 0x80 ADD SWAP1 JUMP JUMPDEST PUSH1 0x20 DUP1 DUP3 MSTORE PUSH1 0x24 SWAP1 DUP3 ADD MSTORE PUSH32 0x45524332303A206275726E20616D6F756E74206578636565647320616C6C6F77 PUSH1 0x40 DUP3 ADD MSTORE PUSH4 0x616E6365 PUSH1 0xE0 SHL PUSH1 0x60 DUP3 ADD MSTORE PUSH1 0x80 ADD SWAP1 JUMP JUMPDEST PUSH1 0x20 DUP1 DUP3 MSTORE PUSH1 0x21 SWAP1 DUP3 ADD MSTORE PUSH32 0x45524332303A206275726E2066726F6D20746865207A65726F20616464726573 PUSH1 0x40 DUP3 ADD MSTORE PUSH1 0x73 PUSH1 0xF8 SHL PUSH1 0x60 DUP3 ADD MSTORE PUSH1 0x80 ADD SWAP1 JUMP JUMPDEST PUSH1 0x20 DUP1 DUP3 MSTORE PUSH1 0x25 SWAP1 DUP3 ADD MSTORE PUSH32 0x45524332303A207472616E736665722066726F6D20746865207A65726F206164 PUSH1 0x40 DUP3 ADD MSTORE PUSH5 0x6472657373 PUSH1 0xD8 SHL PUSH1 0x60 DUP3 ADD MSTORE PUSH1 0x80 ADD SWAP1 JUMP JUMPDEST PUSH1 0x20 DUP1 DUP3 MSTORE PUSH1 0x24 SWAP1 DUP3 ADD MSTORE PUSH32 0x45524332303A20617070726F76652066726F6D20746865207A65726F20616464 PUSH1 0x40 DUP3 ADD MSTORE PUSH4 0x72657373 PUSH1 0xE0 SHL PUSH1 0x60 DUP3 ADD MSTORE PUSH1 0x80 ADD SWAP1 JUMP JUMPDEST PUSH1 0x20 DUP1 DUP3 MSTORE PUSH1 0x25 SWAP1 DUP3 ADD MSTORE PUSH32 0x45524332303A2064656372656173656420616C6C6F77616E63652062656C6F77 PUSH1 0x40 DUP3 ADD MSTORE PUSH5 0x207A65726F PUSH1 0xD8 SHL PUSH1 0x60 DUP3 ADD MSTORE PUSH1 0x80 ADD SWAP1 JUMP JUMPDEST PUSH1 0x20 DUP1 DUP3 MSTORE PUSH1 0x1F SWAP1 DUP3 ADD MSTORE PUSH32 0x45524332303A206D696E7420746F20746865207A65726F206164647265737300 PUSH1 0x40 DUP3 ADD MSTORE PUSH1 0x60 ADD SWAP1 JUMP JUMPDEST SWAP1 DUP2 MSTORE PUSH1 0x20 ADD SWAP1 JUMP JUMPDEST PUSH1 0xFF SWAP2 SWAP1 SWAP2 AND DUP2 MSTORE PUSH1 0x20 ADD SWAP1 JUMP JUMPDEST PUSH1 0x0 DUP3 NOT DUP3 GT ISZERO PUSH2 0xD1D JUMPI PUSH2 0xD1D PUSH2 0xD74 JUMP JUMPDEST POP ADD SWAP1 JUMP JUMPDEST PUSH1 0x0 DUP3 DUP3 LT ISZERO PUSH2 0xD34 JUMPI PUSH2 0xD34 PUSH2 0xD74 JUMP JUMPDEST POP SUB SWAP1 JUMP JUMPDEST PUSH1 0x2 DUP2 DIV PUSH1 0x1 DUP3 AND DUP1 PUSH2 0xD4D JUMPI PUSH1 0x7F DUP3 AND SWAP2 POP JUMPDEST PUSH1 0x20 DUP3 LT DUP2 EQ ISZERO PUSH2 0xD6E JUMPI PUSH4 0x4E487B71 PUSH1 0xE0 SHL PUSH1 0x0 MSTORE PUSH1 0x22 PUSH1 0x4 MSTORE PUSH1 0x24 PUSH1 0x0 REVERT JUMPDEST POP SWAP2 SWAP1 POP JUMP JUMPDEST PUSH4 0x4E487B71 PUSH1 0xE0 SHL PUSH1 0x0 MSTORE PUSH1 0x11 PUSH1 0x4 MSTORE PUSH1 0x24 PUSH1 0x0 REVERT INVALID LOG2 PUSH5 0x6970667358 0x22 SLT KECCAK256 0x4B JUMP CREATE 0xCF CALLDATACOPY 0xD0 0xC3 EXTCODECOPY DUP15 0x1F DUP8 SWAP1 JUMPI 0x4F SLT MLOAD BYTE 0xE6 0xD7 0xA9 CALLER JUMPI 0xD3 0x4F PUSH4 0x58125DA7 PUSH4 0xB44C6473 PUSH16 0x6C634300080000336080604052348015 PUSH3 0x11 JUMPI PUSH1 0x0 DUP1 REVERT JUMPDEST POP PUSH1 0x40 MLOAD PUSH3 0xFAA CODESIZE SUB DUP1 PUSH3 0xFAA DUP4 CODECOPY DUP2 ADD PUSH1 0x40 DUP2 SWAP1 MSTORE PUSH3 0x34 SWAP2 PUSH3 0x16D JUMP JUMPDEST PUSH1 0x40 DUP1 MLOAD DUP1 DUP3 ADD DUP3 MSTORE PUSH1 0xC DUP2 MSTORE PUSH12 0x2134BA31B7B4B7102237BBB7 PUSH1 0xA1 SHL PUSH1 0x20 DUP1 DUP4 ADD SWAP2 DUP3 MSTORE DUP4 MLOAD DUP1 DUP6 ADD SWAP1 SWAP5 MSTORE PUSH1 0x7 DUP5 MSTORE PUSH7 0x212A21A227ABA7 PUSH1 0xC9 SHL SWAP1 DUP5 ADD MSTORE DUP2 MLOAD SWAP2 SWAP3 SWAP2 PUSH3 0x87 SWAP2 PUSH1 0x3 SWAP2 PUSH3 0xC7 JUMP JUMPDEST POP DUP1 MLOAD PUSH3 0x9D SWAP1 PUSH1 0x4 SWAP1 PUSH1 0x20 DUP5 ADD SWAP1 PUSH3 0xC7 JUMP JUMPDEST POP POP PUSH1 0x5 DUP1 SLOAD PUSH1 0x1 PUSH1 0x1 PUSH1 0xA0 SHL SUB NOT AND PUSH1 0x1 PUSH1 0x1 PUSH1 0xA0 SHL SUB SWAP4 SWAP1 SWAP4 AND SWAP3 SWAP1 SWAP3 OR SWAP1 SWAP2 SSTORE POP PUSH3 0x1DA JUMP JUMPDEST DUP3 DUP1 SLOAD PUSH3 0xD5 SWAP1 PUSH3 0x19D JUMP JUMPDEST SWAP1 PUSH1 0x0 MSTORE PUSH1 0x20 PUSH1 0x0 KECCAK256 SWAP1 PUSH1 0x1F ADD PUSH1 0x20 SWAP1 DIV DUP2 ADD SWAP3 DUP3 PUSH3 0xF9 JUMPI PUSH1 0x0 DUP6 SSTORE PUSH3 0x144 JUMP JUMPDEST DUP3 PUSH1 0x1F LT PUSH3 0x114 JUMPI DUP1 MLOAD PUSH1 0xFF NOT AND DUP4 DUP1 ADD OR DUP6 SSTORE PUSH3 0x144 JUMP JUMPDEST DUP3 DUP1 ADD PUSH1 0x1 ADD DUP6 SSTORE DUP3 ISZERO PUSH3 0x144 JUMPI SWAP2 DUP3 ADD JUMPDEST DUP3 DUP2 GT ISZERO PUSH3 0x144 JUMPI DUP3 MLOAD DUP3 SSTORE SWAP2 PUSH1 0x20 ADD SWAP2 SWAP1 PUSH1 0x1 ADD SWAP1 PUSH3 0x127 JUMP JUMPDEST POP PUSH3 0x152 SWAP3 SWAP2 POP PUSH3 0x156 JUMP JUMPDEST POP SWAP1 JUMP JUMPDEST JUMPDEST DUP1 DUP3 GT ISZERO PUSH3 0x152 JUMPI PUSH1 0x0 DUP2 SSTORE PUSH1 0x1 ADD PUSH3 0x157 JUMP JUMPDEST PUSH1 0x0 PUSH1 0x20 DUP3 DUP5 SUB SLT ISZERO PUSH3 0x17F JUMPI DUP1 DUP2 REVERT JUMPDEST DUP2 MLOAD PUSH1 0x1 PUSH1 0x1 PUSH1 0xA0 SHL SUB DUP2 AND DUP2 EQ PUSH3 0x196 JUMPI DUP2 DUP3 REVERT JUMPDEST SWAP4 SWAP3 POP POP POP JUMP JUMPDEST PUSH1 0x2 DUP2 DIV PUSH1 0x1 DUP3 AND DUP1 PUSH3 0x1B2 JUMPI PUSH1 0x7F DUP3 AND SWAP2 POP JUMPDEST PUSH1 0x20 DUP3 LT DUP2 EQ ISZERO PUSH3 0x1D4 JUMPI PUSH4 0x4E487B71 PUSH1 0xE0 SHL PUSH1 0x0 MSTORE PUSH1 0x22 PUSH1 0x4 MSTORE PUSH1 0x24 PUSH1 0x0 REVERT JUMPDEST POP SWAP2 SWAP1 POP JUMP JUMPDEST PUSH2 0xDC0 DUP1 PUSH3 0x1EA PUSH1 0x0 CODECOPY PUSH1 0x0 RETURN INVALID PUSH1 0x80 PUSH1 0x40 MSTORE CALLVALUE DUP1 ISZERO PUSH2 0x10 JUMPI PUSH1 0x0 DUP1 REVERT JUMPDEST POP PUSH1 0x4 CALLDATASIZE LT PUSH2 0xEA JUMPI PUSH1 0x0 CALLDATALOAD PUSH1 0xE0 SHR DUP1 PUSH4 0x70A08231 GT PUSH2 0x8C JUMPI DUP1 PUSH4 0xA0712D68 GT PUSH2 0x66 JUMPI DUP1 PUSH4 0xA0712D68 EQ PUSH2 0x1C0 JUMPI DUP1 PUSH4 0xA457C2D7 EQ PUSH2 0x1D3 JUMPI DUP1 PUSH4 0xA9059CBB EQ PUSH2 0x1E6 JUMPI DUP1 PUSH4 0xDD62ED3E EQ PUSH2 0x1F9 JUMPI PUSH2 0xEA JUMP JUMPDEST DUP1 PUSH4 0x70A08231 EQ PUSH2 0x192 JUMPI DUP1 PUSH4 0x79CC6790 EQ PUSH2 0x1A5 JUMPI DUP1 PUSH4 0x95D89B41 EQ PUSH2 0x1B8 JUMPI PUSH2 0xEA JUMP JUMPDEST DUP1 PUSH4 0x23B872DD GT PUSH2 0xC8 JUMPI DUP1 PUSH4 0x23B872DD EQ PUSH2 0x142 JUMPI DUP1 PUSH4 0x313CE567 EQ PUSH2 0x155 JUMPI DUP1 PUSH4 0x39509351 EQ PUSH2 0x16A JUMPI DUP1 PUSH4 0x42966C68 EQ PUSH2 0x17D JUMPI PUSH2 0xEA JUMP JUMPDEST DUP1 PUSH4 0x6FDDE03 EQ PUSH2 0xEF JUMPI DUP1 PUSH4 0x95EA7B3 EQ PUSH2 0x10D JUMPI DUP1 PUSH4 0x18160DDD EQ PUSH2 0x12D JUMPI JUMPDEST PUSH1 0x0 DUP1 REVERT JUMPDEST PUSH2 0xF7 PUSH2 0x20C JUMP JUMPDEST PUSH1 0x40 MLOAD PUSH2 0x104 SWAP2 SWAP1 PUSH2 0x9C1 JUMP JUMPDEST PUSH1 0x40 MLOAD DUP1 SWAP2 SUB SWAP1 RETURN JUMPDEST PUSH2 0x120 PUSH2 0x11B CALLDATASIZE PUSH1 0x4 PUSH2 0x975 JUMP JUMPDEST PUSH2 0x29E JUMP JUMPDEST PUSH1 0x40 MLOAD PUSH2 0x104 SWAP2 SWAP1 PUSH2 0x9B6 JUMP JUMPDEST PUSH2 0x135 PUSH2 0x2BB JUMP JUMPDEST PUSH1 0x40 MLOAD PUSH2 0x104 SWAP2 SWAP1 PUSH2 0xCF3 JUMP JUMPDEST PUSH2 0x120 PUSH2 0x150 CALLDATASIZE PUSH1 0x4 PUSH2 0x93A JUMP JUMPDEST PUSH2 0x2C1 JUMP JUMPDEST PUSH2 0x15D PUSH2 0x35A JUMP JUMPDEST PUSH1 0x40 MLOAD PUSH2 0x104 SWAP2 SWAP1 PUSH2 0xCFC JUMP JUMPDEST PUSH2 0x120 PUSH2 0x178 CALLDATASIZE PUSH1 0x4 PUSH2 0x975 JUMP JUMPDEST PUSH2 0x35F JUMP JUMPDEST PUSH2 0x190 PUSH2 0x18B CALLDATASIZE PUSH1 0x4 PUSH2 0x99E JUMP JUMPDEST PUSH2 0x3B3 JUMP JUMPDEST STOP JUMPDEST PUSH2 0x135 PUSH2 0x1A0 CALLDATASIZE PUSH1 0x4 PUSH2 0x8E7 JUMP JUMPDEST PUSH2 0x3D7 JUMP JUMPDEST PUSH2 0x190 PUSH2 0x1B3 CALLDATASIZE PUSH1 0x4 PUSH2 0x975 JUMP JUMPDEST PUSH2 0x3F6 JUMP JUMPDEST PUSH2 0xF7 PUSH2 0x449 JUMP JUMPDEST PUSH2 0x190 PUSH2 0x1CE CALLDATASIZE PUSH1 0x4 PUSH2 0x99E JUMP JUMPDEST PUSH2 0x458 JUMP JUMPDEST PUSH2 0x120 PUSH2 0x1E1 CALLDATASIZE PUSH1 0x4 PUSH2 0x975 JUMP JUMPDEST PUSH2 0x479 JUMP JUMPDEST PUSH2 0x120 PUSH2 0x1F4 CALLDATASIZE PUSH1 0x4 PUSH2 0x975 JUMP JUMPDEST PUSH2 0x4F2 JUMP JUMPDEST PUSH2 0x135 PUSH2 0x207 CALLDATASIZE PUSH1 0x4 PUSH2 0x908 JUMP JUMPDEST PUSH2 0x506 JUMP JUMPDEST PUSH1 0x60 PUSH1 0x3 DUP1 SLOAD PUSH2 0x21B SWAP1 PUSH2 0xD39 JUMP JUMPDEST DUP1 PUSH1 0x1F ADD PUSH1 0x20 DUP1 SWAP2 DIV MUL PUSH1 0x20 ADD PUSH1 0x40 MLOAD SWAP1 DUP2 ADD PUSH1 0x40 MSTORE DUP1 SWAP3 SWAP2 SWAP1 DUP2 DUP2 MSTORE PUSH1 0x20 ADD DUP3 DUP1 SLOAD PUSH2 0x247 SWAP1 PUSH2 0xD39 JUMP JUMPDEST DUP1 ISZERO PUSH2 0x294 JUMPI DUP1 PUSH1 0x1F LT PUSH2 0x269 JUMPI PUSH2 0x100 DUP1 DUP4 SLOAD DIV MUL DUP4 MSTORE SWAP2 PUSH1 0x20 ADD SWAP2 PUSH2 0x294 JUMP JUMPDEST DUP3 ADD SWAP2 SWAP1 PUSH1 0x0 MSTORE PUSH1 0x20 PUSH1 0x0 KECCAK256 SWAP1 JUMPDEST DUP2 SLOAD DUP2 MSTORE SWAP1 PUSH1 0x1 ADD SWAP1 PUSH1 0x20 ADD DUP1 DUP4 GT PUSH2 0x277 JUMPI DUP3 SWAP1 SUB PUSH1 0x1F AND DUP3 ADD SWAP2 JUMPDEST POP POP POP POP POP SWAP1 POP SWAP1 JUMP JUMPDEST PUSH1 0x0 PUSH2 0x2B2 PUSH2 0x2AB PUSH2 0x531 JUMP JUMPDEST DUP5 DUP5 PUSH2 0x535 JUMP JUMPDEST POP PUSH1 0x1 SWAP3 SWAP2 POP POP JUMP JUMPDEST PUSH1 0x2 SLOAD SWAP1 JUMP JUMPDEST PUSH1 0x0 PUSH2 0x2CE DUP5 DUP5 DUP5 PUSH2 0x5E9 JUMP JUMPDEST PUSH1 0x1 PUSH1 0x1 PUSH1 0xA0 SHL SUB DUP5 AND PUSH1 0x0 SWAP1 DUP2 MSTORE PUSH1 0x1 PUSH1 0x20 MSTORE PUSH1 0x40 DUP2 KECCAK256 DUP2 PUSH2 0x2EF PUSH2 0x531 JUMP JUMPDEST PUSH1 0x1 PUSH1 0x1 PUSH1 0xA0 SHL SUB AND PUSH1 0x1 PUSH1 0x1 PUSH1 0xA0 SHL SUB AND DUP2 MSTORE PUSH1 0x20 ADD SWAP1 DUP2 MSTORE PUSH1 0x20 ADD PUSH1 0x0 KECCAK256 SLOAD SWAP1 POP DUP3 DUP2 LT ISZERO PUSH2 0x33B JUMPI PUSH1 0x40 MLOAD PUSH3 0x461BCD PUSH1 0xE5 SHL DUP2 MSTORE PUSH1 0x4 ADD PUSH2 0x332 SWAP1 PUSH2 0xB21 JUMP JUMPDEST PUSH1 0x40 MLOAD DUP1 SWAP2 SUB SWAP1 REVERT JUMPDEST PUSH2 0x34F DUP6 PUSH2 0x347 PUSH2 0x531 JUMP JUMPDEST DUP6 DUP5 SUB PUSH2 0x535 JUMP JUMPDEST POP PUSH1 0x1 SWAP5 SWAP4 POP POP POP POP JUMP JUMPDEST PUSH1 0x6 SWAP1 JUMP JUMPDEST PUSH1 0x0 PUSH2 0x2B2 PUSH2 0x36C PUSH2 0x531 JUMP JUMPDEST DUP5 DUP5 PUSH1 0x1 PUSH1 0x0 PUSH2 0x37A PUSH2 0x531 JUMP JUMPDEST PUSH1 0x1 PUSH1 0x1 PUSH1 0xA0 SHL SUB SWAP1 DUP2 AND DUP3 MSTORE PUSH1 0x20 DUP1 DUP4 ADD SWAP4 SWAP1 SWAP4 MSTORE PUSH1 0x40 SWAP2 DUP3 ADD PUSH1 0x0 SWAP1 DUP2 KECCAK256 SWAP2 DUP12 AND DUP2 MSTORE SWAP3 MSTORE SWAP1 KECCAK256 SLOAD PUSH2 0x3AE SWAP2 SWAP1 PUSH2 0xD0A JUMP JUMPDEST PUSH2 0x535 JUMP JUMPDEST PUSH1 0x5 SLOAD PUSH1 0x1 PUSH1 0x1 PUSH1 0xA0 SHL SUB AND CALLER EQ PUSH2 0x3CA JUMPI PUSH1 0x0 DUP1 REVERT JUMPDEST PUSH2 0x3D4 ORIGIN DUP3 PUSH2 0x3F6 JUMP JUMPDEST POP JUMP JUMPDEST PUSH1 0x1 PUSH1 0x1 PUSH1 0xA0 SHL SUB DUP2 AND PUSH1 0x0 SWAP1 DUP2 MSTORE PUSH1 0x20 DUP2 SWAP1 MSTORE PUSH1 0x40 SWAP1 KECCAK256 SLOAD JUMPDEST SWAP2 SWAP1 POP JUMP JUMPDEST PUSH1 0x0 PUSH2 0x404 DUP4 PUSH2 0x207 PUSH2 0x531 JUMP JUMPDEST SWAP1 POP DUP2 DUP2 LT ISZERO PUSH2 0x426 JUMPI PUSH1 0x40 MLOAD PUSH3 0x461BCD PUSH1 0xE5 SHL DUP2 MSTORE PUSH1 0x4 ADD PUSH2 0x332 SWAP1 PUSH2 0xB69 JUMP JUMPDEST PUSH2 0x43A DUP4 PUSH2 0x432 PUSH2 0x531 JUMP JUMPDEST DUP5 DUP5 SUB PUSH2 0x535 JUMP JUMPDEST PUSH2 0x444 DUP4 DUP4 PUSH2 0x713 JUMP JUMPDEST POP POP POP JUMP JUMPDEST PUSH1 0x60 PUSH1 0x4 DUP1 SLOAD PUSH2 0x21B SWAP1 PUSH2 0xD39 JUMP JUMPDEST PUSH1 0x5 SLOAD PUSH1 0x1 PUSH1 0x1 PUSH1 0xA0 SHL SUB AND CALLER EQ PUSH2 0x46F JUMPI PUSH1 0x0 DUP1 REVERT JUMPDEST PUSH2 0x3D4 ORIGIN DUP3 PUSH2 0x804 JUMP JUMPDEST PUSH1 0x0 DUP1 PUSH1 0x1 PUSH1 0x0 PUSH2 0x488 PUSH2 0x531 JUMP JUMPDEST PUSH1 0x1 PUSH1 0x1 PUSH1 0xA0 SHL SUB SWAP1 DUP2 AND DUP3 MSTORE PUSH1 0x20 DUP1 DUP4 ADD SWAP4 SWAP1 SWAP4 MSTORE PUSH1 0x40 SWAP2 DUP3 ADD PUSH1 0x0 SWAP1 DUP2 KECCAK256 SWAP2 DUP9 AND DUP2 MSTORE SWAP3 MSTORE SWAP1 KECCAK256 SLOAD SWAP1 POP DUP3 DUP2 LT ISZERO PUSH2 0x4D4 JUMPI PUSH1 0x40 MLOAD PUSH3 0x461BCD PUSH1 0xE5 SHL DUP2 MSTORE PUSH1 0x4 ADD PUSH2 0x332 SWAP1 PUSH2 0xC77 JUMP JUMPDEST PUSH2 0x4E8 PUSH2 0x4DF PUSH2 0x531 JUMP JUMPDEST DUP6 DUP6 DUP5 SUB PUSH2 0x535 JUMP JUMPDEST POP PUSH1 0x1 SWAP4 SWAP3 POP POP POP JUMP JUMPDEST PUSH1 0x0 PUSH2 0x2B2 PUSH2 0x4FF PUSH2 0x531 JUMP JUMPDEST DUP5 DUP5 PUSH2 0x5E9 JUMP JUMPDEST PUSH1 0x1 PUSH1 0x1 PUSH1 0xA0 SHL SUB SWAP2 DUP3 AND PUSH1 0x0 SWAP1 DUP2 MSTORE PUSH1 0x1 PUSH1 0x20 SWAP1 DUP2 MSTORE PUSH1 0x40 DUP1 DUP4 KECCAK256 SWAP4 SWAP1 SWAP5 AND DUP3 MSTORE SWAP2 SWAP1 SWAP2 MSTORE KECCAK256 SLOAD SWAP1 JUMP JUMPDEST CALLER SWAP1 JUMP JUMPDEST PUSH1 0x1 PUSH1 0x1 PUSH1 0xA0 SHL SUB DUP4 AND PUSH2 0x55B JUMPI PUSH1 0x40 MLOAD PUSH3 0x461BCD PUSH1 0xE5 SHL DUP2 MSTORE PUSH1 0x4 ADD PUSH2 0x332 SWAP1 PUSH2 0xC33 JUMP JUMPDEST PUSH1 0x1 PUSH1 0x1 PUSH1 0xA0 SHL SUB DUP3 AND PUSH2 0x581 JUMPI PUSH1 0x40 MLOAD PUSH3 0x461BCD PUSH1 0xE5 SHL DUP2 MSTORE PUSH1 0x4 ADD PUSH2 0x332 SWAP1 PUSH2 0xA99 JUMP JUMPDEST PUSH1 0x1 PUSH1 0x1 PUSH1 0xA0 SHL SUB DUP1 DUP5 AND PUSH1 0x0 DUP2 DUP2 MSTORE PUSH1 0x1 PUSH1 0x20 SWAP1 DUP2 MSTORE PUSH1 0x40 DUP1 DUP4 KECCAK256 SWAP5 DUP8 AND DUP1 DUP5 MSTORE SWAP5 SWAP1 SWAP2 MSTORE SWAP1 DUP2 SWAP1 KECCAK256 DUP5 SWAP1 SSTORE MLOAD PUSH32 0x8C5BE1E5EBEC7D5BD14F71427D1E84F3DD0314C0F7B2291E5B200AC8C7C3B925 SWAP1 PUSH2 0x5DC SWAP1 DUP6 SWAP1 PUSH2 0xCF3 JUMP JUMPDEST PUSH1 0x40 MLOAD DUP1 SWAP2 SUB SWAP1 LOG3 POP POP POP JUMP JUMPDEST PUSH1 0x1 PUSH1 0x1 PUSH1 0xA0 SHL SUB DUP4 AND PUSH2 0x60F JUMPI PUSH1 0x40 MLOAD PUSH3 0x461BCD PUSH1 0xE5 SHL DUP2 MSTORE PUSH1 0x4 ADD PUSH2 0x332 SWAP1 PUSH2 0xBEE JUMP JUMPDEST PUSH1 0x1 PUSH1 0x1 PUSH1 0xA0 SHL SUB DUP3 AND PUSH2 0x635 JUMPI PUSH1 0x40 MLOAD PUSH3 0x461BCD PUSH1 0xE5 SHL DUP2 MSTORE PUSH1 0x4 ADD PUSH2 0x332 SWAP1 PUSH2 0xA14 JUMP JUMPDEST PUSH2 0x640 DUP4 DUP4 DUP4 PUSH2 0x444 JUMP JUMPDEST PUSH1 0x1 PUSH1 0x1 PUSH1 0xA0 SHL SUB DUP4 AND PUSH1 0x0 SWAP1 DUP2 MSTORE PUSH1 0x20 DUP2 SWAP1 MSTORE PUSH1 0x40 SWAP1 KECCAK256 SLOAD DUP2 DUP2 LT ISZERO PUSH2 0x679 JUMPI PUSH1 0x40 MLOAD PUSH3 0x461BCD PUSH1 0xE5 SHL DUP2 MSTORE PUSH1 0x4 ADD PUSH2 0x332 SWAP1 PUSH2 0xADB JUMP JUMPDEST PUSH1 0x1 PUSH1 0x1 PUSH1 0xA0 SHL SUB DUP1 DUP6 AND PUSH1 0x0 SWAP1 DUP2 MSTORE PUSH1 0x20 DUP2 SWAP1 MSTORE PUSH1 0x40 DUP1 DUP3 KECCAK256 DUP6 DUP6 SUB SWAP1 SSTORE SWAP2 DUP6 AND DUP2 MSTORE SWAP1 DUP2 KECCAK256 DUP1 SLOAD DUP5 SWAP3 SWAP1 PUSH2 0x6B0 SWAP1 DUP5 SWAP1 PUSH2 0xD0A JUMP JUMPDEST SWAP3 POP POP DUP2 SWAP1 SSTORE POP DUP3 PUSH1 0x1 PUSH1 0x1 PUSH1 0xA0 SHL SUB AND DUP5 PUSH1 0x1 PUSH1 0x1 PUSH1 0xA0 SHL SUB AND PUSH32 0xDDF252AD1BE2C89B69C2B068FC378DAA952BA7F163C4A11628F55A4DF523B3EF DUP5 PUSH1 0x40 MLOAD PUSH2 0x6FA SWAP2 SWAP1 PUSH2 0xCF3 JUMP JUMPDEST PUSH1 0x40 MLOAD DUP1 SWAP2 SUB SWAP1 LOG3 PUSH2 0x70D DUP5 DUP5 DUP5 PUSH2 0x444 JUMP JUMPDEST POP POP POP POP JUMP JUMPDEST PUSH1 0x1 PUSH1 0x1 PUSH1 0xA0 SHL SUB DUP3 AND PUSH2 0x739 JUMPI PUSH1 0x40 MLOAD PUSH3 0x461BCD PUSH1 0xE5 SHL DUP2 MSTORE PUSH1 0x4 ADD PUSH2 0x332 SWAP1 PUSH2 0xBAD JUMP JUMPDEST PUSH2 0x745 DUP3 PUSH1 0x0 DUP4 PUSH2 0x444 JUMP JUMPDEST PUSH1 0x1 PUSH1 0x1 PUSH1 0xA0 SHL SUB DUP3 AND PUSH1 0x0 SWAP1 DUP2 MSTORE PUSH1 0x20 DUP2 SWAP1 MSTORE PUSH1 0x40 SWAP1 KECCAK256 SLOAD DUP2 DUP2 LT ISZERO PUSH2 0x77E JUMPI PUSH1 0x40 MLOAD PUSH3 0x461BCD PUSH1 0xE5 SHL DUP2 MSTORE PUSH1 0x4 ADD PUSH2 0x332 SWAP1 PUSH2 0xA57 JUMP JUMPDEST PUSH1 0x1 PUSH1 0x1 PUSH1 0xA0 SHL SUB DUP4 AND PUSH1 0x0 SWAP1 DUP2 MSTORE PUSH1 0x20 DUP2 SWAP1 MSTORE PUSH1 0x40 DUP2 KECCAK256 DUP4 DUP4 SUB SWAP1 SSTORE PUSH1 0x2 DUP1 SLOAD DUP5 SWAP3 SWAP1 PUSH2 0x7AD SWAP1 DUP5 SWAP1 PUSH2 0xD22 JUMP JUMPDEST SWAP1 SWAP2 SSTORE POP POP PUSH1 0x40 MLOAD PUSH1 0x0 SWAP1 PUSH1 0x1 PUSH1 0x1 PUSH1 0xA0 SHL SUB DUP6 AND SWAP1 PUSH32 0xDDF252AD1BE2C89B69C2B068FC378DAA952BA7F163C4A11628F55A4DF523B3EF SWAP1 PUSH2 0x7F0 SWAP1 DUP7 SWAP1 PUSH2 0xCF3 JUMP JUMPDEST PUSH1 0x40 MLOAD DUP1 SWAP2 SUB SWAP1 LOG3 PUSH2 0x444 DUP4 PUSH1 0x0 DUP5 PUSH2 0x444 JUMP JUMPDEST PUSH1 0x1 PUSH1 0x1 PUSH1 0xA0 SHL SUB DUP3 AND PUSH2 0x82A JUMPI PUSH1 0x40 MLOAD PUSH3 0x461BCD PUSH1 0xE5 SHL DUP2 MSTORE PUSH1 0x4 ADD PUSH2 0x332 SWAP1 PUSH2 0xCBC JUMP JUMPDEST PUSH2 0x836 PUSH1 0x0 DUP4 DUP4 PUSH2 0x444 JUMP JUMPDEST DUP1 PUSH1 0x2 PUSH1 0x0 DUP3 DUP3 SLOAD PUSH2 0x848 SWAP2 SWAP1 PUSH2 0xD0A JUMP JUMPDEST SWAP1 SWAP2 SSTORE POP POP PUSH1 0x1 PUSH1 0x1 PUSH1 0xA0 SHL SUB DUP3 AND PUSH1 0x0 SWAP1 DUP2 MSTORE PUSH1 0x20 DUP2 SWAP1 MSTORE PUSH1 0x40 DUP2 KECCAK256 DUP1 SLOAD DUP4 SWAP3 SWAP1 PUSH2 0x875 SWAP1 DUP5 SWAP1 PUSH2 0xD0A JUMP JUMPDEST SWAP1 SWAP2 SSTORE POP POP PUSH1 0x40 MLOAD PUSH1 0x1 PUSH1 0x1 PUSH1 0xA0 SHL SUB DUP4 AND SWAP1 PUSH1 0x0 SWAP1 PUSH32 0xDDF252AD1BE2C89B69C2B068FC378DAA952BA7F163C4A11628F55A4DF523B3EF SWAP1 PUSH2 0x8B8 SWAP1 DUP6 SWAP1 PUSH2 0xCF3 JUMP JUMPDEST PUSH1 0x40 MLOAD DUP1 SWAP2 SUB SWAP1 LOG3 PUSH2 0x8CC PUSH1 0x0 DUP4 DUP4 PUSH2 0x444 JUMP JUMPDEST POP POP JUMP JUMPDEST DUP1 CALLDATALOAD PUSH1 0x1 PUSH1 0x1 PUSH1 0xA0 SHL SUB DUP2 AND DUP2 EQ PUSH2 0x3F1 JUMPI PUSH1 0x0 DUP1 REVERT JUMPDEST PUSH1 0x0 PUSH1 0x20 DUP3 DUP5 SUB SLT ISZERO PUSH2 0x8F8 JUMPI DUP1 DUP2 REVERT JUMPDEST PUSH2 0x901 DUP3 PUSH2 0x8D0 JUMP JUMPDEST SWAP4 SWAP3 POP POP POP JUMP JUMPDEST PUSH1 0x0 DUP1 PUSH1 0x40 DUP4 DUP6 SUB SLT ISZERO PUSH2 0x91A JUMPI DUP1 DUP2 REVERT JUMPDEST PUSH2 0x923 DUP4 PUSH2 0x8D0 JUMP JUMPDEST SWAP2 POP PUSH2 0x931 PUSH1 0x20 DUP5 ADD PUSH2 0x8D0 JUMP JUMPDEST SWAP1 POP SWAP3 POP SWAP3 SWAP1 POP JUMP JUMPDEST PUSH1 0x0 DUP1 PUSH1 0x0 PUSH1 0x60 DUP5 DUP7 SUB SLT ISZERO PUSH2 0x94E JUMPI DUP1 DUP2 REVERT JUMPDEST PUSH2 0x957 DUP5 PUSH2 0x8D0 JUMP JUMPDEST SWAP3 POP PUSH2 0x965 PUSH1 0x20 DUP6 ADD PUSH2 0x8D0 JUMP JUMPDEST SWAP2 POP PUSH1 0x40 DUP5 ADD CALLDATALOAD SWAP1 POP SWAP3 POP SWAP3 POP SWAP3 JUMP JUMPDEST PUSH1 0x0 DUP1 PUSH1 0x40 DUP4 DUP6 SUB SLT ISZERO PUSH2 0x987 JUMPI DUP2 DUP3 REVERT JUMPDEST PUSH2 0x990 DUP4 PUSH2 0x8D0 JUMP JUMPDEST SWAP5 PUSH1 0x20 SWAP4 SWAP1 SWAP4 ADD CALLDATALOAD SWAP4 POP POP POP JUMP JUMPDEST PUSH1 0x0 PUSH1 0x20 DUP3 DUP5 SUB SLT ISZERO PUSH2 0x9AF JUMPI DUP1 DUP2 REVERT JUMPDEST POP CALLDATALOAD SWAP2 SWAP1 POP JUMP JUMPDEST SWAP1 ISZERO ISZERO DUP2 MSTORE PUSH1 0x20 ADD SWAP1 JUMP JUMPDEST PUSH1 0x0 PUSH1 0x20 DUP1 DUP4 MSTORE DUP4 MLOAD DUP1 DUP3 DUP6 ADD MSTORE DUP3 JUMPDEST DUP2 DUP2 LT ISZERO PUSH2 0x9ED JUMPI DUP6 DUP2 ADD DUP4 ADD MLOAD DUP6 DUP3 ADD PUSH1 0x40 ADD MSTORE DUP3 ADD PUSH2 0x9D1 JUMP JUMPDEST DUP2 DUP2 GT ISZERO PUSH2 0x9FE JUMPI DUP4 PUSH1 0x40 DUP4 DUP8 ADD ADD MSTORE JUMPDEST POP PUSH1 0x1F ADD PUSH1 0x1F NOT AND SWAP3 SWAP1 SWAP3 ADD PUSH1 0x40 ADD SWAP4 SWAP3 POP POP POP JUMP JUMPDEST PUSH1 0x20 DUP1 DUP3 MSTORE PUSH1 0x23 SWAP1 DUP3 ADD MSTORE PUSH32 0x45524332303A207472616E7366657220746F20746865207A65726F2061646472 PUSH1 0x40 DUP3 ADD MSTORE PUSH3 0x657373 PUSH1 0xE8 SHL PUSH1 0x60 DUP3 ADD MSTORE PUSH1 0x80 ADD SWAP1 JUMP JUMPDEST PUSH1 0x20 DUP1 DUP3 MSTORE PUSH1 0x22 SWAP1 DUP3 ADD MSTORE PUSH32 0x45524332303A206275726E20616D6F756E7420657863656564732062616C616E PUSH1 0x40 DUP3 ADD MSTORE PUSH2 0x6365 PUSH1 0xF0 SHL PUSH1 0x60 DUP3 ADD MSTORE PUSH1 0x80 ADD SWAP1 JUMP JUMPDEST PUSH1 0x20 DUP1 DUP3 MSTORE PUSH1 0x22 SWAP1 DUP3 ADD MSTORE PUSH32 0x45524332303A20617070726F766520746F20746865207A65726F206164647265 PUSH1 0x40 DUP3 ADD MSTORE PUSH2 0x7373 PUSH1 0xF0 SHL PUSH1 0x60 DUP3 ADD MSTORE PUSH1 0x80 ADD SWAP1 JUMP JUMPDEST PUSH1 0x20 DUP1 DUP3 MSTORE PUSH1 0x26 SWAP1 DUP3 ADD MSTORE PUSH32 0x45524332303A207472616E7366657220616D6F756E7420657863656564732062 PUSH1 0x40 DUP3 ADD MSTORE PUSH6 0x616C616E6365 PUSH1 0xD0 SHL PUSH1 0x60 DUP3 ADD MSTORE PUSH1 0x80 ADD SWAP1 JUMP JUMPDEST PUSH1 0x20 DUP1 DUP3 MSTORE PUSH1 0x28 SWAP1 DUP3 ADD MSTORE PUSH32 0x45524332303A207472616E7366657220616D6F756E7420657863656564732061 PUSH1 0x40 DUP3 ADD MSTORE PUSH8 0x6C6C6F77616E6365 PUSH1 0xC0 SHL PUSH1 0x60 DUP3 ADD MSTORE PUSH1 0x80 ADD SWAP1 JUMP JUMPDEST PUSH1 0x20 DUP1 DUP3 MSTORE PUSH1 0x24 SWAP1 DUP3 ADD MSTORE PUSH32 0x45524332303A206275726E20616D6F756E74206578636565647320616C6C6F77 PUSH1 0x40 DUP3 ADD MSTORE PUSH4 0x616E6365 PUSH1 0xE0 SHL PUSH1 0x60 DUP3 ADD MSTORE PUSH1 0x80 ADD SWAP1 JUMP JUMPDEST PUSH1 0x20 DUP1 DUP3 MSTORE PUSH1 0x21 SWAP1 DUP3 ADD MSTORE PUSH32 0x45524332303A206275726E2066726F6D20746865207A65726F20616464726573 PUSH1 0x40 DUP3 ADD MSTORE PUSH1 0x73 PUSH1 0xF8 SHL PUSH1 0x60 DUP3 ADD MSTORE PUSH1 0x80 ADD SWAP1 JUMP JUMPDEST PUSH1 0x20 DUP1 DUP3 MSTORE PUSH1 0x25 SWAP1 DUP3 ADD MSTORE PUSH32 0x45524332303A207472616E736665722066726F6D20746865207A65726F206164 PUSH1 0x40 DUP3 ADD MSTORE PUSH5 0x6472657373 PUSH1 0xD8 SHL PUSH1 0x60 DUP3 ADD MSTORE PUSH1 0x80 ADD SWAP1 JUMP JUMPDEST PUSH1 0x20 DUP1 DUP3 MSTORE PUSH1 0x24 SWAP1 DUP3 ADD MSTORE PUSH32 0x45524332303A20617070726F76652066726F6D20746865207A65726F20616464 PUSH1 0x40 DUP3 ADD MSTORE PUSH4 0x72657373 PUSH1 0xE0 SHL PUSH1 0x60 DUP3 ADD MSTORE PUSH1 0x80 ADD SWAP1 JUMP JUMPDEST PUSH1 0x20 DUP1 DUP3 MSTORE PUSH1 0x25 SWAP1 DUP3 ADD MSTORE PUSH32 0x45524332303A2064656372656173656420616C6C6F77616E63652062656C6F77 PUSH1 0x40 DUP3 ADD MSTORE PUSH5 0x207A65726F PUSH1 0xD8 SHL PUSH1 0x60 DUP3 ADD MSTORE PUSH1 0x80 ADD SWAP1 JUMP JUMPDEST PUSH1 0x20 DUP1 DUP3 MSTORE PUSH1 0x1F SWAP1 DUP3 ADD MSTORE PUSH32 0x45524332303A206D696E7420746F20746865207A65726F206164647265737300 PUSH1 0x40 DUP3 ADD MSTORE PUSH1 0x60 ADD SWAP1 JUMP JUMPDEST SWAP1 DUP2 MSTORE PUSH1 0x20 ADD SWAP1 JUMP JUMPDEST PUSH1 0xFF SWAP2 SWAP1 SWAP2 AND DUP2 MSTORE PUSH1 0x20 ADD SWAP1 JUMP JUMPDEST PUSH1 0x0 DUP3 NOT DUP3 GT ISZERO PUSH2 0xD1D JUMPI PUSH2 0xD1D PUSH2 0xD74 JUMP JUMPDEST POP ADD SWAP1 JUMP JUMPDEST PUSH1 0x0 DUP3 DUP3 LT ISZERO PUSH2 0xD34 JUMPI PUSH2 0xD34 PUSH2 0xD74 JUMP JUMPDEST POP SUB SWAP1 JUMP JUMPDEST PUSH1 0x2 DUP2 DIV PUSH1 0x1 DUP3 AND DUP1 PUSH2 0xD4D JUMPI PUSH1 0x7F DUP3 AND SWAP2 POP JUMPDEST PUSH1 0x20 DUP3 LT DUP2 EQ ISZERO PUSH2 0xD6E JUMPI PUSH4 0x4E487B71 PUSH1 0xE0 SHL PUSH1 0x0 MSTORE PUSH1 0x22 PUSH1 0x4 MSTORE PUSH1 0x24 PUSH1 0x0 REVERT JUMPDEST POP SWAP2 SWAP1 POP JUMP JUMPDEST PUSH4 0x4E487B71 PUSH1 0xE0 SHL PUSH1 0x0 MSTORE PUSH1 0x11 PUSH1 0x4 MSTORE PUSH1 0x24 PUSH1 0x0 REVERT INVALID LOG2 PUSH5 0x6970667358 0x22 SLT KECCAK256 0x4E SHR PUSH14 0x573572959203575A7EF9E80D49A5 0x27 EXTCODEHASH POP DUP2 SWAP14 0x26 0xAD PUSH19 0x85E1265CC9EEC664736F6C63430008000033A2 PUSH5 0x6970667358 0x22 SLT KECCAK256 PUSH15 0xB16B4AA67D309939F62D43371989C5 XOR ADDMOD PUSH25 0x7B63D8E50FCCB32C3795026BF764736F6C6343000800003300 ","sha1":"929dd75fae3fcc587c23505153556e17e8802f12","source":"// SPDX-License-Identifier: MIT\npragma solidity ^0.8.0;\n\nimport  {ERC20} from \"@openzeppelin/contracts/token/ERC20/ERC20.sol\";\nimport  {ERC20Burnable} from \"@openzeppelin/contracts/token/ERC20/extensions/ERC20Burnable.sol\";\nimport \"@chainlink/contracts/src/v0.8/interfaces/AggregatorV3Interface.sol\";\nimport \"@openzeppelin/contracts/utils/math/SafeMath.sol\";\nimport \"@openzeppelin/contracts/access/Ownable.sol\";\n\n\ninterface IERC20 {\n    function transfer(address recipient, uint256 amount) external returns (bool);\n    function transferFrom(address sender, address recipient, uint256 amount) external returns (bool);\n    function approve(address spender, uint256 amount) external returns (bool);\n}\n\n\ncontract BTCUP is  ERC20, ERC20Burnable {\n    address parentAddress;\n\n    constructor(address _parentAddress) ERC20(\"Bitcoin Up\", \"BTCUP\") {\n        parentAddress = _parentAddress;\n    }\n\n    function mint(uint256 quantity) public onlyParent {\n        _mint(tx.origin, quantity);\n    }\n\n    function burn(uint256 quantity) public override onlyParent {\n        burnFrom(tx.origin, quantity);\n    }\n\n    function decimals() public view override returns (uint8) {\n        return 6;\n    }\n\n    modifier onlyParent {\n        require(msg.sender == parentAddress);\n        _;\n    }\n}\n\n\ncontract BTCDOWN is ERC20, ERC20Burnable {\n    address parentAddress;\n\n    constructor(address _parentAddress) ERC20(\"Bitcoin Down\", \"BTCDOWN\") {\n        parentAddress = _parentAddress;\n    }\n\n    function mint(uint256 quantity) public onlyParent {\n        _mint(tx.origin, quantity);\n    }\n\n    function burn(uint256 quantity) public override onlyParent {\n        burnFrom(tx.origin, quantity);\n    }\n\n    function decimals() public view override returns (uint8) {\n        return 6;\n    }\n\n    modifier onlyParent {\n        require(msg.sender == parentAddress);\n        _;\n    }\n}\n\n\ncontract LeveragedTrading is Ownable {\n    using SafeMath for uint256;\n\n    uint256 public priceBtcUp = 10 ** 6;\n    uint256 public priceBtcDown = 10 ** 6;        // 6 decimals\n\n    uint256 public collateralBtcUp = 0;          //6 decimals\n    uint256 public collateralBtcDown = 0;\n\n    uint256 public amountBtcUp = 0;           // 6 decimals\n    uint256 public amountBtcDown = 0;         // 6 decimals\n\n    uint256 public lastBtcPrice = 0;       // 8 decimals, chainlink conventions\n\n    bool public poolIsInitialized = false;\n\n    address addressUsdc = 0xb7a4F3E9097C08dA09517b5aB877F7a917224ede;  // <- Kovan  //0xeb8f08a975Ab53E34D8a0330E0D34de942C95926;\n    address addressBtcUSDFeed =  0x6135b13325bfC4B00278B4abC5e20bbce2D6580e; // <- Kovan          // 0xECe365B379E1dD183B20fc5f022230C044d51404;\n\n    BTCUP btcUp;\n    BTCDOWN btcDown;\n\n    function initializePool(uint256 amountUsdc) public onlyOwner {\n        require(!poolIsInitialized, \"The pool was already initiated.\");\n\n        btcUp = new BTCUP(address(this));\n        btcDown = new BTCDOWN(address(this));\n\n        issueBtcUp(amountUsdc.div(2));\n        issueBtcDown(amountUsdc.div(2));\n\n        poolIsInitialized = true;\n    }\n\n    function issueBtcUp(uint256 amountUsdc) public {\n        rebalanceLeveragedTokens();\n        \n        priceBtcUp = getBtcUpPrice();\n        uint256 amountLeveragedTokens = amountUsdc.mul(10 ** 6).div(priceBtcUp);\n\n        btcUp.mint(amountLeveragedTokens);\n        amountBtcUp = amountBtcUp.add(amountLeveragedTokens);\n        collateralBtcUp = collateralBtcUp.add(amountUsdc);\n\n        IERC20 usdc = IERC20(addressUsdc);\n        require(usdc.transferFrom(msg.sender, address(this), amountUsdc), \"You don't have enough USDC.\");\n    }\n\n    function issueBtcDown(uint256 amountUsdc) public {\n        rebalanceLeveragedTokens();\n        \n        priceBtcDown = getBtcDownPrice();\n        uint256 amountLeveragedTokens = amountUsdc.mul(10 ** 6).div(priceBtcDown);\n\n        btcDown.mint(amountLeveragedTokens);\n        amountBtcDown = amountBtcDown.add(amountLeveragedTokens);\n        collateralBtcDown = collateralBtcDown.add(amountUsdc);\n\n        IERC20 usdc = IERC20(addressUsdc);\n        require(usdc.transferFrom(msg.sender, address(this), amountUsdc), \"You don't have enough USDC.\");\n    }\n\n    function redeemBtcUp(uint256 amountLeveragedTokens) public {\n        rebalanceLeveragedTokens();\n        btcUp.burn(amountLeveragedTokens);\n\n        priceBtcUp = getBtcUpPrice();\n        uint256 amountUsdc = amountLeveragedTokens.mul(priceBtcUp).div(10 ** 6);\n\n        amountBtcUp = amountBtcUp.sub(amountLeveragedTokens);\n        collateralBtcUp = collateralBtcUp.sub(amountUsdc);\n\n        IERC20 usdc = IERC20(addressUsdc);\n        assert(usdc.transfer(msg.sender, amountUsdc));\n    }\n\n    function redeemBtcDown(uint256 amountLeveragedTokens) public {\n        rebalanceLeveragedTokens();\n        btcDown.burn(amountLeveragedTokens);\n\n        priceBtcDown = getBtcDownPrice();\n        uint256 amountUsdc = amountLeveragedTokens.mul(priceBtcDown).div(10 ** 6);\n        \n        amountBtcDown = amountBtcDown.sub(amountLeveragedTokens);\n        collateralBtcDown = collateralBtcDown.sub(amountUsdc);\n\n        IERC20 usdc = IERC20(addressUsdc);\n        assert(usdc.transfer(msg.sender,  amountUsdc));\n    }\n\n    function rebalanceLeveragedTokens() public {\n        uint256 btcPrice = getBtcPrice();\n        if ((collateralBtcUp > 0) && (collateralBtcDown > 0)) {\n            uint256 rebalanceAmount = getRebalanceAmount(btcPrice);\n            if (getSign(btcPrice) > 0) {\n                collateralBtcUp = collateralBtcUp.add(rebalanceAmount);\n                collateralBtcDown = collateralBtcDown.sub(rebalanceAmount);\n            }\n\n            else {\n                collateralBtcUp = collateralBtcUp.sub(rebalanceAmount);\n                collateralBtcDown = collateralBtcDown.add(rebalanceAmount);\n            }\n\n        }\n        lastBtcPrice = btcPrice;\n    }\n\n/////////////////////////////////////////////////////////////////////////////////////////////////////////////////////////////////////////////////////////////////////////\n\n    function getSign(uint256 btcPrice) internal view returns (int256) {\n        if (btcPrice > lastBtcPrice) {\n            return 1;\n        }\n        else {\n            return -1;\n        }\n    }\n \n    function getRebalanceAmount(uint256 priceBtc) internal view returns (uint256) {\n        uint256 priceDiff = getPriceDiff(priceBtc);\n\n        return min(collateralBtcUp, collateralBtcDown).mul(L(priceDiff)).div(10 ** 6);\n    }\n\n// getBtcUpPrice() 6 decimals\n    function getBtcUpPrice() public view returns (uint256) {\n        return amountBtcUp == 0 ?  priceBtcUp : collateralBtcUp.mul(10 ** 6).div(amountBtcUp);\n    }\n\n// getBtcDownPrice() 6 decimals\n    function getBtcDownPrice() public view returns (uint256) {//6 decimals\n        return amountBtcDown == 0 ?  priceBtcDown : collateralBtcDown.mul(10 ** 6).div(amountBtcDown);\n    }\n\n// get the price of our asset with 8 decimals\n    function getBtcPrice() public view returns (uint256) {\n        AggregatorV3Interface priceFeed = AggregatorV3Interface(addressBtcUSDFeed);\n        (,int256 answer,,,) = priceFeed.latestRoundData();\n\n         return uint256(answer);             // we call chainlink oracle to get the price of the asset\n         \n    }\n    \n    function min(uint256 a, uint256 b) internal pure returns (uint256) {\n        return a <= b ? a : b;\n    }\n\n    function L(uint256 x) internal pure returns (uint256) {            //6  decimals\n\n        uint256 denom = 9 * (x ** 2 / 10 ** 6)  + 3 * x + 10 ** 6;\n        uint256 num = 10 ** 12;\n\n        return 10 ** 6 - num / denom;\n    }\n\n    function getPriceDiff(uint256 btcPrice) internal view returns (uint256) {     //6 decimals\n        if (btcPrice > lastBtcPrice) {\n            return btcPrice.mul(10 ** 6).div(lastBtcPrice).sub(10 ** 6);\n        }\n\n        else {\n            return lastBtcPrice.mul(10 ** 6).div(btcPrice).sub(10 ** 6);\n        }\n\n    }\n\n    function getBtcupBalance() public view returns(uint256) {\n        return btcUp.balanceOf(msg.sender);\n    }\n\n    function getBtcdownBalance() public view returns(uint256) {\n        return btcDown.balanceOf(msg.sender);\n    }\n\n\n}\n\n\n\n\n\n\n","sourcePath":"contracts/LeveragedTrading.sol","type":"contract","deployment":{"address":"0x00CB04b945354d3c34A22246633f490705620bfb","chainid":"42","blockHeight":32771684}}