{"abi":[{"anonymous":false,"inputs":[{"indexed":true,"internalType":"address","name":"previousOwner","type":"address"},{"indexed":true,"internalType":"address","name":"newOwner","type":"address"}],"name":"OwnershipTransferred","type":"event"},{"inputs":[],"name":"amountBtcDown","outputs":[{"internalType":"uint256","name":"","type":"uint256"}],"stateMutability":"view","type":"function"},{"inputs":[],"name":"amountBtcUp","outputs":[{"internalType":"uint256","name":"","type":"uint256"}],"stateMutability":"view","type":"function"},{"inputs":[],"name":"collateralBtcDown","outputs":[{"internalType":"uint256","name":"","type":"uint256"}],"stateMutability":"view","type":"function"},{"inputs":[],"name":"collateralBtcUp","outputs":[{"internalType":"uint256","name":"","type":"uint256"}],"stateMutability":"view","type":"function"},{"inputs":[],"name":"getBtcDownPrice","outputs":[{"internalType":"uint256","name":"","type":"uint256"}],"stateMutability":"view","type":"function"},{"inputs":[],"name":"getBtcPrice","outputs":[{"internalType":"uint256","name":"","type":"uint256"}],"stateMutability":"view","type":"function"},{"inputs":[],"name":"getBtcUpPrice","outputs":[{"internalType":"uint256","name":"","type":"uint256"}],"stateMutability":"view","type":"function"},{"inputs":[],"name":"getBtcdownBalance","outputs":[{"internalType":"uint256","name":"","type":"uint256"}],"stateMutability":"view","type":"function"},{"inputs":[],"name":"getBtcupBalance","outputs":[{"internalType":"uint256","name":"","type":"uint256"}],"stateMutability":"view","type":"function"},{"inputs":[{"internalType":"uint256","name":"amountUsdc","type":"uint256"}],"name":"initiatePool","outputs":[],"stateMutability":"nonpayable","type":"function"},{"inputs":[{"internalType":"uint256","name":"amountUsdc","type":"uint256"}],"name":"issueBtcDown","outputs":[],"stateMutability":"nonpayable","type":"function"},{"inputs":[{"internalType":"uint256","name":"amountUsdc","type":"uint256"}],"name":"issueBtcUp","outputs":[],"stateMutability":"nonpayable","type":"function"},{"inputs":[],"name":"lastBtcPrice","outputs":[{"internalType":"uint256","name":"","type":"uint256"}],"stateMutability":"view","type":"function"},{"inputs":[],"name":"owner","outputs":[{"internalType":"address","name":"","type":"address"}],"stateMutability":"view","type":"function"},{"inputs":[],"name":"poolIsInitiated","outputs":[{"internalType":"bool","name":"","type":"bool"}],"stateMutability":"view","type":"function"},{"inputs":[],"name":"priceBtcDown","outputs":[{"internalType":"uint256","name":"","type":"uint256"}],"stateMutability":"view","type":"function"},{"inputs":[],"name":"priceBtcUp","outputs":[{"internalType":"uint256","name":"","type":"uint256"}],"stateMutability":"view","type":"function"},{"inputs":[],"name":"rebalanceLeveragedTokens","outputs":[],"stateMutability":"nonpayable","type":"function"},{"inputs":[{"internalType":"uint256","name":"amountLeveragedTokens","type":"uint256"}],"name":"redeemBtcDown","outputs":[],"stateMutability":"nonpayable","type":"function"},{"inputs":[{"internalType":"uint256","name":"amountLeveragedTokens","type":"uint256"}],"name":"redeemBtcUp","outputs":[],"stateMutability":"nonpayable","type":"function"},{"inputs":[],"name":"renounceOwnership","outputs":[],"stateMutability":"nonpayable","type":"function"},{"inputs":[{"internalType":"address","name":"newOwner","type":"address"}],"name":"transferOwnership","outputs":[],"stateMutability":"nonpayable","type":"function"}],"bytecode":"6080604052620f42406001819055600255600060038190556004819055600581905560068190556007556008805474b7a4f3e9097c08da09517b5ab877f7a917224ede006001600160a81b0319909116179055600980546001600160a01b031916736135b13325bfc4b00278b4abc5e20bbce2d6580e17905534801561008457600080fd5b5061009561009061009a565b61009e565b6100ee565b3390565b600080546001600160a01b038381166001600160a01b0319831681178455604051919092169283917f8be0079c531659141344cd1fd0a4f28419497f9722a3daafe3b4186f6b6457e09190a35050565b6110ac806100fd6000396000f3fe608060405234801561001057600080fd5b50600436106101415760003560e01c8063a14274e8116100b8578063dde7be2c1161007c578063dde7be2c14610224578063f0156e8a1461022c578063f06847d614610234578063f2fde38b1461023c578063f4352c571461024f578063f530c04a1461025757610141565b8063a14274e8146101db578063b75cbe0b146101ee578063c46d4f09146101f6578063c7e3b12414610209578063d1ee539d1461021157610141565b80633a3610bc1161010a5780633a3610bc146101915780636e5d661514610199578063715018a6146101a357806381c2b29b146101ab5780638da5cb5b146101b35780639b3075a1146101c857610141565b806234b9cc146101465780630c3e53431461016457806314d7c6d21461016c578063157d0129146101745780633074fff71461017c575b600080fd5b61014e61026a565b60405161015b9190610ed2565b60405180910390f35b61014e610270565b61014e610276565b61014e61027c565b610184610302565b60405161015b9190610dde565b61014e61030b565b6101a1610398565b005b6101a1610428565b61014e61047c565b6101bb6104b8565b60405161015b9190610d8d565b6101a16101d6366004610d0e565b6104c7565b6101a16101e9366004610d0e565b610577565b61014e6106d1565b6101a1610204366004610d0e565b6106d7565b61014e61082c565b6101a161021f366004610d0e565b61085d565b61014e610946565b61014e61094c565b61014e610952565b6101a161024a366004610cc7565b610983565b61014e6109f4565b6101a1610265366004610d0e565b6109fa565b60055481565b60025481565b60045481565b600a546040516370a0823160e01b81526000916001600160a01b0316906370a08231906102ad903390600401610d8d565b60206040518083038186803b1580156102c557600080fd5b505afa1580156102d9573d6000803e3d6000fd5b505050506040513d601f19601f820116820180604052508101906102fd9190610d26565b905090565b60085460ff1681565b60095460408051633fabe5a360e21b815290516000926001600160a01b0316918391839163feaf968c9160048083019260a0929190829003018186803b15801561035457600080fd5b505afa158015610368573d6000803e3d6000fd5b505050506040513d601f19601f8201168201806040525081019061038c9190610d3e565b50919550505050505090565b60006103a261030b565b905060006003541180156103b857506000600454115b156104235760006103c882610ae1565b905060006103d583610b1f565b1315610400576003546103e89082610b3c565b6003556004546103f89082610b4f565b600455610421565b60035461040d9082610b4f565b60035560045461041d9082610b3c565b6004555b505b600755565b610430610b5b565b6001600160a01b03166104416104b8565b6001600160a01b0316146104705760405162461bcd60e51b815260040161046790610e66565b60405180910390fd5b61047a6000610b5f565b565b60006006546000146104b1576104ac6006546104a6620f4240600454610baf90919063ffffffff16565b90610bbb565b6102fd565b5060025490565b6000546001600160a01b031690565b6104cf610b5b565b6001600160a01b03166104e06104b8565b6001600160a01b0316146105065760405162461bcd60e51b815260040161046790610e66565b60085460ff16156105295760405162461bcd60e51b815260040161046790610e2f565b600a8054306001600160a01b03199182168117909255600b80549091169091179055610559610265826002610bbb565b610567610204826002610bbb565b506008805460ff19166001179055565b61057f610398565b600b54604051630852cd8d60e31b81526001600160a01b03909116906342966c68906105af908490600401610ed2565b600060405180830381600087803b1580156105c957600080fd5b505af11580156105dd573d6000803e3d6000fd5b505050506105e961047c565b600281905560009061060590620f4240906104a6908590610baf565b6006549091506106159083610b4f565b6006556004546106259082610b4f565b600490815560085460405163a9059cbb60e01b81526101009091046001600160a01b031691829163a9059cbb91610660913391879101610dc5565b602060405180830381600087803b15801561067a57600080fd5b505af115801561068e573d6000803e3d6000fd5b505050506040513d601f19601f820116820180604052508101906106b29190610cee565b6106cc57634e487b7160e01b600052600160045260246000fd5b505050565b60065481565b6106df610398565b6106e761047c565b6002819055600090610700906104a684620f4240610baf565b600b5460405163140e25ad60e31b81529192506001600160a01b03169063a0712d6890610731908490600401610ed2565b600060405180830381600087803b15801561074b57600080fd5b505af115801561075f573d6000803e3d6000fd5b50506006546107719250905082610b3c565b6006556004546107819083610b3c565b60049081556008546040516323b872dd60e01b81526101009091046001600160a01b03169182916323b872dd916107be9133913091899101610da1565b602060405180830381600087803b1580156107d857600080fd5b505af11580156107ec573d6000803e3d6000fd5b505050506040513d601f19601f820116820180604052508101906108109190610cee565b6106cc5760405162461bcd60e51b815260040161046790610e9b565b600b546040516370a0823160e01b81526000916001600160a01b0316906370a08231906102ad903390600401610d8d565b610865610398565b600a54604051630852cd8d60e31b81526001600160a01b03909116906342966c6890610895908490600401610ed2565b600060405180830381600087803b1580156108af57600080fd5b505af11580156108c3573d6000803e3d6000fd5b505050506108cf610952565b60018190556000906108eb90620f4240906104a6908590610baf565b6005549091506108fb9083610b4f565b60055560035461090b9082610b4f565b60035560085460405163a9059cbb60e01b81526101009091046001600160a01b031690819063a9059cbb906106609033908690600401610dc5565b60035481565b60015481565b600060055460001461097c576104ac6005546104a6620f4240600354610baf90919063ffffffff16565b5060015490565b61098b610b5b565b6001600160a01b031661099c6104b8565b6001600160a01b0316146109c25760405162461bcd60e51b815260040161046790610e66565b6001600160a01b0381166109e85760405162461bcd60e51b815260040161046790610de9565b6109f181610b5f565b50565b60075481565b610a02610398565b610a0a610952565b6001819055600090610a23906104a684620f4240610baf565b600a5460405163140e25ad60e31b81529192506001600160a01b03169063a0712d6890610a54908490600401610ed2565b600060405180830381600087803b158015610a6e57600080fd5b505af1158015610a82573d6000803e3d6000fd5b5050600554610a949250905082610b3c565b600555600354610aa49083610b3c565b6003556008546040516323b872dd60e01b81526101009091046001600160a01b03169081906323b872dd906107be90339030908890600401610da1565b600080610aed83610bc7565b9050610b16620f42406104a6610b0284610c26565b610b10600354600454610c96565b90610baf565b9150505b919050565b6000600754821115610b3357506001610b1a565b50600019610b1a565b6000610b488284610edb565b9392505050565b6000610b488284611049565b3390565b600080546001600160a01b038381166001600160a01b0319831681178455604051919092169283917f8be0079c531659141344cd1fd0a4f28419497f9722a3daafe3b4186f6b6457e09190a35050565b6000610b48828461102a565b6000610b488284610ef3565b6000600754821115610c0357610bfc620f4240610bf66007546104a6620f424087610baf90919063ffffffff16565b90610b4f565b9050610b1a565b610bfc620f4240610bf6846104a6620f4240600754610baf90919063ffffffff16565b600080610c3483600361102a565b620f4240610c43600286610f59565b610c4d9190610ef3565b610c5890600961102a565b610c629190610edb565b610c6f90620f4240610edb565b905064e8d4a51000610c818282610ef3565b610c8e90620f4240611049565b949350505050565b600081831115610ca65781610b48565b5090919050565b805169ffffffffffffffffffff81168114610b1a57600080fd5b600060208284031215610cd8578081fd5b81356001600160a01b0381168114610b48578182fd5b600060208284031215610cff578081fd5b81518015158114610b48578182fd5b600060208284031215610d1f578081fd5b5035919050565b600060208284031215610d37578081fd5b5051919050565b600080600080600060a08688031215610d55578081fd5b610d5e86610cad565b9450602086015193506040860151925060608601519150610d8160808701610cad565b90509295509295909350565b6001600160a01b0391909116815260200190565b6001600160a01b039384168152919092166020820152604081019190915260600190565b6001600160a01b03929092168252602082015260400190565b901515815260200190565b60208082526026908201527f4f776e61626c653a206e6577206f776e657220697320746865207a65726f206160408201526564647265737360d01b606082015260800190565b6020808252601f908201527f54686520706f6f6c2077617320616c726561647920696e697469617465642e00604082015260600190565b6020808252818101527f4f776e61626c653a2063616c6c6572206973206e6f7420746865206f776e6572604082015260600190565b6020808252601b908201527f596f7520646f6e2774206861766520656e6f75676820555344432e0000000000604082015260600190565b90815260200190565b60008219821115610eee57610eee611060565b500190565b600082610f0e57634e487b7160e01b81526012600452602481fd5b500490565b80825b6001808611610f255750610f50565b818704821115610f3757610f37611060565b80861615610f4457918102915b9490941c938002610f16565b94509492505050565b6000610b4860001960ff851684600082610f7557506001610b48565b81610f8257506000610b48565b8160018114610f985760028114610fa257610fcf565b6001915050610b48565b60ff841115610fb357610fb3611060565b6001841b915084821115610fc957610fc9611060565b50610b48565b5060208310610133831016604e8410600b8410161715611002575081810a83811115610ffd57610ffd611060565b610b48565b61100f8484846001610f13565b80860482111561102157611021611060565b02949350505050565b600081600019048311821515161561104457611044611060565b500290565b60008282101561105b5761105b611060565b500390565b634e487b7160e01b600052601160045260246000fdfea2646970667358221220bbafb76bbe967adc3f2322e7cbb0faa9a0e5eac3a2a4f6f3feb4261164a077ca64736f6c63430008000033","bytecodeSha1":"bea2b3ffba6dd1cc54f7cc72b6acc551e122baf5","compiler":{"evm_version":"istanbul","optimizer":{"enabled":true,"runs":200},"version":"0.8.0+commit.c7dfd78e"},"contractName":"LeveragedTrading","language":"Solidity","natspec":{"kind":"dev","methods":{"owner()":{"details":"Returns the address of the current owner."},"renounceOwnership()":{"details":"Leaves the contract without owner. It will not be possible to call `onlyOwner` functions anymore. Can only be called by the current owner. NOTE: Renouncing ownership will leave the contract without an owner, thereby removing any functionality that is only available to the owner."},"transferOwnership(address)":{"details":"Transfers ownership of the contract to a new account (`newOwner`). Can only be called by the current owner."}},"version":1},"opcodes":"PUSH1 0x80 PUSH1 0x40 MSTORE CALLVALUE DUP1 ISZERO PUSH2 0x10 JUMPI PUSH1 0x0 DUP1 REVERT JUMPDEST POP PUSH1 0x4 CALLDATASIZE LT PUSH2 0x141 JUMPI PUSH1 0x0 CALLDATALOAD PUSH1 0xE0 SHR DUP1 PUSH4 0xA14274E8 GT PUSH2 0xB8 JUMPI DUP1 PUSH4 0xDDE7BE2C GT PUSH2 0x7C JUMPI DUP1 PUSH4 0xDDE7BE2C EQ PUSH2 0x224 JUMPI DUP1 PUSH4 0xF0156E8A EQ PUSH2 0x22C JUMPI DUP1 PUSH4 0xF06847D6 EQ PUSH2 0x234 JUMPI DUP1 PUSH4 0xF2FDE38B EQ PUSH2 0x23C JUMPI DUP1 PUSH4 0xF4352C57 EQ PUSH2 0x24F JUMPI DUP1 PUSH4 0xF530C04A EQ PUSH2 0x257 JUMPI PUSH2 0x141 JUMP JUMPDEST DUP1 PUSH4 0xA14274E8 EQ PUSH2 0x1DB JUMPI DUP1 PUSH4 0xB75CBE0B EQ PUSH2 0x1EE JUMPI DUP1 PUSH4 0xC46D4F09 EQ PUSH2 0x1F6 JUMPI DUP1 PUSH4 0xC7E3B124 EQ PUSH2 0x209 JUMPI DUP1 PUSH4 0xD1EE539D EQ PUSH2 0x211 JUMPI PUSH2 0x141 JUMP JUMPDEST DUP1 PUSH4 0x3A3610BC GT PUSH2 0x10A JUMPI DUP1 PUSH4 0x3A3610BC EQ PUSH2 0x191 JUMPI DUP1 PUSH4 0x6E5D6615 EQ PUSH2 0x199 JUMPI DUP1 PUSH4 0x715018A6 EQ PUSH2 0x1A3 JUMPI DUP1 PUSH4 0x81C2B29B EQ PUSH2 0x1AB JUMPI DUP1 PUSH4 0x8DA5CB5B EQ PUSH2 0x1B3 JUMPI DUP1 PUSH4 0x9B3075A1 EQ PUSH2 0x1C8 JUMPI PUSH2 0x141 JUMP JUMPDEST DUP1 PUSH3 0x34B9CC EQ PUSH2 0x146 JUMPI DUP1 PUSH4 0xC3E5343 EQ PUSH2 0x164 JUMPI DUP1 PUSH4 0x14D7C6D2 EQ PUSH2 0x16C JUMPI DUP1 PUSH4 0x157D0129 EQ PUSH2 0x174 JUMPI DUP1 PUSH4 0x3074FFF7 EQ PUSH2 0x17C JUMPI JUMPDEST PUSH1 0x0 DUP1 REVERT JUMPDEST PUSH2 0x14E PUSH2 0x26A JUMP JUMPDEST PUSH1 0x40 MLOAD PUSH2 0x15B SWAP2 SWAP1 PUSH2 0xED2 JUMP JUMPDEST PUSH1 0x40 MLOAD DUP1 SWAP2 SUB SWAP1 RETURN JUMPDEST PUSH2 0x14E PUSH2 0x270 JUMP JUMPDEST PUSH2 0x14E PUSH2 0x276 JUMP JUMPDEST PUSH2 0x14E PUSH2 0x27C JUMP JUMPDEST PUSH2 0x184 PUSH2 0x302 JUMP JUMPDEST PUSH1 0x40 MLOAD PUSH2 0x15B SWAP2 SWAP1 PUSH2 0xDDE JUMP JUMPDEST PUSH2 0x14E PUSH2 0x30B JUMP JUMPDEST PUSH2 0x1A1 PUSH2 0x398 JUMP JUMPDEST STOP JUMPDEST PUSH2 0x1A1 PUSH2 0x428 JUMP JUMPDEST PUSH2 0x14E PUSH2 0x47C JUMP JUMPDEST PUSH2 0x1BB PUSH2 0x4B8 JUMP JUMPDEST PUSH1 0x40 MLOAD PUSH2 0x15B SWAP2 SWAP1 PUSH2 0xD8D JUMP JUMPDEST PUSH2 0x1A1 PUSH2 0x1D6 CALLDATASIZE PUSH1 0x4 PUSH2 0xD0E JUMP JUMPDEST PUSH2 0x4C7 JUMP JUMPDEST PUSH2 0x1A1 PUSH2 0x1E9 CALLDATASIZE PUSH1 0x4 PUSH2 0xD0E JUMP JUMPDEST PUSH2 0x577 JUMP JUMPDEST PUSH2 0x14E PUSH2 0x6D1 JUMP JUMPDEST PUSH2 0x1A1 PUSH2 0x204 CALLDATASIZE PUSH1 0x4 PUSH2 0xD0E JUMP JUMPDEST PUSH2 0x6D7 JUMP JUMPDEST PUSH2 0x14E PUSH2 0x82C JUMP JUMPDEST PUSH2 0x1A1 PUSH2 0x21F CALLDATASIZE PUSH1 0x4 PUSH2 0xD0E JUMP JUMPDEST PUSH2 0x85D JUMP JUMPDEST PUSH2 0x14E PUSH2 0x946 JUMP JUMPDEST PUSH2 0x14E PUSH2 0x94C JUMP JUMPDEST PUSH2 0x14E PUSH2 0x952 JUMP JUMPDEST PUSH2 0x1A1 PUSH2 0x24A CALLDATASIZE PUSH1 0x4 PUSH2 0xCC7 JUMP JUMPDEST PUSH2 0x983 JUMP JUMPDEST PUSH2 0x14E PUSH2 0x9F4 JUMP JUMPDEST PUSH2 0x1A1 PUSH2 0x265 CALLDATASIZE PUSH1 0x4 PUSH2 0xD0E JUMP JUMPDEST PUSH2 0x9FA JUMP JUMPDEST PUSH1 0x5 SLOAD DUP2 JUMP JUMPDEST PUSH1 0x2 SLOAD DUP2 JUMP JUMPDEST PUSH1 0x4 SLOAD DUP2 JUMP JUMPDEST PUSH1 0xA SLOAD PUSH1 0x40 MLOAD PUSH4 0x70A08231 PUSH1 0xE0 SHL DUP2 MSTORE PUSH1 0x0 SWAP2 PUSH1 0x1 PUSH1 0x1 PUSH1 0xA0 SHL SUB AND SWAP1 PUSH4 0x70A08231 SWAP1 PUSH2 0x2AD SWAP1 CALLER SWAP1 PUSH1 0x4 ADD PUSH2 0xD8D JUMP JUMPDEST PUSH1 0x20 PUSH1 0x40 MLOAD DUP1 DUP4 SUB DUP2 DUP7 DUP1 EXTCODESIZE ISZERO DUP1 ISZERO PUSH2 0x2C5 JUMPI PUSH1 0x0 DUP1 REVERT JUMPDEST POP GAS STATICCALL ISZERO DUP1 ISZERO PUSH2 0x2D9 JUMPI RETURNDATASIZE PUSH1 0x0 DUP1 RETURNDATACOPY RETURNDATASIZE PUSH1 0x0 REVERT JUMPDEST POP POP POP POP PUSH1 0x40 MLOAD RETURNDATASIZE PUSH1 0x1F NOT PUSH1 0x1F DUP3 ADD AND DUP3 ADD DUP1 PUSH1 0x40 MSTORE POP DUP2 ADD SWAP1 PUSH2 0x2FD SWAP2 SWAP1 PUSH2 0xD26 JUMP JUMPDEST SWAP1 POP SWAP1 JUMP JUMPDEST PUSH1 0x8 SLOAD PUSH1 0xFF AND DUP2 JUMP JUMPDEST PUSH1 0x9 SLOAD PUSH1 0x40 DUP1 MLOAD PUSH4 0x3FABE5A3 PUSH1 0xE2 SHL DUP2 MSTORE SWAP1 MLOAD PUSH1 0x0 SWAP3 PUSH1 0x1 PUSH1 0x1 PUSH1 0xA0 SHL SUB AND SWAP2 DUP4 SWAP2 DUP4 SWAP2 PUSH4 0xFEAF968C SWAP2 PUSH1 0x4 DUP1 DUP4 ADD SWAP3 PUSH1 0xA0 SWAP3 SWAP2 SWAP1 DUP3 SWAP1 SUB ADD DUP2 DUP7 DUP1 EXTCODESIZE ISZERO DUP1 ISZERO PUSH2 0x354 JUMPI PUSH1 0x0 DUP1 REVERT JUMPDEST POP GAS STATICCALL ISZERO DUP1 ISZERO PUSH2 0x368 JUMPI RETURNDATASIZE PUSH1 0x0 DUP1 RETURNDATACOPY RETURNDATASIZE PUSH1 0x0 REVERT JUMPDEST POP POP POP POP PUSH1 0x40 MLOAD RETURNDATASIZE PUSH1 0x1F NOT PUSH1 0x1F DUP3 ADD AND DUP3 ADD DUP1 PUSH1 0x40 MSTORE POP DUP2 ADD SWAP1 PUSH2 0x38C SWAP2 SWAP1 PUSH2 0xD3E JUMP JUMPDEST POP SWAP2 SWAP6 POP POP POP POP POP POP SWAP1 JUMP JUMPDEST PUSH1 0x0 PUSH2 0x3A2 PUSH2 0x30B JUMP JUMPDEST SWAP1 POP PUSH1 0x0 PUSH1 0x3 SLOAD GT DUP1 ISZERO PUSH2 0x3B8 JUMPI POP PUSH1 0x0 PUSH1 0x4 SLOAD GT JUMPDEST ISZERO PUSH2 0x423 JUMPI PUSH1 0x0 PUSH2 0x3C8 DUP3 PUSH2 0xAE1 JUMP JUMPDEST SWAP1 POP PUSH1 0x0 PUSH2 0x3D5 DUP4 PUSH2 0xB1F JUMP JUMPDEST SGT ISZERO PUSH2 0x400 JUMPI PUSH1 0x3 SLOAD PUSH2 0x3E8 SWAP1 DUP3 PUSH2 0xB3C JUMP JUMPDEST PUSH1 0x3 SSTORE PUSH1 0x4 SLOAD PUSH2 0x3F8 SWAP1 DUP3 PUSH2 0xB4F JUMP JUMPDEST PUSH1 0x4 SSTORE PUSH2 0x421 JUMP JUMPDEST PUSH1 0x3 SLOAD PUSH2 0x40D SWAP1 DUP3 PUSH2 0xB4F JUMP JUMPDEST PUSH1 0x3 SSTORE PUSH1 0x4 SLOAD PUSH2 0x41D SWAP1 DUP3 PUSH2 0xB3C JUMP JUMPDEST PUSH1 0x4 SSTORE JUMPDEST POP JUMPDEST PUSH1 0x7 SSTORE JUMP JUMPDEST PUSH2 0x430 PUSH2 0xB5B JUMP JUMPDEST PUSH1 0x1 PUSH1 0x1 PUSH1 0xA0 SHL SUB AND PUSH2 0x441 PUSH2 0x4B8 JUMP JUMPDEST PUSH1 0x1 PUSH1 0x1 PUSH1 0xA0 SHL SUB AND EQ PUSH2 0x470 JUMPI PUSH1 0x40 MLOAD PUSH3 0x461BCD PUSH1 0xE5 SHL DUP2 MSTORE PUSH1 0x4 ADD PUSH2 0x467 SWAP1 PUSH2 0xE66 JUMP JUMPDEST PUSH1 0x40 MLOAD DUP1 SWAP2 SUB SWAP1 REVERT JUMPDEST PUSH2 0x47A PUSH1 0x0 PUSH2 0xB5F JUMP JUMPDEST JUMP JUMPDEST PUSH1 0x0 PUSH1 0x6 SLOAD PUSH1 0x0 EQ PUSH2 0x4B1 JUMPI PUSH2 0x4AC PUSH1 0x6 SLOAD PUSH2 0x4A6 PUSH3 0xF4240 PUSH1 0x4 SLOAD PUSH2 0xBAF SWAP1 SWAP2 SWAP1 PUSH4 0xFFFFFFFF AND JUMP JUMPDEST SWAP1 PUSH2 0xBBB JUMP JUMPDEST PUSH2 0x2FD JUMP JUMPDEST POP PUSH1 0x2 SLOAD SWAP1 JUMP JUMPDEST PUSH1 0x0 SLOAD PUSH1 0x1 PUSH1 0x1 PUSH1 0xA0 SHL SUB AND SWAP1 JUMP JUMPDEST PUSH2 0x4CF PUSH2 0xB5B JUMP JUMPDEST PUSH1 0x1 PUSH1 0x1 PUSH1 0xA0 SHL SUB AND PUSH2 0x4E0 PUSH2 0x4B8 JUMP JUMPDEST PUSH1 0x1 PUSH1 0x1 PUSH1 0xA0 SHL SUB AND EQ PUSH2 0x506 JUMPI PUSH1 0x40 MLOAD PUSH3 0x461BCD PUSH1 0xE5 SHL DUP2 MSTORE PUSH1 0x4 ADD PUSH2 0x467 SWAP1 PUSH2 0xE66 JUMP JUMPDEST PUSH1 0x8 SLOAD PUSH1 0xFF AND ISZERO PUSH2 0x529 JUMPI PUSH1 0x40 MLOAD PUSH3 0x461BCD PUSH1 0xE5 SHL DUP2 MSTORE PUSH1 0x4 ADD PUSH2 0x467 SWAP1 PUSH2 0xE2F JUMP JUMPDEST PUSH1 0xA DUP1 SLOAD ADDRESS PUSH1 0x1 PUSH1 0x1 PUSH1 0xA0 SHL SUB NOT SWAP2 DUP3 AND DUP2 OR SWAP1 SWAP3 SSTORE PUSH1 0xB DUP1 SLOAD SWAP1 SWAP2 AND SWAP1 SWAP2 OR SWAP1 SSTORE PUSH2 0x559 PUSH2 0x265 DUP3 PUSH1 0x2 PUSH2 0xBBB JUMP JUMPDEST PUSH2 0x567 PUSH2 0x204 DUP3 PUSH1 0x2 PUSH2 0xBBB JUMP JUMPDEST POP PUSH1 0x8 DUP1 SLOAD PUSH1 0xFF NOT AND PUSH1 0x1 OR SWAP1 SSTORE JUMP JUMPDEST PUSH2 0x57F PUSH2 0x398 JUMP JUMPDEST PUSH1 0xB SLOAD PUSH1 0x40 MLOAD PUSH4 0x852CD8D PUSH1 0xE3 SHL DUP2 MSTORE PUSH1 0x1 PUSH1 0x1 PUSH1 0xA0 SHL SUB SWAP1 SWAP2 AND SWAP1 PUSH4 0x42966C68 SWAP1 PUSH2 0x5AF SWAP1 DUP5 SWAP1 PUSH1 0x4 ADD PUSH2 0xED2 JUMP JUMPDEST PUSH1 0x0 PUSH1 0x40 MLOAD DUP1 DUP4 SUB DUP2 PUSH1 0x0 DUP8 DUP1 EXTCODESIZE ISZERO DUP1 ISZERO PUSH2 0x5C9 JUMPI PUSH1 0x0 DUP1 REVERT JUMPDEST POP GAS CALL ISZERO DUP1 ISZERO PUSH2 0x5DD JUMPI RETURNDATASIZE PUSH1 0x0 DUP1 RETURNDATACOPY RETURNDATASIZE PUSH1 0x0 REVERT JUMPDEST POP POP POP POP PUSH2 0x5E9 PUSH2 0x47C JUMP JUMPDEST PUSH1 0x2 DUP2 SWAP1 SSTORE PUSH1 0x0 SWAP1 PUSH2 0x605 SWAP1 PUSH3 0xF4240 SWAP1 PUSH2 0x4A6 SWAP1 DUP6 SWAP1 PUSH2 0xBAF JUMP JUMPDEST PUSH1 0x6 SLOAD SWAP1 SWAP2 POP PUSH2 0x615 SWAP1 DUP4 PUSH2 0xB4F JUMP JUMPDEST PUSH1 0x6 SSTORE PUSH1 0x4 SLOAD PUSH2 0x625 SWAP1 DUP3 PUSH2 0xB4F JUMP JUMPDEST PUSH1 0x4 SWAP1 DUP2 SSTORE PUSH1 0x8 SLOAD PUSH1 0x40 MLOAD PUSH4 0xA9059CBB PUSH1 0xE0 SHL DUP2 MSTORE PUSH2 0x100 SWAP1 SWAP2 DIV PUSH1 0x1 PUSH1 0x1 PUSH1 0xA0 SHL SUB AND SWAP2 DUP3 SWAP2 PUSH4 0xA9059CBB SWAP2 PUSH2 0x660 SWAP2 CALLER SWAP2 DUP8 SWAP2 ADD PUSH2 0xDC5 JUMP JUMPDEST PUSH1 0x20 PUSH1 0x40 MLOAD DUP1 DUP4 SUB DUP2 PUSH1 0x0 DUP8 DUP1 EXTCODESIZE ISZERO DUP1 ISZERO PUSH2 0x67A JUMPI PUSH1 0x0 DUP1 REVERT JUMPDEST POP GAS CALL ISZERO DUP1 ISZERO PUSH2 0x68E JUMPI RETURNDATASIZE PUSH1 0x0 DUP1 RETURNDATACOPY RETURNDATASIZE PUSH1 0x0 REVERT JUMPDEST POP POP POP POP PUSH1 0x40 MLOAD RETURNDATASIZE PUSH1 0x1F NOT PUSH1 0x1F DUP3 ADD AND DUP3 ADD DUP1 PUSH1 0x40 MSTORE POP DUP2 ADD SWAP1 PUSH2 0x6B2 SWAP2 SWAP1 PUSH2 0xCEE JUMP JUMPDEST PUSH2 0x6CC JUMPI PUSH4 0x4E487B71 PUSH1 0xE0 SHL PUSH1 0x0 MSTORE PUSH1 0x1 PUSH1 0x4 MSTORE PUSH1 0x24 PUSH1 0x0 REVERT JUMPDEST POP POP POP JUMP JUMPDEST PUSH1 0x6 SLOAD DUP2 JUMP JUMPDEST PUSH2 0x6DF PUSH2 0x398 JUMP JUMPDEST PUSH2 0x6E7 PUSH2 0x47C JUMP JUMPDEST PUSH1 0x2 DUP2 SWAP1 SSTORE PUSH1 0x0 SWAP1 PUSH2 0x700 SWAP1 PUSH2 0x4A6 DUP5 PUSH3 0xF4240 PUSH2 0xBAF JUMP JUMPDEST PUSH1 0xB SLOAD PUSH1 0x40 MLOAD PUSH4 0x140E25AD PUSH1 0xE3 SHL DUP2 MSTORE SWAP2 SWAP3 POP PUSH1 0x1 PUSH1 0x1 PUSH1 0xA0 SHL SUB AND SWAP1 PUSH4 0xA0712D68 SWAP1 PUSH2 0x731 SWAP1 DUP5 SWAP1 PUSH1 0x4 ADD PUSH2 0xED2 JUMP JUMPDEST PUSH1 0x0 PUSH1 0x40 MLOAD DUP1 DUP4 SUB DUP2 PUSH1 0x0 DUP8 DUP1 EXTCODESIZE ISZERO DUP1 ISZERO PUSH2 0x74B JUMPI PUSH1 0x0 DUP1 REVERT JUMPDEST POP GAS CALL ISZERO DUP1 ISZERO PUSH2 0x75F JUMPI RETURNDATASIZE PUSH1 0x0 DUP1 RETURNDATACOPY RETURNDATASIZE PUSH1 0x0 REVERT JUMPDEST POP POP PUSH1 0x6 SLOAD PUSH2 0x771 SWAP3 POP SWAP1 POP DUP3 PUSH2 0xB3C JUMP JUMPDEST PUSH1 0x6 SSTORE PUSH1 0x4 SLOAD PUSH2 0x781 SWAP1 DUP4 PUSH2 0xB3C JUMP JUMPDEST PUSH1 0x4 SWAP1 DUP2 SSTORE PUSH1 0x8 SLOAD PUSH1 0x40 MLOAD PUSH4 0x23B872DD PUSH1 0xE0 SHL DUP2 MSTORE PUSH2 0x100 SWAP1 SWAP2 DIV PUSH1 0x1 PUSH1 0x1 PUSH1 0xA0 SHL SUB AND SWAP2 DUP3 SWAP2 PUSH4 0x23B872DD SWAP2 PUSH2 0x7BE SWAP2 CALLER SWAP2 ADDRESS SWAP2 DUP10 SWAP2 ADD PUSH2 0xDA1 JUMP JUMPDEST PUSH1 0x20 PUSH1 0x40 MLOAD DUP1 DUP4 SUB DUP2 PUSH1 0x0 DUP8 DUP1 EXTCODESIZE ISZERO DUP1 ISZERO PUSH2 0x7D8 JUMPI PUSH1 0x0 DUP1 REVERT JUMPDEST POP GAS CALL ISZERO DUP1 ISZERO PUSH2 0x7EC JUMPI RETURNDATASIZE PUSH1 0x0 DUP1 RETURNDATACOPY RETURNDATASIZE PUSH1 0x0 REVERT JUMPDEST POP POP POP POP PUSH1 0x40 MLOAD RETURNDATASIZE PUSH1 0x1F NOT PUSH1 0x1F DUP3 ADD AND DUP3 ADD DUP1 PUSH1 0x40 MSTORE POP DUP2 ADD SWAP1 PUSH2 0x810 SWAP2 SWAP1 PUSH2 0xCEE JUMP JUMPDEST PUSH2 0x6CC JUMPI PUSH1 0x40 MLOAD PUSH3 0x461BCD PUSH1 0xE5 SHL DUP2 MSTORE PUSH1 0x4 ADD PUSH2 0x467 SWAP1 PUSH2 0xE9B JUMP JUMPDEST PUSH1 0xB SLOAD PUSH1 0x40 MLOAD PUSH4 0x70A08231 PUSH1 0xE0 SHL DUP2 MSTORE PUSH1 0x0 SWAP2 PUSH1 0x1 PUSH1 0x1 PUSH1 0xA0 SHL SUB AND SWAP1 PUSH4 0x70A08231 SWAP1 PUSH2 0x2AD SWAP1 CALLER SWAP1 PUSH1 0x4 ADD PUSH2 0xD8D JUMP JUMPDEST PUSH2 0x865 PUSH2 0x398 JUMP JUMPDEST PUSH1 0xA SLOAD PUSH1 0x40 MLOAD PUSH4 0x852CD8D PUSH1 0xE3 SHL DUP2 MSTORE PUSH1 0x1 PUSH1 0x1 PUSH1 0xA0 SHL SUB SWAP1 SWAP2 AND SWAP1 PUSH4 0x42966C68 SWAP1 PUSH2 0x895 SWAP1 DUP5 SWAP1 PUSH1 0x4 ADD PUSH2 0xED2 JUMP JUMPDEST PUSH1 0x0 PUSH1 0x40 MLOAD DUP1 DUP4 SUB DUP2 PUSH1 0x0 DUP8 DUP1 EXTCODESIZE ISZERO DUP1 ISZERO PUSH2 0x8AF JUMPI PUSH1 0x0 DUP1 REVERT JUMPDEST POP GAS CALL ISZERO DUP1 ISZERO PUSH2 0x8C3 JUMPI RETURNDATASIZE PUSH1 0x0 DUP1 RETURNDATACOPY RETURNDATASIZE PUSH1 0x0 REVERT JUMPDEST POP POP POP POP PUSH2 0x8CF PUSH2 0x952 JUMP JUMPDEST PUSH1 0x1 DUP2 SWAP1 SSTORE PUSH1 0x0 SWAP1 PUSH2 0x8EB SWAP1 PUSH3 0xF4240 SWAP1 PUSH2 0x4A6 SWAP1 DUP6 SWAP1 PUSH2 0xBAF JUMP JUMPDEST PUSH1 0x5 SLOAD SWAP1 SWAP2 POP PUSH2 0x8FB SWAP1 DUP4 PUSH2 0xB4F JUMP JUMPDEST PUSH1 0x5 SSTORE PUSH1 0x3 SLOAD PUSH2 0x90B SWAP1 DUP3 PUSH2 0xB4F JUMP JUMPDEST PUSH1 0x3 SSTORE PUSH1 0x8 SLOAD PUSH1 0x40 MLOAD PUSH4 0xA9059CBB PUSH1 0xE0 SHL DUP2 MSTORE PUSH2 0x100 SWAP1 SWAP2 DIV PUSH1 0x1 PUSH1 0x1 PUSH1 0xA0 SHL SUB AND SWAP1 DUP2 SWAP1 PUSH4 0xA9059CBB SWAP1 PUSH2 0x660 SWAP1 CALLER SWAP1 DUP7 SWAP1 PUSH1 0x4 ADD PUSH2 0xDC5 JUMP JUMPDEST PUSH1 0x3 SLOAD DUP2 JUMP JUMPDEST PUSH1 0x1 SLOAD DUP2 JUMP JUMPDEST PUSH1 0x0 PUSH1 0x5 SLOAD PUSH1 0x0 EQ PUSH2 0x97C JUMPI PUSH2 0x4AC PUSH1 0x5 SLOAD PUSH2 0x4A6 PUSH3 0xF4240 PUSH1 0x3 SLOAD PUSH2 0xBAF SWAP1 SWAP2 SWAP1 PUSH4 0xFFFFFFFF AND JUMP JUMPDEST POP PUSH1 0x1 SLOAD SWAP1 JUMP JUMPDEST PUSH2 0x98B PUSH2 0xB5B JUMP JUMPDEST PUSH1 0x1 PUSH1 0x1 PUSH1 0xA0 SHL SUB AND PUSH2 0x99C PUSH2 0x4B8 JUMP JUMPDEST PUSH1 0x1 PUSH1 0x1 PUSH1 0xA0 SHL SUB AND EQ PUSH2 0x9C2 JUMPI PUSH1 0x40 MLOAD PUSH3 0x461BCD PUSH1 0xE5 SHL DUP2 MSTORE PUSH1 0x4 ADD PUSH2 0x467 SWAP1 PUSH2 0xE66 JUMP JUMPDEST PUSH1 0x1 PUSH1 0x1 PUSH1 0xA0 SHL SUB DUP2 AND PUSH2 0x9E8 JUMPI PUSH1 0x40 MLOAD PUSH3 0x461BCD PUSH1 0xE5 SHL DUP2 MSTORE PUSH1 0x4 ADD PUSH2 0x467 SWAP1 PUSH2 0xDE9 JUMP JUMPDEST PUSH2 0x9F1 DUP2 PUSH2 0xB5F JUMP JUMPDEST POP JUMP JUMPDEST PUSH1 0x7 SLOAD DUP2 JUMP JUMPDEST PUSH2 0xA02 PUSH2 0x398 JUMP JUMPDEST PUSH2 0xA0A PUSH2 0x952 JUMP JUMPDEST PUSH1 0x1 DUP2 SWAP1 SSTORE PUSH1 0x0 SWAP1 PUSH2 0xA23 SWAP1 PUSH2 0x4A6 DUP5 PUSH3 0xF4240 PUSH2 0xBAF JUMP JUMPDEST PUSH1 0xA SLOAD PUSH1 0x40 MLOAD PUSH4 0x140E25AD PUSH1 0xE3 SHL DUP2 MSTORE SWAP2 SWAP3 POP PUSH1 0x1 PUSH1 0x1 PUSH1 0xA0 SHL SUB AND SWAP1 PUSH4 0xA0712D68 SWAP1 PUSH2 0xA54 SWAP1 DUP5 SWAP1 PUSH1 0x4 ADD PUSH2 0xED2 JUMP JUMPDEST PUSH1 0x0 PUSH1 0x40 MLOAD DUP1 DUP4 SUB DUP2 PUSH1 0x0 DUP8 DUP1 EXTCODESIZE ISZERO DUP1 ISZERO PUSH2 0xA6E JUMPI PUSH1 0x0 DUP1 REVERT JUMPDEST POP GAS CALL ISZERO DUP1 ISZERO PUSH2 0xA82 JUMPI RETURNDATASIZE PUSH1 0x0 DUP1 RETURNDATACOPY RETURNDATASIZE PUSH1 0x0 REVERT JUMPDEST POP POP PUSH1 0x5 SLOAD PUSH2 0xA94 SWAP3 POP SWAP1 POP DUP3 PUSH2 0xB3C JUMP JUMPDEST PUSH1 0x5 SSTORE PUSH1 0x3 SLOAD PUSH2 0xAA4 SWAP1 DUP4 PUSH2 0xB3C JUMP JUMPDEST PUSH1 0x3 SSTORE PUSH1 0x8 SLOAD PUSH1 0x40 MLOAD PUSH4 0x23B872DD PUSH1 0xE0 SHL DUP2 MSTORE PUSH2 0x100 SWAP1 SWAP2 DIV PUSH1 0x1 PUSH1 0x1 PUSH1 0xA0 SHL SUB AND SWAP1 DUP2 SWAP1 PUSH4 0x23B872DD SWAP1 PUSH2 0x7BE SWAP1 CALLER SWAP1 ADDRESS SWAP1 DUP9 SWAP1 PUSH1 0x4 ADD PUSH2 0xDA1 JUMP JUMPDEST PUSH1 0x0 DUP1 PUSH2 0xAED DUP4 PUSH2 0xBC7 JUMP JUMPDEST SWAP1 POP PUSH2 0xB16 PUSH3 0xF4240 PUSH2 0x4A6 PUSH2 0xB02 DUP5 PUSH2 0xC26 JUMP JUMPDEST PUSH2 0xB10 PUSH1 0x3 SLOAD PUSH1 0x4 SLOAD PUSH2 0xC96 JUMP JUMPDEST SWAP1 PUSH2 0xBAF JUMP JUMPDEST SWAP2 POP POP JUMPDEST SWAP2 SWAP1 POP JUMP JUMPDEST PUSH1 0x0 PUSH1 0x7 SLOAD DUP3 GT ISZERO PUSH2 0xB33 JUMPI POP PUSH1 0x1 PUSH2 0xB1A JUMP JUMPDEST POP PUSH1 0x0 NOT PUSH2 0xB1A JUMP JUMPDEST PUSH1 0x0 PUSH2 0xB48 DUP3 DUP5 PUSH2 0xEDB JUMP JUMPDEST SWAP4 SWAP3 POP POP POP JUMP JUMPDEST PUSH1 0x0 PUSH2 0xB48 DUP3 DUP5 PUSH2 0x1049 JUMP JUMPDEST CALLER SWAP1 JUMP JUMPDEST PUSH1 0x0 DUP1 SLOAD PUSH1 0x1 PUSH1 0x1 PUSH1 0xA0 SHL SUB DUP4 DUP2 AND PUSH1 0x1 PUSH1 0x1 PUSH1 0xA0 SHL SUB NOT DUP4 AND DUP2 OR DUP5 SSTORE PUSH1 0x40 MLOAD SWAP2 SWAP1 SWAP3 AND SWAP3 DUP4 SWAP2 PUSH32 0x8BE0079C531659141344CD1FD0A4F28419497F9722A3DAAFE3B4186F6B6457E0 SWAP2 SWAP1 LOG3 POP POP JUMP JUMPDEST PUSH1 0x0 PUSH2 0xB48 DUP3 DUP5 PUSH2 0x102A JUMP JUMPDEST PUSH1 0x0 PUSH2 0xB48 DUP3 DUP5 PUSH2 0xEF3 JUMP JUMPDEST PUSH1 0x0 PUSH1 0x7 SLOAD DUP3 GT ISZERO PUSH2 0xC03 JUMPI PUSH2 0xBFC PUSH3 0xF4240 PUSH2 0xBF6 PUSH1 0x7 SLOAD PUSH2 0x4A6 PUSH3 0xF4240 DUP8 PUSH2 0xBAF SWAP1 SWAP2 SWAP1 PUSH4 0xFFFFFFFF AND JUMP JUMPDEST SWAP1 PUSH2 0xB4F JUMP JUMPDEST SWAP1 POP PUSH2 0xB1A JUMP JUMPDEST PUSH2 0xBFC PUSH3 0xF4240 PUSH2 0xBF6 DUP5 PUSH2 0x4A6 PUSH3 0xF4240 PUSH1 0x7 SLOAD PUSH2 0xBAF SWAP1 SWAP2 SWAP1 PUSH4 0xFFFFFFFF AND JUMP JUMPDEST PUSH1 0x0 DUP1 PUSH2 0xC34 DUP4 PUSH1 0x3 PUSH2 0x102A JUMP JUMPDEST PUSH3 0xF4240 PUSH2 0xC43 PUSH1 0x2 DUP7 PUSH2 0xF59 JUMP JUMPDEST PUSH2 0xC4D SWAP2 SWAP1 PUSH2 0xEF3 JUMP JUMPDEST PUSH2 0xC58 SWAP1 PUSH1 0x9 PUSH2 0x102A JUMP JUMPDEST PUSH2 0xC62 SWAP2 SWAP1 PUSH2 0xEDB JUMP JUMPDEST PUSH2 0xC6F SWAP1 PUSH3 0xF4240 PUSH2 0xEDB JUMP JUMPDEST SWAP1 POP PUSH5 0xE8D4A51000 PUSH2 0xC81 DUP3 DUP3 PUSH2 0xEF3 JUMP JUMPDEST PUSH2 0xC8E SWAP1 PUSH3 0xF4240 PUSH2 0x1049 JUMP JUMPDEST SWAP5 SWAP4 POP POP POP POP JUMP JUMPDEST PUSH1 0x0 DUP2 DUP4 GT ISZERO PUSH2 0xCA6 JUMPI DUP2 PUSH2 0xB48 JUMP JUMPDEST POP SWAP1 SWAP2 SWAP1 POP JUMP JUMPDEST DUP1 MLOAD PUSH10 0xFFFFFFFFFFFFFFFFFFFF DUP2 AND DUP2 EQ PUSH2 0xB1A JUMPI PUSH1 0x0 DUP1 REVERT JUMPDEST PUSH1 0x0 PUSH1 0x20 DUP3 DUP5 SUB SLT ISZERO PUSH2 0xCD8 JUMPI DUP1 DUP2 REVERT JUMPDEST DUP2 CALLDATALOAD PUSH1 0x1 PUSH1 0x1 PUSH1 0xA0 SHL SUB DUP2 AND DUP2 EQ PUSH2 0xB48 JUMPI DUP2 DUP3 REVERT JUMPDEST PUSH1 0x0 PUSH1 0x20 DUP3 DUP5 SUB SLT ISZERO PUSH2 0xCFF JUMPI DUP1 DUP2 REVERT JUMPDEST DUP2 MLOAD DUP1 ISZERO ISZERO DUP2 EQ PUSH2 0xB48 JUMPI DUP2 DUP3 REVERT JUMPDEST PUSH1 0x0 PUSH1 0x20 DUP3 DUP5 SUB SLT ISZERO PUSH2 0xD1F JUMPI DUP1 DUP2 REVERT JUMPDEST POP CALLDATALOAD SWAP2 SWAP1 POP JUMP JUMPDEST PUSH1 0x0 PUSH1 0x20 DUP3 DUP5 SUB SLT ISZERO PUSH2 0xD37 JUMPI DUP1 DUP2 REVERT JUMPDEST POP MLOAD SWAP2 SWAP1 POP JUMP JUMPDEST PUSH1 0x0 DUP1 PUSH1 0x0 DUP1 PUSH1 0x0 PUSH1 0xA0 DUP7 DUP9 SUB SLT ISZERO PUSH2 0xD55 JUMPI DUP1 DUP2 REVERT JUMPDEST PUSH2 0xD5E DUP7 PUSH2 0xCAD JUMP JUMPDEST SWAP5 POP PUSH1 0x20 DUP7 ADD MLOAD SWAP4 POP PUSH1 0x40 DUP7 ADD MLOAD SWAP3 POP PUSH1 0x60 DUP7 ADD MLOAD SWAP2 POP PUSH2 0xD81 PUSH1 0x80 DUP8 ADD PUSH2 0xCAD JUMP JUMPDEST SWAP1 POP SWAP3 SWAP6 POP SWAP3 SWAP6 SWAP1 SWAP4 POP JUMP JUMPDEST PUSH1 0x1 PUSH1 0x1 PUSH1 0xA0 SHL SUB SWAP2 SWAP1 SWAP2 AND DUP2 MSTORE PUSH1 0x20 ADD SWAP1 JUMP JUMPDEST PUSH1 0x1 PUSH1 0x1 PUSH1 0xA0 SHL SUB SWAP4 DUP5 AND DUP2 MSTORE SWAP2 SWAP1 SWAP3 AND PUSH1 0x20 DUP3 ADD MSTORE PUSH1 0x40 DUP2 ADD SWAP2 SWAP1 SWAP2 MSTORE PUSH1 0x60 ADD SWAP1 JUMP JUMPDEST PUSH1 0x1 PUSH1 0x1 PUSH1 0xA0 SHL SUB SWAP3 SWAP1 SWAP3 AND DUP3 MSTORE PUSH1 0x20 DUP3 ADD MSTORE PUSH1 0x40 ADD SWAP1 JUMP JUMPDEST SWAP1 ISZERO ISZERO DUP2 MSTORE PUSH1 0x20 ADD SWAP1 JUMP JUMPDEST PUSH1 0x20 DUP1 DUP3 MSTORE PUSH1 0x26 SWAP1 DUP3 ADD MSTORE PUSH32 0x4F776E61626C653A206E6577206F776E657220697320746865207A65726F2061 PUSH1 0x40 DUP3 ADD MSTORE PUSH6 0x646472657373 PUSH1 0xD0 SHL PUSH1 0x60 DUP3 ADD MSTORE PUSH1 0x80 ADD SWAP1 JUMP JUMPDEST PUSH1 0x20 DUP1 DUP3 MSTORE PUSH1 0x1F SWAP1 DUP3 ADD MSTORE PUSH32 0x54686520706F6F6C2077617320616C726561647920696E697469617465642E00 PUSH1 0x40 DUP3 ADD MSTORE PUSH1 0x60 ADD SWAP1 JUMP JUMPDEST PUSH1 0x20 DUP1 DUP3 MSTORE DUP2 DUP2 ADD MSTORE PUSH32 0x4F776E61626C653A2063616C6C6572206973206E6F7420746865206F776E6572 PUSH1 0x40 DUP3 ADD MSTORE PUSH1 0x60 ADD SWAP1 JUMP JUMPDEST PUSH1 0x20 DUP1 DUP3 MSTORE PUSH1 0x1B SWAP1 DUP3 ADD MSTORE PUSH32 0x596F7520646F6E2774206861766520656E6F75676820555344432E0000000000 PUSH1 0x40 DUP3 ADD MSTORE PUSH1 0x60 ADD SWAP1 JUMP JUMPDEST SWAP1 DUP2 MSTORE PUSH1 0x20 ADD SWAP1 JUMP JUMPDEST PUSH1 0x0 DUP3 NOT DUP3 GT ISZERO PUSH2 0xEEE JUMPI PUSH2 0xEEE PUSH2 0x1060 JUMP JUMPDEST POP ADD SWAP1 JUMP JUMPDEST PUSH1 0x0 DUP3 PUSH2 0xF0E JUMPI PUSH4 0x4E487B71 PUSH1 0xE0 SHL DUP2 MSTORE PUSH1 0x12 PUSH1 0x4 MSTORE PUSH1 0x24 DUP2 REVERT JUMPDEST POP DIV SWAP1 JUMP JUMPDEST DUP1 DUP3 JUMPDEST PUSH1 0x1 DUP1 DUP7 GT PUSH2 0xF25 JUMPI POP PUSH2 0xF50 JUMP JUMPDEST DUP2 DUP8 DIV DUP3 GT ISZERO PUSH2 0xF37 JUMPI PUSH2 0xF37 PUSH2 0x1060 JUMP JUMPDEST DUP1 DUP7 AND ISZERO PUSH2 0xF44 JUMPI SWAP2 DUP2 MUL SWAP2 JUMPDEST SWAP5 SWAP1 SWAP5 SHR SWAP4 DUP1 MUL PUSH2 0xF16 JUMP JUMPDEST SWAP5 POP SWAP5 SWAP3 POP POP POP JUMP JUMPDEST PUSH1 0x0 PUSH2 0xB48 PUSH1 0x0 NOT PUSH1 0xFF DUP6 AND DUP5 PUSH1 0x0 DUP3 PUSH2 0xF75 JUMPI POP PUSH1 0x1 PUSH2 0xB48 JUMP JUMPDEST DUP2 PUSH2 0xF82 JUMPI POP PUSH1 0x0 PUSH2 0xB48 JUMP JUMPDEST DUP2 PUSH1 0x1 DUP2 EQ PUSH2 0xF98 JUMPI PUSH1 0x2 DUP2 EQ PUSH2 0xFA2 JUMPI PUSH2 0xFCF JUMP JUMPDEST PUSH1 0x1 SWAP2 POP POP PUSH2 0xB48 JUMP JUMPDEST PUSH1 0xFF DUP5 GT ISZERO PUSH2 0xFB3 JUMPI PUSH2 0xFB3 PUSH2 0x1060 JUMP JUMPDEST PUSH1 0x1 DUP5 SHL SWAP2 POP DUP5 DUP3 GT ISZERO PUSH2 0xFC9 JUMPI PUSH2 0xFC9 PUSH2 0x1060 JUMP JUMPDEST POP PUSH2 0xB48 JUMP JUMPDEST POP PUSH1 0x20 DUP4 LT PUSH2 0x133 DUP4 LT AND PUSH1 0x4E DUP5 LT PUSH1 0xB DUP5 LT AND OR ISZERO PUSH2 0x1002 JUMPI POP DUP2 DUP2 EXP DUP4 DUP2 GT ISZERO PUSH2 0xFFD JUMPI PUSH2 0xFFD PUSH2 0x1060 JUMP JUMPDEST PUSH2 0xB48 JUMP JUMPDEST PUSH2 0x100F DUP5 DUP5 DUP5 PUSH1 0x1 PUSH2 0xF13 JUMP JUMPDEST DUP1 DUP7 DIV DUP3 GT ISZERO PUSH2 0x1021 JUMPI PUSH2 0x1021 PUSH2 0x1060 JUMP JUMPDEST MUL SWAP5 SWAP4 POP POP POP POP JUMP JUMPDEST PUSH1 0x0 DUP2 PUSH1 0x0 NOT DIV DUP4 GT DUP3 ISZERO ISZERO AND ISZERO PUSH2 0x1044 JUMPI PUSH2 0x1044 PUSH2 0x1060 JUMP JUMPDEST POP MUL SWAP1 JUMP JUMPDEST PUSH1 0x0 DUP3 DUP3 LT ISZERO PUSH2 0x105B JUMPI PUSH2 0x105B PUSH2 0x1060 JUMP JUMPDEST POP SUB SWAP1 JUMP JUMPDEST PUSH4 0x4E487B71 PUSH1 0xE0 SHL PUSH1 0x0 MSTORE PUSH1 0x11 PUSH1 0x4 MSTORE PUSH1 0x24 PUSH1 0x0 REVERT INVALID LOG2 PUSH5 0x6970667358 0x22 SLT KECCAK256 0xBB 0xAF 0xB7 PUSH12 0xBE967ADC3F2322E7CBB0FAA9 LOG0 0xE5 0xEA 0xC3 LOG2 LOG4 0xF6 RETURN INVALID 0xB4 0x26 GT PUSH5 0xA077CA6473 PUSH16 0x6C634300080000330000000000000000 ","sha1":"7fc613a32a31310af64c437933f85ac9b76079ae","source":"// SPDX-License-Identifier: MIT\npragma solidity ^0.8.0;\n\nimport  {ERC20} from \"@openzeppelin/contracts/token/ERC20/ERC20.sol\";\nimport  {ERC20Burnable} from \"@openzeppelin/contracts/token/ERC20/extensions/ERC20Burnable.sol\";\nimport \"@chainlink/contracts/src/v0.8/interfaces/AggregatorV3Interface.sol\";\nimport \"@openzeppelin/contracts/utils/math/SafeMath.sol\";\nimport \"@openzeppelin/contracts/access/Ownable.sol\";\n\n\ninterface IERC20 {\n    function transfer(address recipient, uint256 amount) external returns (bool);\n    function transferFrom(address sender, address recipient, uint256 amount) external returns (bool);\n    function approve(address spender, uint256 amount) external returns (bool);\n}\n\n\ncontract BTCUP is  ERC20, ERC20Burnable {\n    address parentAddress;\n\n    constructor(address _parentAddress) ERC20(\"Bitcoin Up\", \"BTCUP\") {\n        parentAddress = _parentAddress;\n    }\n\n    function mint(uint256 quantity) public onlyParent {\n        _mint(tx.origin, quantity);\n    }\n\n    function burn(uint256 quantity) public override onlyParent {\n        burnFrom(tx.origin, quantity);\n    }\n\n    function decimals() public view override returns (uint8) {\n        return 6;\n    }\n\n    modifier onlyParent {\n        require(msg.sender == parentAddress);\n        _;\n    }\n}\n\ncontract BTCDOWN is ERC20, ERC20Burnable {\n    address parentAddress;\n\n    constructor(address _parentAddress) ERC20(\"Bitcoin Down\", \"BTCDOWN\") {\n        parentAddress = _parentAddress;\n    }\n\n    function mint(uint256 quantity) public onlyParent {\n        _mint(tx.origin, quantity);\n    }\n\n    function burn(uint256 quantity) public override onlyParent {\n        burnFrom(tx.origin, quantity);\n    }\n\n    function decimals() public view override returns (uint8) {\n        return 6;\n    }\n\n    modifier onlyParent {\n        require(msg.sender == parentAddress);\n        _;\n    }\n}\n\ncontract LeveragedTrading is Ownable {\n    using SafeMath for uint256;\n\n    uint256 public priceBtcUp = 10 ** 6;\n    uint256 public priceBtcDown = 10 ** 6;        // 6 decimals\n\n    uint256 public collateralBtcUp = 0;          //6 decimals\n    uint256 public collateralBtcDown = 0;\n\n    uint256 public amountBtcUp = 0;           // 6 decimals\n    uint256 public amountBtcDown = 0;         // 6 decimals\n\n    uint256 public lastBtcPrice = 0;       // 8 decimals, chainlink conventions\n\n    bool public poolIsInitiated = false;\n\n    address addressUsdc = 0xb7a4F3E9097C08dA09517b5aB877F7a917224ede;  // <- Kovan  //0xeb8f08a975Ab53E34D8a0330E0D34de942C95926;\n    address addressBtcUSDFeed =  0x6135b13325bfC4B00278B4abC5e20bbce2D6580e; // <- Kovan          // 0xECe365B379E1dD183B20fc5f022230C044d51404;\n\n    BTCUP btcUp;\n    BTCDOWN btcDown;\n\n    function initiatePool(uint256 amountUsdc) public onlyOwner {\n        require(!poolIsInitiated, \"The pool was already initiated.\");\n\n        btcUp = BTCUP(address(this));\n        btcDown = BTCDOWN(address(this));\n\n        issueBtcUp(amountUsdc.div(2));\n        issueBtcDown(amountUsdc.div(2));\n\n        poolIsInitiated = true;\n    }\n\n    function issueBtcUp(uint256 amountUsdc) public {\n        rebalanceLeveragedTokens();\n        \n        priceBtcUp = getBtcUpPrice();\n        uint256 amountLeveragedTokens = amountUsdc.mul(10 ** 6).div(priceBtcUp);\n\n        btcUp.mint(amountLeveragedTokens);\n        amountBtcUp = amountBtcUp.add(amountLeveragedTokens);\n        collateralBtcUp = collateralBtcUp.add(amountUsdc);\n\n        IERC20 usdc = IERC20(addressUsdc);\n        require(usdc.transferFrom(msg.sender, address(this), amountUsdc), \"You don't have enough USDC.\");\n    }\n\n    function issueBtcDown(uint256 amountUsdc) public {\n        rebalanceLeveragedTokens();\n        \n        priceBtcDown = getBtcDownPrice();\n        uint256 amountLeveragedTokens = amountUsdc.mul(10 ** 6).div(priceBtcDown);\n\n        btcDown.mint(amountLeveragedTokens);\n        amountBtcDown = amountBtcDown.add(amountLeveragedTokens);\n        collateralBtcDown = collateralBtcDown.add(amountUsdc);\n\n        IERC20 usdc = IERC20(addressUsdc);\n        require(usdc.transferFrom(msg.sender, address(this), amountUsdc), \"You don't have enough USDC.\");\n    }\n\n    function redeemBtcUp(uint256 amountLeveragedTokens) public {\n        rebalanceLeveragedTokens();\n        btcUp.burn(amountLeveragedTokens);\n\n        priceBtcUp = getBtcUpPrice();\n        uint256 amountUsdc = amountLeveragedTokens.mul(priceBtcUp).div(10 ** 6);\n\n        amountBtcUp = amountBtcUp.sub(amountLeveragedTokens);\n        collateralBtcUp = collateralBtcUp.sub(amountUsdc);\n\n        IERC20 usdc = IERC20(addressUsdc);\n        assert(usdc.transfer(msg.sender, amountUsdc));\n    }\n\n    function redeemBtcDown(uint256 amountLeveragedTokens) public {\n        rebalanceLeveragedTokens();\n        btcDown.burn(amountLeveragedTokens);\n\n        priceBtcDown = getBtcDownPrice();\n        uint256 amountUsdc = amountLeveragedTokens.mul(priceBtcDown).div(10 ** 6);\n        \n        amountBtcDown = amountBtcDown.sub(amountLeveragedTokens);\n        collateralBtcDown = collateralBtcDown.sub(amountUsdc);\n\n        IERC20 usdc = IERC20(addressUsdc);\n        assert(usdc.transfer(msg.sender,  amountUsdc));\n    }\n\n    function rebalanceLeveragedTokens() public {\n        uint256 btcPrice = getBtcPrice();\n        if ((collateralBtcUp > 0) && (collateralBtcDown > 0)) {\n            uint256 rebalanceAmount = getRebalanceAmount(btcPrice);\n            if (getSign(btcPrice) > 0) {\n                collateralBtcUp = collateralBtcUp.add(rebalanceAmount);\n                collateralBtcDown = collateralBtcDown.sub(rebalanceAmount);\n            }\n\n            else {\n                collateralBtcUp = collateralBtcUp.sub(rebalanceAmount);\n                collateralBtcDown = collateralBtcDown.add(rebalanceAmount);\n            }\n\n        }\n\n        lastBtcPrice = btcPrice;\n    }\n\n/////////////////////////////////////////////////////////////////////////////////////////////////////////////////////////////////////////////////////////////////////////\n\n    function getSign(uint256 btcPrice) internal view returns (int256) {\n        if (btcPrice > lastBtcPrice) {\n            return 1;\n        }\n        else {\n            return -1;\n        }\n    }\n \n    function getRebalanceAmount(uint256 priceBtc) internal view returns (uint256) {\n        uint256 priceDiff = getPriceDiff(priceBtc);\n\n        return min(collateralBtcUp, collateralBtcDown).mul(L(priceDiff)).div(10 ** 6);\n    }\n\n// getBtcUpPrice() 6 decimals\n    function getBtcUpPrice() public view returns (uint256) {\n        return amountBtcUp == 0 ?  priceBtcUp : collateralBtcUp.mul(10 ** 6).div(amountBtcUp);\n    }\n\n// getBtcDownPrice() 6 decimals\n    function getBtcDownPrice() public view returns (uint256) {//6 decimals\n        return amountBtcDown == 0 ?  priceBtcDown : collateralBtcDown.mul(10 ** 6).div(amountBtcDown);\n    }\n\n// get the price of our asset with 8 decimals\n    function getBtcPrice() public view returns (uint256) {\n        AggregatorV3Interface priceFeed = AggregatorV3Interface(addressBtcUSDFeed);\n        (,int256 answer,,,) = priceFeed.latestRoundData();\n\n         return uint256(answer);             // we call chainlink oracle to get the price of the asset\n         \n    }\n    \n    function min(uint256 a, uint256 b) internal pure returns (uint256) {\n        return a <= b ? a : b;\n    }\n\n    function L(uint256 x) internal pure returns (uint256) {            //6  decimals\n\n        uint256 denom = 9 * (x ** 2 / 10 ** 6)  + 3 * x + 10 ** 6;\n        uint256 num = 10 ** 12;\n\n        return 10 ** 6 - num / denom;\n    }\n\n    function getPriceDiff(uint256 btcPrice) internal view returns (uint256) {     //6 decimals\n        if (btcPrice > lastBtcPrice) {\n            return btcPrice.mul(10 ** 6).div(lastBtcPrice).sub(10 ** 6);\n        }\n\n        else {\n            return lastBtcPrice.mul(10 ** 6).div(btcPrice).sub(10 ** 6);\n        }\n\n    }\n\n    function getBtcupBalance() public view returns(uint256) {\n        return btcUp.balanceOf(msg.sender);\n    }\n\n    function getBtcdownBalance() public view returns(uint256) {\n        return btcDown.balanceOf(msg.sender);\n    }\n\n}\n\n","sourcePath":"contracts/LeveragedTrading.sol","type":"contract","deployment":{"address":"0x9c6C976EB7bF42B4f9d0A05300416Bfcb9737F61","chainid":"42","blockHeight":32703721}}