{
  "abi": [
    {
      "anonymous": false,
      "inputs": [
        {
          "indexed": true,
          "internalType": "address",
          "name": "previousOwner",
          "type": "address"
        },
        {
          "indexed": true,
          "internalType": "address",
          "name": "newOwner",
          "type": "address"
        }
      ],
      "name": "OwnershipTransferred",
      "type": "event"
    },
    {
      "inputs": [],
      "name": "amountBtcDown",
      "outputs": [
        {
          "internalType": "uint256",
          "name": "",
          "type": "uint256"
        }
      ],
      "stateMutability": "view",
      "type": "function"
    },
    {
      "inputs": [],
      "name": "amountBtcUp",
      "outputs": [
        {
          "internalType": "uint256",
          "name": "",
          "type": "uint256"
        }
      ],
      "stateMutability": "view",
      "type": "function"
    },
    {
      "inputs": [],
      "name": "collateralBtcDown",
      "outputs": [
        {
          "internalType": "uint256",
          "name": "",
          "type": "uint256"
        }
      ],
      "stateMutability": "view",
      "type": "function"
    },
    {
      "inputs": [],
      "name": "collateralBtcUp",
      "outputs": [
        {
          "internalType": "uint256",
          "name": "",
          "type": "uint256"
        }
      ],
      "stateMutability": "view",
      "type": "function"
    },
    {
      "inputs": [],
      "name": "getBtcDownPrice",
      "outputs": [
        {
          "internalType": "uint256",
          "name": "",
          "type": "uint256"
        }
      ],
      "stateMutability": "view",
      "type": "function"
    },
    {
      "inputs": [],
      "name": "getBtcPrice",
      "outputs": [
        {
          "internalType": "uint256",
          "name": "",
          "type": "uint256"
        }
      ],
      "stateMutability": "view",
      "type": "function"
    },
    {
      "inputs": [],
      "name": "getBtcUpPrice",
      "outputs": [
        {
          "internalType": "uint256",
          "name": "",
          "type": "uint256"
        }
      ],
      "stateMutability": "view",
      "type": "function"
    },
    {
      "inputs": [],
      "name": "getBtcdownBalance",
      "outputs": [
        {
          "internalType": "uint256",
          "name": "",
          "type": "uint256"
        }
      ],
      "stateMutability": "view",
      "type": "function"
    },
    {
      "inputs": [],
      "name": "getBtcupBalance",
      "outputs": [
        {
          "internalType": "uint256",
          "name": "",
          "type": "uint256"
        }
      ],
      "stateMutability": "view",
      "type": "function"
    },
    {
      "inputs": [
        {
          "internalType": "uint256",
          "name": "amountUsdc",
          "type": "uint256"
        }
      ],
      "name": "initiatePool",
      "outputs": [],
      "stateMutability": "nonpayable",
      "type": "function"
    },
    {
      "inputs": [
        {
          "internalType": "uint256",
          "name": "amountUsdc",
          "type": "uint256"
        }
      ],
      "name": "issueBtcDown",
      "outputs": [],
      "stateMutability": "nonpayable",
      "type": "function"
    },
    {
      "inputs": [
        {
          "internalType": "uint256",
          "name": "amountUsdc",
          "type": "uint256"
        }
      ],
      "name": "issueBtcUp",
      "outputs": [],
      "stateMutability": "nonpayable",
      "type": "function"
    },
    {
      "inputs": [],
      "name": "lastBtcPrice",
      "outputs": [
        {
          "internalType": "uint256",
          "name": "",
          "type": "uint256"
        }
      ],
      "stateMutability": "view",
      "type": "function"
    },
    {
      "inputs": [],
      "name": "owner",
      "outputs": [
        {
          "internalType": "address",
          "name": "",
          "type": "address"
        }
      ],
      "stateMutability": "view",
      "type": "function"
    },
    {
      "inputs": [],
      "name": "poolIsInitiated",
      "outputs": [
        {
          "internalType": "bool",
          "name": "",
          "type": "bool"
        }
      ],
      "stateMutability": "view",
      "type": "function"
    },
    {
      "inputs": [],
      "name": "priceBtcDown",
      "outputs": [
        {
          "internalType": "uint256",
          "name": "",
          "type": "uint256"
        }
      ],
      "stateMutability": "view",
      "type": "function"
    },
    {
      "inputs": [],
      "name": "priceBtcUp",
      "outputs": [
        {
          "internalType": "uint256",
          "name": "",
          "type": "uint256"
        }
      ],
      "stateMutability": "view",
      "type": "function"
    },
    {
      "inputs": [],
      "name": "rebalanceLeveragedTokens",
      "outputs": [],
      "stateMutability": "nonpayable",
      "type": "function"
    },
    {
      "inputs": [
        {
          "internalType": "uint256",
          "name": "amountLeveragedTokens",
          "type": "uint256"
        }
      ],
      "name": "redeemBtcDown",
      "outputs": [],
      "stateMutability": "nonpayable",
      "type": "function"
    },
    {
      "inputs": [
        {
          "internalType": "uint256",
          "name": "amountLeveragedTokens",
          "type": "uint256"
        }
      ],
      "name": "redeemBtcUp",
      "outputs": [],
      "stateMutability": "nonpayable",
      "type": "function"
    },
    {
      "inputs": [],
      "name": "renounceOwnership",
      "outputs": [],
      "stateMutability": "nonpayable",
      "type": "function"
    },
    {
      "inputs": [
        {
          "internalType": "address",
          "name": "newOwner",
          "type": "address"
        }
      ],
      "name": "transferOwnership",
      "outputs": [],
      "stateMutability": "nonpayable",
      "type": "function"
    }
  ],
  "bytecode": "60806040819052620f42406001819055600255600060038190556004819055600581905560068190556007556008805474b7a4f3e9097c08da09517b5ab877f7a917224ede006001600160a81b0319909116179055600980546001600160a01b031916736135b13325bfc4b00278b4abc5e20bbce2d6580e1790556100839061017f565b604051809103906000f08015801561009f573d6000803e3d6000fd5b50600a80546001600160a01b0319166001600160a01b03929092169190911790556040516100cc9061018d565b604051809103906000f0801580156100e8573d6000803e3d6000fd5b50600b80546001600160a01b0319166001600160a01b039290921691909117905534801561011557600080fd5b5061012661012161012b565b61012f565b61019b565b3390565b600080546001600160a01b038381166001600160a01b0319831681178455604051919092169283917f8be0079c531659141344cd1fd0a4f28419497f9722a3daafe3b4186f6b6457e09190a35050565b610e41806200126e83390190565b610e4580620020af83390190565b6110c380620001ab6000396000f3fe608060405234801561001057600080fd5b50600436106101415760003560e01c8063a14274e8116100b8578063dde7be2c1161007c578063dde7be2c14610224578063f0156e8a1461022c578063f06847d614610234578063f2fde38b1461023c578063f4352c571461024f578063f530c04a1461025757610141565b8063a14274e8146101db578063b75cbe0b146101ee578063c46d4f09146101f6578063c7e3b12414610209578063d1ee539d1461021157610141565b80633a3610bc1161010a5780633a3610bc146101915780636e5d661514610199578063715018a6146101a357806381c2b29b146101ab5780638da5cb5b146101b35780639b3075a1146101c857610141565b806234b9cc146101465780630c3e53431461016457806314d7c6d21461016c578063157d0129146101745780633074fff71461017c575b600080fd5b61014e61026a565b60405161015b9190610ee9565b60405180910390f35b61014e610270565b61014e610276565b61014e61027c565b610184610302565b60405161015b9190610dbe565b61014e61030b565b6101a1610398565b005b6101a1610428565b61014e61047c565b6101bb6104b8565b60405161015b9190610d6d565b6101a16101d6366004610cee565b6104c7565b6101a16101e9366004610cee565b610555565b61014e6106b1565b6101a1610204366004610cee565b6106b7565b61014e61080c565b6101a161021f366004610cee565b61083d565b61014e610926565b61014e61092c565b61014e610932565b6101a161024a366004610ca7565b610963565b61014e6109d4565b6101a1610265366004610cee565b6109da565b60055481565b60025481565b60045481565b600a546040516370a0823160e01b81526000916001600160a01b0316906370a08231906102ad903390600401610d6d565b60206040518083038186803b1580156102c557600080fd5b505afa1580156102d9573d6000803e3d6000fd5b505050506040513d601f19601f820116820180604052508101906102fd9190610d06565b905090565b60085460ff1681565b60095460408051633fabe5a360e21b815290516000926001600160a01b0316918391839163feaf968c9160048083019260a0929190829003018186803b15801561035457600080fd5b505afa158015610368573d6000803e3d6000fd5b505050506040513d601f19601f8201168201806040525081019061038c9190610d1e565b50919550505050505090565b60006103a261030b565b905060006003541180156103b857506000600454115b156104235760006103c882610ac1565b905060006103d583610aff565b1315610400576003546103e89082610b1c565b6003556004546103f89082610b2f565b600455610421565b60035461040d9082610b2f565b60035560045461041d9082610b1c565b6004555b505b600755565b610430610b3b565b6001600160a01b03166104416104b8565b6001600160a01b0316146104705760405162461bcd60e51b815260040161046790610e7d565b60405180910390fd5b61047a6000610b3f565b565b60006006546000146104b1576104ac6006546104a6620f4240600454610b8f90919063ffffffff16565b90610b9b565b6102fd565b5060025490565b6000546001600160a01b031690565b6104cf610b3b565b6001600160a01b03166104e06104b8565b6001600160a01b0316146105065760405162461bcd60e51b815260040161046790610e7d565b60085460ff16156105295760405162461bcd60e51b815260040161046790610e46565b610537610265826002610b9b565b610545610204826002610b9b565b506008805460ff19166001179055565b61055d610398565b600b54604051630852cd8d60e31b81526001600160a01b03909116906342966c689061058d908490600401610ee9565b600060405180830381600087803b1580156105a757600080fd5b505af11580156105bb573d6000803e3d6000fd5b505050506105c761047c565b60028190556000906105e390620f4240906104a6908590610b8f565b6006549091506105f39083610b2f565b6006556004546106039082610b2f565b600490815560085460405163a9059cbb60e01b81526101009091046001600160a01b031691829163a9059cbb9161063e913391879101610da5565b602060405180830381600087803b15801561065857600080fd5b505af115801561066c573d6000803e3d6000fd5b505050506040513d601f19601f820116820180604052508101906106909190610cce565b6106ac5760405162461bcd60e51b815260040161046790610dc9565b505050565b60065481565b6106bf610398565b6106c761047c565b60028190556000906106e0906104a684620f4240610b8f565b600b5460405163140e25ad60e31b81529192506001600160a01b03169063a0712d6890610711908490600401610ee9565b600060405180830381600087803b15801561072b57600080fd5b505af115801561073f573d6000803e3d6000fd5b50506006546107519250905082610b1c565b6006556004546107619083610b1c565b60049081556008546040516323b872dd60e01b81526101009091046001600160a01b03169182916323b872dd9161079e9133913091899101610d81565b602060405180830381600087803b1580156107b857600080fd5b505af11580156107cc573d6000803e3d6000fd5b505050506040513d601f19601f820116820180604052508101906107f09190610cce565b6106ac5760405162461bcd60e51b815260040161046790610eb2565b600b546040516370a0823160e01b81526000916001600160a01b0316906370a08231906102ad903390600401610d6d565b610845610398565b600a54604051630852cd8d60e31b81526001600160a01b03909116906342966c6890610875908490600401610ee9565b600060405180830381600087803b15801561088f57600080fd5b505af11580156108a3573d6000803e3d6000fd5b505050506108af610932565b60018190556000906108cb90620f4240906104a6908590610b8f565b6005549091506108db9083610b2f565b6005556003546108eb9082610b2f565b60035560085460405163a9059cbb60e01b81526101009091046001600160a01b031690819063a9059cbb9061063e9033908690600401610da5565b60035481565b60015481565b600060055460001461095c576104ac6005546104a6620f4240600354610b8f90919063ffffffff16565b5060015490565b61096b610b3b565b6001600160a01b031661097c6104b8565b6001600160a01b0316146109a25760405162461bcd60e51b815260040161046790610e7d565b6001600160a01b0381166109c85760405162461bcd60e51b815260040161046790610e00565b6109d181610b3f565b50565b60075481565b6109e2610398565b6109ea610932565b6001819055600090610a03906104a684620f4240610b8f565b600a5460405163140e25ad60e31b81529192506001600160a01b03169063a0712d6890610a34908490600401610ee9565b600060405180830381600087803b158015610a4e57600080fd5b505af1158015610a62573d6000803e3d6000fd5b5050600554610a749250905082610b1c565b600555600354610a849083610b1c565b6003556008546040516323b872dd60e01b81526101009091046001600160a01b03169081906323b872dd9061079e90339030908890600401610d81565b600080610acd83610ba7565b9050610af6620f42406104a6610ae284610c06565b610af0600354600454610c76565b90610b8f565b9150505b919050565b6000600754821115610b1357506001610afa565b50600019610afa565b6000610b288284610ef2565b9392505050565b6000610b288284611060565b3390565b600080546001600160a01b038381166001600160a01b0319831681178455604051919092169283917f8be0079c531659141344cd1fd0a4f28419497f9722a3daafe3b4186f6b6457e09190a35050565b6000610b288284611041565b6000610b288284610f0a565b6000600754821115610be357610bdc620f4240610bd66007546104a6620f424087610b8f90919063ffffffff16565b90610b2f565b9050610afa565b610bdc620f4240610bd6846104a6620f4240600754610b8f90919063ffffffff16565b600080610c14836003611041565b620f4240610c23600286610f70565b610c2d9190610f0a565b610c38906009611041565b610c429190610ef2565b610c4f90620f4240610ef2565b905064e8d4a51000610c618282610f0a565b610c6e90620f4240611060565b949350505050565b600081831115610c865781610b28565b5090919050565b805169ffffffffffffffffffff81168114610afa57600080fd5b600060208284031215610cb8578081fd5b81356001600160a01b0381168114610b28578182fd5b600060208284031215610cdf578081fd5b81518015158114610b28578182fd5b600060208284031215610cff578081fd5b5035919050565b600060208284031215610d17578081fd5b5051919050565b600080600080600060a08688031215610d35578081fd5b610d3e86610c8d565b9450602086015193506040860151925060608601519150610d6160808701610c8d565b90509295509295909350565b6001600160a01b0391909116815260200190565b6001600160a01b039384168152919092166020820152604081019190915260600190565b6001600160a01b03929092168252602082015260400190565b901515815260200190565b60208082526019908201527f4e6f7420656e6f756768207573646320617661696c61626c6500000000000000604082015260600190565b60208082526026908201527f4f776e61626c653a206e6577206f776e657220697320746865207a65726f206160408201526564647265737360d01b606082015260800190565b6020808252601f908201527f54686520706f6f6c2077617320616c726561647920696e697469617465642e00604082015260600190565b6020808252818101527f4f776e61626c653a2063616c6c6572206973206e6f7420746865206f776e6572604082015260600190565b6020808252601b908201527f596f7520646f6e2774206861766520656e6f75676820555344432e0000000000604082015260600190565b90815260200190565b60008219821115610f0557610f05611077565b500190565b600082610f2557634e487b7160e01b81526012600452602481fd5b500490565b80825b6001808611610f3c5750610f67565b818704821115610f4e57610f4e611077565b80861615610f5b57918102915b9490941c938002610f2d565b94509492505050565b6000610b2860001960ff851684600082610f8c57506001610b28565b81610f9957506000610b28565b8160018114610faf5760028114610fb957610fe6565b6001915050610b28565b60ff841115610fca57610fca611077565b6001841b915084821115610fe057610fe0611077565b50610b28565b5060208310610133831016604e8410600b8410161715611019575081810a8381111561101457611014611077565b610b28565b6110268484846001610f2a565b80860482111561103857611038611077565b02949350505050565b600081600019048311821515161561105b5761105b611077565b500290565b60008282101561107257611072611077565b500390565b634e487b7160e01b600052601160045260246000fdfea26469706673582212201cba9de5a754d9fbf758f6828b25341843a30cee5dd54e3e3c87352d737dc2a464736f6c6343000800003360806040523480156200001157600080fd5b50604080518082018252600a8152690426974636f696e2055760b41b602080830191825283518085019094526005845264042544355560dc1b908401528151919291620000619160039162000080565b5080516200007790600490602084019062000080565b50505062000163565b8280546200008e9062000126565b90600052602060002090601f016020900481019282620000b25760008555620000fd565b82601f10620000cd57805160ff1916838001178555620000fd565b82800160010185558215620000fd579182015b82811115620000fd578251825591602001919060010190620000e0565b506200010b9291506200010f565b5090565b5b808211156200010b576000815560010162000110565b6002810460018216806200013b57607f821691505b602082108114156200015d57634e487b7160e01b600052602260045260246000fd5b50919050565b610cce80620001736000396000f3fe608060405234801561001057600080fd5b50600436106100cf5760003560e01c806342966c681161008c578063a0712d6811610066578063a0712d6814610192578063a457c2d7146101a5578063a9059cbb146101b8578063dd62ed3e146101cb576100cf565b806342966c681461016257806370a082311461017757806395d89b411461018a576100cf565b806306fdde03146100d4578063095ea7b3146100f257806318160ddd1461011257806323b872dd14610127578063313ce5671461013a578063395093511461014f575b600080fd5b6100dc6101de565b6040516100e99190610913565b60405180910390f35b6101056101003660046108c7565b610270565b6040516100e99190610908565b61011a61028d565b6040516100e99190610c01565b61010561013536600461088c565b610293565b61014261032c565b6040516100e99190610c0a565b61010561015d3660046108c7565b610331565b6101756101703660046108f0565b610385565b005b61011a610185366004610839565b610392565b6100dc6103b1565b6101756101a03660046108f0565b6103c0565b6101056101b33660046108c7565b6103ca565b6101056101c63660046108c7565b610443565b61011a6101d936600461085a565b610457565b6060600380546101ed90610c47565b80601f016020809104026020016040519081016040528092919081815260200182805461021990610c47565b80156102665780601f1061023b57610100808354040283529160200191610266565b820191906000526020600020905b81548152906001019060200180831161024957829003601f168201915b5050505050905090565b600061028461027d610482565b8484610486565b50600192915050565b60025490565b60006102a084848461053a565b6001600160a01b0384166000908152600160205260408120816102c1610482565b6001600160a01b03166001600160a01b031681526020019081526020016000205490508281101561030d5760405162461bcd60e51b815260040161030490610a73565b60405180910390fd5b61032185610319610482565b858403610486565b506001949350505050565b600690565b600061028461033e610482565b84846001600061034c610482565b6001600160a01b03908116825260208083019390935260409182016000908120918b16815292529020546103809190610c18565b610486565b61038f3282610664565b50565b6001600160a01b0381166000908152602081905260409020545b919050565b6060600480546101ed90610c47565b61038f3282610756565b600080600160006103d9610482565b6001600160a01b03908116825260208083019390935260409182016000908120918816815292529020549050828110156104255760405162461bcd60e51b815260040161030490610b85565b610439610430610482565b85858403610486565b5060019392505050565b6000610284610450610482565b848461053a565b6001600160a01b03918216600090815260016020908152604080832093909416825291909152205490565b3390565b6001600160a01b0383166104ac5760405162461bcd60e51b815260040161030490610b41565b6001600160a01b0382166104d25760405162461bcd60e51b8152600401610304906109eb565b6001600160a01b0380841660008181526001602090815260408083209487168084529490915290819020849055517f8c5be1e5ebec7d5bd14f71427d1e84f3dd0314c0f7b2291e5b200ac8c7c3b9259061052d908590610c01565b60405180910390a3505050565b6001600160a01b0383166105605760405162461bcd60e51b815260040161030490610afc565b6001600160a01b0382166105865760405162461bcd60e51b815260040161030490610966565b610591838383610751565b6001600160a01b038316600090815260208190526040902054818110156105ca5760405162461bcd60e51b815260040161030490610a2d565b6001600160a01b03808516600090815260208190526040808220858503905591851681529081208054849290610601908490610c18565b92505081905550826001600160a01b0316846001600160a01b03167fddf252ad1be2c89b69c2b068fc378daa952ba7f163c4a11628f55a4df523b3ef8460405161064b9190610c01565b60405180910390a361065e848484610751565b50505050565b6001600160a01b03821661068a5760405162461bcd60e51b815260040161030490610abb565b61069682600083610751565b6001600160a01b038216600090815260208190526040902054818110156106cf5760405162461bcd60e51b8152600401610304906109a9565b6001600160a01b03831660009081526020819052604081208383039055600280548492906106fe908490610c30565b90915550506040516000906001600160a01b038516907fddf252ad1be2c89b69c2b068fc378daa952ba7f163c4a11628f55a4df523b3ef90610741908690610c01565b60405180910390a3610751836000845b505050565b6001600160a01b03821661077c5760405162461bcd60e51b815260040161030490610bca565b61078860008383610751565b806002600082825461079a9190610c18565b90915550506001600160a01b038216600090815260208190526040812080548392906107c7908490610c18565b90915550506040516001600160a01b038316906000907fddf252ad1be2c89b69c2b068fc378daa952ba7f163c4a11628f55a4df523b3ef9061080a908590610c01565b60405180910390a361081e60008383610751565b5050565b80356001600160a01b03811681146103ac57600080fd5b60006020828403121561084a578081fd5b61085382610822565b9392505050565b6000806040838503121561086c578081fd5b61087583610822565b915061088360208401610822565b90509250929050565b6000806000606084860312156108a0578081fd5b6108a984610822565b92506108b760208501610822565b9150604084013590509250925092565b600080604083850312156108d9578182fd5b6108e283610822565b946020939093013593505050565b600060208284031215610901578081fd5b5035919050565b901515815260200190565b6000602080835283518082850152825b8181101561093f57858101830151858201604001528201610923565b818111156109505783604083870101525b50601f01601f1916929092016040019392505050565b60208082526023908201527f45524332303a207472616e7366657220746f20746865207a65726f206164647260408201526265737360e81b606082015260800190565b60208082526022908201527f45524332303a206275726e20616d6f756e7420657863656564732062616c616e604082015261636560f01b606082015260800190565b60208082526022908201527f45524332303a20617070726f766520746f20746865207a65726f206164647265604082015261737360f01b606082015260800190565b60208082526026908201527f45524332303a207472616e7366657220616d6f756e7420657863656564732062604082015265616c616e636560d01b606082015260800190565b60208082526028908201527f45524332303a207472616e7366657220616d6f756e74206578636565647320616040820152676c6c6f77616e636560c01b606082015260800190565b60208082526021908201527f45524332303a206275726e2066726f6d20746865207a65726f206164647265736040820152607360f81b606082015260800190565b60208082526025908201527f45524332303a207472616e736665722066726f6d20746865207a65726f206164604082015264647265737360d81b606082015260800190565b60208082526024908201527f45524332303a20617070726f76652066726f6d20746865207a65726f206164646040820152637265737360e01b606082015260800190565b60208082526025908201527f45524332303a2064656372656173656420616c6c6f77616e63652062656c6f77604082015264207a65726f60d81b606082015260800190565b6020808252601f908201527f45524332303a206d696e7420746f20746865207a65726f206164647265737300604082015260600190565b90815260200190565b60ff91909116815260200190565b60008219821115610c2b57610c2b610c82565b500190565b600082821015610c4257610c42610c82565b500390565b600281046001821680610c5b57607f821691505b60208210811415610c7c57634e487b7160e01b600052602260045260246000fd5b50919050565b634e487b7160e01b600052601160045260246000fdfea2646970667358221220241f93fff893c0ad9b2f67fbac7729f578fe8ca6ec742ad73fcf9763c1ddca4164736f6c6343000800003360806040523480156200001157600080fd5b50604080518082018252600c81526b2134ba31b7b4b7102237bbb760a11b602080830191825283518085019094526007845266212a21a227aba760c91b908401528151919291620000659160039162000084565b5080516200007b90600490602084019062000084565b50505062000167565b82805462000092906200012a565b90600052602060002090601f016020900481019282620000b6576000855562000101565b82601f10620000d157805160ff191683800117855562000101565b8280016001018555821562000101579182015b8281111562000101578251825591602001919060010190620000e4565b506200010f92915062000113565b5090565b5b808211156200010f576000815560010162000114565b6002810460018216806200013f57607f821691505b602082108114156200016157634e487b7160e01b600052602260045260246000fd5b50919050565b610cce80620001776000396000f3fe608060405234801561001057600080fd5b50600436106100cf5760003560e01c806342966c681161008c578063a0712d6811610066578063a0712d6814610192578063a457c2d7146101a5578063a9059cbb146101b8578063dd62ed3e146101cb576100cf565b806342966c681461016257806370a082311461017757806395d89b411461018a576100cf565b806306fdde03146100d4578063095ea7b3146100f257806318160ddd1461011257806323b872dd14610127578063313ce5671461013a578063395093511461014f575b600080fd5b6100dc6101de565b6040516100e99190610913565b60405180910390f35b6101056101003660046108c7565b610270565b6040516100e99190610908565b61011a61028d565b6040516100e99190610c01565b61010561013536600461088c565b610293565b61014261032c565b6040516100e99190610c0a565b61010561015d3660046108c7565b610331565b6101756101703660046108f0565b610385565b005b61011a610185366004610839565b610392565b6100dc6103b1565b6101756101a03660046108f0565b6103c0565b6101056101b33660046108c7565b6103ca565b6101056101c63660046108c7565b610443565b61011a6101d936600461085a565b610457565b6060600380546101ed90610c47565b80601f016020809104026020016040519081016040528092919081815260200182805461021990610c47565b80156102665780601f1061023b57610100808354040283529160200191610266565b820191906000526020600020905b81548152906001019060200180831161024957829003601f168201915b5050505050905090565b600061028461027d610482565b8484610486565b50600192915050565b60025490565b60006102a084848461053a565b6001600160a01b0384166000908152600160205260408120816102c1610482565b6001600160a01b03166001600160a01b031681526020019081526020016000205490508281101561030d5760405162461bcd60e51b815260040161030490610a73565b60405180910390fd5b61032185610319610482565b858403610486565b506001949350505050565b600690565b600061028461033e610482565b84846001600061034c610482565b6001600160a01b03908116825260208083019390935260409182016000908120918b16815292529020546103809190610c18565b610486565b61038f3282610664565b50565b6001600160a01b0381166000908152602081905260409020545b919050565b6060600480546101ed90610c47565b61038f3282610756565b600080600160006103d9610482565b6001600160a01b03908116825260208083019390935260409182016000908120918816815292529020549050828110156104255760405162461bcd60e51b815260040161030490610b85565b610439610430610482565b85858403610486565b5060019392505050565b6000610284610450610482565b848461053a565b6001600160a01b03918216600090815260016020908152604080832093909416825291909152205490565b3390565b6001600160a01b0383166104ac5760405162461bcd60e51b815260040161030490610b41565b6001600160a01b0382166104d25760405162461bcd60e51b8152600401610304906109eb565b6001600160a01b0380841660008181526001602090815260408083209487168084529490915290819020849055517f8c5be1e5ebec7d5bd14f71427d1e84f3dd0314c0f7b2291e5b200ac8c7c3b9259061052d908590610c01565b60405180910390a3505050565b6001600160a01b0383166105605760405162461bcd60e51b815260040161030490610afc565b6001600160a01b0382166105865760405162461bcd60e51b815260040161030490610966565b610591838383610751565b6001600160a01b038316600090815260208190526040902054818110156105ca5760405162461bcd60e51b815260040161030490610a2d565b6001600160a01b03808516600090815260208190526040808220858503905591851681529081208054849290610601908490610c18565b92505081905550826001600160a01b0316846001600160a01b03167fddf252ad1be2c89b69c2b068fc378daa952ba7f163c4a11628f55a4df523b3ef8460405161064b9190610c01565b60405180910390a361065e848484610751565b50505050565b6001600160a01b03821661068a5760405162461bcd60e51b815260040161030490610abb565b61069682600083610751565b6001600160a01b038216600090815260208190526040902054818110156106cf5760405162461bcd60e51b8152600401610304906109a9565b6001600160a01b03831660009081526020819052604081208383039055600280548492906106fe908490610c30565b90915550506040516000906001600160a01b038516907fddf252ad1be2c89b69c2b068fc378daa952ba7f163c4a11628f55a4df523b3ef90610741908690610c01565b60405180910390a3610751836000845b505050565b6001600160a01b03821661077c5760405162461bcd60e51b815260040161030490610bca565b61078860008383610751565b806002600082825461079a9190610c18565b90915550506001600160a01b038216600090815260208190526040812080548392906107c7908490610c18565b90915550506040516001600160a01b038316906000907fddf252ad1be2c89b69c2b068fc378daa952ba7f163c4a11628f55a4df523b3ef9061080a908590610c01565b60405180910390a361081e60008383610751565b5050565b80356001600160a01b03811681146103ac57600080fd5b60006020828403121561084a578081fd5b61085382610822565b9392505050565b6000806040838503121561086c578081fd5b61087583610822565b915061088360208401610822565b90509250929050565b6000806000606084860312156108a0578081fd5b6108a984610822565b92506108b760208501610822565b9150604084013590509250925092565b600080604083850312156108d9578182fd5b6108e283610822565b946020939093013593505050565b600060208284031215610901578081fd5b5035919050565b901515815260200190565b6000602080835283518082850152825b8181101561093f57858101830151858201604001528201610923565b818111156109505783604083870101525b50601f01601f1916929092016040019392505050565b60208082526023908201527f45524332303a207472616e7366657220746f20746865207a65726f206164647260408201526265737360e81b606082015260800190565b60208082526022908201527f45524332303a206275726e20616d6f756e7420657863656564732062616c616e604082015261636560f01b606082015260800190565b60208082526022908201527f45524332303a20617070726f766520746f20746865207a65726f206164647265604082015261737360f01b606082015260800190565b60208082526026908201527f45524332303a207472616e7366657220616d6f756e7420657863656564732062604082015265616c616e636560d01b606082015260800190565b60208082526028908201527f45524332303a207472616e7366657220616d6f756e74206578636565647320616040820152676c6c6f77616e636560c01b606082015260800190565b60208082526021908201527f45524332303a206275726e2066726f6d20746865207a65726f206164647265736040820152607360f81b606082015260800190565b60208082526025908201527f45524332303a207472616e736665722066726f6d20746865207a65726f206164604082015264647265737360d81b606082015260800190565b60208082526024908201527f45524332303a20617070726f76652066726f6d20746865207a65726f206164646040820152637265737360e01b606082015260800190565b60208082526025908201527f45524332303a2064656372656173656420616c6c6f77616e63652062656c6f77604082015264207a65726f60d81b606082015260800190565b6020808252601f908201527f45524332303a206d696e7420746f20746865207a65726f206164647265737300604082015260600190565b90815260200190565b60ff91909116815260200190565b60008219821115610c2b57610c2b610c82565b500190565b600082821015610c4257610c42610c82565b500390565b600281046001821680610c5b57607f821691505b60208210811415610c7c57634e487b7160e01b600052602260045260246000fd5b50919050565b634e487b7160e01b600052601160045260246000fdfea2646970667358221220b5d5cd953e1bf162f8b700eebe777107e3a180fc7935fdf9c14e656b2bcd4ace64736f6c63430008000033",
  "bytecodeSha1": "6cd804a82a30721a4a7486fdb40a36fe9da6e106",
  "compiler": {
    "evm_version": "istanbul",
    "optimizer": {
      "enabled": true,
      "runs": 200
    },
    "version": "0.8.0+commit.c7dfd78e"
  },
  "contractName": "LeveragedTrading",
  "language": "Solidity",
  "natspec": {
    "kind": "dev",
    "methods": {
      "owner()": {
        "details": "Returns the address of the current owner."
      },
      "renounceOwnership()": {
        "details": "Leaves the contract without owner. It will not be possible to call `onlyOwner` functions anymore. Can only be called by the current owner. NOTE: Renouncing ownership will leave the contract without an owner, thereby removing any functionality that is only available to the owner."
      },
      "transferOwnership(address)": {
        "details": "Transfers ownership of the contract to a new account (`newOwner`). Can only be called by the current owner."
      }
    },
    "version": 1
  },
  "opcodes": "PUSH1 0x80 PUSH1 0x40 MSTORE CALLVALUE DUP1 ISZERO PUSH2 0x10 JUMPI PUSH1 0x0 DUP1 REVERT JUMPDEST POP PUSH1 0x4 CALLDATASIZE LT PUSH2 0x141 JUMPI PUSH1 0x0 CALLDATALOAD PUSH1 0xE0 SHR DUP1 PUSH4 0xA14274E8 GT PUSH2 0xB8 JUMPI DUP1 PUSH4 0xDDE7BE2C GT PUSH2 0x7C JUMPI DUP1 PUSH4 0xDDE7BE2C EQ PUSH2 0x224 JUMPI DUP1 PUSH4 0xF0156E8A EQ PUSH2 0x22C JUMPI DUP1 PUSH4 0xF06847D6 EQ PUSH2 0x234 JUMPI DUP1 PUSH4 0xF2FDE38B EQ PUSH2 0x23C JUMPI DUP1 PUSH4 0xF4352C57 EQ PUSH2 0x24F JUMPI DUP1 PUSH4 0xF530C04A EQ PUSH2 0x257 JUMPI PUSH2 0x141 JUMP JUMPDEST DUP1 PUSH4 0xA14274E8 EQ PUSH2 0x1DB JUMPI DUP1 PUSH4 0xB75CBE0B EQ PUSH2 0x1EE JUMPI DUP1 PUSH4 0xC46D4F09 EQ PUSH2 0x1F6 JUMPI DUP1 PUSH4 0xC7E3B124 EQ PUSH2 0x209 JUMPI DUP1 PUSH4 0xD1EE539D EQ PUSH2 0x211 JUMPI PUSH2 0x141 JUMP JUMPDEST DUP1 PUSH4 0x3A3610BC GT PUSH2 0x10A JUMPI DUP1 PUSH4 0x3A3610BC EQ PUSH2 0x191 JUMPI DUP1 PUSH4 0x6E5D6615 EQ PUSH2 0x199 JUMPI DUP1 PUSH4 0x715018A6 EQ PUSH2 0x1A3 JUMPI DUP1 PUSH4 0x81C2B29B EQ PUSH2 0x1AB JUMPI DUP1 PUSH4 0x8DA5CB5B EQ PUSH2 0x1B3 JUMPI DUP1 PUSH4 0x9B3075A1 EQ PUSH2 0x1C8 JUMPI PUSH2 0x141 JUMP JUMPDEST DUP1 PUSH3 0x34B9CC EQ PUSH2 0x146 JUMPI DUP1 PUSH4 0xC3E5343 EQ PUSH2 0x164 JUMPI DUP1 PUSH4 0x14D7C6D2 EQ PUSH2 0x16C JUMPI DUP1 PUSH4 0x157D0129 EQ PUSH2 0x174 JUMPI DUP1 PUSH4 0x3074FFF7 EQ PUSH2 0x17C JUMPI JUMPDEST PUSH1 0x0 DUP1 REVERT JUMPDEST PUSH2 0x14E PUSH2 0x26A JUMP JUMPDEST PUSH1 0x40 MLOAD PUSH2 0x15B SWAP2 SWAP1 PUSH2 0xEE9 JUMP JUMPDEST PUSH1 0x40 MLOAD DUP1 SWAP2 SUB SWAP1 RETURN JUMPDEST PUSH2 0x14E PUSH2 0x270 JUMP JUMPDEST PUSH2 0x14E PUSH2 0x276 JUMP JUMPDEST PUSH2 0x14E PUSH2 0x27C JUMP JUMPDEST PUSH2 0x184 PUSH2 0x302 JUMP JUMPDEST PUSH1 0x40 MLOAD PUSH2 0x15B SWAP2 SWAP1 PUSH2 0xDBE JUMP JUMPDEST PUSH2 0x14E PUSH2 0x30B JUMP JUMPDEST PUSH2 0x1A1 PUSH2 0x398 JUMP JUMPDEST STOP JUMPDEST PUSH2 0x1A1 PUSH2 0x428 JUMP JUMPDEST PUSH2 0x14E PUSH2 0x47C JUMP JUMPDEST PUSH2 0x1BB PUSH2 0x4B8 JUMP JUMPDEST PUSH1 0x40 MLOAD PUSH2 0x15B SWAP2 SWAP1 PUSH2 0xD6D JUMP JUMPDEST PUSH2 0x1A1 PUSH2 0x1D6 CALLDATASIZE PUSH1 0x4 PUSH2 0xCEE JUMP JUMPDEST PUSH2 0x4C7 JUMP JUMPDEST PUSH2 0x1A1 PUSH2 0x1E9 CALLDATASIZE PUSH1 0x4 PUSH2 0xCEE JUMP JUMPDEST PUSH2 0x555 JUMP JUMPDEST PUSH2 0x14E PUSH2 0x6B1 JUMP JUMPDEST PUSH2 0x1A1 PUSH2 0x204 CALLDATASIZE PUSH1 0x4 PUSH2 0xCEE JUMP JUMPDEST PUSH2 0x6B7 JUMP JUMPDEST PUSH2 0x14E PUSH2 0x80C JUMP JUMPDEST PUSH2 0x1A1 PUSH2 0x21F CALLDATASIZE PUSH1 0x4 PUSH2 0xCEE JUMP JUMPDEST PUSH2 0x83D JUMP JUMPDEST PUSH2 0x14E PUSH2 0x926 JUMP JUMPDEST PUSH2 0x14E PUSH2 0x92C JUMP JUMPDEST PUSH2 0x14E PUSH2 0x932 JUMP JUMPDEST PUSH2 0x1A1 PUSH2 0x24A CALLDATASIZE PUSH1 0x4 PUSH2 0xCA7 JUMP JUMPDEST PUSH2 0x963 JUMP JUMPDEST PUSH2 0x14E PUSH2 0x9D4 JUMP JUMPDEST PUSH2 0x1A1 PUSH2 0x265 CALLDATASIZE PUSH1 0x4 PUSH2 0xCEE JUMP JUMPDEST PUSH2 0x9DA JUMP JUMPDEST PUSH1 0x5 SLOAD DUP2 JUMP JUMPDEST PUSH1 0x2 SLOAD DUP2 JUMP JUMPDEST PUSH1 0x4 SLOAD DUP2 JUMP JUMPDEST PUSH1 0xA SLOAD PUSH1 0x40 MLOAD PUSH4 0x70A08231 PUSH1 0xE0 SHL DUP2 MSTORE PUSH1 0x0 SWAP2 PUSH1 0x1 PUSH1 0x1 PUSH1 0xA0 SHL SUB AND SWAP1 PUSH4 0x70A08231 SWAP1 PUSH2 0x2AD SWAP1 CALLER SWAP1 PUSH1 0x4 ADD PUSH2 0xD6D JUMP JUMPDEST PUSH1 0x20 PUSH1 0x40 MLOAD DUP1 DUP4 SUB DUP2 DUP7 DUP1 EXTCODESIZE ISZERO DUP1 ISZERO PUSH2 0x2C5 JUMPI PUSH1 0x0 DUP1 REVERT JUMPDEST POP GAS STATICCALL ISZERO DUP1 ISZERO PUSH2 0x2D9 JUMPI RETURNDATASIZE PUSH1 0x0 DUP1 RETURNDATACOPY RETURNDATASIZE PUSH1 0x0 REVERT JUMPDEST POP POP POP POP PUSH1 0x40 MLOAD RETURNDATASIZE PUSH1 0x1F NOT PUSH1 0x1F DUP3 ADD AND DUP3 ADD DUP1 PUSH1 0x40 MSTORE POP DUP2 ADD SWAP1 PUSH2 0x2FD SWAP2 SWAP1 PUSH2 0xD06 JUMP JUMPDEST SWAP1 POP SWAP1 JUMP JUMPDEST PUSH1 0x8 SLOAD PUSH1 0xFF AND DUP2 JUMP JUMPDEST PUSH1 0x9 SLOAD PUSH1 0x40 DUP1 MLOAD PUSH4 0x3FABE5A3 PUSH1 0xE2 SHL DUP2 MSTORE SWAP1 MLOAD PUSH1 0x0 SWAP3 PUSH1 0x1 PUSH1 0x1 PUSH1 0xA0 SHL SUB AND SWAP2 DUP4 SWAP2 DUP4 SWAP2 PUSH4 0xFEAF968C SWAP2 PUSH1 0x4 DUP1 DUP4 ADD SWAP3 PUSH1 0xA0 SWAP3 SWAP2 SWAP1 DUP3 SWAP1 SUB ADD DUP2 DUP7 DUP1 EXTCODESIZE ISZERO DUP1 ISZERO PUSH2 0x354 JUMPI PUSH1 0x0 DUP1 REVERT JUMPDEST POP GAS STATICCALL ISZERO DUP1 ISZERO PUSH2 0x368 JUMPI RETURNDATASIZE PUSH1 0x0 DUP1 RETURNDATACOPY RETURNDATASIZE PUSH1 0x0 REVERT JUMPDEST POP POP POP POP PUSH1 0x40 MLOAD RETURNDATASIZE PUSH1 0x1F NOT PUSH1 0x1F DUP3 ADD AND DUP3 ADD DUP1 PUSH1 0x40 MSTORE POP DUP2 ADD SWAP1 PUSH2 0x38C SWAP2 SWAP1 PUSH2 0xD1E JUMP JUMPDEST POP SWAP2 SWAP6 POP POP POP POP POP POP SWAP1 JUMP JUMPDEST PUSH1 0x0 PUSH2 0x3A2 PUSH2 0x30B JUMP JUMPDEST SWAP1 POP PUSH1 0x0 PUSH1 0x3 SLOAD GT DUP1 ISZERO PUSH2 0x3B8 JUMPI POP PUSH1 0x0 PUSH1 0x4 SLOAD GT JUMPDEST ISZERO PUSH2 0x423 JUMPI PUSH1 0x0 PUSH2 0x3C8 DUP3 PUSH2 0xAC1 JUMP JUMPDEST SWAP1 POP PUSH1 0x0 PUSH2 0x3D5 DUP4 PUSH2 0xAFF JUMP JUMPDEST SGT ISZERO PUSH2 0x400 JUMPI PUSH1 0x3 SLOAD PUSH2 0x3E8 SWAP1 DUP3 PUSH2 0xB1C JUMP JUMPDEST PUSH1 0x3 SSTORE PUSH1 0x4 SLOAD PUSH2 0x3F8 SWAP1 DUP3 PUSH2 0xB2F JUMP JUMPDEST PUSH1 0x4 SSTORE PUSH2 0x421 JUMP JUMPDEST PUSH1 0x3 SLOAD PUSH2 0x40D SWAP1 DUP3 PUSH2 0xB2F JUMP JUMPDEST PUSH1 0x3 SSTORE PUSH1 0x4 SLOAD PUSH2 0x41D SWAP1 DUP3 PUSH2 0xB1C JUMP JUMPDEST PUSH1 0x4 SSTORE JUMPDEST POP JUMPDEST PUSH1 0x7 SSTORE JUMP JUMPDEST PUSH2 0x430 PUSH2 0xB3B JUMP JUMPDEST PUSH1 0x1 PUSH1 0x1 PUSH1 0xA0 SHL SUB AND PUSH2 0x441 PUSH2 0x4B8 JUMP JUMPDEST PUSH1 0x1 PUSH1 0x1 PUSH1 0xA0 SHL SUB AND EQ PUSH2 0x470 JUMPI PUSH1 0x40 MLOAD PUSH3 0x461BCD PUSH1 0xE5 SHL DUP2 MSTORE PUSH1 0x4 ADD PUSH2 0x467 SWAP1 PUSH2 0xE7D JUMP JUMPDEST PUSH1 0x40 MLOAD DUP1 SWAP2 SUB SWAP1 REVERT JUMPDEST PUSH2 0x47A PUSH1 0x0 PUSH2 0xB3F JUMP JUMPDEST JUMP JUMPDEST PUSH1 0x0 PUSH1 0x6 SLOAD PUSH1 0x0 EQ PUSH2 0x4B1 JUMPI PUSH2 0x4AC PUSH1 0x6 SLOAD PUSH2 0x4A6 PUSH3 0xF4240 PUSH1 0x4 SLOAD PUSH2 0xB8F SWAP1 SWAP2 SWAP1 PUSH4 0xFFFFFFFF AND JUMP JUMPDEST SWAP1 PUSH2 0xB9B JUMP JUMPDEST PUSH2 0x2FD JUMP JUMPDEST POP PUSH1 0x2 SLOAD SWAP1 JUMP JUMPDEST PUSH1 0x0 SLOAD PUSH1 0x1 PUSH1 0x1 PUSH1 0xA0 SHL SUB AND SWAP1 JUMP JUMPDEST PUSH2 0x4CF PUSH2 0xB3B JUMP JUMPDEST PUSH1 0x1 PUSH1 0x1 PUSH1 0xA0 SHL SUB AND PUSH2 0x4E0 PUSH2 0x4B8 JUMP JUMPDEST PUSH1 0x1 PUSH1 0x1 PUSH1 0xA0 SHL SUB AND EQ PUSH2 0x506 JUMPI PUSH1 0x40 MLOAD PUSH3 0x461BCD PUSH1 0xE5 SHL DUP2 MSTORE PUSH1 0x4 ADD PUSH2 0x467 SWAP1 PUSH2 0xE7D JUMP JUMPDEST PUSH1 0x8 SLOAD PUSH1 0xFF AND ISZERO PUSH2 0x529 JUMPI PUSH1 0x40 MLOAD PUSH3 0x461BCD PUSH1 0xE5 SHL DUP2 MSTORE PUSH1 0x4 ADD PUSH2 0x467 SWAP1 PUSH2 0xE46 JUMP JUMPDEST PUSH2 0x537 PUSH2 0x265 DUP3 PUSH1 0x2 PUSH2 0xB9B JUMP JUMPDEST PUSH2 0x545 PUSH2 0x204 DUP3 PUSH1 0x2 PUSH2 0xB9B JUMP JUMPDEST POP PUSH1 0x8 DUP1 SLOAD PUSH1 0xFF NOT AND PUSH1 0x1 OR SWAP1 SSTORE JUMP JUMPDEST PUSH2 0x55D PUSH2 0x398 JUMP JUMPDEST PUSH1 0xB SLOAD PUSH1 0x40 MLOAD PUSH4 0x852CD8D PUSH1 0xE3 SHL DUP2 MSTORE PUSH1 0x1 PUSH1 0x1 PUSH1 0xA0 SHL SUB SWAP1 SWAP2 AND SWAP1 PUSH4 0x42966C68 SWAP1 PUSH2 0x58D SWAP1 DUP5 SWAP1 PUSH1 0x4 ADD PUSH2 0xEE9 JUMP JUMPDEST PUSH1 0x0 PUSH1 0x40 MLOAD DUP1 DUP4 SUB DUP2 PUSH1 0x0 DUP8 DUP1 EXTCODESIZE ISZERO DUP1 ISZERO PUSH2 0x5A7 JUMPI PUSH1 0x0 DUP1 REVERT JUMPDEST POP GAS CALL ISZERO DUP1 ISZERO PUSH2 0x5BB JUMPI RETURNDATASIZE PUSH1 0x0 DUP1 RETURNDATACOPY RETURNDATASIZE PUSH1 0x0 REVERT JUMPDEST POP POP POP POP PUSH2 0x5C7 PUSH2 0x47C JUMP JUMPDEST PUSH1 0x2 DUP2 SWAP1 SSTORE PUSH1 0x0 SWAP1 PUSH2 0x5E3 SWAP1 PUSH3 0xF4240 SWAP1 PUSH2 0x4A6 SWAP1 DUP6 SWAP1 PUSH2 0xB8F JUMP JUMPDEST PUSH1 0x6 SLOAD SWAP1 SWAP2 POP PUSH2 0x5F3 SWAP1 DUP4 PUSH2 0xB2F JUMP JUMPDEST PUSH1 0x6 SSTORE PUSH1 0x4 SLOAD PUSH2 0x603 SWAP1 DUP3 PUSH2 0xB2F JUMP JUMPDEST PUSH1 0x4 SWAP1 DUP2 SSTORE PUSH1 0x8 SLOAD PUSH1 0x40 MLOAD PUSH4 0xA9059CBB PUSH1 0xE0 SHL DUP2 MSTORE PUSH2 0x100 SWAP1 SWAP2 DIV PUSH1 0x1 PUSH1 0x1 PUSH1 0xA0 SHL SUB AND SWAP2 DUP3 SWAP2 PUSH4 0xA9059CBB SWAP2 PUSH2 0x63E SWAP2 CALLER SWAP2 DUP8 SWAP2 ADD PUSH2 0xDA5 JUMP JUMPDEST PUSH1 0x20 PUSH1 0x40 MLOAD DUP1 DUP4 SUB DUP2 PUSH1 0x0 DUP8 DUP1 EXTCODESIZE ISZERO DUP1 ISZERO PUSH2 0x658 JUMPI PUSH1 0x0 DUP1 REVERT JUMPDEST POP GAS CALL ISZERO DUP1 ISZERO PUSH2 0x66C JUMPI RETURNDATASIZE PUSH1 0x0 DUP1 RETURNDATACOPY RETURNDATASIZE PUSH1 0x0 REVERT JUMPDEST POP POP POP POP PUSH1 0x40 MLOAD RETURNDATASIZE PUSH1 0x1F NOT PUSH1 0x1F DUP3 ADD AND DUP3 ADD DUP1 PUSH1 0x40 MSTORE POP DUP2 ADD SWAP1 PUSH2 0x690 SWAP2 SWAP1 PUSH2 0xCCE JUMP JUMPDEST PUSH2 0x6AC JUMPI PUSH1 0x40 MLOAD PUSH3 0x461BCD PUSH1 0xE5 SHL DUP2 MSTORE PUSH1 0x4 ADD PUSH2 0x467 SWAP1 PUSH2 0xDC9 JUMP JUMPDEST POP POP POP JUMP JUMPDEST PUSH1 0x6 SLOAD DUP2 JUMP JUMPDEST PUSH2 0x6BF PUSH2 0x398 JUMP JUMPDEST PUSH2 0x6C7 PUSH2 0x47C JUMP JUMPDEST PUSH1 0x2 DUP2 SWAP1 SSTORE PUSH1 0x0 SWAP1 PUSH2 0x6E0 SWAP1 PUSH2 0x4A6 DUP5 PUSH3 0xF4240 PUSH2 0xB8F JUMP JUMPDEST PUSH1 0xB SLOAD PUSH1 0x40 MLOAD PUSH4 0x140E25AD PUSH1 0xE3 SHL DUP2 MSTORE SWAP2 SWAP3 POP PUSH1 0x1 PUSH1 0x1 PUSH1 0xA0 SHL SUB AND SWAP1 PUSH4 0xA0712D68 SWAP1 PUSH2 0x711 SWAP1 DUP5 SWAP1 PUSH1 0x4 ADD PUSH2 0xEE9 JUMP JUMPDEST PUSH1 0x0 PUSH1 0x40 MLOAD DUP1 DUP4 SUB DUP2 PUSH1 0x0 DUP8 DUP1 EXTCODESIZE ISZERO DUP1 ISZERO PUSH2 0x72B JUMPI PUSH1 0x0 DUP1 REVERT JUMPDEST POP GAS CALL ISZERO DUP1 ISZERO PUSH2 0x73F JUMPI RETURNDATASIZE PUSH1 0x0 DUP1 RETURNDATACOPY RETURNDATASIZE PUSH1 0x0 REVERT JUMPDEST POP POP PUSH1 0x6 SLOAD PUSH2 0x751 SWAP3 POP SWAP1 POP DUP3 PUSH2 0xB1C JUMP JUMPDEST PUSH1 0x6 SSTORE PUSH1 0x4 SLOAD PUSH2 0x761 SWAP1 DUP4 PUSH2 0xB1C JUMP JUMPDEST PUSH1 0x4 SWAP1 DUP2 SSTORE PUSH1 0x8 SLOAD PUSH1 0x40 MLOAD PUSH4 0x23B872DD PUSH1 0xE0 SHL DUP2 MSTORE PUSH2 0x100 SWAP1 SWAP2 DIV PUSH1 0x1 PUSH1 0x1 PUSH1 0xA0 SHL SUB AND SWAP2 DUP3 SWAP2 PUSH4 0x23B872DD SWAP2 PUSH2 0x79E SWAP2 CALLER SWAP2 ADDRESS SWAP2 DUP10 SWAP2 ADD PUSH2 0xD81 JUMP JUMPDEST PUSH1 0x20 PUSH1 0x40 MLOAD DUP1 DUP4 SUB DUP2 PUSH1 0x0 DUP8 DUP1 EXTCODESIZE ISZERO DUP1 ISZERO PUSH2 0x7B8 JUMPI PUSH1 0x0 DUP1 REVERT JUMPDEST POP GAS CALL ISZERO DUP1 ISZERO PUSH2 0x7CC JUMPI RETURNDATASIZE PUSH1 0x0 DUP1 RETURNDATACOPY RETURNDATASIZE PUSH1 0x0 REVERT JUMPDEST POP POP POP POP PUSH1 0x40 MLOAD RETURNDATASIZE PUSH1 0x1F NOT PUSH1 0x1F DUP3 ADD AND DUP3 ADD DUP1 PUSH1 0x40 MSTORE POP DUP2 ADD SWAP1 PUSH2 0x7F0 SWAP2 SWAP1 PUSH2 0xCCE JUMP JUMPDEST PUSH2 0x6AC JUMPI PUSH1 0x40 MLOAD PUSH3 0x461BCD PUSH1 0xE5 SHL DUP2 MSTORE PUSH1 0x4 ADD PUSH2 0x467 SWAP1 PUSH2 0xEB2 JUMP JUMPDEST PUSH1 0xB SLOAD PUSH1 0x40 MLOAD PUSH4 0x70A08231 PUSH1 0xE0 SHL DUP2 MSTORE PUSH1 0x0 SWAP2 PUSH1 0x1 PUSH1 0x1 PUSH1 0xA0 SHL SUB AND SWAP1 PUSH4 0x70A08231 SWAP1 PUSH2 0x2AD SWAP1 CALLER SWAP1 PUSH1 0x4 ADD PUSH2 0xD6D JUMP JUMPDEST PUSH2 0x845 PUSH2 0x398 JUMP JUMPDEST PUSH1 0xA SLOAD PUSH1 0x40 MLOAD PUSH4 0x852CD8D PUSH1 0xE3 SHL DUP2 MSTORE PUSH1 0x1 PUSH1 0x1 PUSH1 0xA0 SHL SUB SWAP1 SWAP2 AND SWAP1 PUSH4 0x42966C68 SWAP1 PUSH2 0x875 SWAP1 DUP5 SWAP1 PUSH1 0x4 ADD PUSH2 0xEE9 JUMP JUMPDEST PUSH1 0x0 PUSH1 0x40 MLOAD DUP1 DUP4 SUB DUP2 PUSH1 0x0 DUP8 DUP1 EXTCODESIZE ISZERO DUP1 ISZERO PUSH2 0x88F JUMPI PUSH1 0x0 DUP1 REVERT JUMPDEST POP GAS CALL ISZERO DUP1 ISZERO PUSH2 0x8A3 JUMPI RETURNDATASIZE PUSH1 0x0 DUP1 RETURNDATACOPY RETURNDATASIZE PUSH1 0x0 REVERT JUMPDEST POP POP POP POP PUSH2 0x8AF PUSH2 0x932 JUMP JUMPDEST PUSH1 0x1 DUP2 SWAP1 SSTORE PUSH1 0x0 SWAP1 PUSH2 0x8CB SWAP1 PUSH3 0xF4240 SWAP1 PUSH2 0x4A6 SWAP1 DUP6 SWAP1 PUSH2 0xB8F JUMP JUMPDEST PUSH1 0x5 SLOAD SWAP1 SWAP2 POP PUSH2 0x8DB SWAP1 DUP4 PUSH2 0xB2F JUMP JUMPDEST PUSH1 0x5 SSTORE PUSH1 0x3 SLOAD PUSH2 0x8EB SWAP1 DUP3 PUSH2 0xB2F JUMP JUMPDEST PUSH1 0x3 SSTORE PUSH1 0x8 SLOAD PUSH1 0x40 MLOAD PUSH4 0xA9059CBB PUSH1 0xE0 SHL DUP2 MSTORE PUSH2 0x100 SWAP1 SWAP2 DIV PUSH1 0x1 PUSH1 0x1 PUSH1 0xA0 SHL SUB AND SWAP1 DUP2 SWAP1 PUSH4 0xA9059CBB SWAP1 PUSH2 0x63E SWAP1 CALLER SWAP1 DUP7 SWAP1 PUSH1 0x4 ADD PUSH2 0xDA5 JUMP JUMPDEST PUSH1 0x3 SLOAD DUP2 JUMP JUMPDEST PUSH1 0x1 SLOAD DUP2 JUMP JUMPDEST PUSH1 0x0 PUSH1 0x5 SLOAD PUSH1 0x0 EQ PUSH2 0x95C JUMPI PUSH2 0x4AC PUSH1 0x5 SLOAD PUSH2 0x4A6 PUSH3 0xF4240 PUSH1 0x3 SLOAD PUSH2 0xB8F SWAP1 SWAP2 SWAP1 PUSH4 0xFFFFFFFF AND JUMP JUMPDEST POP PUSH1 0x1 SLOAD SWAP1 JUMP JUMPDEST PUSH2 0x96B PUSH2 0xB3B JUMP JUMPDEST PUSH1 0x1 PUSH1 0x1 PUSH1 0xA0 SHL SUB AND PUSH2 0x97C PUSH2 0x4B8 JUMP JUMPDEST PUSH1 0x1 PUSH1 0x1 PUSH1 0xA0 SHL SUB AND EQ PUSH2 0x9A2 JUMPI PUSH1 0x40 MLOAD PUSH3 0x461BCD PUSH1 0xE5 SHL DUP2 MSTORE PUSH1 0x4 ADD PUSH2 0x467 SWAP1 PUSH2 0xE7D JUMP JUMPDEST PUSH1 0x1 PUSH1 0x1 PUSH1 0xA0 SHL SUB DUP2 AND PUSH2 0x9C8 JUMPI PUSH1 0x40 MLOAD PUSH3 0x461BCD PUSH1 0xE5 SHL DUP2 MSTORE PUSH1 0x4 ADD PUSH2 0x467 SWAP1 PUSH2 0xE00 JUMP JUMPDEST PUSH2 0x9D1 DUP2 PUSH2 0xB3F JUMP JUMPDEST POP JUMP JUMPDEST PUSH1 0x7 SLOAD DUP2 JUMP JUMPDEST PUSH2 0x9E2 PUSH2 0x398 JUMP JUMPDEST PUSH2 0x9EA PUSH2 0x932 JUMP JUMPDEST PUSH1 0x1 DUP2 SWAP1 SSTORE PUSH1 0x0 SWAP1 PUSH2 0xA03 SWAP1 PUSH2 0x4A6 DUP5 PUSH3 0xF4240 PUSH2 0xB8F JUMP JUMPDEST PUSH1 0xA SLOAD PUSH1 0x40 MLOAD PUSH4 0x140E25AD PUSH1 0xE3 SHL DUP2 MSTORE SWAP2 SWAP3 POP PUSH1 0x1 PUSH1 0x1 PUSH1 0xA0 SHL SUB AND SWAP1 PUSH4 0xA0712D68 SWAP1 PUSH2 0xA34 SWAP1 DUP5 SWAP1 PUSH1 0x4 ADD PUSH2 0xEE9 JUMP JUMPDEST PUSH1 0x0 PUSH1 0x40 MLOAD DUP1 DUP4 SUB DUP2 PUSH1 0x0 DUP8 DUP1 EXTCODESIZE ISZERO DUP1 ISZERO PUSH2 0xA4E JUMPI PUSH1 0x0 DUP1 REVERT JUMPDEST POP GAS CALL ISZERO DUP1 ISZERO PUSH2 0xA62 JUMPI RETURNDATASIZE PUSH1 0x0 DUP1 RETURNDATACOPY RETURNDATASIZE PUSH1 0x0 REVERT JUMPDEST POP POP PUSH1 0x5 SLOAD PUSH2 0xA74 SWAP3 POP SWAP1 POP DUP3 PUSH2 0xB1C JUMP JUMPDEST PUSH1 0x5 SSTORE PUSH1 0x3 SLOAD PUSH2 0xA84 SWAP1 DUP4 PUSH2 0xB1C JUMP JUMPDEST PUSH1 0x3 SSTORE PUSH1 0x8 SLOAD PUSH1 0x40 MLOAD PUSH4 0x23B872DD PUSH1 0xE0 SHL DUP2 MSTORE PUSH2 0x100 SWAP1 SWAP2 DIV PUSH1 0x1 PUSH1 0x1 PUSH1 0xA0 SHL SUB AND SWAP1 DUP2 SWAP1 PUSH4 0x23B872DD SWAP1 PUSH2 0x79E SWAP1 CALLER SWAP1 ADDRESS SWAP1 DUP9 SWAP1 PUSH1 0x4 ADD PUSH2 0xD81 JUMP JUMPDEST PUSH1 0x0 DUP1 PUSH2 0xACD DUP4 PUSH2 0xBA7 JUMP JUMPDEST SWAP1 POP PUSH2 0xAF6 PUSH3 0xF4240 PUSH2 0x4A6 PUSH2 0xAE2 DUP5 PUSH2 0xC06 JUMP JUMPDEST PUSH2 0xAF0 PUSH1 0x3 SLOAD PUSH1 0x4 SLOAD PUSH2 0xC76 JUMP JUMPDEST SWAP1 PUSH2 0xB8F JUMP JUMPDEST SWAP2 POP POP JUMPDEST SWAP2 SWAP1 POP JUMP JUMPDEST PUSH1 0x0 PUSH1 0x7 SLOAD DUP3 GT ISZERO PUSH2 0xB13 JUMPI POP PUSH1 0x1 PUSH2 0xAFA JUMP JUMPDEST POP PUSH1 0x0 NOT PUSH2 0xAFA JUMP JUMPDEST PUSH1 0x0 PUSH2 0xB28 DUP3 DUP5 PUSH2 0xEF2 JUMP JUMPDEST SWAP4 SWAP3 POP POP POP JUMP JUMPDEST PUSH1 0x0 PUSH2 0xB28 DUP3 DUP5 PUSH2 0x1060 JUMP JUMPDEST CALLER SWAP1 JUMP JUMPDEST PUSH1 0x0 DUP1 SLOAD PUSH1 0x1 PUSH1 0x1 PUSH1 0xA0 SHL SUB DUP4 DUP2 AND PUSH1 0x1 PUSH1 0x1 PUSH1 0xA0 SHL SUB NOT DUP4 AND DUP2 OR DUP5 SSTORE PUSH1 0x40 MLOAD SWAP2 SWAP1 SWAP3 AND SWAP3 DUP4 SWAP2 PUSH32 0x8BE0079C531659141344CD1FD0A4F28419497F9722A3DAAFE3B4186F6B6457E0 SWAP2 SWAP1 LOG3 POP POP JUMP JUMPDEST PUSH1 0x0 PUSH2 0xB28 DUP3 DUP5 PUSH2 0x1041 JUMP JUMPDEST PUSH1 0x0 PUSH2 0xB28 DUP3 DUP5 PUSH2 0xF0A JUMP JUMPDEST PUSH1 0x0 PUSH1 0x7 SLOAD DUP3 GT ISZERO PUSH2 0xBE3 JUMPI PUSH2 0xBDC PUSH3 0xF4240 PUSH2 0xBD6 PUSH1 0x7 SLOAD PUSH2 0x4A6 PUSH3 0xF4240 DUP8 PUSH2 0xB8F SWAP1 SWAP2 SWAP1 PUSH4 0xFFFFFFFF AND JUMP JUMPDEST SWAP1 PUSH2 0xB2F JUMP JUMPDEST SWAP1 POP PUSH2 0xAFA JUMP JUMPDEST PUSH2 0xBDC PUSH3 0xF4240 PUSH2 0xBD6 DUP5 PUSH2 0x4A6 PUSH3 0xF4240 PUSH1 0x7 SLOAD PUSH2 0xB8F SWAP1 SWAP2 SWAP1 PUSH4 0xFFFFFFFF AND JUMP JUMPDEST PUSH1 0x0 DUP1 PUSH2 0xC14 DUP4 PUSH1 0x3 PUSH2 0x1041 JUMP JUMPDEST PUSH3 0xF4240 PUSH2 0xC23 PUSH1 0x2 DUP7 PUSH2 0xF70 JUMP JUMPDEST PUSH2 0xC2D SWAP2 SWAP1 PUSH2 0xF0A JUMP JUMPDEST PUSH2 0xC38 SWAP1 PUSH1 0x9 PUSH2 0x1041 JUMP JUMPDEST PUSH2 0xC42 SWAP2 SWAP1 PUSH2 0xEF2 JUMP JUMPDEST PUSH2 0xC4F SWAP1 PUSH3 0xF4240 PUSH2 0xEF2 JUMP JUMPDEST SWAP1 POP PUSH5 0xE8D4A51000 PUSH2 0xC61 DUP3 DUP3 PUSH2 0xF0A JUMP JUMPDEST PUSH2 0xC6E SWAP1 PUSH3 0xF4240 PUSH2 0x1060 JUMP JUMPDEST SWAP5 SWAP4 POP POP POP POP JUMP JUMPDEST PUSH1 0x0 DUP2 DUP4 GT ISZERO PUSH2 0xC86 JUMPI DUP2 PUSH2 0xB28 JUMP JUMPDEST POP SWAP1 SWAP2 SWAP1 POP JUMP JUMPDEST DUP1 MLOAD PUSH10 0xFFFFFFFFFFFFFFFFFFFF DUP2 AND DUP2 EQ PUSH2 0xAFA JUMPI PUSH1 0x0 DUP1 REVERT JUMPDEST PUSH1 0x0 PUSH1 0x20 DUP3 DUP5 SUB SLT ISZERO PUSH2 0xCB8 JUMPI DUP1 DUP2 REVERT JUMPDEST DUP2 CALLDATALOAD PUSH1 0x1 PUSH1 0x1 PUSH1 0xA0 SHL SUB DUP2 AND DUP2 EQ PUSH2 0xB28 JUMPI DUP2 DUP3 REVERT JUMPDEST PUSH1 0x0 PUSH1 0x20 DUP3 DUP5 SUB SLT ISZERO PUSH2 0xCDF JUMPI DUP1 DUP2 REVERT JUMPDEST DUP2 MLOAD DUP1 ISZERO ISZERO DUP2 EQ PUSH2 0xB28 JUMPI DUP2 DUP3 REVERT JUMPDEST PUSH1 0x0 PUSH1 0x20 DUP3 DUP5 SUB SLT ISZERO PUSH2 0xCFF JUMPI DUP1 DUP2 REVERT JUMPDEST POP CALLDATALOAD SWAP2 SWAP1 POP JUMP JUMPDEST PUSH1 0x0 PUSH1 0x20 DUP3 DUP5 SUB SLT ISZERO PUSH2 0xD17 JUMPI DUP1 DUP2 REVERT JUMPDEST POP MLOAD SWAP2 SWAP1 POP JUMP JUMPDEST PUSH1 0x0 DUP1 PUSH1 0x0 DUP1 PUSH1 0x0 PUSH1 0xA0 DUP7 DUP9 SUB SLT ISZERO PUSH2 0xD35 JUMPI DUP1 DUP2 REVERT JUMPDEST PUSH2 0xD3E DUP7 PUSH2 0xC8D JUMP JUMPDEST SWAP5 POP PUSH1 0x20 DUP7 ADD MLOAD SWAP4 POP PUSH1 0x40 DUP7 ADD MLOAD SWAP3 POP PUSH1 0x60 DUP7 ADD MLOAD SWAP2 POP PUSH2 0xD61 PUSH1 0x80 DUP8 ADD PUSH2 0xC8D JUMP JUMPDEST SWAP1 POP SWAP3 SWAP6 POP SWAP3 SWAP6 SWAP1 SWAP4 POP JUMP JUMPDEST PUSH1 0x1 PUSH1 0x1 PUSH1 0xA0 SHL SUB SWAP2 SWAP1 SWAP2 AND DUP2 MSTORE PUSH1 0x20 ADD SWAP1 JUMP JUMPDEST PUSH1 0x1 PUSH1 0x1 PUSH1 0xA0 SHL SUB SWAP4 DUP5 AND DUP2 MSTORE SWAP2 SWAP1 SWAP3 AND PUSH1 0x20 DUP3 ADD MSTORE PUSH1 0x40 DUP2 ADD SWAP2 SWAP1 SWAP2 MSTORE PUSH1 0x60 ADD SWAP1 JUMP JUMPDEST PUSH1 0x1 PUSH1 0x1 PUSH1 0xA0 SHL SUB SWAP3 SWAP1 SWAP3 AND DUP3 MSTORE PUSH1 0x20 DUP3 ADD MSTORE PUSH1 0x40 ADD SWAP1 JUMP JUMPDEST SWAP1 ISZERO ISZERO DUP2 MSTORE PUSH1 0x20 ADD SWAP1 JUMP JUMPDEST PUSH1 0x20 DUP1 DUP3 MSTORE PUSH1 0x19 SWAP1 DUP3 ADD MSTORE PUSH32 0x4E6F7420656E6F756768207573646320617661696C61626C6500000000000000 PUSH1 0x40 DUP3 ADD MSTORE PUSH1 0x60 ADD SWAP1 JUMP JUMPDEST PUSH1 0x20 DUP1 DUP3 MSTORE PUSH1 0x26 SWAP1 DUP3 ADD MSTORE PUSH32 0x4F776E61626C653A206E6577206F776E657220697320746865207A65726F2061 PUSH1 0x40 DUP3 ADD MSTORE PUSH6 0x646472657373 PUSH1 0xD0 SHL PUSH1 0x60 DUP3 ADD MSTORE PUSH1 0x80 ADD SWAP1 JUMP JUMPDEST PUSH1 0x20 DUP1 DUP3 MSTORE PUSH1 0x1F SWAP1 DUP3 ADD MSTORE PUSH32 0x54686520706F6F6C2077617320616C726561647920696E697469617465642E00 PUSH1 0x40 DUP3 ADD MSTORE PUSH1 0x60 ADD SWAP1 JUMP JUMPDEST PUSH1 0x20 DUP1 DUP3 MSTORE DUP2 DUP2 ADD MSTORE PUSH32 0x4F776E61626C653A2063616C6C6572206973206E6F7420746865206F776E6572 PUSH1 0x40 DUP3 ADD MSTORE PUSH1 0x60 ADD SWAP1 JUMP JUMPDEST PUSH1 0x20 DUP1 DUP3 MSTORE PUSH1 0x1B SWAP1 DUP3 ADD MSTORE PUSH32 0x596F7520646F6E2774206861766520656E6F75676820555344432E0000000000 PUSH1 0x40 DUP3 ADD MSTORE PUSH1 0x60 ADD SWAP1 JUMP JUMPDEST SWAP1 DUP2 MSTORE PUSH1 0x20 ADD SWAP1 JUMP JUMPDEST PUSH1 0x0 DUP3 NOT DUP3 GT ISZERO PUSH2 0xF05 JUMPI PUSH2 0xF05 PUSH2 0x1077 JUMP JUMPDEST POP ADD SWAP1 JUMP JUMPDEST PUSH1 0x0 DUP3 PUSH2 0xF25 JUMPI PUSH4 0x4E487B71 PUSH1 0xE0 SHL DUP2 MSTORE PUSH1 0x12 PUSH1 0x4 MSTORE PUSH1 0x24 DUP2 REVERT JUMPDEST POP DIV SWAP1 JUMP JUMPDEST DUP1 DUP3 JUMPDEST PUSH1 0x1 DUP1 DUP7 GT PUSH2 0xF3C JUMPI POP PUSH2 0xF67 JUMP JUMPDEST DUP2 DUP8 DIV DUP3 GT ISZERO PUSH2 0xF4E JUMPI PUSH2 0xF4E PUSH2 0x1077 JUMP JUMPDEST DUP1 DUP7 AND ISZERO PUSH2 0xF5B JUMPI SWAP2 DUP2 MUL SWAP2 JUMPDEST SWAP5 SWAP1 SWAP5 SHR SWAP4 DUP1 MUL PUSH2 0xF2D JUMP JUMPDEST SWAP5 POP SWAP5 SWAP3 POP POP POP JUMP JUMPDEST PUSH1 0x0 PUSH2 0xB28 PUSH1 0x0 NOT PUSH1 0xFF DUP6 AND DUP5 PUSH1 0x0 DUP3 PUSH2 0xF8C JUMPI POP PUSH1 0x1 PUSH2 0xB28 JUMP JUMPDEST DUP2 PUSH2 0xF99 JUMPI POP PUSH1 0x0 PUSH2 0xB28 JUMP JUMPDEST DUP2 PUSH1 0x1 DUP2 EQ PUSH2 0xFAF JUMPI PUSH1 0x2 DUP2 EQ PUSH2 0xFB9 JUMPI PUSH2 0xFE6 JUMP JUMPDEST PUSH1 0x1 SWAP2 POP POP PUSH2 0xB28 JUMP JUMPDEST PUSH1 0xFF DUP5 GT ISZERO PUSH2 0xFCA JUMPI PUSH2 0xFCA PUSH2 0x1077 JUMP JUMPDEST PUSH1 0x1 DUP5 SHL SWAP2 POP DUP5 DUP3 GT ISZERO PUSH2 0xFE0 JUMPI PUSH2 0xFE0 PUSH2 0x1077 JUMP JUMPDEST POP PUSH2 0xB28 JUMP JUMPDEST POP PUSH1 0x20 DUP4 LT PUSH2 0x133 DUP4 LT AND PUSH1 0x4E DUP5 LT PUSH1 0xB DUP5 LT AND OR ISZERO PUSH2 0x1019 JUMPI POP DUP2 DUP2 EXP DUP4 DUP2 GT ISZERO PUSH2 0x1014 JUMPI PUSH2 0x1014 PUSH2 0x1077 JUMP JUMPDEST PUSH2 0xB28 JUMP JUMPDEST PUSH2 0x1026 DUP5 DUP5 DUP5 PUSH1 0x1 PUSH2 0xF2A JUMP JUMPDEST DUP1 DUP7 DIV DUP3 GT ISZERO PUSH2 0x1038 JUMPI PUSH2 0x1038 PUSH2 0x1077 JUMP JUMPDEST MUL SWAP5 SWAP4 POP POP POP POP JUMP JUMPDEST PUSH1 0x0 DUP2 PUSH1 0x0 NOT DIV DUP4 GT DUP3 ISZERO ISZERO AND ISZERO PUSH2 0x105B JUMPI PUSH2 0x105B PUSH2 0x1077 JUMP JUMPDEST POP MUL SWAP1 JUMP JUMPDEST PUSH1 0x0 DUP3 DUP3 LT ISZERO PUSH2 0x1072 JUMPI PUSH2 0x1072 PUSH2 0x1077 JUMP JUMPDEST POP SUB SWAP1 JUMP JUMPDEST PUSH4 0x4E487B71 PUSH1 0xE0 SHL PUSH1 0x0 MSTORE PUSH1 0x11 PUSH1 0x4 MSTORE PUSH1 0x24 PUSH1 0x0 REVERT INVALID LOG2 PUSH5 0x6970667358 0x22 SLT KECCAK256 SHR 0xBA SWAP14 0xE5 0xA7 SLOAD 0xD9 0xFB 0xF7 PC 0xF6 DUP3 DUP12 0x25 CALLVALUE XOR NUMBER LOG3 0xC 0xEE 0x5D 0xD5 0x4E RETURNDATACOPY EXTCODECOPY DUP8 CALLDATALOAD 0x2D PUSH20 0x7DC2A464736F6C63430008000033000000000000 ",
  "sha1": "0f3d638418f8a3af66cc8fae0874533772fae681",
  "source": "// SPDX-License-Identifier: MIT\npragma solidity ^0.8.0;\n\nimport {ERC20} from \"@openzeppelin/contracts/token/ERC20/ERC20.sol\";\nimport \"@chainlink/contracts/src/v0.8/interfaces/AggregatorV3Interface.sol\";\nimport \"@openzeppelin/contracts/utils/math/SafeMath.sol\";\nimport \"@openzeppelin/contracts/access/Ownable.sol\";\n\n\ninterface IERC20 {\n    function transfer(address recipient, uint256 amount) external returns (bool);\n    function transferFrom(address sender, address recipient, uint256 amount) external returns (bool);\n    function approve(address spender, uint256 amount) external returns (bool);\n}\n\ncontract BTCUP is ERC20 {\n    constructor() ERC20(\"Bitcoin Up\", \"BTCUP\") {\n    }\n\n    function mint(uint256 quantity) public {\n        _mint(tx.origin, quantity);\n    }\n\n    function burn(uint256 quantity) public {\n        _burn(tx.origin, quantity);\n    }\n\n    function decimals() public view override returns (uint8) {\n        return 6;\n    }\n}\n\ncontract BTCDOWN is ERC20 {\n    constructor() ERC20(\"Bitcoin Down\", \"BTCDOWN\") {\n    }\n\n    function mint(uint256 quantity) public {\n        _mint(tx.origin, quantity);\n    }\n\n    function burn(uint256 quantity) public {\n        _burn(tx.origin, quantity);\n    }\n\n    function decimals() public view override returns (uint8) {\n        return 6;\n    }\n}\n\ncontract LeveragedTrading is Ownable {\n    using SafeMath for uint256;\n\n    uint256 public priceBtcUp = 10 ** 6;\n    uint256 public priceBtcDown = 10 ** 6;        // 6 decimals\n\n    uint256 public collateralBtcUp = 0;          //6 decimals\n    uint256 public collateralBtcDown = 0;\n\n    uint256 public amountBtcUp = 0;           // 6 decimals\n    uint256 public amountBtcDown = 0;         // 6 decimals\n\n    uint256 public lastBtcPrice = 0;       // 8 decimals, chainlink conventions\n\n    bool public poolIsInitiated = false;\n\n    address addressUsdc = 0xb7a4F3E9097C08dA09517b5aB877F7a917224ede;  // <- Kovan  //0xeb8f08a975Ab53E34D8a0330E0D34de942C95926;\n    address addressBtcUSDFeed =  0x6135b13325bfC4B00278B4abC5e20bbce2D6580e; // <- Kovan          // 0xECe365B379E1dD183B20fc5f022230C044d51404;\n\n    BTCUP btcUp = new BTCUP();\n    BTCDOWN btcDown = new BTCDOWN();\n\n\n    function initiatePool(uint256 amountUsdc) public onlyOwner {\n        require(!poolIsInitiated, \"The pool was already initiated.\");\n\n        issueBtcUp(amountUsdc.div(2));\n        issueBtcDown(amountUsdc.div(2));\n\n        poolIsInitiated = true;\n    }\n\n    function issueBtcUp(uint256 amountUsdc) public {\n        rebalanceLeveragedTokens();\n        \n        priceBtcUp = getBtcUpPrice();\n        uint256 amountLeveragedTokens = amountUsdc.mul(10 ** 6).div(priceBtcUp);\n\n        btcUp.mint(amountLeveragedTokens);\n        amountBtcUp = amountBtcUp.add(amountLeveragedTokens);\n        collateralBtcUp = collateralBtcUp.add(amountUsdc);\n\n        IERC20 usdc = IERC20(addressUsdc);\n        require(usdc.transferFrom(msg.sender, address(this), amountUsdc), \"You don't have enough USDC.\");\n    }\n\n    function issueBtcDown(uint256 amountUsdc) public {\n        rebalanceLeveragedTokens();\n        \n        priceBtcDown = getBtcDownPrice();\n        uint256 amountLeveragedTokens = amountUsdc.mul(10 ** 6).div(priceBtcDown);\n\n        btcDown.mint(amountLeveragedTokens);\n        amountBtcDown = amountBtcDown.add(amountLeveragedTokens);\n        collateralBtcDown = collateralBtcDown.add(amountUsdc);\n\n        IERC20 usdc = IERC20(addressUsdc);\n        require(usdc.transferFrom(msg.sender, address(this), amountUsdc), \"You don't have enough USDC.\");\n    }\n\n    function redeemBtcUp(uint256 amountLeveragedTokens) public {\n        rebalanceLeveragedTokens();\n        btcUp.burn(amountLeveragedTokens);\n\n        priceBtcUp = getBtcUpPrice();\n        uint256 amountUsdc = amountLeveragedTokens.mul(priceBtcUp).div(10 ** 6);\n\n        amountBtcUp = amountBtcUp.sub(amountLeveragedTokens);\n        collateralBtcUp = collateralBtcUp.sub(amountUsdc);\n\n        IERC20 usdc = IERC20(addressUsdc);\n        require(usdc.transfer(msg.sender, amountUsdc), \"Not enough usdc available\");\n    }\n\n    function redeemBtcDown(uint256 amountLeveragedTokens) public {\n        rebalanceLeveragedTokens();\n        btcDown.burn(amountLeveragedTokens);\n\n        priceBtcDown = getBtcDownPrice();\n        uint256 amountUsdc = amountLeveragedTokens.mul(priceBtcDown).div(10 ** 6);\n        \n        amountBtcDown = amountBtcDown.sub(amountLeveragedTokens);\n        collateralBtcDown = collateralBtcDown.sub(amountUsdc);\n\n        IERC20 usdc = IERC20(addressUsdc);\n        require(usdc.transfer(msg.sender,  amountUsdc), \"Not enough usdc available\");\n\n    }\n\n    function rebalanceLeveragedTokens() public {\n        uint256 btcPrice = getBtcPrice();\n        if ((collateralBtcUp > 0) && (collateralBtcDown > 0)) {\n            uint256 rebalanceAmount = getRebalanceAmount(btcPrice);\n            if (getSign(btcPrice) > 0) {\n                collateralBtcUp = collateralBtcUp.add(rebalanceAmount);\n                collateralBtcDown = collateralBtcDown.sub(rebalanceAmount);\n            }\n\n            else {\n                collateralBtcUp = collateralBtcUp.sub(rebalanceAmount);\n                collateralBtcDown = collateralBtcDown.add(rebalanceAmount);\n            }\n\n        }\n\n        lastBtcPrice = btcPrice;\n    }\n\n/////////////////////////////////////////////////////////////////////////////////////////////////////////////////////////////////////////////////////////////////////////\n\n    function getSign(uint256 btcPrice) internal view returns (int256){\n        if (btcPrice > lastBtcPrice) {\n            return 1;\n        }\n        else {\n            return -1;\n        }\n    }\n \n    function getRebalanceAmount(uint256 priceBtc) internal view returns (uint256){\n        uint256 priceDiff = getPriceDiff(priceBtc);\n\n        return min(collateralBtcUp, collateralBtcDown).mul(L(priceDiff)).div(10 ** 6);\n    }\n\n// getBtcUpPrice() 6 decimals\n    function getBtcUpPrice() public view returns (uint256) {\n        return amountBtcUp == 0 ?  priceBtcUp : collateralBtcUp.mul(10 ** 6).div(amountBtcUp);\n    }\n\n// getBtcDownPrice() 6 decimals\n    function getBtcDownPrice() public view returns (uint256) {//6 decimals\n        return amountBtcDown == 0 ?  priceBtcDown : collateralBtcDown.mul(10 ** 6).div(amountBtcDown);\n    }\n\n// get the price of our asset with 8 decimals\n    function getBtcPrice() public view returns (uint256) {\n        AggregatorV3Interface priceFeed = AggregatorV3Interface(addressBtcUSDFeed);\n        (,int256 answer,,,) = priceFeed.latestRoundData();\n\n         return uint256(answer);             // we call chainlink oracle to get the price of the asset\n         \n    }\n    \n    function min(uint256 a, uint256 b) internal pure returns (uint256) {\n        return a <= b ? a : b;\n    }\n\n    function L(uint256 x) internal pure returns (uint256) {            //6  decimals\n\n        uint256 denom = 9 * (x ** 2 / 10 ** 6)  + 3 * x + 10 ** 6;\n        uint256 num = 10 ** 12;\n\n        return 10 ** 6 - num / denom;\n    }\n\n    function getPriceDiff(uint256 btcPrice) internal view returns (uint256) {     //6 decimals\n        if (btcPrice > lastBtcPrice) {\n            return btcPrice.mul(10 ** 6).div(lastBtcPrice).sub(10 ** 6);\n        }\n\n        else {\n            return lastBtcPrice.mul(10 ** 6).div(btcPrice).sub(10 ** 6);\n        }\n\n    }\n\n    function getBtcupBalance() public view returns(uint256) {\n        return btcUp.balanceOf(msg.sender);\n    }\n\n    function getBtcdownBalance() public view returns(uint256) {\n        return btcDown.balanceOf(msg.sender);\n    }\n\n}\n\n",
  "sourcePath": "contracts/LeveragedTrading.sol",
  "type": "contract"
}