{
  "abi": [
    {
      "inputs": [],
      "name": "amountBtcDown",
      "outputs": [
        {
          "internalType": "uint256",
          "name": "",
          "type": "uint256"
        }
      ],
      "stateMutability": "view",
      "type": "function"
    },
    {
      "inputs": [],
      "name": "amountBtcUp",
      "outputs": [
        {
          "internalType": "uint256",
          "name": "",
          "type": "uint256"
        }
      ],
      "stateMutability": "view",
      "type": "function"
    },
    {
      "inputs": [],
      "name": "collateralBtcDown",
      "outputs": [
        {
          "internalType": "uint256",
          "name": "",
          "type": "uint256"
        }
      ],
      "stateMutability": "view",
      "type": "function"
    },
    {
      "inputs": [],
      "name": "collateralBtcUp",
      "outputs": [
        {
          "internalType": "uint256",
          "name": "",
          "type": "uint256"
        }
      ],
      "stateMutability": "view",
      "type": "function"
    },
    {
      "inputs": [],
      "name": "getBtcDownPrice",
      "outputs": [
        {
          "internalType": "uint256",
          "name": "",
          "type": "uint256"
        }
      ],
      "stateMutability": "view",
      "type": "function"
    },
    {
      "inputs": [],
      "name": "getBtcUpPrice",
      "outputs": [
        {
          "internalType": "uint256",
          "name": "",
          "type": "uint256"
        }
      ],
      "stateMutability": "view",
      "type": "function"
    },
    {
      "inputs": [],
      "name": "getBtcdownBalance",
      "outputs": [
        {
          "internalType": "uint256",
          "name": "",
          "type": "uint256"
        }
      ],
      "stateMutability": "view",
      "type": "function"
    },
    {
      "inputs": [],
      "name": "getBtcupBalance",
      "outputs": [
        {
          "internalType": "uint256",
          "name": "",
          "type": "uint256"
        }
      ],
      "stateMutability": "view",
      "type": "function"
    },
    {
      "inputs": [
        {
          "internalType": "uint256",
          "name": "amountLeveragedTokens",
          "type": "uint256"
        }
      ],
      "name": "initiatePool",
      "outputs": [],
      "stateMutability": "nonpayable",
      "type": "function"
    },
    {
      "inputs": [
        {
          "internalType": "uint256",
          "name": "amountLeveragedTokens",
          "type": "uint256"
        }
      ],
      "name": "issueBtcDown",
      "outputs": [],
      "stateMutability": "nonpayable",
      "type": "function"
    },
    {
      "inputs": [
        {
          "internalType": "uint256",
          "name": "amountLeveragedTokens",
          "type": "uint256"
        }
      ],
      "name": "issueBtcUp",
      "outputs": [],
      "stateMutability": "nonpayable",
      "type": "function"
    },
    {
      "inputs": [],
      "name": "lastBtcPrice",
      "outputs": [
        {
          "internalType": "uint256",
          "name": "",
          "type": "uint256"
        }
      ],
      "stateMutability": "view",
      "type": "function"
    },
    {
      "inputs": [],
      "name": "poolIsInitiated",
      "outputs": [
        {
          "internalType": "bool",
          "name": "",
          "type": "bool"
        }
      ],
      "stateMutability": "view",
      "type": "function"
    },
    {
      "inputs": [],
      "name": "priceBtcDown",
      "outputs": [
        {
          "internalType": "uint256",
          "name": "",
          "type": "uint256"
        }
      ],
      "stateMutability": "view",
      "type": "function"
    },
    {
      "inputs": [],
      "name": "priceBtcUp",
      "outputs": [
        {
          "internalType": "uint256",
          "name": "",
          "type": "uint256"
        }
      ],
      "stateMutability": "view",
      "type": "function"
    },
    {
      "inputs": [],
      "name": "rebalanceLeveragedTokens",
      "outputs": [],
      "stateMutability": "nonpayable",
      "type": "function"
    },
    {
      "inputs": [
        {
          "internalType": "uint256",
          "name": "amountLeveragedTokens",
          "type": "uint256"
        }
      ],
      "name": "redeemBtcDown",
      "outputs": [],
      "stateMutability": "nonpayable",
      "type": "function"
    },
    {
      "inputs": [
        {
          "internalType": "uint256",
          "name": "amountLeveragedTokens",
          "type": "uint256"
        }
      ],
      "name": "redeemBtcUp",
      "outputs": [],
      "stateMutability": "nonpayable",
      "type": "function"
    }
  ],
  "bytecode": "608060408190526000805460ff19168155620f424060018190556002556003819055600481905560058190556006819055600755600880546001600160a01b031990811673b7a4f3e9097c08da09517b5ab877f7a917224ede1790915560098054909116736135b13325bfc4b00278b4abc5e20bbce2d6580e1790556100849061011c565b604051809103906000f0801580156100a0573d6000803e3d6000fd5b50600a80546001600160a01b0319166001600160a01b03929092169190911790556040516100cd90610129565b604051809103906000f0801580156100e9573d6000803e3d6000fd5b50600b80546001600160a01b0319166001600160a01b039290921691909117905534801561011657600080fd5b50610136565b610e41806110a583390190565b610e4580611ee683390190565b610f60806101456000396000f3fe608060405234801561001057600080fd5b50600436106101155760003560e01c8063b75cbe0b116100a2578063dde7be2c11610071578063dde7be2c146101d3578063f0156e8a146101db578063f06847d6146101e3578063f4352c57146101eb578063f530c04a146101f357610115565b8063b75cbe0b1461019d578063c46d4f09146101a5578063c7e3b124146101b8578063d1ee539d146101c057610115565b80633074fff7116100e95780633074fff7146101505780636e5d66151461016557806381c2b29b1461016f5780639b3075a114610177578063a14274e81461018a57610115565b806234b9cc1461011a5780630c3e53431461013857806314d7c6d214610140578063157d012914610148575b600080fd5b610122610206565b60405161012f9190610d86565b60405180910390f35b61012261020c565b610122610212565b610122610218565b61015861029e565b60405161012f9190610cd6565b61016d6102a7565b005b610122610358565b61016d610185366004610c06565b61038d565b61016d610198366004610c06565b6103db565b610122610550565b61016d6101b3366004610c06565b610556565b6101226106c3565b61016d6101ce366004610c06565b6106f4565b61012261085f565b610122610865565b61012261086b565b610122610891565b61016d610201366004610c06565b610897565b60055481565b60025481565b60045481565b600a546040516370a0823160e01b81526000916001600160a01b0316906370a0823190610249903390600401610c85565b60206040518083038186803b15801561026157600080fd5b505afa158015610275573d6000803e3d6000fd5b505050506040513d601f19601f820116820180604052508101906102999190610c1e565b905090565b60005460ff1681565b60006102b1610a04565b905060006003541180156102c757506000600454115b156103535760006102d782610a91565b905060006102e483610ad7565b13156103205780600360008282546102fc9190610d8f565b9250508190555080600460008282546103159190610efd565b909155506103519050565b80600360008282546103329190610efd565b92505081905550806004600082825461034b9190610d8f565b90915550505b505b600755565b60006006546000146103865760065460045461037790620f4240610ede565b6103819190610da7565b610299565b5060025490565b60005460ff16156103b95760405162461bcd60e51b81526004016103b090610d4f565b60405180910390fd5b6103c281610897565b6103cb81610556565b506000805460ff19166001179055565b6103e36102a7565b600b54604051630852cd8d60e31b81526001600160a01b03909116906342966c6890610413908490600401610d86565b600060405180830381600087803b15801561042d57600080fd5b505af1158015610441573d6000803e3d6000fd5b50506008546001600160a01b0316915061045b9050610358565b6002819055600090620f4240906104729085610ede565b61047c9190610da7565b60405163a9059cbb60e01b81529091506001600160a01b0383169063a9059cbb906104ad9033908590600401610cbd565b602060405180830381600087803b1580156104c757600080fd5b505af11580156104db573d6000803e3d6000fd5b505050506040513d601f19601f820116820180604052508101906104ff9190610be6565b61051b5760405162461bcd60e51b81526004016103b090610ce1565b826006600082825461052d9190610efd565b9250508190555080600460008282546105469190610efd565b9091555050505050565b60065481565b61055e6102a7565b600b5460405163140e25ad60e31b81526001600160a01b039091169063a0712d689061058e908490600401610d86565b600060405180830381600087803b1580156105a857600080fd5b505af11580156105bc573d6000803e3d6000fd5b50506008546001600160a01b031691506105d69050610358565b6002819055600090620f4240906105ed9085610ede565b6105f79190610da7565b6040516323b872dd60e01b81529091506001600160a01b038316906323b872dd9061062a90339030908690600401610c99565b602060405180830381600087803b15801561064457600080fd5b505af1158015610658573d6000803e3d6000fd5b505050506040513d601f19601f8201168201806040525081019061067c9190610be6565b6106985760405162461bcd60e51b81526004016103b090610d18565b82600660008282546106aa9190610d8f565b9250508190555080600460008282546105469190610d8f565b600b546040516370a0823160e01b81526000916001600160a01b0316906370a0823190610249903390600401610c85565b6106fc6102a7565b600a54604051630852cd8d60e31b81526001600160a01b03909116906342966c689061072c908490600401610d86565b600060405180830381600087803b15801561074657600080fd5b505af115801561075a573d6000803e3d6000fd5b50506008546001600160a01b03169150610774905061086b565b6001819055600090620f42409061078b9085610ede565b6107959190610da7565b60405163a9059cbb60e01b81529091506001600160a01b0383169063a9059cbb906107c69033908590600401610cbd565b602060405180830381600087803b1580156107e057600080fd5b505af11580156107f4573d6000803e3d6000fd5b505050506040513d601f19601f820116820180604052508101906108189190610be6565b6108345760405162461bcd60e51b81526004016103b090610ce1565b82600560008282546108469190610efd565b9250508190555080600360008282546105469190610efd565b60035481565b60015481565b600060055460001461088a5760055460035461037790620f4240610ede565b5060015490565b60075481565b61089f6102a7565b600a5460405163140e25ad60e31b81526001600160a01b039091169063a0712d68906108cf908490600401610d86565b600060405180830381600087803b1580156108e957600080fd5b505af11580156108fd573d6000803e3d6000fd5b50506008546001600160a01b03169150610917905061086b565b6001819055600090620f42409061092e9085610ede565b6109389190610da7565b6040516323b872dd60e01b81529091506001600160a01b038316906323b872dd9061096b90339030908690600401610c99565b602060405180830381600087803b15801561098557600080fd5b505af1158015610999573d6000803e3d6000fd5b505050506040513d601f19601f820116820180604052508101906109bd9190610be6565b6109d95760405162461bcd60e51b81526004016103b090610d18565b82600560008282546109eb9190610d8f565b9250508190555080600360008282546105469190610d8f565b60095460408051633fabe5a360e21b815290516000926001600160a01b0316918391839163feaf968c9160048083019260a0929190829003018186803b158015610a4d57600080fd5b505afa158015610a61573d6000803e3d6000fd5b505050506040513d601f19601f82011682018060405250810190610a859190610c36565b50919550505050505090565b600080610a9d83610af4565b9050620f4240610aac82610b43565b610aba600354600454610bb3565b610ac49190610ede565b610ace9190610da7565b9150505b919050565b6000600754821115610aeb57506001610ad2565b50600019610ad2565b6000600754821115610b2d57600754620f424090610b128483610ede565b610b1c9190610da7565b610b269190610efd565b9050610ad2565b620f424082600754620f4240610b129190610ede565b600080610b51836003610ede565b620f4240610b60600286610e0d565b610b6a9190610da7565b610b75906009610ede565b610b7f9190610d8f565b610b8c90620f4240610d8f565b905064e8d4a51000610b9e8282610da7565b610bab90620f4240610efd565b949350505050565b600081831115610bc35781610bc5565b825b9392505050565b805169ffffffffffffffffffff81168114610ad257600080fd5b600060208284031215610bf7578081fd5b81518015158114610bc5578182fd5b600060208284031215610c17578081fd5b5035919050565b600060208284031215610c2f578081fd5b5051919050565b600080600080600060a08688031215610c4d578081fd5b610c5686610bcc565b9450602086015193506040860151925060608601519150610c7960808701610bcc565b90509295509295909350565b6001600160a01b0391909116815260200190565b6001600160a01b039384168152919092166020820152604081019190915260600190565b6001600160a01b03929092168252602082015260400190565b901515815260200190565b60208082526019908201527f4e6f7420656e6f756768207573646320617661696c61626c6500000000000000604082015260600190565b6020808252601a908201527f596f7520646f6e2774206861766520656e6f7567682055534443000000000000604082015260600190565b6020808252601f908201527f54686520706f6f6c2077617320616c726561647920696e697469617465642e00604082015260600190565b90815260200190565b60008219821115610da257610da2610f14565b500190565b600082610dc257634e487b7160e01b81526012600452602481fd5b500490565b80825b6001808611610dd95750610e04565b818704821115610deb57610deb610f14565b80861615610df857918102915b9490941c938002610dca565b94509492505050565b6000610bc560001960ff851684600082610e2957506001610bc5565b81610e3657506000610bc5565b8160018114610e4c5760028114610e5657610e83565b6001915050610bc5565b60ff841115610e6757610e67610f14565b6001841b915084821115610e7d57610e7d610f14565b50610bc5565b5060208310610133831016604e8410600b8410161715610eb6575081810a83811115610eb157610eb1610f14565b610bc5565b610ec38484846001610dc7565b808604821115610ed557610ed5610f14565b02949350505050565b6000816000190483118215151615610ef857610ef8610f14565b500290565b600082821015610f0f57610f0f610f14565b500390565b634e487b7160e01b600052601160045260246000fdfea264697066735822122086c91dd059f1a3669a4cac80836e3d50caec1e37bff483125189a77cee048b5a64736f6c6343000800003360806040523480156200001157600080fd5b50604080518082018252600a8152690426974636f696e2055760b41b602080830191825283518085019094526005845264042544355560dc1b908401528151919291620000619160039162000080565b5080516200007790600490602084019062000080565b50505062000163565b8280546200008e9062000126565b90600052602060002090601f016020900481019282620000b25760008555620000fd565b82601f10620000cd57805160ff1916838001178555620000fd565b82800160010185558215620000fd579182015b82811115620000fd578251825591602001919060010190620000e0565b506200010b9291506200010f565b5090565b5b808211156200010b576000815560010162000110565b6002810460018216806200013b57607f821691505b602082108114156200015d57634e487b7160e01b600052602260045260246000fd5b50919050565b610cce80620001736000396000f3fe608060405234801561001057600080fd5b50600436106100cf5760003560e01c806342966c681161008c578063a0712d6811610066578063a0712d6814610192578063a457c2d7146101a5578063a9059cbb146101b8578063dd62ed3e146101cb576100cf565b806342966c681461016257806370a082311461017757806395d89b411461018a576100cf565b806306fdde03146100d4578063095ea7b3146100f257806318160ddd1461011257806323b872dd14610127578063313ce5671461013a578063395093511461014f575b600080fd5b6100dc6101de565b6040516100e99190610913565b60405180910390f35b6101056101003660046108c7565b610270565b6040516100e99190610908565b61011a61028d565b6040516100e99190610c01565b61010561013536600461088c565b610293565b61014261032c565b6040516100e99190610c0a565b61010561015d3660046108c7565b610331565b6101756101703660046108f0565b610385565b005b61011a610185366004610839565b610392565b6100dc6103b1565b6101756101a03660046108f0565b6103c0565b6101056101b33660046108c7565b6103ca565b6101056101c63660046108c7565b610443565b61011a6101d936600461085a565b610457565b6060600380546101ed90610c47565b80601f016020809104026020016040519081016040528092919081815260200182805461021990610c47565b80156102665780601f1061023b57610100808354040283529160200191610266565b820191906000526020600020905b81548152906001019060200180831161024957829003601f168201915b5050505050905090565b600061028461027d610482565b8484610486565b50600192915050565b60025490565b60006102a084848461053a565b6001600160a01b0384166000908152600160205260408120816102c1610482565b6001600160a01b03166001600160a01b031681526020019081526020016000205490508281101561030d5760405162461bcd60e51b815260040161030490610a73565b60405180910390fd5b61032185610319610482565b858403610486565b506001949350505050565b600690565b600061028461033e610482565b84846001600061034c610482565b6001600160a01b03908116825260208083019390935260409182016000908120918b16815292529020546103809190610c18565b610486565b61038f3282610664565b50565b6001600160a01b0381166000908152602081905260409020545b919050565b6060600480546101ed90610c47565b61038f3282610756565b600080600160006103d9610482565b6001600160a01b03908116825260208083019390935260409182016000908120918816815292529020549050828110156104255760405162461bcd60e51b815260040161030490610b85565b610439610430610482565b85858403610486565b5060019392505050565b6000610284610450610482565b848461053a565b6001600160a01b03918216600090815260016020908152604080832093909416825291909152205490565b3390565b6001600160a01b0383166104ac5760405162461bcd60e51b815260040161030490610b41565b6001600160a01b0382166104d25760405162461bcd60e51b8152600401610304906109eb565b6001600160a01b0380841660008181526001602090815260408083209487168084529490915290819020849055517f8c5be1e5ebec7d5bd14f71427d1e84f3dd0314c0f7b2291e5b200ac8c7c3b9259061052d908590610c01565b60405180910390a3505050565b6001600160a01b0383166105605760405162461bcd60e51b815260040161030490610afc565b6001600160a01b0382166105865760405162461bcd60e51b815260040161030490610966565b610591838383610751565b6001600160a01b038316600090815260208190526040902054818110156105ca5760405162461bcd60e51b815260040161030490610a2d565b6001600160a01b03808516600090815260208190526040808220858503905591851681529081208054849290610601908490610c18565b92505081905550826001600160a01b0316846001600160a01b03167fddf252ad1be2c89b69c2b068fc378daa952ba7f163c4a11628f55a4df523b3ef8460405161064b9190610c01565b60405180910390a361065e848484610751565b50505050565b6001600160a01b03821661068a5760405162461bcd60e51b815260040161030490610abb565b61069682600083610751565b6001600160a01b038216600090815260208190526040902054818110156106cf5760405162461bcd60e51b8152600401610304906109a9565b6001600160a01b03831660009081526020819052604081208383039055600280548492906106fe908490610c30565b90915550506040516000906001600160a01b038516907fddf252ad1be2c89b69c2b068fc378daa952ba7f163c4a11628f55a4df523b3ef90610741908690610c01565b60405180910390a3610751836000845b505050565b6001600160a01b03821661077c5760405162461bcd60e51b815260040161030490610bca565b61078860008383610751565b806002600082825461079a9190610c18565b90915550506001600160a01b038216600090815260208190526040812080548392906107c7908490610c18565b90915550506040516001600160a01b038316906000907fddf252ad1be2c89b69c2b068fc378daa952ba7f163c4a11628f55a4df523b3ef9061080a908590610c01565b60405180910390a361081e60008383610751565b5050565b80356001600160a01b03811681146103ac57600080fd5b60006020828403121561084a578081fd5b61085382610822565b9392505050565b6000806040838503121561086c578081fd5b61087583610822565b915061088360208401610822565b90509250929050565b6000806000606084860312156108a0578081fd5b6108a984610822565b92506108b760208501610822565b9150604084013590509250925092565b600080604083850312156108d9578182fd5b6108e283610822565b946020939093013593505050565b600060208284031215610901578081fd5b5035919050565b901515815260200190565b6000602080835283518082850152825b8181101561093f57858101830151858201604001528201610923565b818111156109505783604083870101525b50601f01601f1916929092016040019392505050565b60208082526023908201527f45524332303a207472616e7366657220746f20746865207a65726f206164647260408201526265737360e81b606082015260800190565b60208082526022908201527f45524332303a206275726e20616d6f756e7420657863656564732062616c616e604082015261636560f01b606082015260800190565b60208082526022908201527f45524332303a20617070726f766520746f20746865207a65726f206164647265604082015261737360f01b606082015260800190565b60208082526026908201527f45524332303a207472616e7366657220616d6f756e7420657863656564732062604082015265616c616e636560d01b606082015260800190565b60208082526028908201527f45524332303a207472616e7366657220616d6f756e74206578636565647320616040820152676c6c6f77616e636560c01b606082015260800190565b60208082526021908201527f45524332303a206275726e2066726f6d20746865207a65726f206164647265736040820152607360f81b606082015260800190565b60208082526025908201527f45524332303a207472616e736665722066726f6d20746865207a65726f206164604082015264647265737360d81b606082015260800190565b60208082526024908201527f45524332303a20617070726f76652066726f6d20746865207a65726f206164646040820152637265737360e01b606082015260800190565b60208082526025908201527f45524332303a2064656372656173656420616c6c6f77616e63652062656c6f77604082015264207a65726f60d81b606082015260800190565b6020808252601f908201527f45524332303a206d696e7420746f20746865207a65726f206164647265737300604082015260600190565b90815260200190565b60ff91909116815260200190565b60008219821115610c2b57610c2b610c82565b500190565b600082821015610c4257610c42610c82565b500390565b600281046001821680610c5b57607f821691505b60208210811415610c7c57634e487b7160e01b600052602260045260246000fd5b50919050565b634e487b7160e01b600052601160045260246000fdfea2646970667358221220b22165df96b3bd8d440dec70e344fe0256805fb5c038e46a12ccc658b5349dee64736f6c6343000800003360806040523480156200001157600080fd5b50604080518082018252600c81526b2134ba31b7b4b7102237bbb760a11b602080830191825283518085019094526007845266212a21a227aba760c91b908401528151919291620000659160039162000084565b5080516200007b90600490602084019062000084565b50505062000167565b82805462000092906200012a565b90600052602060002090601f016020900481019282620000b6576000855562000101565b82601f10620000d157805160ff191683800117855562000101565b8280016001018555821562000101579182015b8281111562000101578251825591602001919060010190620000e4565b506200010f92915062000113565b5090565b5b808211156200010f576000815560010162000114565b6002810460018216806200013f57607f821691505b602082108114156200016157634e487b7160e01b600052602260045260246000fd5b50919050565b610cce80620001776000396000f3fe608060405234801561001057600080fd5b50600436106100cf5760003560e01c806342966c681161008c578063a0712d6811610066578063a0712d6814610192578063a457c2d7146101a5578063a9059cbb146101b8578063dd62ed3e146101cb576100cf565b806342966c681461016257806370a082311461017757806395d89b411461018a576100cf565b806306fdde03146100d4578063095ea7b3146100f257806318160ddd1461011257806323b872dd14610127578063313ce5671461013a578063395093511461014f575b600080fd5b6100dc6101de565b6040516100e99190610913565b60405180910390f35b6101056101003660046108c7565b610270565b6040516100e99190610908565b61011a61028d565b6040516100e99190610c01565b61010561013536600461088c565b610293565b61014261032c565b6040516100e99190610c0a565b61010561015d3660046108c7565b610331565b6101756101703660046108f0565b610385565b005b61011a610185366004610839565b610392565b6100dc6103b1565b6101756101a03660046108f0565b6103c0565b6101056101b33660046108c7565b6103ca565b6101056101c63660046108c7565b610443565b61011a6101d936600461085a565b610457565b6060600380546101ed90610c47565b80601f016020809104026020016040519081016040528092919081815260200182805461021990610c47565b80156102665780601f1061023b57610100808354040283529160200191610266565b820191906000526020600020905b81548152906001019060200180831161024957829003601f168201915b5050505050905090565b600061028461027d610482565b8484610486565b50600192915050565b60025490565b60006102a084848461053a565b6001600160a01b0384166000908152600160205260408120816102c1610482565b6001600160a01b03166001600160a01b031681526020019081526020016000205490508281101561030d5760405162461bcd60e51b815260040161030490610a73565b60405180910390fd5b61032185610319610482565b858403610486565b506001949350505050565b600690565b600061028461033e610482565b84846001600061034c610482565b6001600160a01b03908116825260208083019390935260409182016000908120918b16815292529020546103809190610c18565b610486565b61038f3282610664565b50565b6001600160a01b0381166000908152602081905260409020545b919050565b6060600480546101ed90610c47565b61038f3282610756565b600080600160006103d9610482565b6001600160a01b03908116825260208083019390935260409182016000908120918816815292529020549050828110156104255760405162461bcd60e51b815260040161030490610b85565b610439610430610482565b85858403610486565b5060019392505050565b6000610284610450610482565b848461053a565b6001600160a01b03918216600090815260016020908152604080832093909416825291909152205490565b3390565b6001600160a01b0383166104ac5760405162461bcd60e51b815260040161030490610b41565b6001600160a01b0382166104d25760405162461bcd60e51b8152600401610304906109eb565b6001600160a01b0380841660008181526001602090815260408083209487168084529490915290819020849055517f8c5be1e5ebec7d5bd14f71427d1e84f3dd0314c0f7b2291e5b200ac8c7c3b9259061052d908590610c01565b60405180910390a3505050565b6001600160a01b0383166105605760405162461bcd60e51b815260040161030490610afc565b6001600160a01b0382166105865760405162461bcd60e51b815260040161030490610966565b610591838383610751565b6001600160a01b038316600090815260208190526040902054818110156105ca5760405162461bcd60e51b815260040161030490610a2d565b6001600160a01b03808516600090815260208190526040808220858503905591851681529081208054849290610601908490610c18565b92505081905550826001600160a01b0316846001600160a01b03167fddf252ad1be2c89b69c2b068fc378daa952ba7f163c4a11628f55a4df523b3ef8460405161064b9190610c01565b60405180910390a361065e848484610751565b50505050565b6001600160a01b03821661068a5760405162461bcd60e51b815260040161030490610abb565b61069682600083610751565b6001600160a01b038216600090815260208190526040902054818110156106cf5760405162461bcd60e51b8152600401610304906109a9565b6001600160a01b03831660009081526020819052604081208383039055600280548492906106fe908490610c30565b90915550506040516000906001600160a01b038516907fddf252ad1be2c89b69c2b068fc378daa952ba7f163c4a11628f55a4df523b3ef90610741908690610c01565b60405180910390a3610751836000845b505050565b6001600160a01b03821661077c5760405162461bcd60e51b815260040161030490610bca565b61078860008383610751565b806002600082825461079a9190610c18565b90915550506001600160a01b038216600090815260208190526040812080548392906107c7908490610c18565b90915550506040516001600160a01b038316906000907fddf252ad1be2c89b69c2b068fc378daa952ba7f163c4a11628f55a4df523b3ef9061080a908590610c01565b60405180910390a361081e60008383610751565b5050565b80356001600160a01b03811681146103ac57600080fd5b60006020828403121561084a578081fd5b61085382610822565b9392505050565b6000806040838503121561086c578081fd5b61087583610822565b915061088360208401610822565b90509250929050565b6000806000606084860312156108a0578081fd5b6108a984610822565b92506108b760208501610822565b9150604084013590509250925092565b600080604083850312156108d9578182fd5b6108e283610822565b946020939093013593505050565b600060208284031215610901578081fd5b5035919050565b901515815260200190565b6000602080835283518082850152825b8181101561093f57858101830151858201604001528201610923565b818111156109505783604083870101525b50601f01601f1916929092016040019392505050565b60208082526023908201527f45524332303a207472616e7366657220746f20746865207a65726f206164647260408201526265737360e81b606082015260800190565b60208082526022908201527f45524332303a206275726e20616d6f756e7420657863656564732062616c616e604082015261636560f01b606082015260800190565b60208082526022908201527f45524332303a20617070726f766520746f20746865207a65726f206164647265604082015261737360f01b606082015260800190565b60208082526026908201527f45524332303a207472616e7366657220616d6f756e7420657863656564732062604082015265616c616e636560d01b606082015260800190565b60208082526028908201527f45524332303a207472616e7366657220616d6f756e74206578636565647320616040820152676c6c6f77616e636560c01b606082015260800190565b60208082526021908201527f45524332303a206275726e2066726f6d20746865207a65726f206164647265736040820152607360f81b606082015260800190565b60208082526025908201527f45524332303a207472616e736665722066726f6d20746865207a65726f206164604082015264647265737360d81b606082015260800190565b60208082526024908201527f45524332303a20617070726f76652066726f6d20746865207a65726f206164646040820152637265737360e01b606082015260800190565b60208082526025908201527f45524332303a2064656372656173656420616c6c6f77616e63652062656c6f77604082015264207a65726f60d81b606082015260800190565b6020808252601f908201527f45524332303a206d696e7420746f20746865207a65726f206164647265737300604082015260600190565b90815260200190565b60ff91909116815260200190565b60008219821115610c2b57610c2b610c82565b500190565b600082821015610c4257610c42610c82565b500390565b600281046001821680610c5b57607f821691505b60208210811415610c7c57634e487b7160e01b600052602260045260246000fd5b50919050565b634e487b7160e01b600052601160045260246000fdfea264697066735822122098bbc96044770a5166474c76b267af524badb1843abfd727991fe44fcc241c9c64736f6c63430008000033",
  "bytecodeSha1": "cc0efe09499338c7cacff0131e550331aab937de",
  "compiler": {
    "evm_version": "istanbul",
    "optimizer": {
      "enabled": true,
      "runs": 200
    },
    "version": "0.8.0+commit.c7dfd78e"
  },
  "contractName": "LeverageTrading",
  "language": "Solidity",
  "natspec": {
    "kind": "dev",
    "methods": {},
    "version": 1
  },
  "opcodes": "PUSH1 0x80 PUSH1 0x40 MSTORE CALLVALUE DUP1 ISZERO PUSH2 0x10 JUMPI PUSH1 0x0 DUP1 REVERT JUMPDEST POP PUSH1 0x4 CALLDATASIZE LT PUSH2 0x115 JUMPI PUSH1 0x0 CALLDATALOAD PUSH1 0xE0 SHR DUP1 PUSH4 0xB75CBE0B GT PUSH2 0xA2 JUMPI DUP1 PUSH4 0xDDE7BE2C GT PUSH2 0x71 JUMPI DUP1 PUSH4 0xDDE7BE2C EQ PUSH2 0x1D3 JUMPI DUP1 PUSH4 0xF0156E8A EQ PUSH2 0x1DB JUMPI DUP1 PUSH4 0xF06847D6 EQ PUSH2 0x1E3 JUMPI DUP1 PUSH4 0xF4352C57 EQ PUSH2 0x1EB JUMPI DUP1 PUSH4 0xF530C04A EQ PUSH2 0x1F3 JUMPI PUSH2 0x115 JUMP JUMPDEST DUP1 PUSH4 0xB75CBE0B EQ PUSH2 0x19D JUMPI DUP1 PUSH4 0xC46D4F09 EQ PUSH2 0x1A5 JUMPI DUP1 PUSH4 0xC7E3B124 EQ PUSH2 0x1B8 JUMPI DUP1 PUSH4 0xD1EE539D EQ PUSH2 0x1C0 JUMPI PUSH2 0x115 JUMP JUMPDEST DUP1 PUSH4 0x3074FFF7 GT PUSH2 0xE9 JUMPI DUP1 PUSH4 0x3074FFF7 EQ PUSH2 0x150 JUMPI DUP1 PUSH4 0x6E5D6615 EQ PUSH2 0x165 JUMPI DUP1 PUSH4 0x81C2B29B EQ PUSH2 0x16F JUMPI DUP1 PUSH4 0x9B3075A1 EQ PUSH2 0x177 JUMPI DUP1 PUSH4 0xA14274E8 EQ PUSH2 0x18A JUMPI PUSH2 0x115 JUMP JUMPDEST DUP1 PUSH3 0x34B9CC EQ PUSH2 0x11A JUMPI DUP1 PUSH4 0xC3E5343 EQ PUSH2 0x138 JUMPI DUP1 PUSH4 0x14D7C6D2 EQ PUSH2 0x140 JUMPI DUP1 PUSH4 0x157D0129 EQ PUSH2 0x148 JUMPI JUMPDEST PUSH1 0x0 DUP1 REVERT JUMPDEST PUSH2 0x122 PUSH2 0x206 JUMP JUMPDEST PUSH1 0x40 MLOAD PUSH2 0x12F SWAP2 SWAP1 PUSH2 0xD86 JUMP JUMPDEST PUSH1 0x40 MLOAD DUP1 SWAP2 SUB SWAP1 RETURN JUMPDEST PUSH2 0x122 PUSH2 0x20C JUMP JUMPDEST PUSH2 0x122 PUSH2 0x212 JUMP JUMPDEST PUSH2 0x122 PUSH2 0x218 JUMP JUMPDEST PUSH2 0x158 PUSH2 0x29E JUMP JUMPDEST PUSH1 0x40 MLOAD PUSH2 0x12F SWAP2 SWAP1 PUSH2 0xCD6 JUMP JUMPDEST PUSH2 0x16D PUSH2 0x2A7 JUMP JUMPDEST STOP JUMPDEST PUSH2 0x122 PUSH2 0x358 JUMP JUMPDEST PUSH2 0x16D PUSH2 0x185 CALLDATASIZE PUSH1 0x4 PUSH2 0xC06 JUMP JUMPDEST PUSH2 0x38D JUMP JUMPDEST PUSH2 0x16D PUSH2 0x198 CALLDATASIZE PUSH1 0x4 PUSH2 0xC06 JUMP JUMPDEST PUSH2 0x3DB JUMP JUMPDEST PUSH2 0x122 PUSH2 0x550 JUMP JUMPDEST PUSH2 0x16D PUSH2 0x1B3 CALLDATASIZE PUSH1 0x4 PUSH2 0xC06 JUMP JUMPDEST PUSH2 0x556 JUMP JUMPDEST PUSH2 0x122 PUSH2 0x6C3 JUMP JUMPDEST PUSH2 0x16D PUSH2 0x1CE CALLDATASIZE PUSH1 0x4 PUSH2 0xC06 JUMP JUMPDEST PUSH2 0x6F4 JUMP JUMPDEST PUSH2 0x122 PUSH2 0x85F JUMP JUMPDEST PUSH2 0x122 PUSH2 0x865 JUMP JUMPDEST PUSH2 0x122 PUSH2 0x86B JUMP JUMPDEST PUSH2 0x122 PUSH2 0x891 JUMP JUMPDEST PUSH2 0x16D PUSH2 0x201 CALLDATASIZE PUSH1 0x4 PUSH2 0xC06 JUMP JUMPDEST PUSH2 0x897 JUMP JUMPDEST PUSH1 0x5 SLOAD DUP2 JUMP JUMPDEST PUSH1 0x2 SLOAD DUP2 JUMP JUMPDEST PUSH1 0x4 SLOAD DUP2 JUMP JUMPDEST PUSH1 0xA SLOAD PUSH1 0x40 MLOAD PUSH4 0x70A08231 PUSH1 0xE0 SHL DUP2 MSTORE PUSH1 0x0 SWAP2 PUSH1 0x1 PUSH1 0x1 PUSH1 0xA0 SHL SUB AND SWAP1 PUSH4 0x70A08231 SWAP1 PUSH2 0x249 SWAP1 CALLER SWAP1 PUSH1 0x4 ADD PUSH2 0xC85 JUMP JUMPDEST PUSH1 0x20 PUSH1 0x40 MLOAD DUP1 DUP4 SUB DUP2 DUP7 DUP1 EXTCODESIZE ISZERO DUP1 ISZERO PUSH2 0x261 JUMPI PUSH1 0x0 DUP1 REVERT JUMPDEST POP GAS STATICCALL ISZERO DUP1 ISZERO PUSH2 0x275 JUMPI RETURNDATASIZE PUSH1 0x0 DUP1 RETURNDATACOPY RETURNDATASIZE PUSH1 0x0 REVERT JUMPDEST POP POP POP POP PUSH1 0x40 MLOAD RETURNDATASIZE PUSH1 0x1F NOT PUSH1 0x1F DUP3 ADD AND DUP3 ADD DUP1 PUSH1 0x40 MSTORE POP DUP2 ADD SWAP1 PUSH2 0x299 SWAP2 SWAP1 PUSH2 0xC1E JUMP JUMPDEST SWAP1 POP SWAP1 JUMP JUMPDEST PUSH1 0x0 SLOAD PUSH1 0xFF AND DUP2 JUMP JUMPDEST PUSH1 0x0 PUSH2 0x2B1 PUSH2 0xA04 JUMP JUMPDEST SWAP1 POP PUSH1 0x0 PUSH1 0x3 SLOAD GT DUP1 ISZERO PUSH2 0x2C7 JUMPI POP PUSH1 0x0 PUSH1 0x4 SLOAD GT JUMPDEST ISZERO PUSH2 0x353 JUMPI PUSH1 0x0 PUSH2 0x2D7 DUP3 PUSH2 0xA91 JUMP JUMPDEST SWAP1 POP PUSH1 0x0 PUSH2 0x2E4 DUP4 PUSH2 0xAD7 JUMP JUMPDEST SGT ISZERO PUSH2 0x320 JUMPI DUP1 PUSH1 0x3 PUSH1 0x0 DUP3 DUP3 SLOAD PUSH2 0x2FC SWAP2 SWAP1 PUSH2 0xD8F JUMP JUMPDEST SWAP3 POP POP DUP2 SWAP1 SSTORE POP DUP1 PUSH1 0x4 PUSH1 0x0 DUP3 DUP3 SLOAD PUSH2 0x315 SWAP2 SWAP1 PUSH2 0xEFD JUMP JUMPDEST SWAP1 SWAP2 SSTORE POP PUSH2 0x351 SWAP1 POP JUMP JUMPDEST DUP1 PUSH1 0x3 PUSH1 0x0 DUP3 DUP3 SLOAD PUSH2 0x332 SWAP2 SWAP1 PUSH2 0xEFD JUMP JUMPDEST SWAP3 POP POP DUP2 SWAP1 SSTORE POP DUP1 PUSH1 0x4 PUSH1 0x0 DUP3 DUP3 SLOAD PUSH2 0x34B SWAP2 SWAP1 PUSH2 0xD8F JUMP JUMPDEST SWAP1 SWAP2 SSTORE POP POP JUMPDEST POP JUMPDEST PUSH1 0x7 SSTORE JUMP JUMPDEST PUSH1 0x0 PUSH1 0x6 SLOAD PUSH1 0x0 EQ PUSH2 0x386 JUMPI PUSH1 0x6 SLOAD PUSH1 0x4 SLOAD PUSH2 0x377 SWAP1 PUSH3 0xF4240 PUSH2 0xEDE JUMP JUMPDEST PUSH2 0x381 SWAP2 SWAP1 PUSH2 0xDA7 JUMP JUMPDEST PUSH2 0x299 JUMP JUMPDEST POP PUSH1 0x2 SLOAD SWAP1 JUMP JUMPDEST PUSH1 0x0 SLOAD PUSH1 0xFF AND ISZERO PUSH2 0x3B9 JUMPI PUSH1 0x40 MLOAD PUSH3 0x461BCD PUSH1 0xE5 SHL DUP2 MSTORE PUSH1 0x4 ADD PUSH2 0x3B0 SWAP1 PUSH2 0xD4F JUMP JUMPDEST PUSH1 0x40 MLOAD DUP1 SWAP2 SUB SWAP1 REVERT JUMPDEST PUSH2 0x3C2 DUP2 PUSH2 0x897 JUMP JUMPDEST PUSH2 0x3CB DUP2 PUSH2 0x556 JUMP JUMPDEST POP PUSH1 0x0 DUP1 SLOAD PUSH1 0xFF NOT AND PUSH1 0x1 OR SWAP1 SSTORE JUMP JUMPDEST PUSH2 0x3E3 PUSH2 0x2A7 JUMP JUMPDEST PUSH1 0xB SLOAD PUSH1 0x40 MLOAD PUSH4 0x852CD8D PUSH1 0xE3 SHL DUP2 MSTORE PUSH1 0x1 PUSH1 0x1 PUSH1 0xA0 SHL SUB SWAP1 SWAP2 AND SWAP1 PUSH4 0x42966C68 SWAP1 PUSH2 0x413 SWAP1 DUP5 SWAP1 PUSH1 0x4 ADD PUSH2 0xD86 JUMP JUMPDEST PUSH1 0x0 PUSH1 0x40 MLOAD DUP1 DUP4 SUB DUP2 PUSH1 0x0 DUP8 DUP1 EXTCODESIZE ISZERO DUP1 ISZERO PUSH2 0x42D JUMPI PUSH1 0x0 DUP1 REVERT JUMPDEST POP GAS CALL ISZERO DUP1 ISZERO PUSH2 0x441 JUMPI RETURNDATASIZE PUSH1 0x0 DUP1 RETURNDATACOPY RETURNDATASIZE PUSH1 0x0 REVERT JUMPDEST POP POP PUSH1 0x8 SLOAD PUSH1 0x1 PUSH1 0x1 PUSH1 0xA0 SHL SUB AND SWAP2 POP PUSH2 0x45B SWAP1 POP PUSH2 0x358 JUMP JUMPDEST PUSH1 0x2 DUP2 SWAP1 SSTORE PUSH1 0x0 SWAP1 PUSH3 0xF4240 SWAP1 PUSH2 0x472 SWAP1 DUP6 PUSH2 0xEDE JUMP JUMPDEST PUSH2 0x47C SWAP2 SWAP1 PUSH2 0xDA7 JUMP JUMPDEST PUSH1 0x40 MLOAD PUSH4 0xA9059CBB PUSH1 0xE0 SHL DUP2 MSTORE SWAP1 SWAP2 POP PUSH1 0x1 PUSH1 0x1 PUSH1 0xA0 SHL SUB DUP4 AND SWAP1 PUSH4 0xA9059CBB SWAP1 PUSH2 0x4AD SWAP1 CALLER SWAP1 DUP6 SWAP1 PUSH1 0x4 ADD PUSH2 0xCBD JUMP JUMPDEST PUSH1 0x20 PUSH1 0x40 MLOAD DUP1 DUP4 SUB DUP2 PUSH1 0x0 DUP8 DUP1 EXTCODESIZE ISZERO DUP1 ISZERO PUSH2 0x4C7 JUMPI PUSH1 0x0 DUP1 REVERT JUMPDEST POP GAS CALL ISZERO DUP1 ISZERO PUSH2 0x4DB JUMPI RETURNDATASIZE PUSH1 0x0 DUP1 RETURNDATACOPY RETURNDATASIZE PUSH1 0x0 REVERT JUMPDEST POP POP POP POP PUSH1 0x40 MLOAD RETURNDATASIZE PUSH1 0x1F NOT PUSH1 0x1F DUP3 ADD AND DUP3 ADD DUP1 PUSH1 0x40 MSTORE POP DUP2 ADD SWAP1 PUSH2 0x4FF SWAP2 SWAP1 PUSH2 0xBE6 JUMP JUMPDEST PUSH2 0x51B JUMPI PUSH1 0x40 MLOAD PUSH3 0x461BCD PUSH1 0xE5 SHL DUP2 MSTORE PUSH1 0x4 ADD PUSH2 0x3B0 SWAP1 PUSH2 0xCE1 JUMP JUMPDEST DUP3 PUSH1 0x6 PUSH1 0x0 DUP3 DUP3 SLOAD PUSH2 0x52D SWAP2 SWAP1 PUSH2 0xEFD JUMP JUMPDEST SWAP3 POP POP DUP2 SWAP1 SSTORE POP DUP1 PUSH1 0x4 PUSH1 0x0 DUP3 DUP3 SLOAD PUSH2 0x546 SWAP2 SWAP1 PUSH2 0xEFD JUMP JUMPDEST SWAP1 SWAP2 SSTORE POP POP POP POP POP JUMP JUMPDEST PUSH1 0x6 SLOAD DUP2 JUMP JUMPDEST PUSH2 0x55E PUSH2 0x2A7 JUMP JUMPDEST PUSH1 0xB SLOAD PUSH1 0x40 MLOAD PUSH4 0x140E25AD PUSH1 0xE3 SHL DUP2 MSTORE PUSH1 0x1 PUSH1 0x1 PUSH1 0xA0 SHL SUB SWAP1 SWAP2 AND SWAP1 PUSH4 0xA0712D68 SWAP1 PUSH2 0x58E SWAP1 DUP5 SWAP1 PUSH1 0x4 ADD PUSH2 0xD86 JUMP JUMPDEST PUSH1 0x0 PUSH1 0x40 MLOAD DUP1 DUP4 SUB DUP2 PUSH1 0x0 DUP8 DUP1 EXTCODESIZE ISZERO DUP1 ISZERO PUSH2 0x5A8 JUMPI PUSH1 0x0 DUP1 REVERT JUMPDEST POP GAS CALL ISZERO DUP1 ISZERO PUSH2 0x5BC JUMPI RETURNDATASIZE PUSH1 0x0 DUP1 RETURNDATACOPY RETURNDATASIZE PUSH1 0x0 REVERT JUMPDEST POP POP PUSH1 0x8 SLOAD PUSH1 0x1 PUSH1 0x1 PUSH1 0xA0 SHL SUB AND SWAP2 POP PUSH2 0x5D6 SWAP1 POP PUSH2 0x358 JUMP JUMPDEST PUSH1 0x2 DUP2 SWAP1 SSTORE PUSH1 0x0 SWAP1 PUSH3 0xF4240 SWAP1 PUSH2 0x5ED SWAP1 DUP6 PUSH2 0xEDE JUMP JUMPDEST PUSH2 0x5F7 SWAP2 SWAP1 PUSH2 0xDA7 JUMP JUMPDEST PUSH1 0x40 MLOAD PUSH4 0x23B872DD PUSH1 0xE0 SHL DUP2 MSTORE SWAP1 SWAP2 POP PUSH1 0x1 PUSH1 0x1 PUSH1 0xA0 SHL SUB DUP4 AND SWAP1 PUSH4 0x23B872DD SWAP1 PUSH2 0x62A SWAP1 CALLER SWAP1 ADDRESS SWAP1 DUP7 SWAP1 PUSH1 0x4 ADD PUSH2 0xC99 JUMP JUMPDEST PUSH1 0x20 PUSH1 0x40 MLOAD DUP1 DUP4 SUB DUP2 PUSH1 0x0 DUP8 DUP1 EXTCODESIZE ISZERO DUP1 ISZERO PUSH2 0x644 JUMPI PUSH1 0x0 DUP1 REVERT JUMPDEST POP GAS CALL ISZERO DUP1 ISZERO PUSH2 0x658 JUMPI RETURNDATASIZE PUSH1 0x0 DUP1 RETURNDATACOPY RETURNDATASIZE PUSH1 0x0 REVERT JUMPDEST POP POP POP POP PUSH1 0x40 MLOAD RETURNDATASIZE PUSH1 0x1F NOT PUSH1 0x1F DUP3 ADD AND DUP3 ADD DUP1 PUSH1 0x40 MSTORE POP DUP2 ADD SWAP1 PUSH2 0x67C SWAP2 SWAP1 PUSH2 0xBE6 JUMP JUMPDEST PUSH2 0x698 JUMPI PUSH1 0x40 MLOAD PUSH3 0x461BCD PUSH1 0xE5 SHL DUP2 MSTORE PUSH1 0x4 ADD PUSH2 0x3B0 SWAP1 PUSH2 0xD18 JUMP JUMPDEST DUP3 PUSH1 0x6 PUSH1 0x0 DUP3 DUP3 SLOAD PUSH2 0x6AA SWAP2 SWAP1 PUSH2 0xD8F JUMP JUMPDEST SWAP3 POP POP DUP2 SWAP1 SSTORE POP DUP1 PUSH1 0x4 PUSH1 0x0 DUP3 DUP3 SLOAD PUSH2 0x546 SWAP2 SWAP1 PUSH2 0xD8F JUMP JUMPDEST PUSH1 0xB SLOAD PUSH1 0x40 MLOAD PUSH4 0x70A08231 PUSH1 0xE0 SHL DUP2 MSTORE PUSH1 0x0 SWAP2 PUSH1 0x1 PUSH1 0x1 PUSH1 0xA0 SHL SUB AND SWAP1 PUSH4 0x70A08231 SWAP1 PUSH2 0x249 SWAP1 CALLER SWAP1 PUSH1 0x4 ADD PUSH2 0xC85 JUMP JUMPDEST PUSH2 0x6FC PUSH2 0x2A7 JUMP JUMPDEST PUSH1 0xA SLOAD PUSH1 0x40 MLOAD PUSH4 0x852CD8D PUSH1 0xE3 SHL DUP2 MSTORE PUSH1 0x1 PUSH1 0x1 PUSH1 0xA0 SHL SUB SWAP1 SWAP2 AND SWAP1 PUSH4 0x42966C68 SWAP1 PUSH2 0x72C SWAP1 DUP5 SWAP1 PUSH1 0x4 ADD PUSH2 0xD86 JUMP JUMPDEST PUSH1 0x0 PUSH1 0x40 MLOAD DUP1 DUP4 SUB DUP2 PUSH1 0x0 DUP8 DUP1 EXTCODESIZE ISZERO DUP1 ISZERO PUSH2 0x746 JUMPI PUSH1 0x0 DUP1 REVERT JUMPDEST POP GAS CALL ISZERO DUP1 ISZERO PUSH2 0x75A JUMPI RETURNDATASIZE PUSH1 0x0 DUP1 RETURNDATACOPY RETURNDATASIZE PUSH1 0x0 REVERT JUMPDEST POP POP PUSH1 0x8 SLOAD PUSH1 0x1 PUSH1 0x1 PUSH1 0xA0 SHL SUB AND SWAP2 POP PUSH2 0x774 SWAP1 POP PUSH2 0x86B JUMP JUMPDEST PUSH1 0x1 DUP2 SWAP1 SSTORE PUSH1 0x0 SWAP1 PUSH3 0xF4240 SWAP1 PUSH2 0x78B SWAP1 DUP6 PUSH2 0xEDE JUMP JUMPDEST PUSH2 0x795 SWAP2 SWAP1 PUSH2 0xDA7 JUMP JUMPDEST PUSH1 0x40 MLOAD PUSH4 0xA9059CBB PUSH1 0xE0 SHL DUP2 MSTORE SWAP1 SWAP2 POP PUSH1 0x1 PUSH1 0x1 PUSH1 0xA0 SHL SUB DUP4 AND SWAP1 PUSH4 0xA9059CBB SWAP1 PUSH2 0x7C6 SWAP1 CALLER SWAP1 DUP6 SWAP1 PUSH1 0x4 ADD PUSH2 0xCBD JUMP JUMPDEST PUSH1 0x20 PUSH1 0x40 MLOAD DUP1 DUP4 SUB DUP2 PUSH1 0x0 DUP8 DUP1 EXTCODESIZE ISZERO DUP1 ISZERO PUSH2 0x7E0 JUMPI PUSH1 0x0 DUP1 REVERT JUMPDEST POP GAS CALL ISZERO DUP1 ISZERO PUSH2 0x7F4 JUMPI RETURNDATASIZE PUSH1 0x0 DUP1 RETURNDATACOPY RETURNDATASIZE PUSH1 0x0 REVERT JUMPDEST POP POP POP POP PUSH1 0x40 MLOAD RETURNDATASIZE PUSH1 0x1F NOT PUSH1 0x1F DUP3 ADD AND DUP3 ADD DUP1 PUSH1 0x40 MSTORE POP DUP2 ADD SWAP1 PUSH2 0x818 SWAP2 SWAP1 PUSH2 0xBE6 JUMP JUMPDEST PUSH2 0x834 JUMPI PUSH1 0x40 MLOAD PUSH3 0x461BCD PUSH1 0xE5 SHL DUP2 MSTORE PUSH1 0x4 ADD PUSH2 0x3B0 SWAP1 PUSH2 0xCE1 JUMP JUMPDEST DUP3 PUSH1 0x5 PUSH1 0x0 DUP3 DUP3 SLOAD PUSH2 0x846 SWAP2 SWAP1 PUSH2 0xEFD JUMP JUMPDEST SWAP3 POP POP DUP2 SWAP1 SSTORE POP DUP1 PUSH1 0x3 PUSH1 0x0 DUP3 DUP3 SLOAD PUSH2 0x546 SWAP2 SWAP1 PUSH2 0xEFD JUMP JUMPDEST PUSH1 0x3 SLOAD DUP2 JUMP JUMPDEST PUSH1 0x1 SLOAD DUP2 JUMP JUMPDEST PUSH1 0x0 PUSH1 0x5 SLOAD PUSH1 0x0 EQ PUSH2 0x88A JUMPI PUSH1 0x5 SLOAD PUSH1 0x3 SLOAD PUSH2 0x377 SWAP1 PUSH3 0xF4240 PUSH2 0xEDE JUMP JUMPDEST POP PUSH1 0x1 SLOAD SWAP1 JUMP JUMPDEST PUSH1 0x7 SLOAD DUP2 JUMP JUMPDEST PUSH2 0x89F PUSH2 0x2A7 JUMP JUMPDEST PUSH1 0xA SLOAD PUSH1 0x40 MLOAD PUSH4 0x140E25AD PUSH1 0xE3 SHL DUP2 MSTORE PUSH1 0x1 PUSH1 0x1 PUSH1 0xA0 SHL SUB SWAP1 SWAP2 AND SWAP1 PUSH4 0xA0712D68 SWAP1 PUSH2 0x8CF SWAP1 DUP5 SWAP1 PUSH1 0x4 ADD PUSH2 0xD86 JUMP JUMPDEST PUSH1 0x0 PUSH1 0x40 MLOAD DUP1 DUP4 SUB DUP2 PUSH1 0x0 DUP8 DUP1 EXTCODESIZE ISZERO DUP1 ISZERO PUSH2 0x8E9 JUMPI PUSH1 0x0 DUP1 REVERT JUMPDEST POP GAS CALL ISZERO DUP1 ISZERO PUSH2 0x8FD JUMPI RETURNDATASIZE PUSH1 0x0 DUP1 RETURNDATACOPY RETURNDATASIZE PUSH1 0x0 REVERT JUMPDEST POP POP PUSH1 0x8 SLOAD PUSH1 0x1 PUSH1 0x1 PUSH1 0xA0 SHL SUB AND SWAP2 POP PUSH2 0x917 SWAP1 POP PUSH2 0x86B JUMP JUMPDEST PUSH1 0x1 DUP2 SWAP1 SSTORE PUSH1 0x0 SWAP1 PUSH3 0xF4240 SWAP1 PUSH2 0x92E SWAP1 DUP6 PUSH2 0xEDE JUMP JUMPDEST PUSH2 0x938 SWAP2 SWAP1 PUSH2 0xDA7 JUMP JUMPDEST PUSH1 0x40 MLOAD PUSH4 0x23B872DD PUSH1 0xE0 SHL DUP2 MSTORE SWAP1 SWAP2 POP PUSH1 0x1 PUSH1 0x1 PUSH1 0xA0 SHL SUB DUP4 AND SWAP1 PUSH4 0x23B872DD SWAP1 PUSH2 0x96B SWAP1 CALLER SWAP1 ADDRESS SWAP1 DUP7 SWAP1 PUSH1 0x4 ADD PUSH2 0xC99 JUMP JUMPDEST PUSH1 0x20 PUSH1 0x40 MLOAD DUP1 DUP4 SUB DUP2 PUSH1 0x0 DUP8 DUP1 EXTCODESIZE ISZERO DUP1 ISZERO PUSH2 0x985 JUMPI PUSH1 0x0 DUP1 REVERT JUMPDEST POP GAS CALL ISZERO DUP1 ISZERO PUSH2 0x999 JUMPI RETURNDATASIZE PUSH1 0x0 DUP1 RETURNDATACOPY RETURNDATASIZE PUSH1 0x0 REVERT JUMPDEST POP POP POP POP PUSH1 0x40 MLOAD RETURNDATASIZE PUSH1 0x1F NOT PUSH1 0x1F DUP3 ADD AND DUP3 ADD DUP1 PUSH1 0x40 MSTORE POP DUP2 ADD SWAP1 PUSH2 0x9BD SWAP2 SWAP1 PUSH2 0xBE6 JUMP JUMPDEST PUSH2 0x9D9 JUMPI PUSH1 0x40 MLOAD PUSH3 0x461BCD PUSH1 0xE5 SHL DUP2 MSTORE PUSH1 0x4 ADD PUSH2 0x3B0 SWAP1 PUSH2 0xD18 JUMP JUMPDEST DUP3 PUSH1 0x5 PUSH1 0x0 DUP3 DUP3 SLOAD PUSH2 0x9EB SWAP2 SWAP1 PUSH2 0xD8F JUMP JUMPDEST SWAP3 POP POP DUP2 SWAP1 SSTORE POP DUP1 PUSH1 0x3 PUSH1 0x0 DUP3 DUP3 SLOAD PUSH2 0x546 SWAP2 SWAP1 PUSH2 0xD8F JUMP JUMPDEST PUSH1 0x9 SLOAD PUSH1 0x40 DUP1 MLOAD PUSH4 0x3FABE5A3 PUSH1 0xE2 SHL DUP2 MSTORE SWAP1 MLOAD PUSH1 0x0 SWAP3 PUSH1 0x1 PUSH1 0x1 PUSH1 0xA0 SHL SUB AND SWAP2 DUP4 SWAP2 DUP4 SWAP2 PUSH4 0xFEAF968C SWAP2 PUSH1 0x4 DUP1 DUP4 ADD SWAP3 PUSH1 0xA0 SWAP3 SWAP2 SWAP1 DUP3 SWAP1 SUB ADD DUP2 DUP7 DUP1 EXTCODESIZE ISZERO DUP1 ISZERO PUSH2 0xA4D JUMPI PUSH1 0x0 DUP1 REVERT JUMPDEST POP GAS STATICCALL ISZERO DUP1 ISZERO PUSH2 0xA61 JUMPI RETURNDATASIZE PUSH1 0x0 DUP1 RETURNDATACOPY RETURNDATASIZE PUSH1 0x0 REVERT JUMPDEST POP POP POP POP PUSH1 0x40 MLOAD RETURNDATASIZE PUSH1 0x1F NOT PUSH1 0x1F DUP3 ADD AND DUP3 ADD DUP1 PUSH1 0x40 MSTORE POP DUP2 ADD SWAP1 PUSH2 0xA85 SWAP2 SWAP1 PUSH2 0xC36 JUMP JUMPDEST POP SWAP2 SWAP6 POP POP POP POP POP POP SWAP1 JUMP JUMPDEST PUSH1 0x0 DUP1 PUSH2 0xA9D DUP4 PUSH2 0xAF4 JUMP JUMPDEST SWAP1 POP PUSH3 0xF4240 PUSH2 0xAAC DUP3 PUSH2 0xB43 JUMP JUMPDEST PUSH2 0xABA PUSH1 0x3 SLOAD PUSH1 0x4 SLOAD PUSH2 0xBB3 JUMP JUMPDEST PUSH2 0xAC4 SWAP2 SWAP1 PUSH2 0xEDE JUMP JUMPDEST PUSH2 0xACE SWAP2 SWAP1 PUSH2 0xDA7 JUMP JUMPDEST SWAP2 POP POP JUMPDEST SWAP2 SWAP1 POP JUMP JUMPDEST PUSH1 0x0 PUSH1 0x7 SLOAD DUP3 GT ISZERO PUSH2 0xAEB JUMPI POP PUSH1 0x1 PUSH2 0xAD2 JUMP JUMPDEST POP PUSH1 0x0 NOT PUSH2 0xAD2 JUMP JUMPDEST PUSH1 0x0 PUSH1 0x7 SLOAD DUP3 GT ISZERO PUSH2 0xB2D JUMPI PUSH1 0x7 SLOAD PUSH3 0xF4240 SWAP1 PUSH2 0xB12 DUP5 DUP4 PUSH2 0xEDE JUMP JUMPDEST PUSH2 0xB1C SWAP2 SWAP1 PUSH2 0xDA7 JUMP JUMPDEST PUSH2 0xB26 SWAP2 SWAP1 PUSH2 0xEFD JUMP JUMPDEST SWAP1 POP PUSH2 0xAD2 JUMP JUMPDEST PUSH3 0xF4240 DUP3 PUSH1 0x7 SLOAD PUSH3 0xF4240 PUSH2 0xB12 SWAP2 SWAP1 PUSH2 0xEDE JUMP JUMPDEST PUSH1 0x0 DUP1 PUSH2 0xB51 DUP4 PUSH1 0x3 PUSH2 0xEDE JUMP JUMPDEST PUSH3 0xF4240 PUSH2 0xB60 PUSH1 0x2 DUP7 PUSH2 0xE0D JUMP JUMPDEST PUSH2 0xB6A SWAP2 SWAP1 PUSH2 0xDA7 JUMP JUMPDEST PUSH2 0xB75 SWAP1 PUSH1 0x9 PUSH2 0xEDE JUMP JUMPDEST PUSH2 0xB7F SWAP2 SWAP1 PUSH2 0xD8F JUMP JUMPDEST PUSH2 0xB8C SWAP1 PUSH3 0xF4240 PUSH2 0xD8F JUMP JUMPDEST SWAP1 POP PUSH5 0xE8D4A51000 PUSH2 0xB9E DUP3 DUP3 PUSH2 0xDA7 JUMP JUMPDEST PUSH2 0xBAB SWAP1 PUSH3 0xF4240 PUSH2 0xEFD JUMP JUMPDEST SWAP5 SWAP4 POP POP POP POP JUMP JUMPDEST PUSH1 0x0 DUP2 DUP4 GT ISZERO PUSH2 0xBC3 JUMPI DUP2 PUSH2 0xBC5 JUMP JUMPDEST DUP3 JUMPDEST SWAP4 SWAP3 POP POP POP JUMP JUMPDEST DUP1 MLOAD PUSH10 0xFFFFFFFFFFFFFFFFFFFF DUP2 AND DUP2 EQ PUSH2 0xAD2 JUMPI PUSH1 0x0 DUP1 REVERT JUMPDEST PUSH1 0x0 PUSH1 0x20 DUP3 DUP5 SUB SLT ISZERO PUSH2 0xBF7 JUMPI DUP1 DUP2 REVERT JUMPDEST DUP2 MLOAD DUP1 ISZERO ISZERO DUP2 EQ PUSH2 0xBC5 JUMPI DUP2 DUP3 REVERT JUMPDEST PUSH1 0x0 PUSH1 0x20 DUP3 DUP5 SUB SLT ISZERO PUSH2 0xC17 JUMPI DUP1 DUP2 REVERT JUMPDEST POP CALLDATALOAD SWAP2 SWAP1 POP JUMP JUMPDEST PUSH1 0x0 PUSH1 0x20 DUP3 DUP5 SUB SLT ISZERO PUSH2 0xC2F JUMPI DUP1 DUP2 REVERT JUMPDEST POP MLOAD SWAP2 SWAP1 POP JUMP JUMPDEST PUSH1 0x0 DUP1 PUSH1 0x0 DUP1 PUSH1 0x0 PUSH1 0xA0 DUP7 DUP9 SUB SLT ISZERO PUSH2 0xC4D JUMPI DUP1 DUP2 REVERT JUMPDEST PUSH2 0xC56 DUP7 PUSH2 0xBCC JUMP JUMPDEST SWAP5 POP PUSH1 0x20 DUP7 ADD MLOAD SWAP4 POP PUSH1 0x40 DUP7 ADD MLOAD SWAP3 POP PUSH1 0x60 DUP7 ADD MLOAD SWAP2 POP PUSH2 0xC79 PUSH1 0x80 DUP8 ADD PUSH2 0xBCC JUMP JUMPDEST SWAP1 POP SWAP3 SWAP6 POP SWAP3 SWAP6 SWAP1 SWAP4 POP JUMP JUMPDEST PUSH1 0x1 PUSH1 0x1 PUSH1 0xA0 SHL SUB SWAP2 SWAP1 SWAP2 AND DUP2 MSTORE PUSH1 0x20 ADD SWAP1 JUMP JUMPDEST PUSH1 0x1 PUSH1 0x1 PUSH1 0xA0 SHL SUB SWAP4 DUP5 AND DUP2 MSTORE SWAP2 SWAP1 SWAP3 AND PUSH1 0x20 DUP3 ADD MSTORE PUSH1 0x40 DUP2 ADD SWAP2 SWAP1 SWAP2 MSTORE PUSH1 0x60 ADD SWAP1 JUMP JUMPDEST PUSH1 0x1 PUSH1 0x1 PUSH1 0xA0 SHL SUB SWAP3 SWAP1 SWAP3 AND DUP3 MSTORE PUSH1 0x20 DUP3 ADD MSTORE PUSH1 0x40 ADD SWAP1 JUMP JUMPDEST SWAP1 ISZERO ISZERO DUP2 MSTORE PUSH1 0x20 ADD SWAP1 JUMP JUMPDEST PUSH1 0x20 DUP1 DUP3 MSTORE PUSH1 0x19 SWAP1 DUP3 ADD MSTORE PUSH32 0x4E6F7420656E6F756768207573646320617661696C61626C6500000000000000 PUSH1 0x40 DUP3 ADD MSTORE PUSH1 0x60 ADD SWAP1 JUMP JUMPDEST PUSH1 0x20 DUP1 DUP3 MSTORE PUSH1 0x1A SWAP1 DUP3 ADD MSTORE PUSH32 0x596F7520646F6E2774206861766520656E6F7567682055534443000000000000 PUSH1 0x40 DUP3 ADD MSTORE PUSH1 0x60 ADD SWAP1 JUMP JUMPDEST PUSH1 0x20 DUP1 DUP3 MSTORE PUSH1 0x1F SWAP1 DUP3 ADD MSTORE PUSH32 0x54686520706F6F6C2077617320616C726561647920696E697469617465642E00 PUSH1 0x40 DUP3 ADD MSTORE PUSH1 0x60 ADD SWAP1 JUMP JUMPDEST SWAP1 DUP2 MSTORE PUSH1 0x20 ADD SWAP1 JUMP JUMPDEST PUSH1 0x0 DUP3 NOT DUP3 GT ISZERO PUSH2 0xDA2 JUMPI PUSH2 0xDA2 PUSH2 0xF14 JUMP JUMPDEST POP ADD SWAP1 JUMP JUMPDEST PUSH1 0x0 DUP3 PUSH2 0xDC2 JUMPI PUSH4 0x4E487B71 PUSH1 0xE0 SHL DUP2 MSTORE PUSH1 0x12 PUSH1 0x4 MSTORE PUSH1 0x24 DUP2 REVERT JUMPDEST POP DIV SWAP1 JUMP JUMPDEST DUP1 DUP3 JUMPDEST PUSH1 0x1 DUP1 DUP7 GT PUSH2 0xDD9 JUMPI POP PUSH2 0xE04 JUMP JUMPDEST DUP2 DUP8 DIV DUP3 GT ISZERO PUSH2 0xDEB JUMPI PUSH2 0xDEB PUSH2 0xF14 JUMP JUMPDEST DUP1 DUP7 AND ISZERO PUSH2 0xDF8 JUMPI SWAP2 DUP2 MUL SWAP2 JUMPDEST SWAP5 SWAP1 SWAP5 SHR SWAP4 DUP1 MUL PUSH2 0xDCA JUMP JUMPDEST SWAP5 POP SWAP5 SWAP3 POP POP POP JUMP JUMPDEST PUSH1 0x0 PUSH2 0xBC5 PUSH1 0x0 NOT PUSH1 0xFF DUP6 AND DUP5 PUSH1 0x0 DUP3 PUSH2 0xE29 JUMPI POP PUSH1 0x1 PUSH2 0xBC5 JUMP JUMPDEST DUP2 PUSH2 0xE36 JUMPI POP PUSH1 0x0 PUSH2 0xBC5 JUMP JUMPDEST DUP2 PUSH1 0x1 DUP2 EQ PUSH2 0xE4C JUMPI PUSH1 0x2 DUP2 EQ PUSH2 0xE56 JUMPI PUSH2 0xE83 JUMP JUMPDEST PUSH1 0x1 SWAP2 POP POP PUSH2 0xBC5 JUMP JUMPDEST PUSH1 0xFF DUP5 GT ISZERO PUSH2 0xE67 JUMPI PUSH2 0xE67 PUSH2 0xF14 JUMP JUMPDEST PUSH1 0x1 DUP5 SHL SWAP2 POP DUP5 DUP3 GT ISZERO PUSH2 0xE7D JUMPI PUSH2 0xE7D PUSH2 0xF14 JUMP JUMPDEST POP PUSH2 0xBC5 JUMP JUMPDEST POP PUSH1 0x20 DUP4 LT PUSH2 0x133 DUP4 LT AND PUSH1 0x4E DUP5 LT PUSH1 0xB DUP5 LT AND OR ISZERO PUSH2 0xEB6 JUMPI POP DUP2 DUP2 EXP DUP4 DUP2 GT ISZERO PUSH2 0xEB1 JUMPI PUSH2 0xEB1 PUSH2 0xF14 JUMP JUMPDEST PUSH2 0xBC5 JUMP JUMPDEST PUSH2 0xEC3 DUP5 DUP5 DUP5 PUSH1 0x1 PUSH2 0xDC7 JUMP JUMPDEST DUP1 DUP7 DIV DUP3 GT ISZERO PUSH2 0xED5 JUMPI PUSH2 0xED5 PUSH2 0xF14 JUMP JUMPDEST MUL SWAP5 SWAP4 POP POP POP POP JUMP JUMPDEST PUSH1 0x0 DUP2 PUSH1 0x0 NOT DIV DUP4 GT DUP3 ISZERO ISZERO AND ISZERO PUSH2 0xEF8 JUMPI PUSH2 0xEF8 PUSH2 0xF14 JUMP JUMPDEST POP MUL SWAP1 JUMP JUMPDEST PUSH1 0x0 DUP3 DUP3 LT ISZERO PUSH2 0xF0F JUMPI PUSH2 0xF0F PUSH2 0xF14 JUMP JUMPDEST POP SUB SWAP1 JUMP JUMPDEST PUSH4 0x4E487B71 PUSH1 0xE0 SHL PUSH1 0x0 MSTORE PUSH1 0x11 PUSH1 0x4 MSTORE PUSH1 0x24 PUSH1 0x0 REVERT INVALID LOG2 PUSH5 0x6970667358 0x22 SLT KECCAK256 DUP7 0xC9 SAR 0xD0 MSIZE CALL LOG3 PUSH7 0x9A4CAC80836E3D POP 0xCA 0xEC 0x1E CALLDATACOPY 0xBF DELEGATECALL DUP4 SLT MLOAD DUP10 0xA7 PUSH29 0xEE048B5A64736F6C634300080000330000000000000000000000000000 ",
  "sha1": "0d5d41b78160ce3370a922d86c34d9c29b9a2653",
  "source": "// SPDX-License-Identifier: MIT\npragma solidity ^0.8.0;\n\nimport { ERC20 } from \"@openzeppelin/contracts/token/ERC20/ERC20.sol\";\nimport \"@chainlink/contracts/src/v0.8/interfaces/AggregatorV3Interface.sol\";\n\n\ninterface IERC20 {\n    function transfer(address recipient, uint256 amount) external returns (bool);\n    function transferFrom(address sender, address recipient, uint256 amount) external returns (bool);\n    function approve(address spender, uint256 amount) external returns (bool);\n}\n\ncontract BTCUP is ERC20 {\n    constructor() ERC20(\"Bitcoin Up\", \"BTCUP\") {\n      \n    }\n\n    function mint(uint256 quantity) public {\n        _mint(tx.origin, quantity);\n    }\n\n    function burn(uint256 quantity) public {\n        _burn(tx.origin, quantity);\n    }\n\n    function decimals() public view override returns (uint8) {\n        return 6;\n    }\n}\n\n\ncontract BTCDOWN is ERC20 {\n    constructor() ERC20(\"Bitcoin Down\", \"BTCDOWN\") {\n    }\n\n    function mint(uint256 quantity) public {\n        _mint(tx.origin, quantity);\n    }\n\n    function burn(uint256 quantity) public {\n        _burn(tx.origin, quantity);\n    }\n\n    function decimals() public view override returns (uint8) {\n        return 6;\n    }\n}\n\n\ncontract LeverageTrading{\n\n    bool public poolIsInitiated = false;\n\n    uint256 public priceBtcUp = 10 ** 6;\n    uint256 public priceBtcDown = 10 ** 6;        // 6 decimals\n\n    uint256 public collateralBtcUp = 0;          //6 decimals\n    uint256 public collateralBtcDown = 0;\n\n    uint256 public amountBtcUp = 0;           // 6 decimals\n    uint256 public amountBtcDown = 0;         // 6 decimals\n\n    uint256 public lastBtcPrice = 0;       // 8 decimals, chainlink conventions\n\n    address addressUsdc = 0xb7a4F3E9097C08dA09517b5aB877F7a917224ede;  // <- Kovan  //0xeb8f08a975Ab53E34D8a0330E0D34de942C95926;\n    address addressBtcUSDFeed =  0x6135b13325bfC4B00278B4abC5e20bbce2D6580e; // <- Kovan          // 0xECe365B379E1dD183B20fc5f022230C044d51404;\n\n\n    BTCUP btcUp = new BTCUP();\n    BTCDOWN btcDown = new BTCDOWN();\n\n\n    function initiatePool(uint256 amountLeveragedTokens) public {\n        require(!poolIsInitiated, \"The pool was already initiated.\");\n\n        issueBtcUp(amountLeveragedTokens);\n        issueBtcDown(amountLeveragedTokens);\n\n        poolIsInitiated = true;\n    }\n\n\n\n    function issueBtcUp(uint256 amountLeveragedTokens) public {\n        rebalanceLeveragedTokens();\n        btcUp.mint(amountLeveragedTokens);\n\n        IERC20 usdc = IERC20(addressUsdc);\n        priceBtcUp = getBtcUpPrice();\n\n        uint256 amountUsdc = amountLeveragedTokens * priceBtcUp / 10 ** 6;\n\n        require(usdc.transferFrom(msg.sender, address(this), amountUsdc), \"You don't have enough USDC\");\n\n        amountBtcUp += amountLeveragedTokens;\n        collateralBtcUp += amountUsdc;\n    }\n\n\n\n    function issueBtcDown(uint256 amountLeveragedTokens) public {\n        rebalanceLeveragedTokens();\n        btcDown.mint(amountLeveragedTokens);\n\n        IERC20 usdc = IERC20(addressUsdc);\n        priceBtcDown = getBtcDownPrice();\n        uint256 amountUsdc = amountLeveragedTokens * priceBtcDown / 10 ** 6;\n\n        require(usdc.transferFrom(msg.sender, address(this), amountUsdc), \"You don't have enough USDC\");\n\n        amountBtcDown += amountLeveragedTokens;\n        collateralBtcDown += amountUsdc;\n    }\n\n\n\n    function redeemBtcUp(uint256 amountLeveragedTokens) public {\n        rebalanceLeveragedTokens();\n        btcUp.burn(amountLeveragedTokens);\n\n        IERC20 usdc = IERC20(addressUsdc);\n        priceBtcUp = getBtcUpPrice();\n\n        uint256 amountUsdc = amountLeveragedTokens * priceBtcUp / 10 ** 6;\n        require(usdc.transfer(msg.sender, amountUsdc), \"Not enough usdc available\");\n\n        amountBtcUp -= amountLeveragedTokens;\n        collateralBtcUp -= amountUsdc;\n    }\n\n\n\n    function redeemBtcDown(uint256 amountLeveragedTokens) public {\n        rebalanceLeveragedTokens();\n        btcDown.burn(amountLeveragedTokens);\n\n        IERC20 usdc = IERC20(addressUsdc);\n        priceBtcDown = getBtcDownPrice();\n    \n        uint256 amountUsdc = amountLeveragedTokens * priceBtcDown / 10 ** 6;\n        require(usdc.transfer(msg.sender,  amountUsdc), \"Not enough usdc available\");\n\n        amountBtcDown -= amountLeveragedTokens;\n        collateralBtcDown -= amountUsdc;\n\n    }\n\n\n\n    function rebalanceLeveragedTokens() public {\n        uint256 btcPrice = getBtcPrice();\n        if ((collateralBtcUp > 0) && (collateralBtcDown > 0)) {\n            uint256 rebalanceAmount = getRebalanceAmount(btcPrice);\n            if (getSign(btcPrice) > 0) {\n                collateralBtcUp += rebalanceAmount;\n                collateralBtcDown -= rebalanceAmount;\n            }\n\n            else {\n                collateralBtcUp -= rebalanceAmount;\n                collateralBtcDown += rebalanceAmount;\n            }\n\n        }\n\n        lastBtcPrice = btcPrice;\n    }\n\n/////////////////////////////////////////////////////////////////////////////////////////////////////////////////////////////////////////////////////////////////////////\n\n    function getSign(uint256 btcPrice) internal view returns (int256){\n        if (btcPrice > lastBtcPrice) {\n            return 1;\n        }\n        else {\n            return -1;\n        }\n    }\n\n \n    function getRebalanceAmount(uint256 priceBtc) internal view returns (uint256){\n        uint256 priceDiff = getPriceDiff(priceBtc);\n\n        return min(collateralBtcUp, collateralBtcDown) * L(priceDiff) / 10 ** 6;\n    }\n\n\n// getBtcUpPrice() 6 decimals\n    function getBtcUpPrice() public view returns (uint256) {\n        return amountBtcUp == 0 ?  priceBtcUp : collateralBtcUp * 10 ** 6 / amountBtcUp ;\n    }\n\n\n// getBtcDownPrice() 6 decimals\n    function getBtcDownPrice() public view returns (uint256) {//6 decimals\n        return amountBtcDown == 0 ?  priceBtcDown : collateralBtcDown * 10 ** 6 / amountBtcDown ;\n    }\n\n\n// get the price of our asset with 8 decimals\n    function getBtcPrice() internal view returns (uint256) {\n        AggregatorV3Interface priceFeed = AggregatorV3Interface(addressBtcUSDFeed);\n        (,int256 answer,,,) = priceFeed.latestRoundData();\n\n         return uint256(answer);             // we call chainlink oracle to get the price of the asset\n         \n    }\n\n    \n    function min(uint256 a, uint256 b) internal pure returns (uint256) {\n        return a <= b ? a : b;\n    }\n\n\n    function L(uint256 x) internal pure returns (uint256) {            //6  decimals\n\n        uint256 denom = 9 * (x ** 2 / 10 ** 6)  + 3 * x + 10 ** 6;\n        uint256 num = 10 ** 12;\n\n        return 10 ** 6 - num / denom;\n    } \n\n\n    function getPriceDiff(uint256 btcPrice) internal view returns (uint256) {     //6 decimals\n        if (btcPrice > lastBtcPrice) {\n            return 10 ** 6 * btcPrice / lastBtcPrice - 10 ** 6;\n        }\n\n        else {\n            return 10 ** 6 * lastBtcPrice / btcPrice - 10 ** 6;\n        }\n\n    }\n\n\n    function getBtcupBalance() public view returns(uint256) {\n        return btcUp.balanceOf(msg.sender);\n    }\n\n\n    function getBtcdownBalance() public view returns(uint256) {\n        return btcDown.balanceOf(msg.sender);\n    }\n\n\n}",
  "sourcePath": "contracts/LeverageTrading.sol",
  "type": "contract"
}