{
  "abi": [
    {
      "inputs": [],
      "name": "addressBtcUSDFeed",
      "outputs": [
        {
          "internalType": "address",
          "name": "",
          "type": "address"
        }
      ],
      "stateMutability": "view",
      "type": "function"
    },
    {
      "inputs": [
        {
          "internalType": "uint256",
          "name": "amountLeverageTokens",
          "type": "uint256"
        }
      ],
      "name": "initiatePool",
      "outputs": [],
      "stateMutability": "nonpayable",
      "type": "function"
    },
    {
      "inputs": [
        {
          "internalType": "uint256",
          "name": "amountLeverageTokens",
          "type": "uint256"
        }
      ],
      "name": "issueBtcDown",
      "outputs": [],
      "stateMutability": "nonpayable",
      "type": "function"
    },
    {
      "inputs": [
        {
          "internalType": "uint256",
          "name": "amountLeverageTokens",
          "type": "uint256"
        }
      ],
      "name": "issueBtcUp",
      "outputs": [],
      "stateMutability": "nonpayable",
      "type": "function"
    },
    {
      "inputs": [],
      "name": "rebalanceLeverageTokens",
      "outputs": [],
      "stateMutability": "nonpayable",
      "type": "function"
    },
    {
      "inputs": [
        {
          "internalType": "uint256",
          "name": "amountLeverageTokens",
          "type": "uint256"
        }
      ],
      "name": "redeemBtcDown",
      "outputs": [],
      "stateMutability": "nonpayable",
      "type": "function"
    },
    {
      "inputs": [
        {
          "internalType": "uint256",
          "name": "amountLeverageTokens",
          "type": "uint256"
        }
      ],
      "name": "redeemBtcUp",
      "outputs": [],
      "stateMutability": "nonpayable",
      "type": "function"
    }
  ],
  "bytecode": "608060408190526000805460ff19168155670de0b6b3a764000060018190556002556003819055600481905560058190556006819055600755600880546001600160a01b031990811673b7a4f3e9097c08da09517b5ab877f7a917224ede1790915560098054909116736135b13325bfc4b00278b4abc5e20bbce2d6580e17905561008990610121565b604051809103906000f0801580156100a5573d6000803e3d6000fd5b50600a80546001600160a01b0319166001600160a01b03929092169190911790556040516100d29061012e565b604051809103906000f0801580156100ee573d6000803e3d6000fd5b50600b80546001600160a01b0319166001600160a01b039290921691909117905534801561011b57600080fd5b5061013b565b610e4180610e9583390190565b610e4580611cd683390190565b610d4b8061014a6000396000f3fe608060405234801561001057600080fd5b506004361061007d5760003560e01c8063c46d4f091161005b578063c46d4f09146100c8578063d1ee539d146100db578063d4e75a88146100ee578063f530c04a146100f65761007d565b80639b3075a114610082578063a14274e814610097578063b732269a146100aa575b600080fd5b610095610090366004610a14565b610109565b005b6100956100a5366004610a14565b610157565b6100b26102ca565b6040516100bf9190610a7b565b60405180910390f35b6100956100d6366004610a14565b6102d9565b6100956100e9366004610a14565b610444565b6100956105ad565b610095610104366004610a14565b610651565b60005460ff16156101355760405162461bcd60e51b815260040161012c90610b3a565b60405180910390fd5b61013e81610651565b610147816102d9565b506000805460ff19166001179055565b61015f6105ad565b600b54604051630852cd8d60e31b81526001600160a01b03909116906342966c689061018f908490600401610b71565b600060405180830381600087803b1580156101a957600080fd5b505af11580156101bd573d6000803e3d6000fd5b50506008546001600160a01b0316915060009050670de0b6b3a76400006101e26107bc565b6101ec9085610cc9565b6101f69190610b92565b60405163a9059cbb60e01b81529091506001600160a01b0383169063a9059cbb906102279033908590600401610ab3565b602060405180830381600087803b15801561024157600080fd5b505af1158015610255573d6000803e3d6000fd5b505050506040513d601f19601f8201168201806040525081019061027991906109f4565b6102955760405162461bcd60e51b815260040161012c90610acc565b82600660008282546102a79190610ce8565b9250508190555080600460008282546102c09190610ce8565b9091555050505050565b6009546001600160a01b031681565b6102e16105ad565b600b5460405163140e25ad60e31b81526001600160a01b039091169063a0712d6890610311908490600401610b71565b600060405180830381600087803b15801561032b57600080fd5b505af115801561033f573d6000803e3d6000fd5b50506008546001600160a01b0316915060009050670de0b6b3a76400006103646107bc565b61036e9085610cc9565b6103789190610b92565b6040516323b872dd60e01b81529091506001600160a01b038316906323b872dd906103ab90339030908690600401610a8f565b602060405180830381600087803b1580156103c557600080fd5b505af11580156103d9573d6000803e3d6000fd5b505050506040513d601f19601f820116820180604052508101906103fd91906109f4565b6104195760405162461bcd60e51b815260040161012c90610b03565b826006600082825461042b9190610b7a565b9250508190555080600460008282546102c09190610b7a565b61044c6105ad565b600a54604051630852cd8d60e31b81526001600160a01b03909116906342966c689061047c908490600401610b71565b600060405180830381600087803b15801561049657600080fd5b505af11580156104aa573d6000803e3d6000fd5b50506008546001600160a01b0316915060009050670de0b6b3a76400006104cf6107e5565b6104d99085610cc9565b6104e39190610b92565b60405163a9059cbb60e01b81529091506001600160a01b0383169063a9059cbb906105149033908590600401610ab3565b602060405180830381600087803b15801561052e57600080fd5b505af1158015610542573d6000803e3d6000fd5b505050506040513d601f19601f8201168201806040525081019061056691906109f4565b6105825760405162461bcd60e51b815260040161012c90610acc565b82600560008282546105949190610ce8565b9250508190555080600360008282546102c09190610ce8565b60006105b76107f7565b60005490915060ff161561064c5760006105d082610884565b905060006105dd836108cf565b13156106195780600360008282546105f59190610b7a565b92505081905550806004600082825461060e9190610ce8565b9091555061064a9050565b806003600082825461062b9190610ce8565b9250508190555080600460008282546106449190610b7a565b90915550505b505b600755565b6106596105ad565b600a5460405163140e25ad60e31b81526001600160a01b039091169063a0712d6890610689908490600401610b71565b600060405180830381600087803b1580156106a357600080fd5b505af11580156106b7573d6000803e3d6000fd5b50506008546001600160a01b0316915060009050670de0b6b3a76400006106dc6107e5565b6106e69085610cc9565b6106f09190610b92565b6040516323b872dd60e01b81529091506001600160a01b038316906323b872dd9061072390339030908690600401610a8f565b602060405180830381600087803b15801561073d57600080fd5b505af1158015610751573d6000803e3d6000fd5b505050506040513d601f19601f8201168201806040525081019061077591906109f4565b6107915760405162461bcd60e51b815260040161012c90610b03565b82600560008282546107a39190610b7a565b9250508190555080600360008282546102c09190610b7a565b60006006546004546107ce9190610b92565b6107e090670de0b6b3a7640000610cc9565b905090565b60006005546003546107ce9190610b92565b60095460408051633fabe5a360e21b815290516000926001600160a01b0316918391839163feaf968c9160048083019260a0929190829003018186803b15801561084057600080fd5b505afa158015610854573d6000803e3d6000fd5b505050506040513d601f19601f820116820180604052508101906108789190610a2c565b50919550505050505090565b600080610890836108ec565b9050670de0b6b3a76400006108a48261094a565b6108b26003546004546109c1565b6108bc9190610cc9565b6108c69190610b92565b9150505b919050565b60006007548211156108e3575060016108ca565b506000196108ca565b600060075482111561092a57600754670de0b6b3a76400009061090f8483610cc9565b6109199190610b92565b6109239190610ce8565b90506108ca565b670de0b6b3a764000082600754670de0b6b3a764000061090f9190610cc9565b600080610958836003610cc9565b670de0b6b3a764000061096c600286610bf8565b6109769190610b92565b610981906009610cc9565b61098b9190610b7a565b61099d90670de0b6b3a7640000610b7a565b90506ec097ce7bc90715b34b9f10000000006109b98282610b92565b949350505050565b6000818311156109d157816109d3565b825b9392505050565b805169ffffffffffffffffffff811681146108ca57600080fd5b600060208284031215610a05578081fd5b815180151581146109d3578182fd5b600060208284031215610a25578081fd5b5035919050565b600080600080600060a08688031215610a43578081fd5b610a4c866109da565b9450602086015193506040860151925060608601519150610a6f608087016109da565b90509295509295909350565b6001600160a01b0391909116815260200190565b6001600160a01b039384168152919092166020820152604081019190915260600190565b6001600160a01b03929092168252602082015260400190565b60208082526019908201527f4e6f7420656e6f756768207573646320617661696c61626c6500000000000000604082015260600190565b6020808252601a908201527f596f7520646f6e2774206861766520656e6f7567682055534443000000000000604082015260600190565b6020808252601f908201527f54686520706f6f6c2077617320616c726561647920696e697469617465642e00604082015260600190565b90815260200190565b60008219821115610b8d57610b8d610cff565b500190565b600082610bad57634e487b7160e01b81526012600452602481fd5b500490565b80825b6001808611610bc45750610bef565b818704821115610bd657610bd6610cff565b80861615610be357918102915b9490941c938002610bb5565b94509492505050565b60006109d360001960ff851684600082610c14575060016109d3565b81610c21575060006109d3565b8160018114610c375760028114610c4157610c6e565b60019150506109d3565b60ff841115610c5257610c52610cff565b6001841b915084821115610c6857610c68610cff565b506109d3565b5060208310610133831016604e8410600b8410161715610ca1575081810a83811115610c9c57610c9c610cff565b6109d3565b610cae8484846001610bb2565b808604821115610cc057610cc0610cff565b02949350505050565b6000816000190483118215151615610ce357610ce3610cff565b500290565b600082821015610cfa57610cfa610cff565b500390565b634e487b7160e01b600052601160045260246000fdfea26469706673582212205f3f7e2483878db7ba6bf874d5b47aa0e2ad29fe2f64f5e50bbee9283d177b5e64736f6c6343000800003360806040523480156200001157600080fd5b50604080518082018252600a8152690426974636f696e2055760b41b602080830191825283518085019094526005845264042544355560dc1b908401528151919291620000619160039162000080565b5080516200007790600490602084019062000080565b50505062000163565b8280546200008e9062000126565b90600052602060002090601f016020900481019282620000b25760008555620000fd565b82601f10620000cd57805160ff1916838001178555620000fd565b82800160010185558215620000fd579182015b82811115620000fd578251825591602001919060010190620000e0565b506200010b9291506200010f565b5090565b5b808211156200010b576000815560010162000110565b6002810460018216806200013b57607f821691505b602082108114156200015d57634e487b7160e01b600052602260045260246000fd5b50919050565b610cce80620001736000396000f3fe608060405234801561001057600080fd5b50600436106100cf5760003560e01c806342966c681161008c578063a0712d6811610066578063a0712d6814610192578063a457c2d7146101a5578063a9059cbb146101b8578063dd62ed3e146101cb576100cf565b806342966c681461016257806370a082311461017757806395d89b411461018a576100cf565b806306fdde03146100d4578063095ea7b3146100f257806318160ddd1461011257806323b872dd14610127578063313ce5671461013a578063395093511461014f575b600080fd5b6100dc6101de565b6040516100e99190610913565b60405180910390f35b6101056101003660046108c7565b610270565b6040516100e99190610908565b61011a61028d565b6040516100e99190610c01565b61010561013536600461088c565b610293565b61014261032c565b6040516100e99190610c0a565b61010561015d3660046108c7565b610331565b6101756101703660046108f0565b610385565b005b61011a610185366004610839565b610392565b6100dc6103b1565b6101756101a03660046108f0565b6103c0565b6101056101b33660046108c7565b6103ca565b6101056101c63660046108c7565b610443565b61011a6101d936600461085a565b610457565b6060600380546101ed90610c47565b80601f016020809104026020016040519081016040528092919081815260200182805461021990610c47565b80156102665780601f1061023b57610100808354040283529160200191610266565b820191906000526020600020905b81548152906001019060200180831161024957829003601f168201915b5050505050905090565b600061028461027d610482565b8484610486565b50600192915050565b60025490565b60006102a084848461053a565b6001600160a01b0384166000908152600160205260408120816102c1610482565b6001600160a01b03166001600160a01b031681526020019081526020016000205490508281101561030d5760405162461bcd60e51b815260040161030490610a73565b60405180910390fd5b61032185610319610482565b858403610486565b506001949350505050565b601290565b600061028461033e610482565b84846001600061034c610482565b6001600160a01b03908116825260208083019390935260409182016000908120918b16815292529020546103809190610c18565b610486565b61038f3382610664565b50565b6001600160a01b0381166000908152602081905260409020545b919050565b6060600480546101ed90610c47565b61038f3382610756565b600080600160006103d9610482565b6001600160a01b03908116825260208083019390935260409182016000908120918816815292529020549050828110156104255760405162461bcd60e51b815260040161030490610b85565b610439610430610482565b85858403610486565b5060019392505050565b6000610284610450610482565b848461053a565b6001600160a01b03918216600090815260016020908152604080832093909416825291909152205490565b3390565b6001600160a01b0383166104ac5760405162461bcd60e51b815260040161030490610b41565b6001600160a01b0382166104d25760405162461bcd60e51b8152600401610304906109eb565b6001600160a01b0380841660008181526001602090815260408083209487168084529490915290819020849055517f8c5be1e5ebec7d5bd14f71427d1e84f3dd0314c0f7b2291e5b200ac8c7c3b9259061052d908590610c01565b60405180910390a3505050565b6001600160a01b0383166105605760405162461bcd60e51b815260040161030490610afc565b6001600160a01b0382166105865760405162461bcd60e51b815260040161030490610966565b610591838383610751565b6001600160a01b038316600090815260208190526040902054818110156105ca5760405162461bcd60e51b815260040161030490610a2d565b6001600160a01b03808516600090815260208190526040808220858503905591851681529081208054849290610601908490610c18565b92505081905550826001600160a01b0316846001600160a01b03167fddf252ad1be2c89b69c2b068fc378daa952ba7f163c4a11628f55a4df523b3ef8460405161064b9190610c01565b60405180910390a361065e848484610751565b50505050565b6001600160a01b03821661068a5760405162461bcd60e51b815260040161030490610abb565b61069682600083610751565b6001600160a01b038216600090815260208190526040902054818110156106cf5760405162461bcd60e51b8152600401610304906109a9565b6001600160a01b03831660009081526020819052604081208383039055600280548492906106fe908490610c30565b90915550506040516000906001600160a01b038516907fddf252ad1be2c89b69c2b068fc378daa952ba7f163c4a11628f55a4df523b3ef90610741908690610c01565b60405180910390a3610751836000845b505050565b6001600160a01b03821661077c5760405162461bcd60e51b815260040161030490610bca565b61078860008383610751565b806002600082825461079a9190610c18565b90915550506001600160a01b038216600090815260208190526040812080548392906107c7908490610c18565b90915550506040516001600160a01b038316906000907fddf252ad1be2c89b69c2b068fc378daa952ba7f163c4a11628f55a4df523b3ef9061080a908590610c01565b60405180910390a361081e60008383610751565b5050565b80356001600160a01b03811681146103ac57600080fd5b60006020828403121561084a578081fd5b61085382610822565b9392505050565b6000806040838503121561086c578081fd5b61087583610822565b915061088360208401610822565b90509250929050565b6000806000606084860312156108a0578081fd5b6108a984610822565b92506108b760208501610822565b9150604084013590509250925092565b600080604083850312156108d9578182fd5b6108e283610822565b946020939093013593505050565b600060208284031215610901578081fd5b5035919050565b901515815260200190565b6000602080835283518082850152825b8181101561093f57858101830151858201604001528201610923565b818111156109505783604083870101525b50601f01601f1916929092016040019392505050565b60208082526023908201527f45524332303a207472616e7366657220746f20746865207a65726f206164647260408201526265737360e81b606082015260800190565b60208082526022908201527f45524332303a206275726e20616d6f756e7420657863656564732062616c616e604082015261636560f01b606082015260800190565b60208082526022908201527f45524332303a20617070726f766520746f20746865207a65726f206164647265604082015261737360f01b606082015260800190565b60208082526026908201527f45524332303a207472616e7366657220616d6f756e7420657863656564732062604082015265616c616e636560d01b606082015260800190565b60208082526028908201527f45524332303a207472616e7366657220616d6f756e74206578636565647320616040820152676c6c6f77616e636560c01b606082015260800190565b60208082526021908201527f45524332303a206275726e2066726f6d20746865207a65726f206164647265736040820152607360f81b606082015260800190565b60208082526025908201527f45524332303a207472616e736665722066726f6d20746865207a65726f206164604082015264647265737360d81b606082015260800190565b60208082526024908201527f45524332303a20617070726f76652066726f6d20746865207a65726f206164646040820152637265737360e01b606082015260800190565b60208082526025908201527f45524332303a2064656372656173656420616c6c6f77616e63652062656c6f77604082015264207a65726f60d81b606082015260800190565b6020808252601f908201527f45524332303a206d696e7420746f20746865207a65726f206164647265737300604082015260600190565b90815260200190565b60ff91909116815260200190565b60008219821115610c2b57610c2b610c82565b500190565b600082821015610c4257610c42610c82565b500390565b600281046001821680610c5b57607f821691505b60208210811415610c7c57634e487b7160e01b600052602260045260246000fd5b50919050565b634e487b7160e01b600052601160045260246000fdfea2646970667358221220aa9cb888630d6792d785303bebca60fa3704cf777fde896b4556344e7b591dec64736f6c6343000800003360806040523480156200001157600080fd5b50604080518082018252600c81526b2134ba31b7b4b7102237bbb760a11b602080830191825283518085019094526007845266212a21a227aba760c91b908401528151919291620000659160039162000084565b5080516200007b90600490602084019062000084565b50505062000167565b82805462000092906200012a565b90600052602060002090601f016020900481019282620000b6576000855562000101565b82601f10620000d157805160ff191683800117855562000101565b8280016001018555821562000101579182015b8281111562000101578251825591602001919060010190620000e4565b506200010f92915062000113565b5090565b5b808211156200010f576000815560010162000114565b6002810460018216806200013f57607f821691505b602082108114156200016157634e487b7160e01b600052602260045260246000fd5b50919050565b610cce80620001776000396000f3fe608060405234801561001057600080fd5b50600436106100cf5760003560e01c806342966c681161008c578063a0712d6811610066578063a0712d6814610192578063a457c2d7146101a5578063a9059cbb146101b8578063dd62ed3e146101cb576100cf565b806342966c681461016257806370a082311461017757806395d89b411461018a576100cf565b806306fdde03146100d4578063095ea7b3146100f257806318160ddd1461011257806323b872dd14610127578063313ce5671461013a578063395093511461014f575b600080fd5b6100dc6101de565b6040516100e99190610913565b60405180910390f35b6101056101003660046108c7565b610270565b6040516100e99190610908565b61011a61028d565b6040516100e99190610c01565b61010561013536600461088c565b610293565b61014261032c565b6040516100e99190610c0a565b61010561015d3660046108c7565b610331565b6101756101703660046108f0565b610385565b005b61011a610185366004610839565b610392565b6100dc6103b1565b6101756101a03660046108f0565b6103c0565b6101056101b33660046108c7565b6103ca565b6101056101c63660046108c7565b610443565b61011a6101d936600461085a565b610457565b6060600380546101ed90610c47565b80601f016020809104026020016040519081016040528092919081815260200182805461021990610c47565b80156102665780601f1061023b57610100808354040283529160200191610266565b820191906000526020600020905b81548152906001019060200180831161024957829003601f168201915b5050505050905090565b600061028461027d610482565b8484610486565b50600192915050565b60025490565b60006102a084848461053a565b6001600160a01b0384166000908152600160205260408120816102c1610482565b6001600160a01b03166001600160a01b031681526020019081526020016000205490508281101561030d5760405162461bcd60e51b815260040161030490610a73565b60405180910390fd5b61032185610319610482565b858403610486565b506001949350505050565b601290565b600061028461033e610482565b84846001600061034c610482565b6001600160a01b03908116825260208083019390935260409182016000908120918b16815292529020546103809190610c18565b610486565b61038f3382610664565b50565b6001600160a01b0381166000908152602081905260409020545b919050565b6060600480546101ed90610c47565b61038f3382610756565b600080600160006103d9610482565b6001600160a01b03908116825260208083019390935260409182016000908120918816815292529020549050828110156104255760405162461bcd60e51b815260040161030490610b85565b610439610430610482565b85858403610486565b5060019392505050565b6000610284610450610482565b848461053a565b6001600160a01b03918216600090815260016020908152604080832093909416825291909152205490565b3390565b6001600160a01b0383166104ac5760405162461bcd60e51b815260040161030490610b41565b6001600160a01b0382166104d25760405162461bcd60e51b8152600401610304906109eb565b6001600160a01b0380841660008181526001602090815260408083209487168084529490915290819020849055517f8c5be1e5ebec7d5bd14f71427d1e84f3dd0314c0f7b2291e5b200ac8c7c3b9259061052d908590610c01565b60405180910390a3505050565b6001600160a01b0383166105605760405162461bcd60e51b815260040161030490610afc565b6001600160a01b0382166105865760405162461bcd60e51b815260040161030490610966565b610591838383610751565b6001600160a01b038316600090815260208190526040902054818110156105ca5760405162461bcd60e51b815260040161030490610a2d565b6001600160a01b03808516600090815260208190526040808220858503905591851681529081208054849290610601908490610c18565b92505081905550826001600160a01b0316846001600160a01b03167fddf252ad1be2c89b69c2b068fc378daa952ba7f163c4a11628f55a4df523b3ef8460405161064b9190610c01565b60405180910390a361065e848484610751565b50505050565b6001600160a01b03821661068a5760405162461bcd60e51b815260040161030490610abb565b61069682600083610751565b6001600160a01b038216600090815260208190526040902054818110156106cf5760405162461bcd60e51b8152600401610304906109a9565b6001600160a01b03831660009081526020819052604081208383039055600280548492906106fe908490610c30565b90915550506040516000906001600160a01b038516907fddf252ad1be2c89b69c2b068fc378daa952ba7f163c4a11628f55a4df523b3ef90610741908690610c01565b60405180910390a3610751836000845b505050565b6001600160a01b03821661077c5760405162461bcd60e51b815260040161030490610bca565b61078860008383610751565b806002600082825461079a9190610c18565b90915550506001600160a01b038216600090815260208190526040812080548392906107c7908490610c18565b90915550506040516001600160a01b038316906000907fddf252ad1be2c89b69c2b068fc378daa952ba7f163c4a11628f55a4df523b3ef9061080a908590610c01565b60405180910390a361081e60008383610751565b5050565b80356001600160a01b03811681146103ac57600080fd5b60006020828403121561084a578081fd5b61085382610822565b9392505050565b6000806040838503121561086c578081fd5b61087583610822565b915061088360208401610822565b90509250929050565b6000806000606084860312156108a0578081fd5b6108a984610822565b92506108b760208501610822565b9150604084013590509250925092565b600080604083850312156108d9578182fd5b6108e283610822565b946020939093013593505050565b600060208284031215610901578081fd5b5035919050565b901515815260200190565b6000602080835283518082850152825b8181101561093f57858101830151858201604001528201610923565b818111156109505783604083870101525b50601f01601f1916929092016040019392505050565b60208082526023908201527f45524332303a207472616e7366657220746f20746865207a65726f206164647260408201526265737360e81b606082015260800190565b60208082526022908201527f45524332303a206275726e20616d6f756e7420657863656564732062616c616e604082015261636560f01b606082015260800190565b60208082526022908201527f45524332303a20617070726f766520746f20746865207a65726f206164647265604082015261737360f01b606082015260800190565b60208082526026908201527f45524332303a207472616e7366657220616d6f756e7420657863656564732062604082015265616c616e636560d01b606082015260800190565b60208082526028908201527f45524332303a207472616e7366657220616d6f756e74206578636565647320616040820152676c6c6f77616e636560c01b606082015260800190565b60208082526021908201527f45524332303a206275726e2066726f6d20746865207a65726f206164647265736040820152607360f81b606082015260800190565b60208082526025908201527f45524332303a207472616e736665722066726f6d20746865207a65726f206164604082015264647265737360d81b606082015260800190565b60208082526024908201527f45524332303a20617070726f76652066726f6d20746865207a65726f206164646040820152637265737360e01b606082015260800190565b60208082526025908201527f45524332303a2064656372656173656420616c6c6f77616e63652062656c6f77604082015264207a65726f60d81b606082015260800190565b6020808252601f908201527f45524332303a206d696e7420746f20746865207a65726f206164647265737300604082015260600190565b90815260200190565b60ff91909116815260200190565b60008219821115610c2b57610c2b610c82565b500190565b600082821015610c4257610c42610c82565b500390565b600281046001821680610c5b57607f821691505b60208210811415610c7c57634e487b7160e01b600052602260045260246000fd5b50919050565b634e487b7160e01b600052601160045260246000fdfea26469706673582212206255a7f2bdb5b9fa67780ff2dc02925529dfd743a828162418c8d9aecf880f0064736f6c63430008000033",
  "bytecodeSha1": "3b5b1c9eb7f26f3a14078b0ca386a949270cdc04",
  "compiler": {
    "evm_version": "istanbul",
    "optimizer": {
      "enabled": true,
      "runs": 200
    },
    "version": "0.8.0+commit.c7dfd78e"
  },
  "contractName": "LeverageTrading",
  "language": "Solidity",
  "natspec": {
    "kind": "dev",
    "methods": {},
    "version": 1
  },
  "opcodes": "PUSH1 0x80 PUSH1 0x40 MSTORE CALLVALUE DUP1 ISZERO PUSH2 0x10 JUMPI PUSH1 0x0 DUP1 REVERT JUMPDEST POP PUSH1 0x4 CALLDATASIZE LT PUSH2 0x7D JUMPI PUSH1 0x0 CALLDATALOAD PUSH1 0xE0 SHR DUP1 PUSH4 0xC46D4F09 GT PUSH2 0x5B JUMPI DUP1 PUSH4 0xC46D4F09 EQ PUSH2 0xC8 JUMPI DUP1 PUSH4 0xD1EE539D EQ PUSH2 0xDB JUMPI DUP1 PUSH4 0xD4E75A88 EQ PUSH2 0xEE JUMPI DUP1 PUSH4 0xF530C04A EQ PUSH2 0xF6 JUMPI PUSH2 0x7D JUMP JUMPDEST DUP1 PUSH4 0x9B3075A1 EQ PUSH2 0x82 JUMPI DUP1 PUSH4 0xA14274E8 EQ PUSH2 0x97 JUMPI DUP1 PUSH4 0xB732269A EQ PUSH2 0xAA JUMPI JUMPDEST PUSH1 0x0 DUP1 REVERT JUMPDEST PUSH2 0x95 PUSH2 0x90 CALLDATASIZE PUSH1 0x4 PUSH2 0xA14 JUMP JUMPDEST PUSH2 0x109 JUMP JUMPDEST STOP JUMPDEST PUSH2 0x95 PUSH2 0xA5 CALLDATASIZE PUSH1 0x4 PUSH2 0xA14 JUMP JUMPDEST PUSH2 0x157 JUMP JUMPDEST PUSH2 0xB2 PUSH2 0x2CA JUMP JUMPDEST PUSH1 0x40 MLOAD PUSH2 0xBF SWAP2 SWAP1 PUSH2 0xA7B JUMP JUMPDEST PUSH1 0x40 MLOAD DUP1 SWAP2 SUB SWAP1 RETURN JUMPDEST PUSH2 0x95 PUSH2 0xD6 CALLDATASIZE PUSH1 0x4 PUSH2 0xA14 JUMP JUMPDEST PUSH2 0x2D9 JUMP JUMPDEST PUSH2 0x95 PUSH2 0xE9 CALLDATASIZE PUSH1 0x4 PUSH2 0xA14 JUMP JUMPDEST PUSH2 0x444 JUMP JUMPDEST PUSH2 0x95 PUSH2 0x5AD JUMP JUMPDEST PUSH2 0x95 PUSH2 0x104 CALLDATASIZE PUSH1 0x4 PUSH2 0xA14 JUMP JUMPDEST PUSH2 0x651 JUMP JUMPDEST PUSH1 0x0 SLOAD PUSH1 0xFF AND ISZERO PUSH2 0x135 JUMPI PUSH1 0x40 MLOAD PUSH3 0x461BCD PUSH1 0xE5 SHL DUP2 MSTORE PUSH1 0x4 ADD PUSH2 0x12C SWAP1 PUSH2 0xB3A JUMP JUMPDEST PUSH1 0x40 MLOAD DUP1 SWAP2 SUB SWAP1 REVERT JUMPDEST PUSH2 0x13E DUP2 PUSH2 0x651 JUMP JUMPDEST PUSH2 0x147 DUP2 PUSH2 0x2D9 JUMP JUMPDEST POP PUSH1 0x0 DUP1 SLOAD PUSH1 0xFF NOT AND PUSH1 0x1 OR SWAP1 SSTORE JUMP JUMPDEST PUSH2 0x15F PUSH2 0x5AD JUMP JUMPDEST PUSH1 0xB SLOAD PUSH1 0x40 MLOAD PUSH4 0x852CD8D PUSH1 0xE3 SHL DUP2 MSTORE PUSH1 0x1 PUSH1 0x1 PUSH1 0xA0 SHL SUB SWAP1 SWAP2 AND SWAP1 PUSH4 0x42966C68 SWAP1 PUSH2 0x18F SWAP1 DUP5 SWAP1 PUSH1 0x4 ADD PUSH2 0xB71 JUMP JUMPDEST PUSH1 0x0 PUSH1 0x40 MLOAD DUP1 DUP4 SUB DUP2 PUSH1 0x0 DUP8 DUP1 EXTCODESIZE ISZERO DUP1 ISZERO PUSH2 0x1A9 JUMPI PUSH1 0x0 DUP1 REVERT JUMPDEST POP GAS CALL ISZERO DUP1 ISZERO PUSH2 0x1BD JUMPI RETURNDATASIZE PUSH1 0x0 DUP1 RETURNDATACOPY RETURNDATASIZE PUSH1 0x0 REVERT JUMPDEST POP POP PUSH1 0x8 SLOAD PUSH1 0x1 PUSH1 0x1 PUSH1 0xA0 SHL SUB AND SWAP2 POP PUSH1 0x0 SWAP1 POP PUSH8 0xDE0B6B3A7640000 PUSH2 0x1E2 PUSH2 0x7BC JUMP JUMPDEST PUSH2 0x1EC SWAP1 DUP6 PUSH2 0xCC9 JUMP JUMPDEST PUSH2 0x1F6 SWAP2 SWAP1 PUSH2 0xB92 JUMP JUMPDEST PUSH1 0x40 MLOAD PUSH4 0xA9059CBB PUSH1 0xE0 SHL DUP2 MSTORE SWAP1 SWAP2 POP PUSH1 0x1 PUSH1 0x1 PUSH1 0xA0 SHL SUB DUP4 AND SWAP1 PUSH4 0xA9059CBB SWAP1 PUSH2 0x227 SWAP1 CALLER SWAP1 DUP6 SWAP1 PUSH1 0x4 ADD PUSH2 0xAB3 JUMP JUMPDEST PUSH1 0x20 PUSH1 0x40 MLOAD DUP1 DUP4 SUB DUP2 PUSH1 0x0 DUP8 DUP1 EXTCODESIZE ISZERO DUP1 ISZERO PUSH2 0x241 JUMPI PUSH1 0x0 DUP1 REVERT JUMPDEST POP GAS CALL ISZERO DUP1 ISZERO PUSH2 0x255 JUMPI RETURNDATASIZE PUSH1 0x0 DUP1 RETURNDATACOPY RETURNDATASIZE PUSH1 0x0 REVERT JUMPDEST POP POP POP POP PUSH1 0x40 MLOAD RETURNDATASIZE PUSH1 0x1F NOT PUSH1 0x1F DUP3 ADD AND DUP3 ADD DUP1 PUSH1 0x40 MSTORE POP DUP2 ADD SWAP1 PUSH2 0x279 SWAP2 SWAP1 PUSH2 0x9F4 JUMP JUMPDEST PUSH2 0x295 JUMPI PUSH1 0x40 MLOAD PUSH3 0x461BCD PUSH1 0xE5 SHL DUP2 MSTORE PUSH1 0x4 ADD PUSH2 0x12C SWAP1 PUSH2 0xACC JUMP JUMPDEST DUP3 PUSH1 0x6 PUSH1 0x0 DUP3 DUP3 SLOAD PUSH2 0x2A7 SWAP2 SWAP1 PUSH2 0xCE8 JUMP JUMPDEST SWAP3 POP POP DUP2 SWAP1 SSTORE POP DUP1 PUSH1 0x4 PUSH1 0x0 DUP3 DUP3 SLOAD PUSH2 0x2C0 SWAP2 SWAP1 PUSH2 0xCE8 JUMP JUMPDEST SWAP1 SWAP2 SSTORE POP POP POP POP POP JUMP JUMPDEST PUSH1 0x9 SLOAD PUSH1 0x1 PUSH1 0x1 PUSH1 0xA0 SHL SUB AND DUP2 JUMP JUMPDEST PUSH2 0x2E1 PUSH2 0x5AD JUMP JUMPDEST PUSH1 0xB SLOAD PUSH1 0x40 MLOAD PUSH4 0x140E25AD PUSH1 0xE3 SHL DUP2 MSTORE PUSH1 0x1 PUSH1 0x1 PUSH1 0xA0 SHL SUB SWAP1 SWAP2 AND SWAP1 PUSH4 0xA0712D68 SWAP1 PUSH2 0x311 SWAP1 DUP5 SWAP1 PUSH1 0x4 ADD PUSH2 0xB71 JUMP JUMPDEST PUSH1 0x0 PUSH1 0x40 MLOAD DUP1 DUP4 SUB DUP2 PUSH1 0x0 DUP8 DUP1 EXTCODESIZE ISZERO DUP1 ISZERO PUSH2 0x32B JUMPI PUSH1 0x0 DUP1 REVERT JUMPDEST POP GAS CALL ISZERO DUP1 ISZERO PUSH2 0x33F JUMPI RETURNDATASIZE PUSH1 0x0 DUP1 RETURNDATACOPY RETURNDATASIZE PUSH1 0x0 REVERT JUMPDEST POP POP PUSH1 0x8 SLOAD PUSH1 0x1 PUSH1 0x1 PUSH1 0xA0 SHL SUB AND SWAP2 POP PUSH1 0x0 SWAP1 POP PUSH8 0xDE0B6B3A7640000 PUSH2 0x364 PUSH2 0x7BC JUMP JUMPDEST PUSH2 0x36E SWAP1 DUP6 PUSH2 0xCC9 JUMP JUMPDEST PUSH2 0x378 SWAP2 SWAP1 PUSH2 0xB92 JUMP JUMPDEST PUSH1 0x40 MLOAD PUSH4 0x23B872DD PUSH1 0xE0 SHL DUP2 MSTORE SWAP1 SWAP2 POP PUSH1 0x1 PUSH1 0x1 PUSH1 0xA0 SHL SUB DUP4 AND SWAP1 PUSH4 0x23B872DD SWAP1 PUSH2 0x3AB SWAP1 CALLER SWAP1 ADDRESS SWAP1 DUP7 SWAP1 PUSH1 0x4 ADD PUSH2 0xA8F JUMP JUMPDEST PUSH1 0x20 PUSH1 0x40 MLOAD DUP1 DUP4 SUB DUP2 PUSH1 0x0 DUP8 DUP1 EXTCODESIZE ISZERO DUP1 ISZERO PUSH2 0x3C5 JUMPI PUSH1 0x0 DUP1 REVERT JUMPDEST POP GAS CALL ISZERO DUP1 ISZERO PUSH2 0x3D9 JUMPI RETURNDATASIZE PUSH1 0x0 DUP1 RETURNDATACOPY RETURNDATASIZE PUSH1 0x0 REVERT JUMPDEST POP POP POP POP PUSH1 0x40 MLOAD RETURNDATASIZE PUSH1 0x1F NOT PUSH1 0x1F DUP3 ADD AND DUP3 ADD DUP1 PUSH1 0x40 MSTORE POP DUP2 ADD SWAP1 PUSH2 0x3FD SWAP2 SWAP1 PUSH2 0x9F4 JUMP JUMPDEST PUSH2 0x419 JUMPI PUSH1 0x40 MLOAD PUSH3 0x461BCD PUSH1 0xE5 SHL DUP2 MSTORE PUSH1 0x4 ADD PUSH2 0x12C SWAP1 PUSH2 0xB03 JUMP JUMPDEST DUP3 PUSH1 0x6 PUSH1 0x0 DUP3 DUP3 SLOAD PUSH2 0x42B SWAP2 SWAP1 PUSH2 0xB7A JUMP JUMPDEST SWAP3 POP POP DUP2 SWAP1 SSTORE POP DUP1 PUSH1 0x4 PUSH1 0x0 DUP3 DUP3 SLOAD PUSH2 0x2C0 SWAP2 SWAP1 PUSH2 0xB7A JUMP JUMPDEST PUSH2 0x44C PUSH2 0x5AD JUMP JUMPDEST PUSH1 0xA SLOAD PUSH1 0x40 MLOAD PUSH4 0x852CD8D PUSH1 0xE3 SHL DUP2 MSTORE PUSH1 0x1 PUSH1 0x1 PUSH1 0xA0 SHL SUB SWAP1 SWAP2 AND SWAP1 PUSH4 0x42966C68 SWAP1 PUSH2 0x47C SWAP1 DUP5 SWAP1 PUSH1 0x4 ADD PUSH2 0xB71 JUMP JUMPDEST PUSH1 0x0 PUSH1 0x40 MLOAD DUP1 DUP4 SUB DUP2 PUSH1 0x0 DUP8 DUP1 EXTCODESIZE ISZERO DUP1 ISZERO PUSH2 0x496 JUMPI PUSH1 0x0 DUP1 REVERT JUMPDEST POP GAS CALL ISZERO DUP1 ISZERO PUSH2 0x4AA JUMPI RETURNDATASIZE PUSH1 0x0 DUP1 RETURNDATACOPY RETURNDATASIZE PUSH1 0x0 REVERT JUMPDEST POP POP PUSH1 0x8 SLOAD PUSH1 0x1 PUSH1 0x1 PUSH1 0xA0 SHL SUB AND SWAP2 POP PUSH1 0x0 SWAP1 POP PUSH8 0xDE0B6B3A7640000 PUSH2 0x4CF PUSH2 0x7E5 JUMP JUMPDEST PUSH2 0x4D9 SWAP1 DUP6 PUSH2 0xCC9 JUMP JUMPDEST PUSH2 0x4E3 SWAP2 SWAP1 PUSH2 0xB92 JUMP JUMPDEST PUSH1 0x40 MLOAD PUSH4 0xA9059CBB PUSH1 0xE0 SHL DUP2 MSTORE SWAP1 SWAP2 POP PUSH1 0x1 PUSH1 0x1 PUSH1 0xA0 SHL SUB DUP4 AND SWAP1 PUSH4 0xA9059CBB SWAP1 PUSH2 0x514 SWAP1 CALLER SWAP1 DUP6 SWAP1 PUSH1 0x4 ADD PUSH2 0xAB3 JUMP JUMPDEST PUSH1 0x20 PUSH1 0x40 MLOAD DUP1 DUP4 SUB DUP2 PUSH1 0x0 DUP8 DUP1 EXTCODESIZE ISZERO DUP1 ISZERO PUSH2 0x52E JUMPI PUSH1 0x0 DUP1 REVERT JUMPDEST POP GAS CALL ISZERO DUP1 ISZERO PUSH2 0x542 JUMPI RETURNDATASIZE PUSH1 0x0 DUP1 RETURNDATACOPY RETURNDATASIZE PUSH1 0x0 REVERT JUMPDEST POP POP POP POP PUSH1 0x40 MLOAD RETURNDATASIZE PUSH1 0x1F NOT PUSH1 0x1F DUP3 ADD AND DUP3 ADD DUP1 PUSH1 0x40 MSTORE POP DUP2 ADD SWAP1 PUSH2 0x566 SWAP2 SWAP1 PUSH2 0x9F4 JUMP JUMPDEST PUSH2 0x582 JUMPI PUSH1 0x40 MLOAD PUSH3 0x461BCD PUSH1 0xE5 SHL DUP2 MSTORE PUSH1 0x4 ADD PUSH2 0x12C SWAP1 PUSH2 0xACC JUMP JUMPDEST DUP3 PUSH1 0x5 PUSH1 0x0 DUP3 DUP3 SLOAD PUSH2 0x594 SWAP2 SWAP1 PUSH2 0xCE8 JUMP JUMPDEST SWAP3 POP POP DUP2 SWAP1 SSTORE POP DUP1 PUSH1 0x3 PUSH1 0x0 DUP3 DUP3 SLOAD PUSH2 0x2C0 SWAP2 SWAP1 PUSH2 0xCE8 JUMP JUMPDEST PUSH1 0x0 PUSH2 0x5B7 PUSH2 0x7F7 JUMP JUMPDEST PUSH1 0x0 SLOAD SWAP1 SWAP2 POP PUSH1 0xFF AND ISZERO PUSH2 0x64C JUMPI PUSH1 0x0 PUSH2 0x5D0 DUP3 PUSH2 0x884 JUMP JUMPDEST SWAP1 POP PUSH1 0x0 PUSH2 0x5DD DUP4 PUSH2 0x8CF JUMP JUMPDEST SGT ISZERO PUSH2 0x619 JUMPI DUP1 PUSH1 0x3 PUSH1 0x0 DUP3 DUP3 SLOAD PUSH2 0x5F5 SWAP2 SWAP1 PUSH2 0xB7A JUMP JUMPDEST SWAP3 POP POP DUP2 SWAP1 SSTORE POP DUP1 PUSH1 0x4 PUSH1 0x0 DUP3 DUP3 SLOAD PUSH2 0x60E SWAP2 SWAP1 PUSH2 0xCE8 JUMP JUMPDEST SWAP1 SWAP2 SSTORE POP PUSH2 0x64A SWAP1 POP JUMP JUMPDEST DUP1 PUSH1 0x3 PUSH1 0x0 DUP3 DUP3 SLOAD PUSH2 0x62B SWAP2 SWAP1 PUSH2 0xCE8 JUMP JUMPDEST SWAP3 POP POP DUP2 SWAP1 SSTORE POP DUP1 PUSH1 0x4 PUSH1 0x0 DUP3 DUP3 SLOAD PUSH2 0x644 SWAP2 SWAP1 PUSH2 0xB7A JUMP JUMPDEST SWAP1 SWAP2 SSTORE POP POP JUMPDEST POP JUMPDEST PUSH1 0x7 SSTORE JUMP JUMPDEST PUSH2 0x659 PUSH2 0x5AD JUMP JUMPDEST PUSH1 0xA SLOAD PUSH1 0x40 MLOAD PUSH4 0x140E25AD PUSH1 0xE3 SHL DUP2 MSTORE PUSH1 0x1 PUSH1 0x1 PUSH1 0xA0 SHL SUB SWAP1 SWAP2 AND SWAP1 PUSH4 0xA0712D68 SWAP1 PUSH2 0x689 SWAP1 DUP5 SWAP1 PUSH1 0x4 ADD PUSH2 0xB71 JUMP JUMPDEST PUSH1 0x0 PUSH1 0x40 MLOAD DUP1 DUP4 SUB DUP2 PUSH1 0x0 DUP8 DUP1 EXTCODESIZE ISZERO DUP1 ISZERO PUSH2 0x6A3 JUMPI PUSH1 0x0 DUP1 REVERT JUMPDEST POP GAS CALL ISZERO DUP1 ISZERO PUSH2 0x6B7 JUMPI RETURNDATASIZE PUSH1 0x0 DUP1 RETURNDATACOPY RETURNDATASIZE PUSH1 0x0 REVERT JUMPDEST POP POP PUSH1 0x8 SLOAD PUSH1 0x1 PUSH1 0x1 PUSH1 0xA0 SHL SUB AND SWAP2 POP PUSH1 0x0 SWAP1 POP PUSH8 0xDE0B6B3A7640000 PUSH2 0x6DC PUSH2 0x7E5 JUMP JUMPDEST PUSH2 0x6E6 SWAP1 DUP6 PUSH2 0xCC9 JUMP JUMPDEST PUSH2 0x6F0 SWAP2 SWAP1 PUSH2 0xB92 JUMP JUMPDEST PUSH1 0x40 MLOAD PUSH4 0x23B872DD PUSH1 0xE0 SHL DUP2 MSTORE SWAP1 SWAP2 POP PUSH1 0x1 PUSH1 0x1 PUSH1 0xA0 SHL SUB DUP4 AND SWAP1 PUSH4 0x23B872DD SWAP1 PUSH2 0x723 SWAP1 CALLER SWAP1 ADDRESS SWAP1 DUP7 SWAP1 PUSH1 0x4 ADD PUSH2 0xA8F JUMP JUMPDEST PUSH1 0x20 PUSH1 0x40 MLOAD DUP1 DUP4 SUB DUP2 PUSH1 0x0 DUP8 DUP1 EXTCODESIZE ISZERO DUP1 ISZERO PUSH2 0x73D JUMPI PUSH1 0x0 DUP1 REVERT JUMPDEST POP GAS CALL ISZERO DUP1 ISZERO PUSH2 0x751 JUMPI RETURNDATASIZE PUSH1 0x0 DUP1 RETURNDATACOPY RETURNDATASIZE PUSH1 0x0 REVERT JUMPDEST POP POP POP POP PUSH1 0x40 MLOAD RETURNDATASIZE PUSH1 0x1F NOT PUSH1 0x1F DUP3 ADD AND DUP3 ADD DUP1 PUSH1 0x40 MSTORE POP DUP2 ADD SWAP1 PUSH2 0x775 SWAP2 SWAP1 PUSH2 0x9F4 JUMP JUMPDEST PUSH2 0x791 JUMPI PUSH1 0x40 MLOAD PUSH3 0x461BCD PUSH1 0xE5 SHL DUP2 MSTORE PUSH1 0x4 ADD PUSH2 0x12C SWAP1 PUSH2 0xB03 JUMP JUMPDEST DUP3 PUSH1 0x5 PUSH1 0x0 DUP3 DUP3 SLOAD PUSH2 0x7A3 SWAP2 SWAP1 PUSH2 0xB7A JUMP JUMPDEST SWAP3 POP POP DUP2 SWAP1 SSTORE POP DUP1 PUSH1 0x3 PUSH1 0x0 DUP3 DUP3 SLOAD PUSH2 0x2C0 SWAP2 SWAP1 PUSH2 0xB7A JUMP JUMPDEST PUSH1 0x0 PUSH1 0x6 SLOAD PUSH1 0x4 SLOAD PUSH2 0x7CE SWAP2 SWAP1 PUSH2 0xB92 JUMP JUMPDEST PUSH2 0x7E0 SWAP1 PUSH8 0xDE0B6B3A7640000 PUSH2 0xCC9 JUMP JUMPDEST SWAP1 POP SWAP1 JUMP JUMPDEST PUSH1 0x0 PUSH1 0x5 SLOAD PUSH1 0x3 SLOAD PUSH2 0x7CE SWAP2 SWAP1 PUSH2 0xB92 JUMP JUMPDEST PUSH1 0x9 SLOAD PUSH1 0x40 DUP1 MLOAD PUSH4 0x3FABE5A3 PUSH1 0xE2 SHL DUP2 MSTORE SWAP1 MLOAD PUSH1 0x0 SWAP3 PUSH1 0x1 PUSH1 0x1 PUSH1 0xA0 SHL SUB AND SWAP2 DUP4 SWAP2 DUP4 SWAP2 PUSH4 0xFEAF968C SWAP2 PUSH1 0x4 DUP1 DUP4 ADD SWAP3 PUSH1 0xA0 SWAP3 SWAP2 SWAP1 DUP3 SWAP1 SUB ADD DUP2 DUP7 DUP1 EXTCODESIZE ISZERO DUP1 ISZERO PUSH2 0x840 JUMPI PUSH1 0x0 DUP1 REVERT JUMPDEST POP GAS STATICCALL ISZERO DUP1 ISZERO PUSH2 0x854 JUMPI RETURNDATASIZE PUSH1 0x0 DUP1 RETURNDATACOPY RETURNDATASIZE PUSH1 0x0 REVERT JUMPDEST POP POP POP POP PUSH1 0x40 MLOAD RETURNDATASIZE PUSH1 0x1F NOT PUSH1 0x1F DUP3 ADD AND DUP3 ADD DUP1 PUSH1 0x40 MSTORE POP DUP2 ADD SWAP1 PUSH2 0x878 SWAP2 SWAP1 PUSH2 0xA2C JUMP JUMPDEST POP SWAP2 SWAP6 POP POP POP POP POP POP SWAP1 JUMP JUMPDEST PUSH1 0x0 DUP1 PUSH2 0x890 DUP4 PUSH2 0x8EC JUMP JUMPDEST SWAP1 POP PUSH8 0xDE0B6B3A7640000 PUSH2 0x8A4 DUP3 PUSH2 0x94A JUMP JUMPDEST PUSH2 0x8B2 PUSH1 0x3 SLOAD PUSH1 0x4 SLOAD PUSH2 0x9C1 JUMP JUMPDEST PUSH2 0x8BC SWAP2 SWAP1 PUSH2 0xCC9 JUMP JUMPDEST PUSH2 0x8C6 SWAP2 SWAP1 PUSH2 0xB92 JUMP JUMPDEST SWAP2 POP POP JUMPDEST SWAP2 SWAP1 POP JUMP JUMPDEST PUSH1 0x0 PUSH1 0x7 SLOAD DUP3 GT ISZERO PUSH2 0x8E3 JUMPI POP PUSH1 0x1 PUSH2 0x8CA JUMP JUMPDEST POP PUSH1 0x0 NOT PUSH2 0x8CA JUMP JUMPDEST PUSH1 0x0 PUSH1 0x7 SLOAD DUP3 GT ISZERO PUSH2 0x92A JUMPI PUSH1 0x7 SLOAD PUSH8 0xDE0B6B3A7640000 SWAP1 PUSH2 0x90F DUP5 DUP4 PUSH2 0xCC9 JUMP JUMPDEST PUSH2 0x919 SWAP2 SWAP1 PUSH2 0xB92 JUMP JUMPDEST PUSH2 0x923 SWAP2 SWAP1 PUSH2 0xCE8 JUMP JUMPDEST SWAP1 POP PUSH2 0x8CA JUMP JUMPDEST PUSH8 0xDE0B6B3A7640000 DUP3 PUSH1 0x7 SLOAD PUSH8 0xDE0B6B3A7640000 PUSH2 0x90F SWAP2 SWAP1 PUSH2 0xCC9 JUMP JUMPDEST PUSH1 0x0 DUP1 PUSH2 0x958 DUP4 PUSH1 0x3 PUSH2 0xCC9 JUMP JUMPDEST PUSH8 0xDE0B6B3A7640000 PUSH2 0x96C PUSH1 0x2 DUP7 PUSH2 0xBF8 JUMP JUMPDEST PUSH2 0x976 SWAP2 SWAP1 PUSH2 0xB92 JUMP JUMPDEST PUSH2 0x981 SWAP1 PUSH1 0x9 PUSH2 0xCC9 JUMP JUMPDEST PUSH2 0x98B SWAP2 SWAP1 PUSH2 0xB7A JUMP JUMPDEST PUSH2 0x99D SWAP1 PUSH8 0xDE0B6B3A7640000 PUSH2 0xB7A JUMP JUMPDEST SWAP1 POP PUSH15 0xC097CE7BC90715B34B9F1000000000 PUSH2 0x9B9 DUP3 DUP3 PUSH2 0xB92 JUMP JUMPDEST SWAP5 SWAP4 POP POP POP POP JUMP JUMPDEST PUSH1 0x0 DUP2 DUP4 GT ISZERO PUSH2 0x9D1 JUMPI DUP2 PUSH2 0x9D3 JUMP JUMPDEST DUP3 JUMPDEST SWAP4 SWAP3 POP POP POP JUMP JUMPDEST DUP1 MLOAD PUSH10 0xFFFFFFFFFFFFFFFFFFFF DUP2 AND DUP2 EQ PUSH2 0x8CA JUMPI PUSH1 0x0 DUP1 REVERT JUMPDEST PUSH1 0x0 PUSH1 0x20 DUP3 DUP5 SUB SLT ISZERO PUSH2 0xA05 JUMPI DUP1 DUP2 REVERT JUMPDEST DUP2 MLOAD DUP1 ISZERO ISZERO DUP2 EQ PUSH2 0x9D3 JUMPI DUP2 DUP3 REVERT JUMPDEST PUSH1 0x0 PUSH1 0x20 DUP3 DUP5 SUB SLT ISZERO PUSH2 0xA25 JUMPI DUP1 DUP2 REVERT JUMPDEST POP CALLDATALOAD SWAP2 SWAP1 POP JUMP JUMPDEST PUSH1 0x0 DUP1 PUSH1 0x0 DUP1 PUSH1 0x0 PUSH1 0xA0 DUP7 DUP9 SUB SLT ISZERO PUSH2 0xA43 JUMPI DUP1 DUP2 REVERT JUMPDEST PUSH2 0xA4C DUP7 PUSH2 0x9DA JUMP JUMPDEST SWAP5 POP PUSH1 0x20 DUP7 ADD MLOAD SWAP4 POP PUSH1 0x40 DUP7 ADD MLOAD SWAP3 POP PUSH1 0x60 DUP7 ADD MLOAD SWAP2 POP PUSH2 0xA6F PUSH1 0x80 DUP8 ADD PUSH2 0x9DA JUMP JUMPDEST SWAP1 POP SWAP3 SWAP6 POP SWAP3 SWAP6 SWAP1 SWAP4 POP JUMP JUMPDEST PUSH1 0x1 PUSH1 0x1 PUSH1 0xA0 SHL SUB SWAP2 SWAP1 SWAP2 AND DUP2 MSTORE PUSH1 0x20 ADD SWAP1 JUMP JUMPDEST PUSH1 0x1 PUSH1 0x1 PUSH1 0xA0 SHL SUB SWAP4 DUP5 AND DUP2 MSTORE SWAP2 SWAP1 SWAP3 AND PUSH1 0x20 DUP3 ADD MSTORE PUSH1 0x40 DUP2 ADD SWAP2 SWAP1 SWAP2 MSTORE PUSH1 0x60 ADD SWAP1 JUMP JUMPDEST PUSH1 0x1 PUSH1 0x1 PUSH1 0xA0 SHL SUB SWAP3 SWAP1 SWAP3 AND DUP3 MSTORE PUSH1 0x20 DUP3 ADD MSTORE PUSH1 0x40 ADD SWAP1 JUMP JUMPDEST PUSH1 0x20 DUP1 DUP3 MSTORE PUSH1 0x19 SWAP1 DUP3 ADD MSTORE PUSH32 0x4E6F7420656E6F756768207573646320617661696C61626C6500000000000000 PUSH1 0x40 DUP3 ADD MSTORE PUSH1 0x60 ADD SWAP1 JUMP JUMPDEST PUSH1 0x20 DUP1 DUP3 MSTORE PUSH1 0x1A SWAP1 DUP3 ADD MSTORE PUSH32 0x596F7520646F6E2774206861766520656E6F7567682055534443000000000000 PUSH1 0x40 DUP3 ADD MSTORE PUSH1 0x60 ADD SWAP1 JUMP JUMPDEST PUSH1 0x20 DUP1 DUP3 MSTORE PUSH1 0x1F SWAP1 DUP3 ADD MSTORE PUSH32 0x54686520706F6F6C2077617320616C726561647920696E697469617465642E00 PUSH1 0x40 DUP3 ADD MSTORE PUSH1 0x60 ADD SWAP1 JUMP JUMPDEST SWAP1 DUP2 MSTORE PUSH1 0x20 ADD SWAP1 JUMP JUMPDEST PUSH1 0x0 DUP3 NOT DUP3 GT ISZERO PUSH2 0xB8D JUMPI PUSH2 0xB8D PUSH2 0xCFF JUMP JUMPDEST POP ADD SWAP1 JUMP JUMPDEST PUSH1 0x0 DUP3 PUSH2 0xBAD JUMPI PUSH4 0x4E487B71 PUSH1 0xE0 SHL DUP2 MSTORE PUSH1 0x12 PUSH1 0x4 MSTORE PUSH1 0x24 DUP2 REVERT JUMPDEST POP DIV SWAP1 JUMP JUMPDEST DUP1 DUP3 JUMPDEST PUSH1 0x1 DUP1 DUP7 GT PUSH2 0xBC4 JUMPI POP PUSH2 0xBEF JUMP JUMPDEST DUP2 DUP8 DIV DUP3 GT ISZERO PUSH2 0xBD6 JUMPI PUSH2 0xBD6 PUSH2 0xCFF JUMP JUMPDEST DUP1 DUP7 AND ISZERO PUSH2 0xBE3 JUMPI SWAP2 DUP2 MUL SWAP2 JUMPDEST SWAP5 SWAP1 SWAP5 SHR SWAP4 DUP1 MUL PUSH2 0xBB5 JUMP JUMPDEST SWAP5 POP SWAP5 SWAP3 POP POP POP JUMP JUMPDEST PUSH1 0x0 PUSH2 0x9D3 PUSH1 0x0 NOT PUSH1 0xFF DUP6 AND DUP5 PUSH1 0x0 DUP3 PUSH2 0xC14 JUMPI POP PUSH1 0x1 PUSH2 0x9D3 JUMP JUMPDEST DUP2 PUSH2 0xC21 JUMPI POP PUSH1 0x0 PUSH2 0x9D3 JUMP JUMPDEST DUP2 PUSH1 0x1 DUP2 EQ PUSH2 0xC37 JUMPI PUSH1 0x2 DUP2 EQ PUSH2 0xC41 JUMPI PUSH2 0xC6E JUMP JUMPDEST PUSH1 0x1 SWAP2 POP POP PUSH2 0x9D3 JUMP JUMPDEST PUSH1 0xFF DUP5 GT ISZERO PUSH2 0xC52 JUMPI PUSH2 0xC52 PUSH2 0xCFF JUMP JUMPDEST PUSH1 0x1 DUP5 SHL SWAP2 POP DUP5 DUP3 GT ISZERO PUSH2 0xC68 JUMPI PUSH2 0xC68 PUSH2 0xCFF JUMP JUMPDEST POP PUSH2 0x9D3 JUMP JUMPDEST POP PUSH1 0x20 DUP4 LT PUSH2 0x133 DUP4 LT AND PUSH1 0x4E DUP5 LT PUSH1 0xB DUP5 LT AND OR ISZERO PUSH2 0xCA1 JUMPI POP DUP2 DUP2 EXP DUP4 DUP2 GT ISZERO PUSH2 0xC9C JUMPI PUSH2 0xC9C PUSH2 0xCFF JUMP JUMPDEST PUSH2 0x9D3 JUMP JUMPDEST PUSH2 0xCAE DUP5 DUP5 DUP5 PUSH1 0x1 PUSH2 0xBB2 JUMP JUMPDEST DUP1 DUP7 DIV DUP3 GT ISZERO PUSH2 0xCC0 JUMPI PUSH2 0xCC0 PUSH2 0xCFF JUMP JUMPDEST MUL SWAP5 SWAP4 POP POP POP POP JUMP JUMPDEST PUSH1 0x0 DUP2 PUSH1 0x0 NOT DIV DUP4 GT DUP3 ISZERO ISZERO AND ISZERO PUSH2 0xCE3 JUMPI PUSH2 0xCE3 PUSH2 0xCFF JUMP JUMPDEST POP MUL SWAP1 JUMP JUMPDEST PUSH1 0x0 DUP3 DUP3 LT ISZERO PUSH2 0xCFA JUMPI PUSH2 0xCFA PUSH2 0xCFF JUMP JUMPDEST POP SUB SWAP1 JUMP JUMPDEST PUSH4 0x4E487B71 PUSH1 0xE0 SHL PUSH1 0x0 MSTORE PUSH1 0x11 PUSH1 0x4 MSTORE PUSH1 0x24 PUSH1 0x0 REVERT INVALID LOG2 PUSH5 0x6970667358 0x22 SLT KECCAK256 0x5F EXTCODEHASH PUSH31 0x2483878DB7BA6BF874D5B47AA0E2AD29FE2F64F5E50BBEE9283D177B5E6473 PUSH16 0x6C634300080000330000000000000000 ",
  "sha1": "c2464153cf70d4ec698e09ba933a59bd3c4f25a3",
  "source": "// SPDX-License-Identifier: MIT\npragma solidity ^0.8.0;\n\nimport { ERC20 } from \"@openzeppelin/contracts/token/ERC20/ERC20.sol\";\nimport \"@chainlink/contracts/src/v0.8/interfaces/AggregatorV3Interface.sol\";\n\n\ninterface IERC20 {\n    function transfer(address recipient, uint256 amount) external returns (bool);\n    function transferFrom(address sender, address recipient, uint256 amount) external returns (bool);\n}\n\n\n\ncontract BTCUP is ERC20{\n    constructor() ERC20(\"Bitcoin Up\", \"BTCUP\") {\n    }\n\n    function mint(uint256 quantity) public{\n        _mint(msg.sender, quantity);\n    }\n\n    function burn(uint256 quantity) public{\n        _burn(msg.sender, quantity);\n    }\n}\n\n\ncontract BTCDOWN is ERC20{\n    constructor() ERC20(\"Bitcoin Down\", \"BTCDOWN\") {\n    }\n\n    function mint(uint256 quantity) public{\n        _mint(msg.sender, quantity);\n    }\n\n    function burn(uint256 quantity) public{\n        _burn(msg.sender, quantity);\n    }\n}\n\n\n\ncontract LeverageTrading{\n\n    bool poolIsInitiated = false;\n\n    uint256 priceBtcUp = 10 ** 18;\n    uint256 priceBtcDown = 10 ** 18;\n\n    uint256 collateralBtcUp = 0;\n    uint256 collateralBtcDown = 0;\n\n    uint256 amountBtcUp = 0;\n    uint256 amountBtcDown = 0;\n\n    uint256 lastBtcPrice = 0;\n\n    address addressUsdc = 0xb7a4F3E9097C08dA09517b5aB877F7a917224ede;  // <- Kovan  //0xeb8f08a975Ab53E34D8a0330E0D34de942C95926;\n    address public addressBtcUSDFeed =  0x6135b13325bfC4B00278B4abC5e20bbce2D6580e; // <- Kovan          // 0xECe365B379E1dD183B20fc5f022230C044d51404;\n\n\n    BTCUP btcUp = new BTCUP();\n    BTCDOWN btcDown = new BTCDOWN();\n\n\n    function initiatePool(uint256 amountLeverageTokens) public {\n        require(!poolIsInitiated, \"The pool was already initiated.\");\n        issueBtcUp(amountLeverageTokens);\n        issueBtcDown(amountLeverageTokens);\n\n        poolIsInitiated = true;\n    }\n\n\n\n    function issueBtcUp(uint256 amountLeverageTokens) public {\n        rebalanceLeverageTokens();\n        btcUp.mint(amountLeverageTokens);\n\n        IERC20 usdc = IERC20(addressUsdc);\n        uint256 amountUsdc = amountLeverageTokens * getBtcUpPrice() / 10 ** 18;\n        require(usdc.transferFrom(msg.sender, address(this), amountUsdc), \"You don't have enough USDC\");\n\n        amountBtcUp += amountLeverageTokens;\n        collateralBtcUp += amountUsdc;\n    }\n\n\n\n    function issueBtcDown(uint256 amountLeverageTokens) public {\n        rebalanceLeverageTokens();\n        btcDown.mint(amountLeverageTokens);\n\n        IERC20 usdc = IERC20(addressUsdc);\n        uint256 amountUsdc = amountLeverageTokens * getBtcDownPrice() / 10 ** 18;\n        require(usdc.transferFrom(msg.sender, address(this), amountUsdc), \"You don't have enough USDC\");\n\n        amountBtcDown += amountLeverageTokens;\n        collateralBtcDown += amountUsdc;\n    }\n\n\n\n    function redeemBtcUp(uint256 amountLeverageTokens) public {\n        rebalanceLeverageTokens();\n        btcUp.burn(amountLeverageTokens);\n\n        IERC20 usdc = IERC20(addressUsdc);\n        uint256 amountUsdc = amountLeverageTokens * getBtcUpPrice() / 10 ** 18;\n        require(usdc.transfer(msg.sender, amountUsdc), \"Not enough usdc available\");\n\n        amountBtcUp -= amountLeverageTokens;\n        collateralBtcUp -= amountUsdc;\n    }\n\n\n\n    function redeemBtcDown(uint256 amountLeverageTokens) public {\n        rebalanceLeverageTokens();\n        btcDown.burn(amountLeverageTokens);\n\n        IERC20 usdc = IERC20(addressUsdc);\n        uint256 amountUsdc = amountLeverageTokens * getBtcDownPrice() / 10 ** 18;\n        require(usdc.transfer(msg.sender,  amountUsdc), \"Not enough usdc available\");\n\n        amountBtcDown -= amountLeverageTokens;\n        collateralBtcDown -= amountUsdc;\n    }\n\n\n\n    function rebalanceLeverageTokens() public {\n        uint256 btcPrice = getBtcPrice();\n        if (poolIsInitiated) {\n            uint256 rebalanceAmount = getRebalanceAmount(btcPrice);\n            if (getSign(btcPrice) > 0) {\n                collateralBtcUp += rebalanceAmount;\n                collateralBtcDown -= rebalanceAmount;\n            }\n\n            else {\n                collateralBtcUp -= rebalanceAmount;\n                collateralBtcDown += rebalanceAmount;\n            }\n\n        }\n\n        lastBtcPrice = btcPrice;\n    }\n\n/////////////////////////////////////////////////////////////////////////////////////////////////////////////////////////////////////////////////////////////////////////\n\n    function getSign(uint256 btcPrice) internal view returns (int256){\n        if (btcPrice > lastBtcPrice) {\n            return 1;\n        }\n        else {\n            return -1;\n        }\n    }\n\n \n    function getRebalanceAmount(uint256 priceBtc) internal view returns (uint256){\n        uint256 priceDiff = getPriceDiff(priceBtc);\n        return min(collateralBtcUp, collateralBtcDown) * L(priceDiff) / 10 ** 18;\n    }\n\n\n// getBtcUpPrice() 18 decimals\n    function getBtcUpPrice() internal view returns (uint256) {\n        return collateralBtcUp / amountBtcUp * 10 ** 18;\n    }\n\n\n// getBtcDownPrice() 18 decimals\n    function getBtcDownPrice() internal view returns (uint256) {//18 decimals\n        return collateralBtcDown / amountBtcDown * 10 ** 18;\n    }\n\n\n// get the price of our asset with 18 decimals\n    function getBtcPrice() internal view returns (uint256) {\n        AggregatorV3Interface priceFeed = AggregatorV3Interface(addressBtcUSDFeed);\n        (,int256 answer,,,) = priceFeed.latestRoundData();\n\n         return uint256(answer);             // we call chainlink oracle to get the price of the asset\n         \n    }\n\n    \n    function min(uint256 a, uint256 b) internal pure returns (uint256) {\n        return a <= b ? a : b;\n    }\n\n\n\n    function L(uint256 x) internal pure returns (uint256) {            //18 decimals\n\n        uint256 denom = 9 * (x ** 2 / 10 ** 18)  + 3 * x + 10 ** 18;\n        uint256 num = 10 ** 36;\n\n        return num / denom;\n    } \n\n\n    function getPriceDiff(uint256 btcPrice) internal view returns (uint256) {\n        if (btcPrice> lastBtcPrice) {\n            return 10 ** 18 * btcPrice / lastBtcPrice - 10 ** 18;\n        }\n\n        else {\n            return 10 ** 18 * lastBtcPrice / btcPrice - 10 ** 18;\n        }\n\n    }\n\n\n}",
  "sourcePath": "contracts/LeverageTrading.sol",
  "type": "contract"
}